{
	"Contracts/DepositGame.sol": {
		"DepositGame": {
			"abi": [
				{
					"inputs": [
						{
							"internalType": "string",
							"name": "_name",
							"type": "string"
						},
						{
							"internalType": "string",
							"name": "_description",
							"type": "string"
						},
						{
							"internalType": "uint256",
							"name": "_goal",
							"type": "uint256"
						},
						{
							"internalType": "uint256",
							"name": "_durationInDays",
							"type": "uint256"
						},
						{
							"internalType": "uint256",
							"name": "_ownerPercent",
							"type": "uint256"
						}
					],
					"stateMutability": "nonpayable",
					"type": "constructor"
				},
				{
					"anonymous": false,
					"inputs": [
						{
							"indexed": false,
							"internalType": "string",
							"name": "_message",
							"type": "string"
						},
						{
							"indexed": false,
							"internalType": "address",
							"name": "_sender",
							"type": "address"
						},
						{
							"indexed": false,
							"internalType": "uint256",
							"name": "_time",
							"type": "uint256"
						}
					],
					"name": "Deposited",
					"type": "event"
				},
				{
					"anonymous": false,
					"inputs": [
						{
							"indexed": false,
							"internalType": "string",
							"name": "_message",
							"type": "string"
						},
						{
							"indexed": true,
							"internalType": "address",
							"name": "_winnder",
							"type": "address"
						},
						{
							"indexed": false,
							"internalType": "uint256",
							"name": "_winAmount",
							"type": "uint256"
						},
						{
							"indexed": false,
							"internalType": "uint256",
							"name": "_numberOfDeposits",
							"type": "uint256"
						},
						{
							"indexed": false,
							"internalType": "uint256",
							"name": "_time",
							"type": "uint256"
						}
					],
					"name": "GameCompleted",
					"type": "event"
				},
				{
					"anonymous": false,
					"inputs": [
						{
							"indexed": false,
							"internalType": "string",
							"name": "_message",
							"type": "string"
						},
						{
							"indexed": false,
							"internalType": "uint256",
							"name": "_time",
							"type": "uint256"
						}
					],
					"name": "GamePaused",
					"type": "event"
				},
				{
					"anonymous": false,
					"inputs": [
						{
							"indexed": false,
							"internalType": "string",
							"name": "_message",
							"type": "string"
						},
						{
							"indexed": false,
							"internalType": "uint256",
							"name": "_goal",
							"type": "uint256"
						},
						{
							"indexed": false,
							"internalType": "uint256",
							"name": "_time",
							"type": "uint256"
						}
					],
					"name": "GameStarted",
					"type": "event"
				},
				{
					"anonymous": false,
					"inputs": [
						{
							"indexed": false,
							"internalType": "string",
							"name": "_message",
							"type": "string"
						},
						{
							"indexed": false,
							"internalType": "uint256",
							"name": "_time",
							"type": "uint256"
						}
					],
					"name": "GameTerminated",
					"type": "event"
				},
				{
					"anonymous": false,
					"inputs": [
						{
							"indexed": false,
							"internalType": "string",
							"name": "_message",
							"type": "string"
						},
						{
							"indexed": false,
							"internalType": "uint256",
							"name": "_time",
							"type": "uint256"
						}
					],
					"name": "GameUnpaused",
					"type": "event"
				},
				{
					"anonymous": false,
					"inputs": [
						{
							"indexed": false,
							"internalType": "string",
							"name": "_message",
							"type": "string"
						},
						{
							"indexed": false,
							"internalType": "address",
							"name": "_sender",
							"type": "address"
						},
						{
							"indexed": false,
							"internalType": "uint256",
							"name": "_value",
							"type": "uint256"
						},
						{
							"indexed": false,
							"internalType": "uint256",
							"name": "_time",
							"type": "uint256"
						}
					],
					"name": "MyDepositWithdrawn",
					"type": "event"
				},
				{
					"anonymous": false,
					"inputs": [
						{
							"indexed": false,
							"internalType": "string",
							"name": "_message",
							"type": "string"
						},
						{
							"indexed": false,
							"internalType": "address",
							"name": "_oldOwner",
							"type": "address"
						},
						{
							"indexed": false,
							"internalType": "address",
							"name": "_newOwner",
							"type": "address"
						},
						{
							"indexed": false,
							"internalType": "uint256",
							"name": "_time",
							"type": "uint256"
						}
					],
					"name": "OwnerChange",
					"type": "event"
				},
				{
					"anonymous": false,
					"inputs": [
						{
							"indexed": false,
							"internalType": "string",
							"name": "_message",
							"type": "string"
						},
						{
							"indexed": true,
							"internalType": "address",
							"name": "_owner",
							"type": "address"
						},
						{
							"indexed": false,
							"internalType": "uint256",
							"name": "_value",
							"type": "uint256"
						},
						{
							"indexed": false,
							"internalType": "uint256",
							"name": "_time",
							"type": "uint256"
						}
					],
					"name": "WithDrawValue",
					"type": "event"
				},
				{
					"inputs": [
						{
							"internalType": "address",
							"name": "_newOwner",
							"type": "address"
						}
					],
					"name": "changeOwner",
					"outputs": [],
					"stateMutability": "nonpayable",
					"type": "function"
				},
				{
					"inputs": [],
					"name": "completeGame",
					"outputs": [],
					"stateMutability": "nonpayable",
					"type": "function"
				},
				{
					"inputs": [],
					"name": "deadLine",
					"outputs": [
						{
							"internalType": "uint256",
							"name": "",
							"type": "uint256"
						}
					],
					"stateMutability": "view",
					"type": "function"
				},
				{
					"inputs": [
						{
							"internalType": "address",
							"name": "",
							"type": "address"
						}
					],
					"name": "deposits",
					"outputs": [
						{
							"internalType": "uint256",
							"name": "amount",
							"type": "uint256"
						},
						{
							"internalType": "uint256",
							"name": "timeStamp",
							"type": "uint256"
						}
					],
					"stateMutability": "view",
					"type": "function"
				},
				{
					"inputs": [],
					"name": "description",
					"outputs": [
						{
							"internalType": "string",
							"name": "",
							"type": "string"
						}
					],
					"stateMutability": "view",
					"type": "function"
				},
				{
					"inputs": [],
					"name": "getContractBalance",
					"outputs": [
						{
							"internalType": "uint256",
							"name": "",
							"type": "uint256"
						}
					],
					"stateMutability": "view",
					"type": "function"
				},
				{
					"inputs": [],
					"name": "getGameStatus",
					"outputs": [
						{
							"internalType": "enum DepositGame.GameStatus",
							"name": "",
							"type": "uint8"
						}
					],
					"stateMutability": "view",
					"type": "function"
				},
				{
					"inputs": [],
					"name": "getMyDeposit",
					"outputs": [
						{
							"internalType": "uint256",
							"name": "",
							"type": "uint256"
						}
					],
					"stateMutability": "view",
					"type": "function"
				},
				{
					"inputs": [],
					"name": "goal",
					"outputs": [
						{
							"internalType": "uint256",
							"name": "",
							"type": "uint256"
						}
					],
					"stateMutability": "view",
					"type": "function"
				},
				{
					"inputs": [],
					"name": "makeDepsit",
					"outputs": [],
					"stateMutability": "payable",
					"type": "function"
				},
				{
					"inputs": [],
					"name": "name",
					"outputs": [
						{
							"internalType": "string",
							"name": "",
							"type": "string"
						}
					],
					"stateMutability": "view",
					"type": "function"
				},
				{
					"inputs": [],
					"name": "owner",
					"outputs": [
						{
							"internalType": "address",
							"name": "",
							"type": "address"
						}
					],
					"stateMutability": "view",
					"type": "function"
				},
				{
					"inputs": [],
					"name": "ownerPercent",
					"outputs": [
						{
							"internalType": "uint256",
							"name": "",
							"type": "uint256"
						}
					],
					"stateMutability": "view",
					"type": "function"
				},
				{
					"inputs": [
						{
							"internalType": "uint256",
							"name": "",
							"type": "uint256"
						}
					],
					"name": "participants",
					"outputs": [
						{
							"internalType": "address",
							"name": "",
							"type": "address"
						}
					],
					"stateMutability": "view",
					"type": "function"
				},
				{
					"inputs": [],
					"name": "pauseGame",
					"outputs": [],
					"stateMutability": "nonpayable",
					"type": "function"
				},
				{
					"inputs": [],
					"name": "refund",
					"outputs": [],
					"stateMutability": "nonpayable",
					"type": "function"
				},
				{
					"inputs": [],
					"name": "startGame",
					"outputs": [],
					"stateMutability": "nonpayable",
					"type": "function"
				},
				{
					"inputs": [],
					"name": "terminateGame",
					"outputs": [],
					"stateMutability": "nonpayable",
					"type": "function"
				},
				{
					"inputs": [],
					"name": "unPauseGame",
					"outputs": [],
					"stateMutability": "nonpayable",
					"type": "function"
				},
				{
					"stateMutability": "payable",
					"type": "receive"
				}
			],
			"devdoc": {
				"kind": "dev",
				"methods": {},
				"version": 1
			},
			"evm": {
				"assembly": "    /* \"Contracts/DepositGame.sol\":62:8393  contract DepositGame  {... */\n  mstore(0x40, 0x80)\n    /* \"Contracts/DepositGame.sol\":497:1413  constructor(... */\n  callvalue\n  dup1\n  iszero\n  tag_1\n  jumpi\n  revert(0x00, 0x00)\ntag_1:\n  pop\n  mload(0x40)\n  sub(codesize, bytecodeSize)\n  dup1\n  bytecodeSize\n  dup4\n  codecopy\n  dup2\n  dup2\n  add\n  0x40\n  mstore\n  dup2\n  add\n  swap1\n  tag_2\n  swap2\n  swap1\n  tag_3\n  jump\t// in\ntag_2:\n    /* \"Contracts/DepositGame.sol\":714:715  0 */\n  0x00\n    /* \"Contracts/DepositGame.sol\":692:716  msg.sender != address(0) */\n  0xffffffffffffffffffffffffffffffffffffffff\n  and\n    /* \"Contracts/DepositGame.sol\":692:702  msg.sender */\n  caller\n    /* \"Contracts/DepositGame.sol\":692:716  msg.sender != address(0) */\n  0xffffffffffffffffffffffffffffffffffffffff\n  and\n  sub\n    /* \"Contracts/DepositGame.sol\":684:737  require(msg.sender != address(0), \"Invalid address.\") */\n  tag_6\n  jumpi\n  mload(0x40)\n  0x08c379a000000000000000000000000000000000000000000000000000000000\n  dup2\n  mstore\n  0x04\n  add\n  tag_7\n  swap1\n  tag_8\n  jump\t// in\ntag_7:\n  mload(0x40)\n  dup1\n  swap2\n  sub\n  swap1\n  revert\ntag_6:\n    /* \"Contracts/DepositGame.sol\":778:779  0 */\n  0x00\n    /* \"Contracts/DepositGame.sol\":762:767  _name */\n  dup6\n    /* \"Contracts/DepositGame.sol\":756:775  bytes(_name).length */\n  mload\n    /* \"Contracts/DepositGame.sol\":756:779  bytes(_name).length > 0 */\n  gt\n    /* \"Contracts/DepositGame.sol\":748:806  require(bytes(_name).length > 0, \"Name can not be empry.\") */\n  tag_9\n  jumpi\n  mload(0x40)\n  0x08c379a000000000000000000000000000000000000000000000000000000000\n  dup2\n  mstore\n  0x04\n  add\n  tag_10\n  swap1\n  tag_11\n  jump\t// in\ntag_10:\n  mload(0x40)\n  dup1\n  swap2\n  sub\n  swap1\n  revert\ntag_9:\n    /* \"Contracts/DepositGame.sol\":854:855  0 */\n  0x00\n    /* \"Contracts/DepositGame.sol\":831:843  _description */\n  dup5\n    /* \"Contracts/DepositGame.sol\":825:851  bytes(_description).length */\n  mload\n    /* \"Contracts/DepositGame.sol\":825:855  bytes(_description).length > 0 */\n  gt\n    /* \"Contracts/DepositGame.sol\":817:889  require(bytes(_description).length > 0, \"Description can not be empty.\") */\n  tag_12\n  jumpi\n  mload(0x40)\n  0x08c379a000000000000000000000000000000000000000000000000000000000\n  dup2\n  mstore\n  0x04\n  add\n  tag_13\n  swap1\n  tag_14\n  jump\t// in\ntag_13:\n  mload(0x40)\n  dup1\n  swap2\n  sub\n  swap1\n  revert\ntag_12:\n    /* \"Contracts/DepositGame.sol\":916:917  0 */\n  0x00\n    /* \"Contracts/DepositGame.sol\":908:913  _goal */\n  dup4\n    /* \"Contracts/DepositGame.sol\":908:917  _goal > 0 */\n  gt\n    /* \"Contracts/DepositGame.sol\":900:944  require(_goal > 0, \"Goal must be positive.\") */\n  tag_15\n  jumpi\n  mload(0x40)\n  0x08c379a000000000000000000000000000000000000000000000000000000000\n  dup2\n  mstore\n  0x04\n  add\n  tag_16\n  swap1\n  tag_17\n  jump\t// in\ntag_16:\n  mload(0x40)\n  dup1\n  swap2\n  sub\n  swap1\n  revert\ntag_15:\n    /* \"Contracts/DepositGame.sol\":981:982  0 */\n  0x00\n    /* \"Contracts/DepositGame.sol\":963:978  _durationInDays */\n  dup3\n    /* \"Contracts/DepositGame.sol\":963:982  _durationInDays > 0 */\n  gt\n    /* \"Contracts/DepositGame.sol\":955:1013  require(_durationInDays > 0, \"Duration must be positive.\") */\n  tag_18\n  jumpi\n  mload(0x40)\n  0x08c379a000000000000000000000000000000000000000000000000000000000\n  dup2\n  mstore\n  0x04\n  add\n  tag_19\n  swap1\n  tag_20\n  jump\t// in\ntag_19:\n  mload(0x40)\n  dup1\n  swap2\n  sub\n  swap1\n  revert\ntag_18:\n    /* \"Contracts/DepositGame.sol\":1049:1052  100 */\n  0x64\n    /* \"Contracts/DepositGame.sol\":1032:1045  _ownerPercent */\n  dup2\n    /* \"Contracts/DepositGame.sol\":1032:1052  _ownerPercent <= 100 */\n  gt\n  iszero\n    /* \"Contracts/DepositGame.sol\":1032:1073  _ownerPercent <= 100 || _ownerPercent > 0 */\n  dup1\n  tag_21\n  jumpi\n  pop\n    /* \"Contracts/DepositGame.sol\":1072:1073  0 */\n  0x00\n    /* \"Contracts/DepositGame.sol\":1056:1069  _ownerPercent */\n  dup2\n    /* \"Contracts/DepositGame.sol\":1056:1073  _ownerPercent > 0 */\n  gt\n    /* \"Contracts/DepositGame.sol\":1032:1073  _ownerPercent <= 100 || _ownerPercent > 0 */\ntag_21:\n    /* \"Contracts/DepositGame.sol\":1024:1110  require(_ownerPercent <= 100 || _ownerPercent > 0, \"Percent must be between 0 - 100.\") */\n  tag_22\n  jumpi\n  mload(0x40)\n  0x08c379a000000000000000000000000000000000000000000000000000000000\n  dup2\n  mstore\n  0x04\n  add\n  tag_23\n  swap1\n  tag_24\n  jump\t// in\ntag_23:\n  mload(0x40)\n  dup1\n  swap2\n  sub\n  swap1\n  revert\ntag_22:\n    /* \"Contracts/DepositGame.sol\":1139:1149  msg.sender */\n  caller\n    /* \"Contracts/DepositGame.sol\":1131:1136  owner */\n  0x02\n  0x00\n    /* \"Contracts/DepositGame.sol\":1131:1149  owner = msg.sender */\n  0x0100\n  exp\n  dup2\n  sload\n  dup2\n  0xffffffffffffffffffffffffffffffffffffffff\n  mul\n  not\n  and\n  swap1\n  dup4\n  0xffffffffffffffffffffffffffffffffffffffff\n  and\n  mul\n  or\n  swap1\n  sstore\n  pop\n    /* \"Contracts/DepositGame.sol\":1173:1192  GameStatus.INACTIVE */\n  0x00\n    /* \"Contracts/DepositGame.sol\":1160:1170  gameStatus */\n  0x09\n  0x00\n    /* \"Contracts/DepositGame.sol\":1160:1192  gameStatus = GameStatus.INACTIVE */\n  0x0100\n  exp\n  dup2\n  sload\n  dup2\n  0xff\n  mul\n  not\n  and\n  swap1\n  dup4\n  0x05\n  dup2\n  gt\n  iszero\n  tag_25\n  jumpi\n  tag_26\n  tag_27\n  jump\t// in\ntag_26:\ntag_25:\n  mul\n  or\n  swap1\n  sstore\n  pop\n    /* \"Contracts/DepositGame.sol\":1210:1215  _name */\n  dup5\n    /* \"Contracts/DepositGame.sol\":1203:1207  name */\n  0x00\n    /* \"Contracts/DepositGame.sol\":1203:1215  name = _name */\n  swap1\n  dup2\n  tag_28\n  swap2\n  swap1\n  tag_29\n  jump\t// in\ntag_28:\n  pop\n    /* \"Contracts/DepositGame.sol\":1240:1252  _description */\n  dup4\n    /* \"Contracts/DepositGame.sol\":1226:1237  description */\n  0x01\n    /* \"Contracts/DepositGame.sol\":1226:1252  description = _description */\n  swap1\n  dup2\n  tag_30\n  swap2\n  swap1\n  tag_29\n  jump\t// in\ntag_30:\n  pop\n    /* \"Contracts/DepositGame.sol\":1270:1275  _goal */\n  dup3\n    /* \"Contracts/DepositGame.sol\":1263:1267  goal */\n  0x03\n    /* \"Contracts/DepositGame.sol\":1263:1275  goal = _goal */\n  dup2\n  swap1\n  sstore\n  pop\n    /* \"Contracts/DepositGame.sol\":1301:1314  _ownerPercent */\n  dup1\n    /* \"Contracts/DepositGame.sol\":1286:1298  ownerPercent */\n  0x05\n    /* \"Contracts/DepositGame.sol\":1286:1314  ownerPercent = _ownerPercent */\n  dup2\n  swap1\n  sstore\n  pop\n    /* \"Contracts/DepositGame.sol\":1338:1339  0 */\n  0x00\n    /* \"Contracts/DepositGame.sol\":1325:1335  maxDeposit */\n  0x07\n    /* \"Contracts/DepositGame.sol\":1325:1339  maxDeposit = 0 */\n  dup2\n  swap1\n  sstore\n  pop\n    /* \"Contracts/DepositGame.sol\":1398:1404  1 days */\n  0x015180\n    /* \"Contracts/DepositGame.sol\":1380:1395  _durationInDays */\n  dup3\n    /* \"Contracts/DepositGame.sol\":1380:1404  _durationInDays * 1 days */\n  tag_31\n  swap2\n  swap1\n  tag_32\n  jump\t// in\ntag_31:\n    /* \"Contracts/DepositGame.sol\":1361:1376  block.timestamp */\n  timestamp\n    /* \"Contracts/DepositGame.sol\":1361:1405  block.timestamp + (_durationInDays * 1 days) */\n  tag_33\n  swap2\n  swap1\n  tag_34\n  jump\t// in\ntag_33:\n    /* \"Contracts/DepositGame.sol\":1350:1358  deadLine */\n  0x04\n    /* \"Contracts/DepositGame.sol\":1350:1405  deadLine = block.timestamp + (_durationInDays * 1 days) */\n  dup2\n  swap1\n  sstore\n  pop\n    /* \"Contracts/DepositGame.sol\":497:1413  constructor(... */\n  pop\n  pop\n  pop\n  pop\n  pop\n    /* \"Contracts/DepositGame.sol\":62:8393  contract DepositGame  {... */\n  jump(tag_35)\n    /* \"#utility.yul\":7:82   */\ntag_36:\n    /* \"#utility.yul\":40:46   */\n  0x00\n    /* \"#utility.yul\":73:75   */\n  0x40\n    /* \"#utility.yul\":67:76   */\n  mload\n    /* \"#utility.yul\":57:76   */\n  swap1\n  pop\n    /* \"#utility.yul\":7:82   */\n  swap1\n  jump\t// out\n    /* \"#utility.yul\":88:205   */\ntag_37:\n    /* \"#utility.yul\":197:198   */\n  0x00\n    /* \"#utility.yul\":194:195   */\n  0x00\n    /* \"#utility.yul\":187:199   */\n  revert\n    /* \"#utility.yul\":211:328   */\ntag_38:\n    /* \"#utility.yul\":320:321   */\n  0x00\n    /* \"#utility.yul\":317:318   */\n  0x00\n    /* \"#utility.yul\":310:322   */\n  revert\n    /* \"#utility.yul\":334:451   */\ntag_39:\n    /* \"#utility.yul\":443:444   */\n  0x00\n    /* \"#utility.yul\":440:441   */\n  0x00\n    /* \"#utility.yul\":433:445   */\n  revert\n    /* \"#utility.yul\":457:574   */\ntag_40:\n    /* \"#utility.yul\":566:567   */\n  0x00\n    /* \"#utility.yul\":563:564   */\n  0x00\n    /* \"#utility.yul\":556:568   */\n  revert\n    /* \"#utility.yul\":580:682   */\ntag_41:\n    /* \"#utility.yul\":621:627   */\n  0x00\n    /* \"#utility.yul\":672:674   */\n  0x1f\n    /* \"#utility.yul\":668:675   */\n  not\n    /* \"#utility.yul\":663:665   */\n  0x1f\n    /* \"#utility.yul\":656:661   */\n  dup4\n    /* \"#utility.yul\":652:666   */\n  add\n    /* \"#utility.yul\":648:676   */\n  and\n    /* \"#utility.yul\":638:676   */\n  swap1\n  pop\n    /* \"#utility.yul\":580:682   */\n  swap2\n  swap1\n  pop\n  jump\t// out\n    /* \"#utility.yul\":688:868   */\ntag_42:\n    /* \"#utility.yul\":736:813   */\n  0x4e487b7100000000000000000000000000000000000000000000000000000000\n    /* \"#utility.yul\":733:734   */\n  0x00\n    /* \"#utility.yul\":726:814   */\n  mstore\n    /* \"#utility.yul\":833:837   */\n  0x41\n    /* \"#utility.yul\":830:831   */\n  0x04\n    /* \"#utility.yul\":823:838   */\n  mstore\n    /* \"#utility.yul\":857:861   */\n  0x24\n    /* \"#utility.yul\":854:855   */\n  0x00\n    /* \"#utility.yul\":847:862   */\n  revert\n    /* \"#utility.yul\":874:1155   */\ntag_43:\n    /* \"#utility.yul\":957:984   */\n  tag_93\n    /* \"#utility.yul\":979:983   */\n  dup3\n    /* \"#utility.yul\":957:984   */\n  tag_41\n  jump\t// in\ntag_93:\n    /* \"#utility.yul\":949:955   */\n  dup2\n    /* \"#utility.yul\":945:985   */\n  add\n    /* \"#utility.yul\":1087:1093   */\n  dup2\n    /* \"#utility.yul\":1075:1085   */\n  dup2\n    /* \"#utility.yul\":1072:1094   */\n  lt\n    /* \"#utility.yul\":1051:1069   */\n  0xffffffffffffffff\n    /* \"#utility.yul\":1039:1049   */\n  dup3\n    /* \"#utility.yul\":1036:1070   */\n  gt\n    /* \"#utility.yul\":1033:1095   */\n  or\n    /* \"#utility.yul\":1030:1118   */\n  iszero\n  tag_94\n  jumpi\n    /* \"#utility.yul\":1098:1116   */\n  tag_95\n  tag_42\n  jump\t// in\ntag_95:\n    /* \"#utility.yul\":1030:1118   */\ntag_94:\n    /* \"#utility.yul\":1138:1148   */\n  dup1\n    /* \"#utility.yul\":1134:1136   */\n  0x40\n    /* \"#utility.yul\":1127:1149   */\n  mstore\n    /* \"#utility.yul\":917:1155   */\n  pop\n    /* \"#utility.yul\":874:1155   */\n  pop\n  pop\n  jump\t// out\n    /* \"#utility.yul\":1161:1290   */\ntag_44:\n    /* \"#utility.yul\":1195:1201   */\n  0x00\n    /* \"#utility.yul\":1222:1242   */\n  tag_97\n  tag_36\n  jump\t// in\ntag_97:\n    /* \"#utility.yul\":1212:1242   */\n  swap1\n  pop\n    /* \"#utility.yul\":1251:1284   */\n  tag_98\n    /* \"#utility.yul\":1279:1283   */\n  dup3\n    /* \"#utility.yul\":1271:1277   */\n  dup3\n    /* \"#utility.yul\":1251:1284   */\n  tag_43\n  jump\t// in\ntag_98:\n    /* \"#utility.yul\":1161:1290   */\n  swap2\n  swap1\n  pop\n  jump\t// out\n    /* \"#utility.yul\":1296:1604   */\ntag_45:\n    /* \"#utility.yul\":1358:1362   */\n  0x00\n    /* \"#utility.yul\":1448:1466   */\n  0xffffffffffffffff\n    /* \"#utility.yul\":1440:1446   */\n  dup3\n    /* \"#utility.yul\":1437:1467   */\n  gt\n    /* \"#utility.yul\":1434:1490   */\n  iszero\n  tag_100\n  jumpi\n    /* \"#utility.yul\":1470:1488   */\n  tag_101\n  tag_42\n  jump\t// in\ntag_101:\n    /* \"#utility.yul\":1434:1490   */\ntag_100:\n    /* \"#utility.yul\":1508:1537   */\n  tag_102\n    /* \"#utility.yul\":1530:1536   */\n  dup3\n    /* \"#utility.yul\":1508:1537   */\n  tag_41\n  jump\t// in\ntag_102:\n    /* \"#utility.yul\":1500:1537   */\n  swap1\n  pop\n    /* \"#utility.yul\":1592:1596   */\n  0x20\n    /* \"#utility.yul\":1586:1590   */\n  dup2\n    /* \"#utility.yul\":1582:1597   */\n  add\n    /* \"#utility.yul\":1574:1597   */\n  swap1\n  pop\n    /* \"#utility.yul\":1296:1604   */\n  swap2\n  swap1\n  pop\n  jump\t// out\n    /* \"#utility.yul\":1610:1749   */\ntag_46:\n    /* \"#utility.yul\":1699:1705   */\n  dup3\n    /* \"#utility.yul\":1694:1697   */\n  dup2\n    /* \"#utility.yul\":1689:1692   */\n  dup4\n    /* \"#utility.yul\":1683:1706   */\n  mcopy\n    /* \"#utility.yul\":1740:1741   */\n  0x00\n    /* \"#utility.yul\":1731:1737   */\n  dup4\n    /* \"#utility.yul\":1726:1729   */\n  dup4\n    /* \"#utility.yul\":1722:1738   */\n  add\n    /* \"#utility.yul\":1715:1742   */\n  mstore\n    /* \"#utility.yul\":1610:1749   */\n  pop\n  pop\n  pop\n  jump\t// out\n    /* \"#utility.yul\":1755:2189   */\ntag_47:\n    /* \"#utility.yul\":1844:1849   */\n  0x00\n    /* \"#utility.yul\":1869:1935   */\n  tag_105\n    /* \"#utility.yul\":1885:1934   */\n  tag_106\n    /* \"#utility.yul\":1927:1933   */\n  dup5\n    /* \"#utility.yul\":1885:1934   */\n  tag_45\n  jump\t// in\ntag_106:\n    /* \"#utility.yul\":1869:1935   */\n  tag_44\n  jump\t// in\ntag_105:\n    /* \"#utility.yul\":1860:1935   */\n  swap1\n  pop\n    /* \"#utility.yul\":1958:1964   */\n  dup3\n    /* \"#utility.yul\":1951:1956   */\n  dup2\n    /* \"#utility.yul\":1944:1965   */\n  mstore\n    /* \"#utility.yul\":1996:2000   */\n  0x20\n    /* \"#utility.yul\":1989:1994   */\n  dup2\n    /* \"#utility.yul\":1985:2001   */\n  add\n    /* \"#utility.yul\":2034:2037   */\n  dup5\n    /* \"#utility.yul\":2025:2031   */\n  dup5\n    /* \"#utility.yul\":2020:2023   */\n  dup5\n    /* \"#utility.yul\":2016:2032   */\n  add\n    /* \"#utility.yul\":2013:2038   */\n  gt\n    /* \"#utility.yul\":2010:2122   */\n  iszero\n  tag_107\n  jumpi\n    /* \"#utility.yul\":2041:2120   */\n  tag_108\n  tag_40\n  jump\t// in\ntag_108:\n    /* \"#utility.yul\":2010:2122   */\ntag_107:\n    /* \"#utility.yul\":2131:2183   */\n  tag_109\n    /* \"#utility.yul\":2176:2182   */\n  dup5\n    /* \"#utility.yul\":2171:2174   */\n  dup3\n    /* \"#utility.yul\":2166:2169   */\n  dup6\n    /* \"#utility.yul\":2131:2183   */\n  tag_46\n  jump\t// in\ntag_109:\n    /* \"#utility.yul\":1850:2189   */\n  pop\n    /* \"#utility.yul\":1755:2189   */\n  swap4\n  swap3\n  pop\n  pop\n  pop\n  jump\t// out\n    /* \"#utility.yul\":2209:2564   */\ntag_48:\n    /* \"#utility.yul\":2276:2281   */\n  0x00\n    /* \"#utility.yul\":2325:2328   */\n  dup3\n    /* \"#utility.yul\":2318:2322   */\n  0x1f\n    /* \"#utility.yul\":2310:2316   */\n  dup4\n    /* \"#utility.yul\":2306:2323   */\n  add\n    /* \"#utility.yul\":2302:2329   */\n  slt\n    /* \"#utility.yul\":2292:2414   */\n  tag_111\n  jumpi\n    /* \"#utility.yul\":2333:2412   */\n  tag_112\n  tag_39\n  jump\t// in\ntag_112:\n    /* \"#utility.yul\":2292:2414   */\ntag_111:\n    /* \"#utility.yul\":2443:2449   */\n  dup2\n    /* \"#utility.yul\":2437:2450   */\n  mload\n    /* \"#utility.yul\":2468:2558   */\n  tag_113\n    /* \"#utility.yul\":2554:2557   */\n  dup5\n    /* \"#utility.yul\":2546:2552   */\n  dup3\n    /* \"#utility.yul\":2539:2543   */\n  0x20\n    /* \"#utility.yul\":2531:2537   */\n  dup7\n    /* \"#utility.yul\":2527:2544   */\n  add\n    /* \"#utility.yul\":2468:2558   */\n  tag_47\n  jump\t// in\ntag_113:\n    /* \"#utility.yul\":2459:2558   */\n  swap2\n  pop\n    /* \"#utility.yul\":2282:2564   */\n  pop\n    /* \"#utility.yul\":2209:2564   */\n  swap3\n  swap2\n  pop\n  pop\n  jump\t// out\n    /* \"#utility.yul\":2570:2647   */\ntag_49:\n    /* \"#utility.yul\":2607:2614   */\n  0x00\n    /* \"#utility.yul\":2636:2641   */\n  dup2\n    /* \"#utility.yul\":2625:2641   */\n  swap1\n  pop\n    /* \"#utility.yul\":2570:2647   */\n  swap2\n  swap1\n  pop\n  jump\t// out\n    /* \"#utility.yul\":2653:2775   */\ntag_50:\n    /* \"#utility.yul\":2726:2750   */\n  tag_116\n    /* \"#utility.yul\":2744:2749   */\n  dup2\n    /* \"#utility.yul\":2726:2750   */\n  tag_49\n  jump\t// in\ntag_116:\n    /* \"#utility.yul\":2719:2724   */\n  dup2\n    /* \"#utility.yul\":2716:2751   */\n  eq\n    /* \"#utility.yul\":2706:2769   */\n  tag_117\n  jumpi\n    /* \"#utility.yul\":2765:2766   */\n  0x00\n    /* \"#utility.yul\":2762:2763   */\n  0x00\n    /* \"#utility.yul\":2755:2767   */\n  revert\n    /* \"#utility.yul\":2706:2769   */\ntag_117:\n    /* \"#utility.yul\":2653:2775   */\n  pop\n  jump\t// out\n    /* \"#utility.yul\":2781:2924   */\ntag_51:\n    /* \"#utility.yul\":2838:2843   */\n  0x00\n    /* \"#utility.yul\":2869:2875   */\n  dup2\n    /* \"#utility.yul\":2863:2876   */\n  mload\n    /* \"#utility.yul\":2854:2876   */\n  swap1\n  pop\n    /* \"#utility.yul\":2885:2918   */\n  tag_119\n    /* \"#utility.yul\":2912:2917   */\n  dup2\n    /* \"#utility.yul\":2885:2918   */\n  tag_50\n  jump\t// in\ntag_119:\n    /* \"#utility.yul\":2781:2924   */\n  swap3\n  swap2\n  pop\n  pop\n  jump\t// out\n    /* \"#utility.yul\":2930:4253   */\ntag_3:\n    /* \"#utility.yul\":3056:3062   */\n  0x00\n    /* \"#utility.yul\":3064:3070   */\n  0x00\n    /* \"#utility.yul\":3072:3078   */\n  0x00\n    /* \"#utility.yul\":3080:3086   */\n  0x00\n    /* \"#utility.yul\":3088:3094   */\n  0x00\n    /* \"#utility.yul\":3137:3140   */\n  0xa0\n    /* \"#utility.yul\":3125:3134   */\n  dup7\n    /* \"#utility.yul\":3116:3123   */\n  dup9\n    /* \"#utility.yul\":3112:3135   */\n  sub\n    /* \"#utility.yul\":3108:3141   */\n  slt\n    /* \"#utility.yul\":3105:3225   */\n  iszero\n  tag_121\n  jumpi\n    /* \"#utility.yul\":3144:3223   */\n  tag_122\n  tag_37\n  jump\t// in\ntag_122:\n    /* \"#utility.yul\":3105:3225   */\ntag_121:\n    /* \"#utility.yul\":3285:3286   */\n  0x00\n    /* \"#utility.yul\":3274:3283   */\n  dup7\n    /* \"#utility.yul\":3270:3287   */\n  add\n    /* \"#utility.yul\":3264:3288   */\n  mload\n    /* \"#utility.yul\":3315:3333   */\n  0xffffffffffffffff\n    /* \"#utility.yul\":3307:3313   */\n  dup2\n    /* \"#utility.yul\":3304:3334   */\n  gt\n    /* \"#utility.yul\":3301:3418   */\n  iszero\n  tag_123\n  jumpi\n    /* \"#utility.yul\":3337:3416   */\n  tag_124\n  tag_38\n  jump\t// in\ntag_124:\n    /* \"#utility.yul\":3301:3418   */\ntag_123:\n    /* \"#utility.yul\":3442:3516   */\n  tag_125\n    /* \"#utility.yul\":3508:3515   */\n  dup9\n    /* \"#utility.yul\":3499:3505   */\n  dup3\n    /* \"#utility.yul\":3488:3497   */\n  dup10\n    /* \"#utility.yul\":3484:3506   */\n  add\n    /* \"#utility.yul\":3442:3516   */\n  tag_48\n  jump\t// in\ntag_125:\n    /* \"#utility.yul\":3432:3516   */\n  swap6\n  pop\n    /* \"#utility.yul\":3235:3526   */\n  pop\n    /* \"#utility.yul\":3586:3588   */\n  0x20\n    /* \"#utility.yul\":3575:3584   */\n  dup7\n    /* \"#utility.yul\":3571:3589   */\n  add\n    /* \"#utility.yul\":3565:3590   */\n  mload\n    /* \"#utility.yul\":3617:3635   */\n  0xffffffffffffffff\n    /* \"#utility.yul\":3609:3615   */\n  dup2\n    /* \"#utility.yul\":3606:3636   */\n  gt\n    /* \"#utility.yul\":3603:3720   */\n  iszero\n  tag_126\n  jumpi\n    /* \"#utility.yul\":3639:3718   */\n  tag_127\n  tag_38\n  jump\t// in\ntag_127:\n    /* \"#utility.yul\":3603:3720   */\ntag_126:\n    /* \"#utility.yul\":3744:3818   */\n  tag_128\n    /* \"#utility.yul\":3810:3817   */\n  dup9\n    /* \"#utility.yul\":3801:3807   */\n  dup3\n    /* \"#utility.yul\":3790:3799   */\n  dup10\n    /* \"#utility.yul\":3786:3808   */\n  add\n    /* \"#utility.yul\":3744:3818   */\n  tag_48\n  jump\t// in\ntag_128:\n    /* \"#utility.yul\":3734:3818   */\n  swap5\n  pop\n    /* \"#utility.yul\":3536:3828   */\n  pop\n    /* \"#utility.yul\":3867:3869   */\n  0x40\n    /* \"#utility.yul\":3893:3957   */\n  tag_129\n    /* \"#utility.yul\":3949:3956   */\n  dup9\n    /* \"#utility.yul\":3940:3946   */\n  dup3\n    /* \"#utility.yul\":3929:3938   */\n  dup10\n    /* \"#utility.yul\":3925:3947   */\n  add\n    /* \"#utility.yul\":3893:3957   */\n  tag_51\n  jump\t// in\ntag_129:\n    /* \"#utility.yul\":3883:3957   */\n  swap4\n  pop\n    /* \"#utility.yul\":3838:3967   */\n  pop\n    /* \"#utility.yul\":4006:4008   */\n  0x60\n    /* \"#utility.yul\":4032:4096   */\n  tag_130\n    /* \"#utility.yul\":4088:4095   */\n  dup9\n    /* \"#utility.yul\":4079:4085   */\n  dup3\n    /* \"#utility.yul\":4068:4077   */\n  dup10\n    /* \"#utility.yul\":4064:4086   */\n  add\n    /* \"#utility.yul\":4032:4096   */\n  tag_51\n  jump\t// in\ntag_130:\n    /* \"#utility.yul\":4022:4096   */\n  swap3\n  pop\n    /* \"#utility.yul\":3977:4106   */\n  pop\n    /* \"#utility.yul\":4145:4148   */\n  0x80\n    /* \"#utility.yul\":4172:4236   */\n  tag_131\n    /* \"#utility.yul\":4228:4235   */\n  dup9\n    /* \"#utility.yul\":4219:4225   */\n  dup3\n    /* \"#utility.yul\":4208:4217   */\n  dup10\n    /* \"#utility.yul\":4204:4226   */\n  add\n    /* \"#utility.yul\":4172:4236   */\n  tag_51\n  jump\t// in\ntag_131:\n    /* \"#utility.yul\":4162:4236   */\n  swap2\n  pop\n    /* \"#utility.yul\":4116:4246   */\n  pop\n    /* \"#utility.yul\":2930:4253   */\n  swap3\n  swap6\n  pop\n  swap3\n  swap6\n  swap1\n  swap4\n  pop\n  jump\t// out\n    /* \"#utility.yul\":4259:4428   */\ntag_52:\n    /* \"#utility.yul\":4343:4354   */\n  0x00\n    /* \"#utility.yul\":4377:4383   */\n  dup3\n    /* \"#utility.yul\":4372:4375   */\n  dup3\n    /* \"#utility.yul\":4365:4384   */\n  mstore\n    /* \"#utility.yul\":4417:4421   */\n  0x20\n    /* \"#utility.yul\":4412:4415   */\n  dup3\n    /* \"#utility.yul\":4408:4422   */\n  add\n    /* \"#utility.yul\":4393:4422   */\n  swap1\n  pop\n    /* \"#utility.yul\":4259:4428   */\n  swap3\n  swap2\n  pop\n  pop\n  jump\t// out\n    /* \"#utility.yul\":4434:4600   */\ntag_53:\n    /* \"#utility.yul\":4574:4592   */\n  0x496e76616c696420616464726573732e00000000000000000000000000000000\n    /* \"#utility.yul\":4570:4571   */\n  0x00\n    /* \"#utility.yul\":4562:4568   */\n  dup3\n    /* \"#utility.yul\":4558:4572   */\n  add\n    /* \"#utility.yul\":4551:4593   */\n  mstore\n    /* \"#utility.yul\":4434:4600   */\n  pop\n  jump\t// out\n    /* \"#utility.yul\":4606:4972   */\ntag_54:\n    /* \"#utility.yul\":4748:4751   */\n  0x00\n    /* \"#utility.yul\":4769:4836   */\n  tag_135\n    /* \"#utility.yul\":4833:4835   */\n  0x10\n    /* \"#utility.yul\":4828:4831   */\n  dup4\n    /* \"#utility.yul\":4769:4836   */\n  tag_52\n  jump\t// in\ntag_135:\n    /* \"#utility.yul\":4762:4836   */\n  swap2\n  pop\n    /* \"#utility.yul\":4845:4938   */\n  tag_136\n    /* \"#utility.yul\":4934:4937   */\n  dup3\n    /* \"#utility.yul\":4845:4938   */\n  tag_53\n  jump\t// in\ntag_136:\n    /* \"#utility.yul\":4963:4965   */\n  0x20\n    /* \"#utility.yul\":4958:4961   */\n  dup3\n    /* \"#utility.yul\":4954:4966   */\n  add\n    /* \"#utility.yul\":4947:4966   */\n  swap1\n  pop\n    /* \"#utility.yul\":4606:4972   */\n  swap2\n  swap1\n  pop\n  jump\t// out\n    /* \"#utility.yul\":4978:5397   */\ntag_8:\n    /* \"#utility.yul\":5144:5148   */\n  0x00\n    /* \"#utility.yul\":5182:5184   */\n  0x20\n    /* \"#utility.yul\":5171:5180   */\n  dup3\n    /* \"#utility.yul\":5167:5185   */\n  add\n    /* \"#utility.yul\":5159:5185   */\n  swap1\n  pop\n    /* \"#utility.yul\":5231:5240   */\n  dup2\n    /* \"#utility.yul\":5225:5229   */\n  dup2\n    /* \"#utility.yul\":5221:5241   */\n  sub\n    /* \"#utility.yul\":5217:5218   */\n  0x00\n    /* \"#utility.yul\":5206:5215   */\n  dup4\n    /* \"#utility.yul\":5202:5219   */\n  add\n    /* \"#utility.yul\":5195:5242   */\n  mstore\n    /* \"#utility.yul\":5259:5390   */\n  tag_138\n    /* \"#utility.yul\":5385:5389   */\n  dup2\n    /* \"#utility.yul\":5259:5390   */\n  tag_54\n  jump\t// in\ntag_138:\n    /* \"#utility.yul\":5251:5390   */\n  swap1\n  pop\n    /* \"#utility.yul\":4978:5397   */\n  swap2\n  swap1\n  pop\n  jump\t// out\n    /* \"#utility.yul\":5403:5575   */\ntag_55:\n    /* \"#utility.yul\":5543:5567   */\n  0x4e616d652063616e206e6f7420626520656d7072792e00000000000000000000\n    /* \"#utility.yul\":5539:5540   */\n  0x00\n    /* \"#utility.yul\":5531:5537   */\n  dup3\n    /* \"#utility.yul\":5527:5541   */\n  add\n    /* \"#utility.yul\":5520:5568   */\n  mstore\n    /* \"#utility.yul\":5403:5575   */\n  pop\n  jump\t// out\n    /* \"#utility.yul\":5581:5947   */\ntag_56:\n    /* \"#utility.yul\":5723:5726   */\n  0x00\n    /* \"#utility.yul\":5744:5811   */\n  tag_141\n    /* \"#utility.yul\":5808:5810   */\n  0x16\n    /* \"#utility.yul\":5803:5806   */\n  dup4\n    /* \"#utility.yul\":5744:5811   */\n  tag_52\n  jump\t// in\ntag_141:\n    /* \"#utility.yul\":5737:5811   */\n  swap2\n  pop\n    /* \"#utility.yul\":5820:5913   */\n  tag_142\n    /* \"#utility.yul\":5909:5912   */\n  dup3\n    /* \"#utility.yul\":5820:5913   */\n  tag_55\n  jump\t// in\ntag_142:\n    /* \"#utility.yul\":5938:5940   */\n  0x20\n    /* \"#utility.yul\":5933:5936   */\n  dup3\n    /* \"#utility.yul\":5929:5941   */\n  add\n    /* \"#utility.yul\":5922:5941   */\n  swap1\n  pop\n    /* \"#utility.yul\":5581:5947   */\n  swap2\n  swap1\n  pop\n  jump\t// out\n    /* \"#utility.yul\":5953:6372   */\ntag_11:\n    /* \"#utility.yul\":6119:6123   */\n  0x00\n    /* \"#utility.yul\":6157:6159   */\n  0x20\n    /* \"#utility.yul\":6146:6155   */\n  dup3\n    /* \"#utility.yul\":6142:6160   */\n  add\n    /* \"#utility.yul\":6134:6160   */\n  swap1\n  pop\n    /* \"#utility.yul\":6206:6215   */\n  dup2\n    /* \"#utility.yul\":6200:6204   */\n  dup2\n    /* \"#utility.yul\":6196:6216   */\n  sub\n    /* \"#utility.yul\":6192:6193   */\n  0x00\n    /* \"#utility.yul\":6181:6190   */\n  dup4\n    /* \"#utility.yul\":6177:6194   */\n  add\n    /* \"#utility.yul\":6170:6217   */\n  mstore\n    /* \"#utility.yul\":6234:6365   */\n  tag_144\n    /* \"#utility.yul\":6360:6364   */\n  dup2\n    /* \"#utility.yul\":6234:6365   */\n  tag_56\n  jump\t// in\ntag_144:\n    /* \"#utility.yul\":6226:6365   */\n  swap1\n  pop\n    /* \"#utility.yul\":5953:6372   */\n  swap2\n  swap1\n  pop\n  jump\t// out\n    /* \"#utility.yul\":6378:6557   */\ntag_57:\n    /* \"#utility.yul\":6518:6549   */\n  0x4465736372697074696f6e2063616e206e6f7420626520656d7074792e000000\n    /* \"#utility.yul\":6514:6515   */\n  0x00\n    /* \"#utility.yul\":6506:6512   */\n  dup3\n    /* \"#utility.yul\":6502:6516   */\n  add\n    /* \"#utility.yul\":6495:6550   */\n  mstore\n    /* \"#utility.yul\":6378:6557   */\n  pop\n  jump\t// out\n    /* \"#utility.yul\":6563:6929   */\ntag_58:\n    /* \"#utility.yul\":6705:6708   */\n  0x00\n    /* \"#utility.yul\":6726:6793   */\n  tag_147\n    /* \"#utility.yul\":6790:6792   */\n  0x1d\n    /* \"#utility.yul\":6785:6788   */\n  dup4\n    /* \"#utility.yul\":6726:6793   */\n  tag_52\n  jump\t// in\ntag_147:\n    /* \"#utility.yul\":6719:6793   */\n  swap2\n  pop\n    /* \"#utility.yul\":6802:6895   */\n  tag_148\n    /* \"#utility.yul\":6891:6894   */\n  dup3\n    /* \"#utility.yul\":6802:6895   */\n  tag_57\n  jump\t// in\ntag_148:\n    /* \"#utility.yul\":6920:6922   */\n  0x20\n    /* \"#utility.yul\":6915:6918   */\n  dup3\n    /* \"#utility.yul\":6911:6923   */\n  add\n    /* \"#utility.yul\":6904:6923   */\n  swap1\n  pop\n    /* \"#utility.yul\":6563:6929   */\n  swap2\n  swap1\n  pop\n  jump\t// out\n    /* \"#utility.yul\":6935:7354   */\ntag_14:\n    /* \"#utility.yul\":7101:7105   */\n  0x00\n    /* \"#utility.yul\":7139:7141   */\n  0x20\n    /* \"#utility.yul\":7128:7137   */\n  dup3\n    /* \"#utility.yul\":7124:7142   */\n  add\n    /* \"#utility.yul\":7116:7142   */\n  swap1\n  pop\n    /* \"#utility.yul\":7188:7197   */\n  dup2\n    /* \"#utility.yul\":7182:7186   */\n  dup2\n    /* \"#utility.yul\":7178:7198   */\n  sub\n    /* \"#utility.yul\":7174:7175   */\n  0x00\n    /* \"#utility.yul\":7163:7172   */\n  dup4\n    /* \"#utility.yul\":7159:7176   */\n  add\n    /* \"#utility.yul\":7152:7199   */\n  mstore\n    /* \"#utility.yul\":7216:7347   */\n  tag_150\n    /* \"#utility.yul\":7342:7346   */\n  dup2\n    /* \"#utility.yul\":7216:7347   */\n  tag_58\n  jump\t// in\ntag_150:\n    /* \"#utility.yul\":7208:7347   */\n  swap1\n  pop\n    /* \"#utility.yul\":6935:7354   */\n  swap2\n  swap1\n  pop\n  jump\t// out\n    /* \"#utility.yul\":7360:7532   */\ntag_59:\n    /* \"#utility.yul\":7500:7524   */\n  0x476f616c206d75737420626520706f7369746976652e00000000000000000000\n    /* \"#utility.yul\":7496:7497   */\n  0x00\n    /* \"#utility.yul\":7488:7494   */\n  dup3\n    /* \"#utility.yul\":7484:7498   */\n  add\n    /* \"#utility.yul\":7477:7525   */\n  mstore\n    /* \"#utility.yul\":7360:7532   */\n  pop\n  jump\t// out\n    /* \"#utility.yul\":7538:7904   */\ntag_60:\n    /* \"#utility.yul\":7680:7683   */\n  0x00\n    /* \"#utility.yul\":7701:7768   */\n  tag_153\n    /* \"#utility.yul\":7765:7767   */\n  0x16\n    /* \"#utility.yul\":7760:7763   */\n  dup4\n    /* \"#utility.yul\":7701:7768   */\n  tag_52\n  jump\t// in\ntag_153:\n    /* \"#utility.yul\":7694:7768   */\n  swap2\n  pop\n    /* \"#utility.yul\":7777:7870   */\n  tag_154\n    /* \"#utility.yul\":7866:7869   */\n  dup3\n    /* \"#utility.yul\":7777:7870   */\n  tag_59\n  jump\t// in\ntag_154:\n    /* \"#utility.yul\":7895:7897   */\n  0x20\n    /* \"#utility.yul\":7890:7893   */\n  dup3\n    /* \"#utility.yul\":7886:7898   */\n  add\n    /* \"#utility.yul\":7879:7898   */\n  swap1\n  pop\n    /* \"#utility.yul\":7538:7904   */\n  swap2\n  swap1\n  pop\n  jump\t// out\n    /* \"#utility.yul\":7910:8329   */\ntag_17:\n    /* \"#utility.yul\":8076:8080   */\n  0x00\n    /* \"#utility.yul\":8114:8116   */\n  0x20\n    /* \"#utility.yul\":8103:8112   */\n  dup3\n    /* \"#utility.yul\":8099:8117   */\n  add\n    /* \"#utility.yul\":8091:8117   */\n  swap1\n  pop\n    /* \"#utility.yul\":8163:8172   */\n  dup2\n    /* \"#utility.yul\":8157:8161   */\n  dup2\n    /* \"#utility.yul\":8153:8173   */\n  sub\n    /* \"#utility.yul\":8149:8150   */\n  0x00\n    /* \"#utility.yul\":8138:8147   */\n  dup4\n    /* \"#utility.yul\":8134:8151   */\n  add\n    /* \"#utility.yul\":8127:8174   */\n  mstore\n    /* \"#utility.yul\":8191:8322   */\n  tag_156\n    /* \"#utility.yul\":8317:8321   */\n  dup2\n    /* \"#utility.yul\":8191:8322   */\n  tag_60\n  jump\t// in\ntag_156:\n    /* \"#utility.yul\":8183:8322   */\n  swap1\n  pop\n    /* \"#utility.yul\":7910:8329   */\n  swap2\n  swap1\n  pop\n  jump\t// out\n    /* \"#utility.yul\":8335:8511   */\ntag_61:\n    /* \"#utility.yul\":8475:8503   */\n  0x4475726174696f6e206d75737420626520706f7369746976652e000000000000\n    /* \"#utility.yul\":8471:8472   */\n  0x00\n    /* \"#utility.yul\":8463:8469   */\n  dup3\n    /* \"#utility.yul\":8459:8473   */\n  add\n    /* \"#utility.yul\":8452:8504   */\n  mstore\n    /* \"#utility.yul\":8335:8511   */\n  pop\n  jump\t// out\n    /* \"#utility.yul\":8517:8883   */\ntag_62:\n    /* \"#utility.yul\":8659:8662   */\n  0x00\n    /* \"#utility.yul\":8680:8747   */\n  tag_159\n    /* \"#utility.yul\":8744:8746   */\n  0x1a\n    /* \"#utility.yul\":8739:8742   */\n  dup4\n    /* \"#utility.yul\":8680:8747   */\n  tag_52\n  jump\t// in\ntag_159:\n    /* \"#utility.yul\":8673:8747   */\n  swap2\n  pop\n    /* \"#utility.yul\":8756:8849   */\n  tag_160\n    /* \"#utility.yul\":8845:8848   */\n  dup3\n    /* \"#utility.yul\":8756:8849   */\n  tag_61\n  jump\t// in\ntag_160:\n    /* \"#utility.yul\":8874:8876   */\n  0x20\n    /* \"#utility.yul\":8869:8872   */\n  dup3\n    /* \"#utility.yul\":8865:8877   */\n  add\n    /* \"#utility.yul\":8858:8877   */\n  swap1\n  pop\n    /* \"#utility.yul\":8517:8883   */\n  swap2\n  swap1\n  pop\n  jump\t// out\n    /* \"#utility.yul\":8889:9308   */\ntag_20:\n    /* \"#utility.yul\":9055:9059   */\n  0x00\n    /* \"#utility.yul\":9093:9095   */\n  0x20\n    /* \"#utility.yul\":9082:9091   */\n  dup3\n    /* \"#utility.yul\":9078:9096   */\n  add\n    /* \"#utility.yul\":9070:9096   */\n  swap1\n  pop\n    /* \"#utility.yul\":9142:9151   */\n  dup2\n    /* \"#utility.yul\":9136:9140   */\n  dup2\n    /* \"#utility.yul\":9132:9152   */\n  sub\n    /* \"#utility.yul\":9128:9129   */\n  0x00\n    /* \"#utility.yul\":9117:9126   */\n  dup4\n    /* \"#utility.yul\":9113:9130   */\n  add\n    /* \"#utility.yul\":9106:9153   */\n  mstore\n    /* \"#utility.yul\":9170:9301   */\n  tag_162\n    /* \"#utility.yul\":9296:9300   */\n  dup2\n    /* \"#utility.yul\":9170:9301   */\n  tag_62\n  jump\t// in\ntag_162:\n    /* \"#utility.yul\":9162:9301   */\n  swap1\n  pop\n    /* \"#utility.yul\":8889:9308   */\n  swap2\n  swap1\n  pop\n  jump\t// out\n    /* \"#utility.yul\":9314:9496   */\ntag_63:\n    /* \"#utility.yul\":9454:9488   */\n  0x50657263656e74206d757374206265206265747765656e2030202d203130302e\n    /* \"#utility.yul\":9450:9451   */\n  0x00\n    /* \"#utility.yul\":9442:9448   */\n  dup3\n    /* \"#utility.yul\":9438:9452   */\n  add\n    /* \"#utility.yul\":9431:9489   */\n  mstore\n    /* \"#utility.yul\":9314:9496   */\n  pop\n  jump\t// out\n    /* \"#utility.yul\":9502:9868   */\ntag_64:\n    /* \"#utility.yul\":9644:9647   */\n  0x00\n    /* \"#utility.yul\":9665:9732   */\n  tag_165\n    /* \"#utility.yul\":9729:9731   */\n  0x20\n    /* \"#utility.yul\":9724:9727   */\n  dup4\n    /* \"#utility.yul\":9665:9732   */\n  tag_52\n  jump\t// in\ntag_165:\n    /* \"#utility.yul\":9658:9732   */\n  swap2\n  pop\n    /* \"#utility.yul\":9741:9834   */\n  tag_166\n    /* \"#utility.yul\":9830:9833   */\n  dup3\n    /* \"#utility.yul\":9741:9834   */\n  tag_63\n  jump\t// in\ntag_166:\n    /* \"#utility.yul\":9859:9861   */\n  0x20\n    /* \"#utility.yul\":9854:9857   */\n  dup3\n    /* \"#utility.yul\":9850:9862   */\n  add\n    /* \"#utility.yul\":9843:9862   */\n  swap1\n  pop\n    /* \"#utility.yul\":9502:9868   */\n  swap2\n  swap1\n  pop\n  jump\t// out\n    /* \"#utility.yul\":9874:10293   */\ntag_24:\n    /* \"#utility.yul\":10040:10044   */\n  0x00\n    /* \"#utility.yul\":10078:10080   */\n  0x20\n    /* \"#utility.yul\":10067:10076   */\n  dup3\n    /* \"#utility.yul\":10063:10081   */\n  add\n    /* \"#utility.yul\":10055:10081   */\n  swap1\n  pop\n    /* \"#utility.yul\":10127:10136   */\n  dup2\n    /* \"#utility.yul\":10121:10125   */\n  dup2\n    /* \"#utility.yul\":10117:10137   */\n  sub\n    /* \"#utility.yul\":10113:10114   */\n  0x00\n    /* \"#utility.yul\":10102:10111   */\n  dup4\n    /* \"#utility.yul\":10098:10115   */\n  add\n    /* \"#utility.yul\":10091:10138   */\n  mstore\n    /* \"#utility.yul\":10155:10286   */\n  tag_168\n    /* \"#utility.yul\":10281:10285   */\n  dup2\n    /* \"#utility.yul\":10155:10286   */\n  tag_64\n  jump\t// in\ntag_168:\n    /* \"#utility.yul\":10147:10286   */\n  swap1\n  pop\n    /* \"#utility.yul\":9874:10293   */\n  swap2\n  swap1\n  pop\n  jump\t// out\n    /* \"#utility.yul\":10299:10479   */\ntag_27:\n    /* \"#utility.yul\":10347:10424   */\n  0x4e487b7100000000000000000000000000000000000000000000000000000000\n    /* \"#utility.yul\":10344:10345   */\n  0x00\n    /* \"#utility.yul\":10337:10425   */\n  mstore\n    /* \"#utility.yul\":10444:10448   */\n  0x21\n    /* \"#utility.yul\":10441:10442   */\n  0x04\n    /* \"#utility.yul\":10434:10449   */\n  mstore\n    /* \"#utility.yul\":10468:10472   */\n  0x24\n    /* \"#utility.yul\":10465:10466   */\n  0x00\n    /* \"#utility.yul\":10458:10473   */\n  revert\n    /* \"#utility.yul\":10485:10584   */\ntag_65:\n    /* \"#utility.yul\":10537:10543   */\n  0x00\n    /* \"#utility.yul\":10571:10576   */\n  dup2\n    /* \"#utility.yul\":10565:10577   */\n  mload\n    /* \"#utility.yul\":10555:10577   */\n  swap1\n  pop\n    /* \"#utility.yul\":10485:10584   */\n  swap2\n  swap1\n  pop\n  jump\t// out\n    /* \"#utility.yul\":10590:10770   */\ntag_66:\n    /* \"#utility.yul\":10638:10715   */\n  0x4e487b7100000000000000000000000000000000000000000000000000000000\n    /* \"#utility.yul\":10635:10636   */\n  0x00\n    /* \"#utility.yul\":10628:10716   */\n  mstore\n    /* \"#utility.yul\":10735:10739   */\n  0x22\n    /* \"#utility.yul\":10732:10733   */\n  0x04\n    /* \"#utility.yul\":10725:10740   */\n  mstore\n    /* \"#utility.yul\":10759:10763   */\n  0x24\n    /* \"#utility.yul\":10756:10757   */\n  0x00\n    /* \"#utility.yul\":10749:10764   */\n  revert\n    /* \"#utility.yul\":10776:11096   */\ntag_67:\n    /* \"#utility.yul\":10820:10826   */\n  0x00\n    /* \"#utility.yul\":10857:10858   */\n  0x02\n    /* \"#utility.yul\":10851:10855   */\n  dup3\n    /* \"#utility.yul\":10847:10859   */\n  div\n    /* \"#utility.yul\":10837:10859   */\n  swap1\n  pop\n    /* \"#utility.yul\":10904:10905   */\n  0x01\n    /* \"#utility.yul\":10898:10902   */\n  dup3\n    /* \"#utility.yul\":10894:10906   */\n  and\n    /* \"#utility.yul\":10925:10943   */\n  dup1\n    /* \"#utility.yul\":10915:10996   */\n  tag_173\n  jumpi\n    /* \"#utility.yul\":10981:10985   */\n  0x7f\n    /* \"#utility.yul\":10973:10979   */\n  dup3\n    /* \"#utility.yul\":10969:10986   */\n  and\n    /* \"#utility.yul\":10959:10986   */\n  swap2\n  pop\n    /* \"#utility.yul\":10915:10996   */\ntag_173:\n    /* \"#utility.yul\":11043:11045   */\n  0x20\n    /* \"#utility.yul\":11035:11041   */\n  dup3\n    /* \"#utility.yul\":11032:11046   */\n  lt\n    /* \"#utility.yul\":11012:11030   */\n  dup2\n    /* \"#utility.yul\":11009:11047   */\n  sub\n    /* \"#utility.yul\":11006:11090   */\n  tag_174\n  jumpi\n    /* \"#utility.yul\":11062:11080   */\n  tag_175\n  tag_66\n  jump\t// in\ntag_175:\n    /* \"#utility.yul\":11006:11090   */\ntag_174:\n    /* \"#utility.yul\":10827:11096   */\n  pop\n    /* \"#utility.yul\":10776:11096   */\n  swap2\n  swap1\n  pop\n  jump\t// out\n    /* \"#utility.yul\":11102:11243   */\ntag_68:\n    /* \"#utility.yul\":11151:11155   */\n  0x00\n    /* \"#utility.yul\":11174:11177   */\n  dup2\n    /* \"#utility.yul\":11166:11177   */\n  swap1\n  pop\n    /* \"#utility.yul\":11197:11200   */\n  dup2\n    /* \"#utility.yul\":11194:11195   */\n  0x00\n    /* \"#utility.yul\":11187:11201   */\n  mstore\n    /* \"#utility.yul\":11231:11235   */\n  0x20\n    /* \"#utility.yul\":11228:11229   */\n  0x00\n    /* \"#utility.yul\":11218:11236   */\n  keccak256\n    /* \"#utility.yul\":11210:11236   */\n  swap1\n  pop\n    /* \"#utility.yul\":11102:11243   */\n  swap2\n  swap1\n  pop\n  jump\t// out\n    /* \"#utility.yul\":11249:11342   */\ntag_69:\n    /* \"#utility.yul\":11286:11292   */\n  0x00\n    /* \"#utility.yul\":11333:11335   */\n  0x20\n    /* \"#utility.yul\":11328:11330   */\n  0x1f\n    /* \"#utility.yul\":11321:11326   */\n  dup4\n    /* \"#utility.yul\":11317:11331   */\n  add\n    /* \"#utility.yul\":11313:11336   */\n  div\n    /* \"#utility.yul\":11303:11336   */\n  swap1\n  pop\n    /* \"#utility.yul\":11249:11342   */\n  swap2\n  swap1\n  pop\n  jump\t// out\n    /* \"#utility.yul\":11348:11455   */\ntag_70:\n    /* \"#utility.yul\":11392:11400   */\n  0x00\n    /* \"#utility.yul\":11442:11447   */\n  dup3\n    /* \"#utility.yul\":11436:11440   */\n  dup3\n    /* \"#utility.yul\":11432:11448   */\n  shl\n    /* \"#utility.yul\":11411:11448   */\n  swap1\n  pop\n    /* \"#utility.yul\":11348:11455   */\n  swap3\n  swap2\n  pop\n  pop\n  jump\t// out\n    /* \"#utility.yul\":11461:11854   */\ntag_71:\n    /* \"#utility.yul\":11530:11536   */\n  0x00\n    /* \"#utility.yul\":11580:11581   */\n  0x08\n    /* \"#utility.yul\":11568:11578   */\n  dup4\n    /* \"#utility.yul\":11564:11582   */\n  mul\n    /* \"#utility.yul\":11603:11700   */\n  tag_180\n    /* \"#utility.yul\":11633:11699   */\n  0xffffffffffffffffffffffffffffffffffffffffffffffffffffffffffffffff\n    /* \"#utility.yul\":11622:11631   */\n  dup3\n    /* \"#utility.yul\":11603:11700   */\n  tag_70\n  jump\t// in\ntag_180:\n    /* \"#utility.yul\":11721:11760   */\n  tag_181\n    /* \"#utility.yul\":11751:11759   */\n  dup7\n    /* \"#utility.yul\":11740:11749   */\n  dup4\n    /* \"#utility.yul\":11721:11760   */\n  tag_70\n  jump\t// in\ntag_181:\n    /* \"#utility.yul\":11709:11760   */\n  swap6\n  pop\n    /* \"#utility.yul\":11793:11797   */\n  dup1\n    /* \"#utility.yul\":11789:11798   */\n  not\n    /* \"#utility.yul\":11782:11787   */\n  dup5\n    /* \"#utility.yul\":11778:11799   */\n  and\n    /* \"#utility.yul\":11769:11799   */\n  swap4\n  pop\n    /* \"#utility.yul\":11842:11846   */\n  dup1\n    /* \"#utility.yul\":11832:11840   */\n  dup7\n    /* \"#utility.yul\":11828:11847   */\n  and\n    /* \"#utility.yul\":11821:11826   */\n  dup5\n    /* \"#utility.yul\":11818:11848   */\n  or\n    /* \"#utility.yul\":11808:11848   */\n  swap3\n  pop\n    /* \"#utility.yul\":11537:11854   */\n  pop\n  pop\n    /* \"#utility.yul\":11461:11854   */\n  swap4\n  swap3\n  pop\n  pop\n  pop\n  jump\t// out\n    /* \"#utility.yul\":11860:11920   */\ntag_72:\n    /* \"#utility.yul\":11888:11891   */\n  0x00\n    /* \"#utility.yul\":11909:11914   */\n  dup2\n    /* \"#utility.yul\":11902:11914   */\n  swap1\n  pop\n    /* \"#utility.yul\":11860:11920   */\n  swap2\n  swap1\n  pop\n  jump\t// out\n    /* \"#utility.yul\":11926:12068   */\ntag_73:\n    /* \"#utility.yul\":11976:11985   */\n  0x00\n    /* \"#utility.yul\":12009:12062   */\n  tag_184\n    /* \"#utility.yul\":12027:12061   */\n  tag_185\n    /* \"#utility.yul\":12036:12060   */\n  tag_186\n    /* \"#utility.yul\":12054:12059   */\n  dup5\n    /* \"#utility.yul\":12036:12060   */\n  tag_49\n  jump\t// in\ntag_186:\n    /* \"#utility.yul\":12027:12061   */\n  tag_72\n  jump\t// in\ntag_185:\n    /* \"#utility.yul\":12009:12062   */\n  tag_49\n  jump\t// in\ntag_184:\n    /* \"#utility.yul\":11996:12062   */\n  swap1\n  pop\n    /* \"#utility.yul\":11926:12068   */\n  swap2\n  swap1\n  pop\n  jump\t// out\n    /* \"#utility.yul\":12074:12149   */\ntag_74:\n    /* \"#utility.yul\":12117:12120   */\n  0x00\n    /* \"#utility.yul\":12138:12143   */\n  dup2\n    /* \"#utility.yul\":12131:12143   */\n  swap1\n  pop\n    /* \"#utility.yul\":12074:12149   */\n  swap2\n  swap1\n  pop\n  jump\t// out\n    /* \"#utility.yul\":12155:12424   */\ntag_75:\n    /* \"#utility.yul\":12265:12304   */\n  tag_189\n    /* \"#utility.yul\":12296:12303   */\n  dup4\n    /* \"#utility.yul\":12265:12304   */\n  tag_73\n  jump\t// in\ntag_189:\n    /* \"#utility.yul\":12326:12417   */\n  tag_190\n    /* \"#utility.yul\":12375:12416   */\n  tag_191\n    /* \"#utility.yul\":12399:12415   */\n  dup3\n    /* \"#utility.yul\":12375:12416   */\n  tag_74\n  jump\t// in\ntag_191:\n    /* \"#utility.yul\":12367:12373   */\n  dup5\n    /* \"#utility.yul\":12360:12364   */\n  dup5\n    /* \"#utility.yul\":12354:12365   */\n  sload\n    /* \"#utility.yul\":12326:12417   */\n  tag_71\n  jump\t// in\ntag_190:\n    /* \"#utility.yul\":12320:12324   */\n  dup3\n    /* \"#utility.yul\":12313:12418   */\n  sstore\n    /* \"#utility.yul\":12231:12424   */\n  pop\n    /* \"#utility.yul\":12155:12424   */\n  pop\n  pop\n  pop\n  jump\t// out\n    /* \"#utility.yul\":12430:12503   */\ntag_76:\n    /* \"#utility.yul\":12475:12478   */\n  0x00\n    /* \"#utility.yul\":12496:12497   */\n  0x00\n    /* \"#utility.yul\":12489:12497   */\n  swap1\n  pop\n    /* \"#utility.yul\":12430:12503   */\n  swap1\n  jump\t// out\n    /* \"#utility.yul\":12509:12698   */\ntag_77:\n    /* \"#utility.yul\":12586:12618   */\n  tag_194\n  tag_76\n  jump\t// in\ntag_194:\n    /* \"#utility.yul\":12627:12692   */\n  tag_195\n    /* \"#utility.yul\":12685:12691   */\n  dup2\n    /* \"#utility.yul\":12677:12683   */\n  dup5\n    /* \"#utility.yul\":12671:12675   */\n  dup5\n    /* \"#utility.yul\":12627:12692   */\n  tag_75\n  jump\t// in\ntag_195:\n    /* \"#utility.yul\":12562:12698   */\n  pop\n    /* \"#utility.yul\":12509:12698   */\n  pop\n  pop\n  jump\t// out\n    /* \"#utility.yul\":12704:12890   */\ntag_78:\n    /* \"#utility.yul\":12764:12884   */\ntag_197:\n    /* \"#utility.yul\":12781:12784   */\n  dup2\n    /* \"#utility.yul\":12774:12779   */\n  dup2\n    /* \"#utility.yul\":12771:12785   */\n  lt\n    /* \"#utility.yul\":12764:12884   */\n  iszero\n  tag_199\n  jumpi\n    /* \"#utility.yul\":12835:12874   */\n  tag_200\n    /* \"#utility.yul\":12872:12873   */\n  0x00\n    /* \"#utility.yul\":12865:12870   */\n  dup3\n    /* \"#utility.yul\":12835:12874   */\n  tag_77\n  jump\t// in\ntag_200:\n    /* \"#utility.yul\":12808:12809   */\n  0x01\n    /* \"#utility.yul\":12801:12806   */\n  dup2\n    /* \"#utility.yul\":12797:12810   */\n  add\n    /* \"#utility.yul\":12788:12810   */\n  swap1\n  pop\n    /* \"#utility.yul\":12764:12884   */\n  jump(tag_197)\ntag_199:\n    /* \"#utility.yul\":12704:12890   */\n  pop\n  pop\n  jump\t// out\n    /* \"#utility.yul\":12896:13439   */\ntag_79:\n    /* \"#utility.yul\":12997:12999   */\n  0x1f\n    /* \"#utility.yul\":12992:12995   */\n  dup3\n    /* \"#utility.yul\":12989:13000   */\n  gt\n    /* \"#utility.yul\":12986:13432   */\n  iszero\n  tag_202\n  jumpi\n    /* \"#utility.yul\":13031:13069   */\n  tag_203\n    /* \"#utility.yul\":13063:13068   */\n  dup2\n    /* \"#utility.yul\":13031:13069   */\n  tag_68\n  jump\t// in\ntag_203:\n    /* \"#utility.yul\":13115:13144   */\n  tag_204\n    /* \"#utility.yul\":13133:13143   */\n  dup5\n    /* \"#utility.yul\":13115:13144   */\n  tag_69\n  jump\t// in\ntag_204:\n    /* \"#utility.yul\":13105:13113   */\n  dup2\n    /* \"#utility.yul\":13101:13145   */\n  add\n    /* \"#utility.yul\":13298:13300   */\n  0x20\n    /* \"#utility.yul\":13286:13296   */\n  dup6\n    /* \"#utility.yul\":13283:13301   */\n  lt\n    /* \"#utility.yul\":13280:13329   */\n  iszero\n  tag_205\n  jumpi\n    /* \"#utility.yul\":13319:13327   */\n  dup2\n    /* \"#utility.yul\":13304:13327   */\n  swap1\n  pop\n    /* \"#utility.yul\":13280:13329   */\ntag_205:\n    /* \"#utility.yul\":13342:13422   */\n  tag_206\n    /* \"#utility.yul\":13398:13420   */\n  tag_207\n    /* \"#utility.yul\":13416:13419   */\n  dup6\n    /* \"#utility.yul\":13398:13420   */\n  tag_69\n  jump\t// in\ntag_207:\n    /* \"#utility.yul\":13388:13396   */\n  dup4\n    /* \"#utility.yul\":13384:13421   */\n  add\n    /* \"#utility.yul\":13371:13382   */\n  dup3\n    /* \"#utility.yul\":13342:13422   */\n  tag_78\n  jump\t// in\ntag_206:\n    /* \"#utility.yul\":13001:13432   */\n  pop\n  pop\n    /* \"#utility.yul\":12986:13432   */\ntag_202:\n    /* \"#utility.yul\":12896:13439   */\n  pop\n  pop\n  pop\n  jump\t// out\n    /* \"#utility.yul\":13445:13562   */\ntag_80:\n    /* \"#utility.yul\":13499:13507   */\n  0x00\n    /* \"#utility.yul\":13549:13554   */\n  dup3\n    /* \"#utility.yul\":13543:13547   */\n  dup3\n    /* \"#utility.yul\":13539:13555   */\n  shr\n    /* \"#utility.yul\":13518:13555   */\n  swap1\n  pop\n    /* \"#utility.yul\":13445:13562   */\n  swap3\n  swap2\n  pop\n  pop\n  jump\t// out\n    /* \"#utility.yul\":13568:13737   */\ntag_81:\n    /* \"#utility.yul\":13612:13618   */\n  0x00\n    /* \"#utility.yul\":13645:13696   */\n  tag_210\n    /* \"#utility.yul\":13693:13694   */\n  0x00\n    /* \"#utility.yul\":13689:13695   */\n  not\n    /* \"#utility.yul\":13681:13686   */\n  dup5\n    /* \"#utility.yul\":13678:13679   */\n  0x08\n    /* \"#utility.yul\":13674:13687   */\n  mul\n    /* \"#utility.yul\":13645:13696   */\n  tag_80\n  jump\t// in\ntag_210:\n    /* \"#utility.yul\":13641:13697   */\n  not\n    /* \"#utility.yul\":13726:13730   */\n  dup1\n    /* \"#utility.yul\":13720:13724   */\n  dup4\n    /* \"#utility.yul\":13716:13731   */\n  and\n    /* \"#utility.yul\":13706:13731   */\n  swap2\n  pop\n    /* \"#utility.yul\":13619:13737   */\n  pop\n    /* \"#utility.yul\":13568:13737   */\n  swap3\n  swap2\n  pop\n  pop\n  jump\t// out\n    /* \"#utility.yul\":13742:14037   */\ntag_82:\n    /* \"#utility.yul\":13818:13822   */\n  0x00\n    /* \"#utility.yul\":13964:13993   */\n  tag_212\n    /* \"#utility.yul\":13989:13992   */\n  dup4\n    /* \"#utility.yul\":13983:13987   */\n  dup4\n    /* \"#utility.yul\":13964:13993   */\n  tag_81\n  jump\t// in\ntag_212:\n    /* \"#utility.yul\":13956:13993   */\n  swap2\n  pop\n    /* \"#utility.yul\":14026:14029   */\n  dup3\n    /* \"#utility.yul\":14023:14024   */\n  0x02\n    /* \"#utility.yul\":14019:14030   */\n  mul\n    /* \"#utility.yul\":14013:14017   */\n  dup3\n    /* \"#utility.yul\":14010:14031   */\n  or\n    /* \"#utility.yul\":14002:14031   */\n  swap1\n  pop\n    /* \"#utility.yul\":13742:14037   */\n  swap3\n  swap2\n  pop\n  pop\n  jump\t// out\n    /* \"#utility.yul\":14042:15437   */\ntag_29:\n    /* \"#utility.yul\":14159:14196   */\n  tag_214\n    /* \"#utility.yul\":14192:14195   */\n  dup3\n    /* \"#utility.yul\":14159:14196   */\n  tag_65\n  jump\t// in\ntag_214:\n    /* \"#utility.yul\":14261:14279   */\n  0xffffffffffffffff\n    /* \"#utility.yul\":14253:14259   */\n  dup2\n    /* \"#utility.yul\":14250:14280   */\n  gt\n    /* \"#utility.yul\":14247:14303   */\n  iszero\n  tag_215\n  jumpi\n    /* \"#utility.yul\":14283:14301   */\n  tag_216\n  tag_42\n  jump\t// in\ntag_216:\n    /* \"#utility.yul\":14247:14303   */\ntag_215:\n    /* \"#utility.yul\":14327:14365   */\n  tag_217\n    /* \"#utility.yul\":14359:14363   */\n  dup3\n    /* \"#utility.yul\":14353:14364   */\n  sload\n    /* \"#utility.yul\":14327:14365   */\n  tag_67\n  jump\t// in\ntag_217:\n    /* \"#utility.yul\":14412:14479   */\n  tag_218\n    /* \"#utility.yul\":14472:14478   */\n  dup3\n    /* \"#utility.yul\":14464:14470   */\n  dup3\n    /* \"#utility.yul\":14458:14462   */\n  dup6\n    /* \"#utility.yul\":14412:14479   */\n  tag_79\n  jump\t// in\ntag_218:\n    /* \"#utility.yul\":14506:14507   */\n  0x00\n    /* \"#utility.yul\":14530:14534   */\n  0x20\n    /* \"#utility.yul\":14517:14534   */\n  swap1\n  pop\n    /* \"#utility.yul\":14562:14564   */\n  0x1f\n    /* \"#utility.yul\":14554:14560   */\n  dup4\n    /* \"#utility.yul\":14551:14565   */\n  gt\n    /* \"#utility.yul\":14579:14580   */\n  0x01\n    /* \"#utility.yul\":14574:15192   */\n  dup2\n  eq\n  tag_220\n  jumpi\n    /* \"#utility.yul\":15236:15237   */\n  0x00\n    /* \"#utility.yul\":15253:15259   */\n  dup5\n    /* \"#utility.yul\":15250:15327   */\n  iszero\n  tag_221\n  jumpi\n    /* \"#utility.yul\":15302:15311   */\n  dup3\n    /* \"#utility.yul\":15297:15300   */\n  dup8\n    /* \"#utility.yul\":15293:15312   */\n  add\n    /* \"#utility.yul\":15287:15313   */\n  mload\n    /* \"#utility.yul\":15278:15313   */\n  swap1\n  pop\n    /* \"#utility.yul\":15250:15327   */\ntag_221:\n    /* \"#utility.yul\":15353:15420   */\n  tag_222\n    /* \"#utility.yul\":15413:15419   */\n  dup6\n    /* \"#utility.yul\":15406:15411   */\n  dup3\n    /* \"#utility.yul\":15353:15420   */\n  tag_82\n  jump\t// in\ntag_222:\n    /* \"#utility.yul\":15347:15351   */\n  dup7\n    /* \"#utility.yul\":15340:15421   */\n  sstore\n    /* \"#utility.yul\":15209:15431   */\n  pop\n    /* \"#utility.yul\":14544:15431   */\n  jump(tag_219)\n    /* \"#utility.yul\":14574:15192   */\ntag_220:\n    /* \"#utility.yul\":14626:14630   */\n  0x1f\n    /* \"#utility.yul\":14622:14631   */\n  not\n    /* \"#utility.yul\":14614:14620   */\n  dup5\n    /* \"#utility.yul\":14610:14632   */\n  and\n    /* \"#utility.yul\":14660:14697   */\n  tag_223\n    /* \"#utility.yul\":14692:14696   */\n  dup7\n    /* \"#utility.yul\":14660:14697   */\n  tag_68\n  jump\t// in\ntag_223:\n    /* \"#utility.yul\":14719:14720   */\n  0x00\n    /* \"#utility.yul\":14733:14941   */\ntag_224:\n    /* \"#utility.yul\":14747:14754   */\n  dup3\n    /* \"#utility.yul\":14744:14745   */\n  dup2\n    /* \"#utility.yul\":14741:14755   */\n  lt\n    /* \"#utility.yul\":14733:14941   */\n  iszero\n  tag_226\n  jumpi\n    /* \"#utility.yul\":14826:14835   */\n  dup5\n    /* \"#utility.yul\":14821:14824   */\n  dup10\n    /* \"#utility.yul\":14817:14836   */\n  add\n    /* \"#utility.yul\":14811:14837   */\n  mload\n    /* \"#utility.yul\":14803:14809   */\n  dup3\n    /* \"#utility.yul\":14796:14838   */\n  sstore\n    /* \"#utility.yul\":14877:14878   */\n  0x01\n    /* \"#utility.yul\":14869:14875   */\n  dup3\n    /* \"#utility.yul\":14865:14879   */\n  add\n    /* \"#utility.yul\":14855:14879   */\n  swap2\n  pop\n    /* \"#utility.yul\":14924:14926   */\n  0x20\n    /* \"#utility.yul\":14913:14922   */\n  dup6\n    /* \"#utility.yul\":14909:14927   */\n  add\n    /* \"#utility.yul\":14896:14927   */\n  swap5\n  pop\n    /* \"#utility.yul\":14770:14774   */\n  0x20\n    /* \"#utility.yul\":14767:14768   */\n  dup2\n    /* \"#utility.yul\":14763:14775   */\n  add\n    /* \"#utility.yul\":14758:14775   */\n  swap1\n  pop\n    /* \"#utility.yul\":14733:14941   */\n  jump(tag_224)\ntag_226:\n    /* \"#utility.yul\":14969:14975   */\n  dup7\n    /* \"#utility.yul\":14960:14967   */\n  dup4\n    /* \"#utility.yul\":14957:14976   */\n  lt\n    /* \"#utility.yul\":14954:15133   */\n  iszero\n  tag_227\n  jumpi\n    /* \"#utility.yul\":15027:15036   */\n  dup5\n    /* \"#utility.yul\":15022:15025   */\n  dup10\n    /* \"#utility.yul\":15018:15037   */\n  add\n    /* \"#utility.yul\":15012:15038   */\n  mload\n    /* \"#utility.yul\":15070:15118   */\n  tag_228\n    /* \"#utility.yul\":15112:15116   */\n  0x1f\n    /* \"#utility.yul\":15104:15110   */\n  dup10\n    /* \"#utility.yul\":15100:15117   */\n  and\n    /* \"#utility.yul\":15089:15098   */\n  dup3\n    /* \"#utility.yul\":15070:15118   */\n  tag_81\n  jump\t// in\ntag_228:\n    /* \"#utility.yul\":15062:15068   */\n  dup4\n    /* \"#utility.yul\":15055:15119   */\n  sstore\n    /* \"#utility.yul\":14977:15133   */\n  pop\n    /* \"#utility.yul\":14954:15133   */\ntag_227:\n    /* \"#utility.yul\":15179:15180   */\n  0x01\n    /* \"#utility.yul\":15175:15176   */\n  0x02\n    /* \"#utility.yul\":15167:15173   */\n  dup9\n    /* \"#utility.yul\":15163:15177   */\n  mul\n    /* \"#utility.yul\":15159:15181   */\n  add\n    /* \"#utility.yul\":15153:15157   */\n  dup9\n    /* \"#utility.yul\":15146:15182   */\n  sstore\n    /* \"#utility.yul\":14581:15192   */\n  pop\n  pop\n  pop\n    /* \"#utility.yul\":14544:15431   */\ntag_219:\n  pop\n    /* \"#utility.yul\":14134:15437   */\n  pop\n  pop\n  pop\n    /* \"#utility.yul\":14042:15437   */\n  pop\n  pop\n  jump\t// out\n    /* \"#utility.yul\":15443:15623   */\ntag_83:\n    /* \"#utility.yul\":15491:15568   */\n  0x4e487b7100000000000000000000000000000000000000000000000000000000\n    /* \"#utility.yul\":15488:15489   */\n  0x00\n    /* \"#utility.yul\":15481:15569   */\n  mstore\n    /* \"#utility.yul\":15588:15592   */\n  0x11\n    /* \"#utility.yul\":15585:15586   */\n  0x04\n    /* \"#utility.yul\":15578:15593   */\n  mstore\n    /* \"#utility.yul\":15612:15616   */\n  0x24\n    /* \"#utility.yul\":15609:15610   */\n  0x00\n    /* \"#utility.yul\":15602:15617   */\n  revert\n    /* \"#utility.yul\":15629:16039   */\ntag_32:\n    /* \"#utility.yul\":15669:15676   */\n  0x00\n    /* \"#utility.yul\":15692:15712   */\n  tag_231\n    /* \"#utility.yul\":15710:15711   */\n  dup3\n    /* \"#utility.yul\":15692:15712   */\n  tag_49\n  jump\t// in\ntag_231:\n    /* \"#utility.yul\":15687:15712   */\n  swap2\n  pop\n    /* \"#utility.yul\":15726:15746   */\n  tag_232\n    /* \"#utility.yul\":15744:15745   */\n  dup4\n    /* \"#utility.yul\":15726:15746   */\n  tag_49\n  jump\t// in\ntag_232:\n    /* \"#utility.yul\":15721:15746   */\n  swap3\n  pop\n    /* \"#utility.yul\":15781:15782   */\n  dup3\n    /* \"#utility.yul\":15778:15779   */\n  dup3\n    /* \"#utility.yul\":15774:15783   */\n  mul\n    /* \"#utility.yul\":15803:15833   */\n  tag_233\n    /* \"#utility.yul\":15821:15832   */\n  dup2\n    /* \"#utility.yul\":15803:15833   */\n  tag_49\n  jump\t// in\ntag_233:\n    /* \"#utility.yul\":15792:15833   */\n  swap2\n  pop\n    /* \"#utility.yul\":15982:15983   */\n  dup3\n    /* \"#utility.yul\":15973:15980   */\n  dup3\n    /* \"#utility.yul\":15969:15984   */\n  div\n    /* \"#utility.yul\":15966:15967   */\n  dup5\n    /* \"#utility.yul\":15963:15985   */\n  eq\n    /* \"#utility.yul\":15943:15944   */\n  dup4\n    /* \"#utility.yul\":15936:15945   */\n  iszero\n    /* \"#utility.yul\":15916:15999   */\n  or\n    /* \"#utility.yul\":15893:16032   */\n  tag_234\n  jumpi\n    /* \"#utility.yul\":16012:16030   */\n  tag_235\n  tag_83\n  jump\t// in\ntag_235:\n    /* \"#utility.yul\":15893:16032   */\ntag_234:\n    /* \"#utility.yul\":15677:16039   */\n  pop\n    /* \"#utility.yul\":15629:16039   */\n  swap3\n  swap2\n  pop\n  pop\n  jump\t// out\n    /* \"#utility.yul\":16045:16236   */\ntag_34:\n    /* \"#utility.yul\":16085:16088   */\n  0x00\n    /* \"#utility.yul\":16104:16124   */\n  tag_237\n    /* \"#utility.yul\":16122:16123   */\n  dup3\n    /* \"#utility.yul\":16104:16124   */\n  tag_49\n  jump\t// in\ntag_237:\n    /* \"#utility.yul\":16099:16124   */\n  swap2\n  pop\n    /* \"#utility.yul\":16138:16158   */\n  tag_238\n    /* \"#utility.yul\":16156:16157   */\n  dup4\n    /* \"#utility.yul\":16138:16158   */\n  tag_49\n  jump\t// in\ntag_238:\n    /* \"#utility.yul\":16133:16158   */\n  swap3\n  pop\n    /* \"#utility.yul\":16181:16182   */\n  dup3\n    /* \"#utility.yul\":16178:16179   */\n  dup3\n    /* \"#utility.yul\":16174:16183   */\n  add\n    /* \"#utility.yul\":16167:16183   */\n  swap1\n  pop\n    /* \"#utility.yul\":16202:16205   */\n  dup1\n    /* \"#utility.yul\":16199:16200   */\n  dup3\n    /* \"#utility.yul\":16196:16206   */\n  gt\n    /* \"#utility.yul\":16193:16229   */\n  iszero\n  tag_239\n  jumpi\n    /* \"#utility.yul\":16209:16227   */\n  tag_240\n  tag_83\n  jump\t// in\ntag_240:\n    /* \"#utility.yul\":16193:16229   */\ntag_239:\n    /* \"#utility.yul\":16045:16236   */\n  swap3\n  swap2\n  pop\n  pop\n  jump\t// out\n    /* \"Contracts/DepositGame.sol\":62:8393  contract DepositGame  {... */\ntag_35:\n  dataSize(sub_0)\n  dup1\n  dataOffset(sub_0)\n  0x00\n  codecopy\n  0x00\n  return\nstop\n\nsub_0: assembly {\n        /* \"Contracts/DepositGame.sol\":62:8393  contract DepositGame  {... */\n      mstore(0x40, 0x80)\n      jumpi(tag_1, lt(calldatasize, 0x04))\n      shr(0xe0, calldataload(0x00))\n      dup1\n      0x7b51b4ad\n      gt\n      tag_22\n      jumpi\n      dup1\n      0xbef3a083\n      gt\n      tag_23\n      jumpi\n      dup1\n      0xbef3a083\n      eq\n      tag_17\n      jumpi\n      dup1\n      0xd65ab5f2\n      eq\n      tag_18\n      jumpi\n      dup1\n      0xf4135992\n      eq\n      tag_19\n      jumpi\n      dup1\n      0xf42b1ae0\n      eq\n      tag_20\n      jumpi\n      dup1\n      0xfc7e286d\n      eq\n      tag_21\n      jumpi\n      jump(tag_2)\n    tag_23:\n      dup1\n      0x7b51b4ad\n      eq\n      tag_12\n      jumpi\n      dup1\n      0x8da5cb5b\n      eq\n      tag_13\n      jumpi\n      dup1\n      0x95d12000\n      eq\n      tag_14\n      jumpi\n      dup1\n      0x97661f31\n      eq\n      tag_15\n      jumpi\n      dup1\n      0xa6f9dae1\n      eq\n      tag_16\n      jumpi\n      jump(tag_2)\n    tag_22:\n      dup1\n      0x40193883\n      gt\n      tag_24\n      jumpi\n      dup1\n      0x40193883\n      eq\n      tag_7\n      jumpi\n      dup1\n      0x499831f2\n      eq\n      tag_8\n      jumpi\n      dup1\n      0x590e1ae3\n      eq\n      tag_9\n      jumpi\n      dup1\n      0x6f9fb98a\n      eq\n      tag_10\n      jumpi\n      dup1\n      0x7284e416\n      eq\n      tag_11\n      jumpi\n      jump(tag_2)\n    tag_24:\n      dup1\n      0x06fdde03\n      eq\n      tag_3\n      jumpi\n      dup1\n      0x31bf64ab\n      eq\n      tag_4\n      jumpi\n      dup1\n      0x35c1d349\n      eq\n      tag_5\n      jumpi\n      dup1\n      0x382396ee\n      eq\n      tag_6\n      jumpi\n      jump(tag_2)\n    tag_1:\n      jumpi(tag_2, calldatasize)\n        /* \"Contracts/DepositGame.sol\":2874:2891  GameStatus.ACTIVE */\n      0x01\n        /* \"Contracts/DepositGame.sol\":2860:2891  gameStatus == GameStatus.ACTIVE */\n      0x05\n      dup2\n      gt\n      iszero\n      tag_27\n      jumpi\n      tag_28\n      tag_29\n      jump\t// in\n    tag_28:\n    tag_27:\n        /* \"Contracts/DepositGame.sol\":2860:2870  gameStatus */\n      0x09\n      0x00\n      swap1\n      sload\n      swap1\n      0x0100\n      exp\n      swap1\n      div\n      0xff\n      and\n        /* \"Contracts/DepositGame.sol\":2860:2891  gameStatus == GameStatus.ACTIVE */\n      0x05\n      dup2\n      gt\n      iszero\n      tag_30\n      jumpi\n      tag_31\n      tag_29\n      jump\t// in\n    tag_31:\n    tag_30:\n      eq\n        /* \"Contracts/DepositGame.sol\":2852:2915  require(gameStatus == GameStatus.ACTIVE, \"Game is not active.\") */\n      tag_32\n      jumpi\n      mload(0x40)\n      0x08c379a000000000000000000000000000000000000000000000000000000000\n      dup2\n      mstore\n      0x04\n      add\n      tag_33\n      swap1\n      tag_34\n      jump\t// in\n    tag_33:\n      mload(0x40)\n      dup1\n      swap2\n      sub\n      swap1\n      revert\n    tag_32:\n        /* \"Contracts/DepositGame.sol\":3860:3875  block.timestamp */\n      timestamp\n        /* \"Contracts/DepositGame.sol\":3849:3857  deadLine */\n      sload(0x04)\n        /* \"Contracts/DepositGame.sol\":3849:3875  deadLine > block.timestamp */\n      gt\n        /* \"Contracts/DepositGame.sol\":3841:3897  require(deadLine > block.timestamp, \"Deadline is over.\") */\n      tag_36\n      jumpi\n      mload(0x40)\n      0x08c379a000000000000000000000000000000000000000000000000000000000\n      dup2\n      mstore\n      0x04\n      add\n      tag_37\n      swap1\n      tag_38\n      jump\t// in\n    tag_37:\n      mload(0x40)\n      dup1\n      swap2\n      sub\n      swap1\n      revert\n    tag_36:\n        /* \"Contracts/DepositGame.sol\":6015:6109  Deposit (... */\n      mload(0x40)\n      dup1\n      0x40\n      add\n      0x40\n      mstore\n      dup1\n        /* \"Contracts/DepositGame.sol\":6047:6056  msg.value */\n      callvalue\n        /* \"Contracts/DepositGame.sol\":6015:6109  Deposit (... */\n      dup2\n      mstore\n      0x20\n      add\n        /* \"Contracts/DepositGame.sol\":6082:6097  block.timestamp */\n      timestamp\n        /* \"Contracts/DepositGame.sol\":6015:6109  Deposit (... */\n      dup2\n      mstore\n      pop\n        /* \"Contracts/DepositGame.sol\":5992:6000  deposits */\n      0x0a\n        /* \"Contracts/DepositGame.sol\":5992:6012  deposits[msg.sender] */\n      0x00\n        /* \"Contracts/DepositGame.sol\":6001:6011  msg.sender */\n      caller\n        /* \"Contracts/DepositGame.sol\":5992:6012  deposits[msg.sender] */\n      0xffffffffffffffffffffffffffffffffffffffff\n      and\n      0xffffffffffffffffffffffffffffffffffffffff\n      and\n      dup2\n      mstore\n      0x20\n      add\n      swap1\n      dup2\n      mstore\n      0x20\n      add\n      0x00\n      keccak256\n        /* \"Contracts/DepositGame.sol\":5992:6109  deposits[msg.sender] = Deposit (... */\n      0x00\n      dup3\n      add\n      mload\n      dup2\n      0x00\n      add\n      sstore\n      0x20\n      dup3\n      add\n      mload\n      dup2\n      0x01\n      add\n      sstore\n      swap1\n      pop\n      pop\n        /* \"Contracts/DepositGame.sol\":6174:6184  maxDeposit */\n      sload(0x07)\n        /* \"Contracts/DepositGame.sol\":6162:6171  msg.value */\n      callvalue\n        /* \"Contracts/DepositGame.sol\":6162:6184  msg.value > maxDeposit */\n      gt\n        /* \"Contracts/DepositGame.sol\":6158:6269  if (msg.value > maxDeposit) {... */\n      iszero\n      tag_40\n      jumpi\n        /* \"Contracts/DepositGame.sol\":6214:6223  msg.value */\n      callvalue\n        /* \"Contracts/DepositGame.sol\":6201:6211  maxDeposit */\n      0x07\n        /* \"Contracts/DepositGame.sol\":6201:6223  maxDeposit = msg.value */\n      dup2\n      swap1\n      sstore\n      pop\n        /* \"Contracts/DepositGame.sol\":6247:6257  msg.sender */\n      caller\n        /* \"Contracts/DepositGame.sol\":6238:6244  leader */\n      0x06\n      0x01\n        /* \"Contracts/DepositGame.sol\":6238:6257  leader = msg.sender */\n      0x0100\n      exp\n      dup2\n      sload\n      dup2\n      0xffffffffffffffffffffffffffffffffffffffff\n      mul\n      not\n      and\n      swap1\n      dup4\n      0xffffffffffffffffffffffffffffffffffffffff\n      and\n      mul\n      or\n      swap1\n      sstore\n      pop\n        /* \"Contracts/DepositGame.sol\":6158:6269  if (msg.value > maxDeposit) {... */\n    tag_40:\n        /* \"Contracts/DepositGame.sol\":6284:6351  Deposited(\"ETH received via fallback\", msg.sender, block.timestamp) */\n      0x086ef21bf36e265f583d1740184679fa503cfbfb695cffff03746dbcbb0a541a\n        /* \"Contracts/DepositGame.sol\":6323:6333  msg.sender */\n      caller\n        /* \"Contracts/DepositGame.sol\":6335:6350  block.timestamp */\n      timestamp\n        /* \"Contracts/DepositGame.sol\":6284:6351  Deposited(\"ETH received via fallback\", msg.sender, block.timestamp) */\n      mload(0x40)\n      tag_41\n      swap3\n      swap2\n      swap1\n      tag_42\n      jump\t// in\n    tag_41:\n      mload(0x40)\n      dup1\n      swap2\n      sub\n      swap1\n      log1\n        /* \"Contracts/DepositGame.sol\":62:8393  contract DepositGame  {... */\n      stop\n    tag_2:\n      revert(0x00, 0x00)\n        /* \"Contracts/DepositGame.sol\":93:111  string public name */\n    tag_3:\n      callvalue\n      dup1\n      iszero\n      tag_43\n      jumpi\n      revert(0x00, 0x00)\n    tag_43:\n      pop\n      tag_44\n      tag_45\n      jump\t// in\n    tag_44:\n      mload(0x40)\n      tag_46\n      swap2\n      swap1\n      tag_47\n      jump\t// in\n    tag_46:\n      mload(0x40)\n      dup1\n      swap2\n      sub\n      swap1\n      return\n        /* \"Contracts/DepositGame.sol\":5335:5906  function makeDepsit() external payable gameShouldBeActive deadlineIsNotReached {... */\n    tag_4:\n      tag_48\n      tag_49\n      jump\t// in\n    tag_48:\n      stop\n        /* \"Contracts/DepositGame.sol\":2375:2404  address[] public participants */\n    tag_5:\n      callvalue\n      dup1\n      iszero\n      tag_50\n      jumpi\n      revert(0x00, 0x00)\n    tag_50:\n      pop\n      tag_51\n      0x04\n      dup1\n      calldatasize\n      sub\n      dup2\n      add\n      swap1\n      tag_52\n      swap2\n      swap1\n      tag_53\n      jump\t// in\n    tag_52:\n      tag_54\n      jump\t// in\n    tag_51:\n      mload(0x40)\n      tag_55\n      swap2\n      swap1\n      tag_56\n      jump\t// in\n    tag_55:\n      mload(0x40)\n      dup1\n      swap2\n      sub\n      swap1\n      return\n        /* \"Contracts/DepositGame.sol\":8044:8138  function getGameStatus() public view returns (GameStatus) {... */\n    tag_6:\n      callvalue\n      dup1\n      iszero\n      tag_57\n      jumpi\n      revert(0x00, 0x00)\n    tag_57:\n      pop\n      tag_58\n      tag_59\n      jump\t// in\n    tag_58:\n      mload(0x40)\n      tag_60\n      swap2\n      swap1\n      tag_61\n      jump\t// in\n    tag_60:\n      mload(0x40)\n      dup1\n      swap2\n      sub\n      swap1\n      return\n        /* \"Contracts/DepositGame.sol\":177:196  uint256 public goal */\n    tag_7:\n      callvalue\n      dup1\n      iszero\n      tag_62\n      jumpi\n      revert(0x00, 0x00)\n    tag_62:\n      pop\n      tag_63\n      tag_64\n      jump\t// in\n    tag_63:\n      mload(0x40)\n      tag_65\n      swap2\n      swap1\n      tag_66\n      jump\t// in\n    tag_65:\n      mload(0x40)\n      dup1\n      swap2\n      sub\n      swap1\n      return\n        /* \"Contracts/DepositGame.sol\":4632:4828  function pauseGame() public onlyOwner gameShouldBeActive {... */\n    tag_8:\n      callvalue\n      dup1\n      iszero\n      tag_67\n      jumpi\n      revert(0x00, 0x00)\n    tag_67:\n      pop\n      tag_68\n      tag_69\n      jump\t// in\n    tag_68:\n      stop\n        /* \"Contracts/DepositGame.sol\":6370:6938  function refund() public nonReentrant gameTerminated {... */\n    tag_9:\n      callvalue\n      dup1\n      iszero\n      tag_70\n      jumpi\n      revert(0x00, 0x00)\n    tag_70:\n      pop\n      tag_71\n      tag_72\n      jump\t// in\n    tag_71:\n      stop\n        /* \"Contracts/DepositGame.sol\":7919:8036  function getContractBalance() public view onlyOwner returns (uint256) {... */\n    tag_10:\n      callvalue\n      dup1\n      iszero\n      tag_73\n      jumpi\n      revert(0x00, 0x00)\n    tag_73:\n      pop\n      tag_74\n      tag_75\n      jump\t// in\n    tag_74:\n      mload(0x40)\n      tag_76\n      swap2\n      swap1\n      tag_66\n      jump\t// in\n    tag_76:\n      mload(0x40)\n      dup1\n      swap2\n      sub\n      swap1\n      return\n        /* \"Contracts/DepositGame.sol\":118:143  string public description */\n    tag_11:\n      callvalue\n      dup1\n      iszero\n      tag_77\n      jumpi\n      revert(0x00, 0x00)\n    tag_77:\n      pop\n      tag_78\n      tag_79\n      jump\t// in\n    tag_78:\n      mload(0x40)\n      tag_80\n      swap2\n      swap1\n      tag_47\n      jump\t// in\n    tag_80:\n      mload(0x40)\n      dup1\n      swap2\n      sub\n      swap1\n      return\n        /* \"Contracts/DepositGame.sol\":6946:7790  function completeGame() public onlyOwner gameShouldBeActive nonReentrant goalShouldBeReached {... */\n    tag_12:\n      callvalue\n      dup1\n      iszero\n      tag_81\n      jumpi\n      revert(0x00, 0x00)\n    tag_81:\n      pop\n      tag_82\n      tag_83\n      jump\t// in\n    tag_82:\n      stop\n        /* \"Contracts/DepositGame.sol\":150:170  address public owner */\n    tag_13:\n      callvalue\n      dup1\n      iszero\n      tag_84\n      jumpi\n      revert(0x00, 0x00)\n    tag_84:\n      pop\n      tag_85\n      tag_86\n      jump\t// in\n    tag_85:\n      mload(0x40)\n      tag_87\n      swap2\n      swap1\n      tag_56\n      jump\t// in\n    tag_87:\n      mload(0x40)\n      dup1\n      swap2\n      sub\n      swap1\n      return\n        /* \"Contracts/DepositGame.sol\":233:260  uint256 public ownerPercent */\n    tag_14:\n      callvalue\n      dup1\n      iszero\n      tag_88\n      jumpi\n      revert(0x00, 0x00)\n    tag_88:\n      pop\n      tag_89\n      tag_90\n      jump\t// in\n    tag_89:\n      mload(0x40)\n      tag_91\n      swap2\n      swap1\n      tag_66\n      jump\t// in\n    tag_91:\n      mload(0x40)\n      dup1\n      swap2\n      sub\n      swap1\n      return\n        /* \"Contracts/DepositGame.sol\":5045:5327  function terminateGame() public onlyOwner gameShouldBeActive {... */\n    tag_15:\n      callvalue\n      dup1\n      iszero\n      tag_92\n      jumpi\n      revert(0x00, 0x00)\n    tag_92:\n      pop\n      tag_93\n      tag_94\n      jump\t// in\n    tag_93:\n      stop\n        /* \"Contracts/DepositGame.sol\":8148:8388  function changeOwner(address _newOwner) public onlyOwner {... */\n    tag_16:\n      callvalue\n      dup1\n      iszero\n      tag_95\n      jumpi\n      revert(0x00, 0x00)\n    tag_95:\n      pop\n      tag_96\n      0x04\n      dup1\n      calldatasize\n      sub\n      dup2\n      add\n      swap1\n      tag_97\n      swap2\n      swap1\n      tag_98\n      jump\t// in\n    tag_97:\n      tag_99\n      jump\t// in\n    tag_96:\n      stop\n        /* \"Contracts/DepositGame.sol\":203:226  uint256 public deadLine */\n    tag_17:\n      callvalue\n      dup1\n      iszero\n      tag_100\n      jumpi\n      revert(0x00, 0x00)\n    tag_100:\n      pop\n      tag_101\n      tag_102\n      jump\t// in\n    tag_101:\n      mload(0x40)\n      tag_103\n      swap2\n      swap1\n      tag_66\n      jump\t// in\n    tag_103:\n      mload(0x40)\n      dup1\n      swap2\n      sub\n      swap1\n      return\n        /* \"Contracts/DepositGame.sol\":4420:4624  function startGame() public onlyOwner gameShouldbeInactive gameBalanceShouldBeEmpty {... */\n    tag_18:\n      callvalue\n      dup1\n      iszero\n      tag_104\n      jumpi\n      revert(0x00, 0x00)\n    tag_104:\n      pop\n      tag_105\n      tag_106\n      jump\t// in\n    tag_105:\n      stop\n        /* \"Contracts/DepositGame.sol\":7804:7911  function getMyDeposit() public view returns (uint256) {... */\n    tag_19:\n      callvalue\n      dup1\n      iszero\n      tag_107\n      jumpi\n      revert(0x00, 0x00)\n    tag_107:\n      pop\n      tag_108\n      tag_109\n      jump\t// in\n    tag_108:\n      mload(0x40)\n      tag_110\n      swap2\n      swap1\n      tag_66\n      jump\t// in\n    tag_110:\n      mload(0x40)\n      dup1\n      swap2\n      sub\n      swap1\n      return\n        /* \"Contracts/DepositGame.sol\":4836:5037  function unPauseGame() public onlyOwner gameShouldBePaused {... */\n    tag_20:\n      callvalue\n      dup1\n      iszero\n      tag_111\n      jumpi\n      revert(0x00, 0x00)\n    tag_111:\n      pop\n      tag_112\n      tag_113\n      jump\t// in\n    tag_112:\n      stop\n        /* \"Contracts/DepositGame.sol\":2296:2339  mapping(address => Deposit) public deposits */\n    tag_21:\n      callvalue\n      dup1\n      iszero\n      tag_114\n      jumpi\n      revert(0x00, 0x00)\n    tag_114:\n      pop\n      tag_115\n      0x04\n      dup1\n      calldatasize\n      sub\n      dup2\n      add\n      swap1\n      tag_116\n      swap2\n      swap1\n      tag_98\n      jump\t// in\n    tag_116:\n      tag_117\n      jump\t// in\n    tag_115:\n      mload(0x40)\n      tag_118\n      swap3\n      swap2\n      swap1\n      tag_119\n      jump\t// in\n    tag_118:\n      mload(0x40)\n      dup1\n      swap2\n      sub\n      swap1\n      return\n        /* \"Contracts/DepositGame.sol\":93:111  string public name */\n    tag_45:\n      0x00\n      dup1\n      sload\n      tag_120\n      swap1\n      tag_121\n      jump\t// in\n    tag_120:\n      dup1\n      0x1f\n      add\n      0x20\n      dup1\n      swap2\n      div\n      mul\n      0x20\n      add\n      mload(0x40)\n      swap1\n      dup2\n      add\n      0x40\n      mstore\n      dup1\n      swap3\n      swap2\n      swap1\n      dup2\n      dup2\n      mstore\n      0x20\n      add\n      dup3\n      dup1\n      sload\n      tag_122\n      swap1\n      tag_121\n      jump\t// in\n    tag_122:\n      dup1\n      iszero\n      tag_123\n      jumpi\n      dup1\n      0x1f\n      lt\n      tag_124\n      jumpi\n      0x0100\n      dup1\n      dup4\n      sload\n      div\n      mul\n      dup4\n      mstore\n      swap2\n      0x20\n      add\n      swap2\n      jump(tag_123)\n    tag_124:\n      dup3\n      add\n      swap2\n      swap1\n      0x00\n      mstore\n      keccak256(0x00, 0x20)\n      swap1\n    tag_125:\n      dup2\n      sload\n      dup2\n      mstore\n      swap1\n      0x01\n      add\n      swap1\n      0x20\n      add\n      dup1\n      dup4\n      gt\n      tag_125\n      jumpi\n      dup3\n      swap1\n      sub\n      0x1f\n      and\n      dup3\n      add\n      swap2\n    tag_123:\n      pop\n      pop\n      pop\n      pop\n      pop\n      dup2\n      jump\t// out\n        /* \"Contracts/DepositGame.sol\":5335:5906  function makeDepsit() external payable gameShouldBeActive deadlineIsNotReached {... */\n    tag_49:\n        /* \"Contracts/DepositGame.sol\":2874:2891  GameStatus.ACTIVE */\n      0x01\n        /* \"Contracts/DepositGame.sol\":2860:2891  gameStatus == GameStatus.ACTIVE */\n      0x05\n      dup2\n      gt\n      iszero\n      tag_127\n      jumpi\n      tag_128\n      tag_29\n      jump\t// in\n    tag_128:\n    tag_127:\n        /* \"Contracts/DepositGame.sol\":2860:2870  gameStatus */\n      0x09\n      0x00\n      swap1\n      sload\n      swap1\n      0x0100\n      exp\n      swap1\n      div\n      0xff\n      and\n        /* \"Contracts/DepositGame.sol\":2860:2891  gameStatus == GameStatus.ACTIVE */\n      0x05\n      dup2\n      gt\n      iszero\n      tag_129\n      jumpi\n      tag_130\n      tag_29\n      jump\t// in\n    tag_130:\n    tag_129:\n      eq\n        /* \"Contracts/DepositGame.sol\":2852:2915  require(gameStatus == GameStatus.ACTIVE, \"Game is not active.\") */\n      tag_131\n      jumpi\n      mload(0x40)\n      0x08c379a000000000000000000000000000000000000000000000000000000000\n      dup2\n      mstore\n      0x04\n      add\n      tag_132\n      swap1\n      tag_34\n      jump\t// in\n    tag_132:\n      mload(0x40)\n      dup1\n      swap2\n      sub\n      swap1\n      revert\n    tag_131:\n        /* \"Contracts/DepositGame.sol\":3860:3875  block.timestamp */\n      timestamp\n        /* \"Contracts/DepositGame.sol\":3849:3857  deadLine */\n      sload(0x04)\n        /* \"Contracts/DepositGame.sol\":3849:3875  deadLine > block.timestamp */\n      gt\n        /* \"Contracts/DepositGame.sol\":3841:3897  require(deadLine > block.timestamp, \"Deadline is over.\") */\n      tag_134\n      jumpi\n      mload(0x40)\n      0x08c379a000000000000000000000000000000000000000000000000000000000\n      dup2\n      mstore\n      0x04\n      add\n      tag_135\n      swap1\n      tag_38\n      jump\t// in\n    tag_135:\n      mload(0x40)\n      dup1\n      swap2\n      sub\n      swap1\n      revert\n    tag_134:\n        /* \"Contracts/DepositGame.sol\":5445:5446  0 */\n      0x00\n        /* \"Contracts/DepositGame.sol\":5433:5442  msg.value */\n      callvalue\n        /* \"Contracts/DepositGame.sol\":5433:5446  msg.value > 0 */\n      gt\n        /* \"Contracts/DepositGame.sol\":5425:5484  require(msg.value > 0, \"Invalid amount. Must be positive.\") */\n      tag_137\n      jumpi\n      mload(0x40)\n      0x08c379a000000000000000000000000000000000000000000000000000000000\n      dup2\n      mstore\n      0x04\n      add\n      tag_138\n      swap1\n      tag_139\n      jump\t// in\n    tag_138:\n      mload(0x40)\n      dup1\n      swap2\n      sub\n      swap1\n      revert\n    tag_137:\n        /* \"Contracts/DepositGame.sol\":5518:5612  Deposit({... */\n      mload(0x40)\n      dup1\n      0x40\n      add\n      0x40\n      mstore\n      dup1\n        /* \"Contracts/DepositGame.sol\":5549:5558  msg.value */\n      callvalue\n        /* \"Contracts/DepositGame.sol\":5518:5612  Deposit({... */\n      dup2\n      mstore\n      0x20\n      add\n        /* \"Contracts/DepositGame.sol\":5584:5599  block.timestamp */\n      timestamp\n        /* \"Contracts/DepositGame.sol\":5518:5612  Deposit({... */\n      dup2\n      mstore\n      pop\n        /* \"Contracts/DepositGame.sol\":5495:5503  deposits */\n      0x0a\n        /* \"Contracts/DepositGame.sol\":5495:5515  deposits[msg.sender] */\n      0x00\n        /* \"Contracts/DepositGame.sol\":5504:5514  msg.sender */\n      caller\n        /* \"Contracts/DepositGame.sol\":5495:5515  deposits[msg.sender] */\n      0xffffffffffffffffffffffffffffffffffffffff\n      and\n      0xffffffffffffffffffffffffffffffffffffffff\n      and\n      dup2\n      mstore\n      0x20\n      add\n      swap1\n      dup2\n      mstore\n      0x20\n      add\n      0x00\n      keccak256\n        /* \"Contracts/DepositGame.sol\":5495:5612  deposits[msg.sender] = Deposit({... */\n      0x00\n      dup3\n      add\n      mload\n      dup2\n      0x00\n      add\n      sstore\n      0x20\n      dup3\n      add\n      mload\n      dup2\n      0x01\n      add\n      sstore\n      swap1\n      pop\n      pop\n        /* \"Contracts/DepositGame.sol\":5623:5636  countDeposits */\n      0x08\n      0x00\n        /* \"Contracts/DepositGame.sol\":5623:5638  countDeposits++ */\n      dup2\n      sload\n      dup1\n      swap3\n      swap2\n      swap1\n      tag_140\n      swap1\n      tag_141\n      jump\t// in\n    tag_140:\n      swap2\n      swap1\n      pop\n      sstore\n      pop\n        /* \"Contracts/DepositGame.sol\":5649:5666  checkUpdateGame() */\n      tag_142\n        /* \"Contracts/DepositGame.sol\":5649:5664  checkUpdateGame */\n      tag_143\n        /* \"Contracts/DepositGame.sol\":5649:5666  checkUpdateGame() */\n      jump\t// in\n    tag_142:\n        /* \"Contracts/DepositGame.sol\":5731:5741  maxDeposit */\n      sload(0x07)\n        /* \"Contracts/DepositGame.sol\":5719:5728  msg.value */\n      callvalue\n        /* \"Contracts/DepositGame.sol\":5719:5741  msg.value > maxDeposit */\n      gt\n        /* \"Contracts/DepositGame.sol\":5715:5826  if (msg.value > maxDeposit) {... */\n      iszero\n      tag_144\n      jumpi\n        /* \"Contracts/DepositGame.sol\":5771:5780  msg.value */\n      callvalue\n        /* \"Contracts/DepositGame.sol\":5758:5768  maxDeposit */\n      0x07\n        /* \"Contracts/DepositGame.sol\":5758:5780  maxDeposit = msg.value */\n      dup2\n      swap1\n      sstore\n      pop\n        /* \"Contracts/DepositGame.sol\":5804:5814  msg.sender */\n      caller\n        /* \"Contracts/DepositGame.sol\":5795:5801  leader */\n      0x06\n      0x01\n        /* \"Contracts/DepositGame.sol\":5795:5814  leader = msg.sender */\n      0x0100\n      exp\n      dup2\n      sload\n      dup2\n      0xffffffffffffffffffffffffffffffffffffffff\n      mul\n      not\n      and\n      swap1\n      dup4\n      0xffffffffffffffffffffffffffffffffffffffff\n      and\n      mul\n      or\n      swap1\n      sstore\n      pop\n        /* \"Contracts/DepositGame.sol\":5715:5826  if (msg.value > maxDeposit) {... */\n    tag_144:\n        /* \"Contracts/DepositGame.sol\":5841:5898  Deposited(\"Deposit is done\", msg.sender, block.timestamp) */\n      0x086ef21bf36e265f583d1740184679fa503cfbfb695cffff03746dbcbb0a541a\n        /* \"Contracts/DepositGame.sol\":5870:5880  msg.sender */\n      caller\n        /* \"Contracts/DepositGame.sol\":5882:5897  block.timestamp */\n      timestamp\n        /* \"Contracts/DepositGame.sol\":5841:5898  Deposited(\"Deposit is done\", msg.sender, block.timestamp) */\n      mload(0x40)\n      tag_145\n      swap3\n      swap2\n      swap1\n      tag_146\n      jump\t// in\n    tag_145:\n      mload(0x40)\n      dup1\n      swap2\n      sub\n      swap1\n      log1\n        /* \"Contracts/DepositGame.sol\":5335:5906  function makeDepsit() external payable gameShouldBeActive deadlineIsNotReached {... */\n      jump\t// out\n        /* \"Contracts/DepositGame.sol\":2375:2404  address[] public participants */\n    tag_54:\n      0x0b\n      dup2\n      dup2\n      sload\n      dup2\n      lt\n      tag_147\n      jumpi\n      0x00\n      dup1\n      revert\n    tag_147:\n      swap1\n      0x00\n      mstore\n      keccak256(0x00, 0x20)\n      add\n      0x00\n      swap2\n      pop\n      sload\n      swap1\n      0x0100\n      exp\n      swap1\n      div\n      0xffffffffffffffffffffffffffffffffffffffff\n      and\n      dup2\n      jump\t// out\n        /* \"Contracts/DepositGame.sol\":8044:8138  function getGameStatus() public view returns (GameStatus) {... */\n    tag_59:\n        /* \"Contracts/DepositGame.sol\":8090:8100  GameStatus */\n      0x00\n        /* \"Contracts/DepositGame.sol\":8120:8130  gameStatus */\n      0x09\n      0x00\n      swap1\n      sload\n      swap1\n      0x0100\n      exp\n      swap1\n      div\n      0xff\n      and\n        /* \"Contracts/DepositGame.sol\":8113:8130  return gameStatus */\n      swap1\n      pop\n        /* \"Contracts/DepositGame.sol\":8044:8138  function getGameStatus() public view returns (GameStatus) {... */\n      swap1\n      jump\t// out\n        /* \"Contracts/DepositGame.sol\":177:196  uint256 public goal */\n    tag_64:\n      sload(0x03)\n      dup2\n      jump\t// out\n        /* \"Contracts/DepositGame.sol\":4632:4828  function pauseGame() public onlyOwner gameShouldBeActive {... */\n    tag_69:\n        /* \"Contracts/DepositGame.sol\":2468:2478  msg.sender */\n      caller\n        /* \"Contracts/DepositGame.sol\":2459:2478  owner == msg.sender */\n      0xffffffffffffffffffffffffffffffffffffffff\n      and\n        /* \"Contracts/DepositGame.sol\":2459:2464  owner */\n      0x02\n      0x00\n      swap1\n      sload\n      swap1\n      0x0100\n      exp\n      swap1\n      div\n      0xffffffffffffffffffffffffffffffffffffffff\n      and\n        /* \"Contracts/DepositGame.sol\":2459:2478  owner == msg.sender */\n      0xffffffffffffffffffffffffffffffffffffffff\n      and\n      eq\n        /* \"Contracts/DepositGame.sol\":2451:2497  require(owner == msg.sender, \"Must be owner.\") */\n      tag_151\n      jumpi\n      mload(0x40)\n      0x08c379a000000000000000000000000000000000000000000000000000000000\n      dup2\n      mstore\n      0x04\n      add\n      tag_152\n      swap1\n      tag_153\n      jump\t// in\n    tag_152:\n      mload(0x40)\n      dup1\n      swap2\n      sub\n      swap1\n      revert\n    tag_151:\n        /* \"Contracts/DepositGame.sol\":2874:2891  GameStatus.ACTIVE */\n      0x01\n        /* \"Contracts/DepositGame.sol\":2860:2891  gameStatus == GameStatus.ACTIVE */\n      0x05\n      dup2\n      gt\n      iszero\n      tag_155\n      jumpi\n      tag_156\n      tag_29\n      jump\t// in\n    tag_156:\n    tag_155:\n        /* \"Contracts/DepositGame.sol\":2860:2870  gameStatus */\n      0x09\n      0x00\n      swap1\n      sload\n      swap1\n      0x0100\n      exp\n      swap1\n      div\n      0xff\n      and\n        /* \"Contracts/DepositGame.sol\":2860:2891  gameStatus == GameStatus.ACTIVE */\n      0x05\n      dup2\n      gt\n      iszero\n      tag_157\n      jumpi\n      tag_158\n      tag_29\n      jump\t// in\n    tag_158:\n    tag_157:\n      eq\n        /* \"Contracts/DepositGame.sol\":2852:2915  require(gameStatus == GameStatus.ACTIVE, \"Game is not active.\") */\n      tag_159\n      jumpi\n      mload(0x40)\n      0x08c379a000000000000000000000000000000000000000000000000000000000\n      dup2\n      mstore\n      0x04\n      add\n      tag_160\n      swap1\n      tag_34\n      jump\t// in\n    tag_160:\n      mload(0x40)\n      dup1\n      swap2\n      sub\n      swap1\n      revert\n    tag_159:\n        /* \"Contracts/DepositGame.sol\":4713:4730  GameStatus.PAUSED */\n      0x02\n        /* \"Contracts/DepositGame.sol\":4700:4710  gameStatus */\n      0x09\n      0x00\n        /* \"Contracts/DepositGame.sol\":4700:4730  gameStatus = GameStatus.PAUSED */\n      0x0100\n      exp\n      dup2\n      sload\n      dup2\n      0xff\n      mul\n      not\n      and\n      swap1\n      dup4\n      0x05\n      dup2\n      gt\n      iszero\n      tag_162\n      jumpi\n      tag_163\n      tag_29\n      jump\t// in\n    tag_163:\n    tag_162:\n      mul\n      or\n      swap1\n      sstore\n      pop\n        /* \"Contracts/DepositGame.sol\":4746:4792  GamePaused(\"Game is paused.\", block.timestamp) */\n      0xd8a7da7323410642828723771d853997704601cf6852ad3353c02d8a0c8c5b83\n        /* \"Contracts/DepositGame.sol\":4776:4791  block.timestamp */\n      timestamp\n        /* \"Contracts/DepositGame.sol\":4746:4792  GamePaused(\"Game is paused.\", block.timestamp) */\n      mload(0x40)\n      tag_164\n      swap2\n      swap1\n      tag_165\n      jump\t// in\n    tag_164:\n      mload(0x40)\n      dup1\n      swap2\n      sub\n      swap1\n      log1\n        /* \"Contracts/DepositGame.sol\":4803:4820  checkUpdateGame() */\n      tag_166\n        /* \"Contracts/DepositGame.sol\":4803:4818  checkUpdateGame */\n      tag_143\n        /* \"Contracts/DepositGame.sol\":4803:4820  checkUpdateGame() */\n      jump\t// in\n    tag_166:\n        /* \"Contracts/DepositGame.sol\":4632:4828  function pauseGame() public onlyOwner gameShouldBeActive {... */\n      jump\t// out\n        /* \"Contracts/DepositGame.sol\":6370:6938  function refund() public nonReentrant gameTerminated {... */\n    tag_72:\n        /* \"Contracts/DepositGame.sol\":2704:2710  locked */\n      0x06\n      0x00\n      swap1\n      sload\n      swap1\n      0x0100\n      exp\n      swap1\n      div\n      0xff\n      and\n        /* \"Contracts/DepositGame.sol\":2703:2710  !locked */\n      iszero\n        /* \"Contracts/DepositGame.sol\":2695:2734  require(!locked, \"Reentrancy detected\") */\n      tag_168\n      jumpi\n      mload(0x40)\n      0x08c379a000000000000000000000000000000000000000000000000000000000\n      dup2\n      mstore\n      0x04\n      add\n      tag_169\n      swap1\n      tag_170\n      jump\t// in\n    tag_169:\n      mload(0x40)\n      dup1\n      swap2\n      sub\n      swap1\n      revert\n    tag_168:\n        /* \"Contracts/DepositGame.sol\":2754:2758  true */\n      0x01\n        /* \"Contracts/DepositGame.sol\":2745:2751  locked */\n      0x06\n      0x00\n        /* \"Contracts/DepositGame.sol\":2745:2758  locked = true */\n      0x0100\n      exp\n      dup2\n      sload\n      dup2\n      0xff\n      mul\n      not\n      and\n      swap1\n      dup4\n      iszero\n      iszero\n      mul\n      or\n      swap1\n      sstore\n      pop\n        /* \"Contracts/DepositGame.sol\":3328:3349  GameStatus.TERMINATED */\n      0x04\n        /* \"Contracts/DepositGame.sol\":3314:3349  gameStatus == GameStatus.TERMINATED */\n      0x05\n      dup2\n      gt\n      iszero\n      tag_172\n      jumpi\n      tag_173\n      tag_29\n      jump\t// in\n    tag_173:\n    tag_172:\n        /* \"Contracts/DepositGame.sol\":3314:3324  gameStatus */\n      0x09\n      0x00\n      swap1\n      sload\n      swap1\n      0x0100\n      exp\n      swap1\n      div\n      0xff\n      and\n        /* \"Contracts/DepositGame.sol\":3314:3349  gameStatus == GameStatus.TERMINATED */\n      0x05\n      dup2\n      gt\n      iszero\n      tag_174\n      jumpi\n      tag_175\n      tag_29\n      jump\t// in\n    tag_175:\n    tag_174:\n      eq\n        /* \"Contracts/DepositGame.sol\":3306:3376  require(gameStatus == GameStatus.TERMINATED, \"Game is not terminated\") */\n      tag_176\n      jumpi\n      mload(0x40)\n      0x08c379a000000000000000000000000000000000000000000000000000000000\n      dup2\n      mstore\n      0x04\n      add\n      tag_177\n      swap1\n      tag_178\n      jump\t// in\n    tag_177:\n      mload(0x40)\n      dup1\n      swap2\n      sub\n      swap1\n      revert\n    tag_176:\n        /* \"Contracts/DepositGame.sol\":6472:6473  0 */\n      0x00\n        /* \"Contracts/DepositGame.sol\":6442:6450  deposits */\n      0x0a\n        /* \"Contracts/DepositGame.sol\":6442:6462  deposits[msg.sender] */\n      0x00\n        /* \"Contracts/DepositGame.sol\":6451:6461  msg.sender */\n      caller\n        /* \"Contracts/DepositGame.sol\":6442:6462  deposits[msg.sender] */\n      0xffffffffffffffffffffffffffffffffffffffff\n      and\n      0xffffffffffffffffffffffffffffffffffffffff\n      and\n      dup2\n      mstore\n      0x20\n      add\n      swap1\n      dup2\n      mstore\n      0x20\n      add\n      0x00\n      keccak256\n        /* \"Contracts/DepositGame.sol\":6442:6469  deposits[msg.sender].amount */\n      0x00\n      add\n      sload\n        /* \"Contracts/DepositGame.sol\":6442:6473  deposits[msg.sender].amount > 0 */\n      gt\n        /* \"Contracts/DepositGame.sol\":6434:6528  require(deposits[msg.sender].amount > 0, \"Your deposit is 0. Should be positive to withdraw.\") */\n      tag_180\n      jumpi\n      mload(0x40)\n      0x08c379a000000000000000000000000000000000000000000000000000000000\n      dup2\n      mstore\n      0x04\n      add\n      tag_181\n      swap1\n      tag_182\n      jump\t// in\n    tag_181:\n      mload(0x40)\n      dup1\n      swap2\n      sub\n      swap1\n      revert\n    tag_180:\n        /* \"Contracts/DepositGame.sol\":6539:6554  uint256 balance */\n      0x00\n        /* \"Contracts/DepositGame.sol\":6557:6565  deposits */\n      0x0a\n        /* \"Contracts/DepositGame.sol\":6557:6577  deposits[msg.sender] */\n      0x00\n        /* \"Contracts/DepositGame.sol\":6566:6576  msg.sender */\n      caller\n        /* \"Contracts/DepositGame.sol\":6557:6577  deposits[msg.sender] */\n      0xffffffffffffffffffffffffffffffffffffffff\n      and\n      0xffffffffffffffffffffffffffffffffffffffff\n      and\n      dup2\n      mstore\n      0x20\n      add\n      swap1\n      dup2\n      mstore\n      0x20\n      add\n      0x00\n      keccak256\n        /* \"Contracts/DepositGame.sol\":6557:6584  deposits[msg.sender].amount */\n      0x00\n      add\n      sload\n        /* \"Contracts/DepositGame.sol\":6539:6584  uint256 balance = deposits[msg.sender].amount */\n      swap1\n      pop\n        /* \"Contracts/DepositGame.sol\":6625:6626  0 */\n      0x00\n        /* \"Contracts/DepositGame.sol\":6595:6603  deposits */\n      0x0a\n        /* \"Contracts/DepositGame.sol\":6595:6615  deposits[msg.sender] */\n      0x00\n        /* \"Contracts/DepositGame.sol\":6604:6614  msg.sender */\n      caller\n        /* \"Contracts/DepositGame.sol\":6595:6615  deposits[msg.sender] */\n      0xffffffffffffffffffffffffffffffffffffffff\n      and\n      0xffffffffffffffffffffffffffffffffffffffff\n      and\n      dup2\n      mstore\n      0x20\n      add\n      swap1\n      dup2\n      mstore\n      0x20\n      add\n      0x00\n      keccak256\n        /* \"Contracts/DepositGame.sol\":6595:6622  deposits[msg.sender].amount */\n      0x00\n      add\n        /* \"Contracts/DepositGame.sol\":6595:6626  deposits[msg.sender].amount = 0 */\n      dup2\n      swap1\n      sstore\n      pop\n        /* \"Contracts/DepositGame.sol\":6638:6650  bool success */\n      0x00\n        /* \"Contracts/DepositGame.sol\":6656:6666  msg.sender */\n      caller\n        /* \"Contracts/DepositGame.sol\":6656:6671  msg.sender.call */\n      0xffffffffffffffffffffffffffffffffffffffff\n      and\n        /* \"Contracts/DepositGame.sol\":6679:6686  balance */\n      dup3\n        /* \"Contracts/DepositGame.sol\":6693:6698  10000 */\n      0x2710\n        /* \"Contracts/DepositGame.sol\":6656:6703  msg.sender.call{value: balance, gas: 10000}(\"\") */\n      swap1\n      mload(0x40)\n      tag_183\n      swap1\n      tag_184\n      jump\t// in\n    tag_183:\n      0x00\n      mload(0x40)\n      dup1\n      dup4\n      sub\n      dup2\n      dup6\n      dup9\n      dup9\n      call\n      swap4\n      pop\n      pop\n      pop\n      pop\n      returndatasize\n      dup1\n      0x00\n      dup2\n      eq\n      tag_187\n      jumpi\n      mload(0x40)\n      swap2\n      pop\n      and(add(returndatasize, 0x3f), not(0x1f))\n      dup3\n      add\n      0x40\n      mstore\n      returndatasize\n      dup3\n      mstore\n      returndatasize\n      0x00\n      0x20\n      dup5\n      add\n      returndatacopy\n      jump(tag_186)\n    tag_187:\n      0x60\n      swap2\n      pop\n    tag_186:\n      pop\n        /* \"Contracts/DepositGame.sol\":6637:6703  (bool success, ) = msg.sender.call{value: balance, gas: 10000}(\"\") */\n      pop\n      swap1\n      pop\n        /* \"Contracts/DepositGame.sol\":6718:6725  success */\n      dup1\n        /* \"Contracts/DepositGame.sol\":6714:6831  if(!success) {... */\n      tag_188\n      jumpi\n        /* \"Contracts/DepositGame.sol\":6772:6779  balance */\n      dup2\n        /* \"Contracts/DepositGame.sol\":6742:6750  deposits */\n      0x0a\n        /* \"Contracts/DepositGame.sol\":6742:6762  deposits[msg.sender] */\n      0x00\n        /* \"Contracts/DepositGame.sol\":6751:6761  msg.sender */\n      caller\n        /* \"Contracts/DepositGame.sol\":6742:6762  deposits[msg.sender] */\n      0xffffffffffffffffffffffffffffffffffffffff\n      and\n      0xffffffffffffffffffffffffffffffffffffffff\n      and\n      dup2\n      mstore\n      0x20\n      add\n      swap1\n      dup2\n      mstore\n      0x20\n      add\n      0x00\n      keccak256\n        /* \"Contracts/DepositGame.sol\":6742:6769  deposits[msg.sender].amount */\n      0x00\n      add\n        /* \"Contracts/DepositGame.sol\":6742:6779  deposits[msg.sender].amount = balance */\n      dup2\n      swap1\n      sstore\n      pop\n        /* \"Contracts/DepositGame.sol\":6794:6819  revert(\"Transfer failed\") */\n      mload(0x40)\n      0x08c379a000000000000000000000000000000000000000000000000000000000\n      dup2\n      mstore\n      0x04\n      add\n      tag_189\n      swap1\n      tag_190\n      jump\t// in\n    tag_189:\n      mload(0x40)\n      dup1\n      swap2\n      sub\n      swap1\n      revert\n        /* \"Contracts/DepositGame.sol\":6714:6831  if(!success) {... */\n    tag_188:\n        /* \"Contracts/DepositGame.sol\":6846:6930  MyDepositWithdrawn(\"My deposit is withdrawed\", msg.sender, balance, block.timestamp) */\n      0x01a7efab681ea302614d1ee06d09053b2eb69ce20a9851858ff847d4d42d3ee0\n        /* \"Contracts/DepositGame.sol\":6893:6903  msg.sender */\n      caller\n        /* \"Contracts/DepositGame.sol\":6905:6912  balance */\n      dup4\n        /* \"Contracts/DepositGame.sol\":6914:6929  block.timestamp */\n      timestamp\n        /* \"Contracts/DepositGame.sol\":6846:6930  MyDepositWithdrawn(\"My deposit is withdrawed\", msg.sender, balance, block.timestamp) */\n      mload(0x40)\n      tag_191\n      swap4\n      swap3\n      swap2\n      swap1\n      tag_192\n      jump\t// in\n    tag_191:\n      mload(0x40)\n      dup1\n      swap2\n      sub\n      swap1\n      log1\n        /* \"Contracts/DepositGame.sol\":6423:6938  {... */\n      pop\n      pop\n        /* \"Contracts/DepositGame.sol\":2790:2795  false */\n      0x00\n        /* \"Contracts/DepositGame.sol\":2781:2787  locked */\n      0x06\n      0x00\n        /* \"Contracts/DepositGame.sol\":2781:2795  locked = false */\n      0x0100\n      exp\n      dup2\n      sload\n      dup2\n      0xff\n      mul\n      not\n      and\n      swap1\n      dup4\n      iszero\n      iszero\n      mul\n      or\n      swap1\n      sstore\n      pop\n        /* \"Contracts/DepositGame.sol\":6370:6938  function refund() public nonReentrant gameTerminated {... */\n      jump\t// out\n        /* \"Contracts/DepositGame.sol\":7919:8036  function getContractBalance() public view onlyOwner returns (uint256) {... */\n    tag_75:\n        /* \"Contracts/DepositGame.sol\":7980:7987  uint256 */\n      0x00\n        /* \"Contracts/DepositGame.sol\":2468:2478  msg.sender */\n      caller\n        /* \"Contracts/DepositGame.sol\":2459:2478  owner == msg.sender */\n      0xffffffffffffffffffffffffffffffffffffffff\n      and\n        /* \"Contracts/DepositGame.sol\":2459:2464  owner */\n      0x02\n      0x00\n      swap1\n      sload\n      swap1\n      0x0100\n      exp\n      swap1\n      div\n      0xffffffffffffffffffffffffffffffffffffffff\n      and\n        /* \"Contracts/DepositGame.sol\":2459:2478  owner == msg.sender */\n      0xffffffffffffffffffffffffffffffffffffffff\n      and\n      eq\n        /* \"Contracts/DepositGame.sol\":2451:2497  require(owner == msg.sender, \"Must be owner.\") */\n      tag_194\n      jumpi\n      mload(0x40)\n      0x08c379a000000000000000000000000000000000000000000000000000000000\n      dup2\n      mstore\n      0x04\n      add\n      tag_195\n      swap1\n      tag_153\n      jump\t// in\n    tag_195:\n      mload(0x40)\n      dup1\n      swap2\n      sub\n      swap1\n      revert\n    tag_194:\n        /* \"Contracts/DepositGame.sol\":8007:8028  address(this).balance */\n      selfbalance\n        /* \"Contracts/DepositGame.sol\":8000:8028  return address(this).balance */\n      swap1\n      pop\n        /* \"Contracts/DepositGame.sol\":7919:8036  function getContractBalance() public view onlyOwner returns (uint256) {... */\n      swap1\n      jump\t// out\n        /* \"Contracts/DepositGame.sol\":118:143  string public description */\n    tag_79:\n      0x01\n      dup1\n      sload\n      tag_197\n      swap1\n      tag_121\n      jump\t// in\n    tag_197:\n      dup1\n      0x1f\n      add\n      0x20\n      dup1\n      swap2\n      div\n      mul\n      0x20\n      add\n      mload(0x40)\n      swap1\n      dup2\n      add\n      0x40\n      mstore\n      dup1\n      swap3\n      swap2\n      swap1\n      dup2\n      dup2\n      mstore\n      0x20\n      add\n      dup3\n      dup1\n      sload\n      tag_198\n      swap1\n      tag_121\n      jump\t// in\n    tag_198:\n      dup1\n      iszero\n      tag_199\n      jumpi\n      dup1\n      0x1f\n      lt\n      tag_200\n      jumpi\n      0x0100\n      dup1\n      dup4\n      sload\n      div\n      mul\n      dup4\n      mstore\n      swap2\n      0x20\n      add\n      swap2\n      jump(tag_199)\n    tag_200:\n      dup3\n      add\n      swap2\n      swap1\n      0x00\n      mstore\n      keccak256(0x00, 0x20)\n      swap1\n    tag_201:\n      dup2\n      sload\n      dup2\n      mstore\n      swap1\n      0x01\n      add\n      swap1\n      0x20\n      add\n      dup1\n      dup4\n      gt\n      tag_201\n      jumpi\n      dup3\n      swap1\n      sub\n      0x1f\n      and\n      dup3\n      add\n      swap2\n    tag_199:\n      pop\n      pop\n      pop\n      pop\n      pop\n      dup2\n      jump\t// out\n        /* \"Contracts/DepositGame.sol\":6946:7790  function completeGame() public onlyOwner gameShouldBeActive nonReentrant goalShouldBeReached {... */\n    tag_83:\n        /* \"Contracts/DepositGame.sol\":2468:2478  msg.sender */\n      caller\n        /* \"Contracts/DepositGame.sol\":2459:2478  owner == msg.sender */\n      0xffffffffffffffffffffffffffffffffffffffff\n      and\n        /* \"Contracts/DepositGame.sol\":2459:2464  owner */\n      0x02\n      0x00\n      swap1\n      sload\n      swap1\n      0x0100\n      exp\n      swap1\n      div\n      0xffffffffffffffffffffffffffffffffffffffff\n      and\n        /* \"Contracts/DepositGame.sol\":2459:2478  owner == msg.sender */\n      0xffffffffffffffffffffffffffffffffffffffff\n      and\n      eq\n        /* \"Contracts/DepositGame.sol\":2451:2497  require(owner == msg.sender, \"Must be owner.\") */\n      tag_203\n      jumpi\n      mload(0x40)\n      0x08c379a000000000000000000000000000000000000000000000000000000000\n      dup2\n      mstore\n      0x04\n      add\n      tag_204\n      swap1\n      tag_153\n      jump\t// in\n    tag_204:\n      mload(0x40)\n      dup1\n      swap2\n      sub\n      swap1\n      revert\n    tag_203:\n        /* \"Contracts/DepositGame.sol\":2874:2891  GameStatus.ACTIVE */\n      0x01\n        /* \"Contracts/DepositGame.sol\":2860:2891  gameStatus == GameStatus.ACTIVE */\n      0x05\n      dup2\n      gt\n      iszero\n      tag_206\n      jumpi\n      tag_207\n      tag_29\n      jump\t// in\n    tag_207:\n    tag_206:\n        /* \"Contracts/DepositGame.sol\":2860:2870  gameStatus */\n      0x09\n      0x00\n      swap1\n      sload\n      swap1\n      0x0100\n      exp\n      swap1\n      div\n      0xff\n      and\n        /* \"Contracts/DepositGame.sol\":2860:2891  gameStatus == GameStatus.ACTIVE */\n      0x05\n      dup2\n      gt\n      iszero\n      tag_208\n      jumpi\n      tag_209\n      tag_29\n      jump\t// in\n    tag_209:\n    tag_208:\n      eq\n        /* \"Contracts/DepositGame.sol\":2852:2915  require(gameStatus == GameStatus.ACTIVE, \"Game is not active.\") */\n      tag_210\n      jumpi\n      mload(0x40)\n      0x08c379a000000000000000000000000000000000000000000000000000000000\n      dup2\n      mstore\n      0x04\n      add\n      tag_211\n      swap1\n      tag_34\n      jump\t// in\n    tag_211:\n      mload(0x40)\n      dup1\n      swap2\n      sub\n      swap1\n      revert\n    tag_210:\n        /* \"Contracts/DepositGame.sol\":2704:2710  locked */\n      0x06\n      0x00\n      swap1\n      sload\n      swap1\n      0x0100\n      exp\n      swap1\n      div\n      0xff\n      and\n        /* \"Contracts/DepositGame.sol\":2703:2710  !locked */\n      iszero\n        /* \"Contracts/DepositGame.sol\":2695:2734  require(!locked, \"Reentrancy detected\") */\n      tag_213\n      jumpi\n      mload(0x40)\n      0x08c379a000000000000000000000000000000000000000000000000000000000\n      dup2\n      mstore\n      0x04\n      add\n      tag_214\n      swap1\n      tag_170\n      jump\t// in\n    tag_214:\n      mload(0x40)\n      dup1\n      swap2\n      sub\n      swap1\n      revert\n    tag_213:\n        /* \"Contracts/DepositGame.sol\":2754:2758  true */\n      0x01\n        /* \"Contracts/DepositGame.sol\":2745:2751  locked */\n      0x06\n      0x00\n        /* \"Contracts/DepositGame.sol\":2745:2758  locked = true */\n      0x0100\n      exp\n      dup2\n      sload\n      dup2\n      0xff\n      mul\n      not\n      and\n      swap1\n      dup4\n      iszero\n      iszero\n      mul\n      or\n      swap1\n      sstore\n      pop\n        /* \"Contracts/DepositGame.sol\":3611:3615  goal */\n      sload(0x03)\n        /* \"Contracts/DepositGame.sol\":3586:3607  address(this).balance */\n      selfbalance\n        /* \"Contracts/DepositGame.sol\":3586:3615  address(this).balance >= goal */\n      lt\n      iszero\n        /* \"Contracts/DepositGame.sol\":3578:3644  require(address(this).balance >= goal, \"Goal is not reached yet.\") */\n      tag_216\n      jumpi\n      mload(0x40)\n      0x08c379a000000000000000000000000000000000000000000000000000000000\n      dup2\n      mstore\n      0x04\n      add\n      tag_217\n      swap1\n      tag_218\n      jump\t// in\n    tag_217:\n      mload(0x40)\n      dup1\n      swap2\n      sub\n      swap1\n      revert\n    tag_216:\n        /* \"Contracts/DepositGame.sol\":7063:7083  GameStatus.COMPLETED */\n      0x03\n        /* \"Contracts/DepositGame.sol\":7050:7060  gameStatus */\n      0x09\n      0x00\n        /* \"Contracts/DepositGame.sol\":7050:7083  gameStatus = GameStatus.COMPLETED */\n      0x0100\n      exp\n      dup2\n      sload\n      dup2\n      0xff\n      mul\n      not\n      and\n      swap1\n      dup4\n      0x05\n      dup2\n      gt\n      iszero\n      tag_220\n      jumpi\n      tag_221\n      tag_29\n      jump\t// in\n    tag_221:\n    tag_220:\n      mul\n      or\n      swap1\n      sstore\n      pop\n        /* \"Contracts/DepositGame.sol\":7123:7138  uint256 balance */\n      0x00\n        /* \"Contracts/DepositGame.sol\":7141:7162  address(this).balance */\n      selfbalance\n        /* \"Contracts/DepositGame.sol\":7123:7162  uint256 balance = address(this).balance */\n      swap1\n      pop\n        /* \"Contracts/DepositGame.sol\":7173:7194  uint256 amountToOwner */\n      0x00\n        /* \"Contracts/DepositGame.sol\":7224:7227  100 */\n      0x64\n        /* \"Contracts/DepositGame.sol\":7208:7220  ownerPercent */\n      sload(0x05)\n        /* \"Contracts/DepositGame.sol\":7198:7205  balance */\n      dup4\n        /* \"Contracts/DepositGame.sol\":7198:7220  balance * ownerPercent */\n      tag_222\n      swap2\n      swap1\n      tag_223\n      jump\t// in\n    tag_222:\n        /* \"Contracts/DepositGame.sol\":7197:7227  (balance * ownerPercent) / 100 */\n      tag_224\n      swap2\n      swap1\n      tag_225\n      jump\t// in\n    tag_224:\n        /* \"Contracts/DepositGame.sol\":7173:7227  uint256 amountToOwner = (balance * ownerPercent) / 100 */\n      swap1\n      pop\n        /* \"Contracts/DepositGame.sol\":7238:7260  uint256 amountToWinner */\n      0x00\n        /* \"Contracts/DepositGame.sol\":7273:7286  amountToOwner */\n      dup2\n        /* \"Contracts/DepositGame.sol\":7263:7270  balance */\n      dup4\n        /* \"Contracts/DepositGame.sol\":7263:7286  balance - amountToOwner */\n      tag_226\n      swap2\n      swap1\n      tag_227\n      jump\t// in\n    tag_226:\n        /* \"Contracts/DepositGame.sol\":7238:7286  uint256 amountToWinner = balance - amountToOwner */\n      swap1\n      pop\n        /* \"Contracts/DepositGame.sol\":7323:7340  bool successOwner */\n      0x00\n        /* \"Contracts/DepositGame.sol\":7346:7351  owner */\n      0x02\n      0x00\n      swap1\n      sload\n      swap1\n      0x0100\n      exp\n      swap1\n      div\n      0xffffffffffffffffffffffffffffffffffffffff\n      and\n        /* \"Contracts/DepositGame.sol\":7346:7356  owner.call */\n      0xffffffffffffffffffffffffffffffffffffffff\n      and\n        /* \"Contracts/DepositGame.sol\":7364:7377  amountToOwner */\n      dup4\n        /* \"Contracts/DepositGame.sol\":7384:7389  10000 */\n      0x2710\n        /* \"Contracts/DepositGame.sol\":7346:7394  owner.call{value: amountToOwner, gas: 10000}(\"\") */\n      swap1\n      mload(0x40)\n      tag_228\n      swap1\n      tag_184\n      jump\t// in\n    tag_228:\n      0x00\n      mload(0x40)\n      dup1\n      dup4\n      sub\n      dup2\n      dup6\n      dup9\n      dup9\n      call\n      swap4\n      pop\n      pop\n      pop\n      pop\n      returndatasize\n      dup1\n      0x00\n      dup2\n      eq\n      tag_231\n      jumpi\n      mload(0x40)\n      swap2\n      pop\n      and(add(returndatasize, 0x3f), not(0x1f))\n      dup3\n      add\n      0x40\n      mstore\n      returndatasize\n      dup3\n      mstore\n      returndatasize\n      0x00\n      0x20\n      dup5\n      add\n      returndatacopy\n      jump(tag_230)\n    tag_231:\n      0x60\n      swap2\n      pop\n    tag_230:\n      pop\n        /* \"Contracts/DepositGame.sol\":7322:7394  (bool successOwner, ) = owner.call{value: amountToOwner, gas: 10000}(\"\") */\n      pop\n      swap1\n      pop\n        /* \"Contracts/DepositGame.sol\":7413:7425  successOwner */\n      dup1\n        /* \"Contracts/DepositGame.sol\":7405:7445  require(successOwner, \"Transfer failed\") */\n      tag_232\n      jumpi\n      mload(0x40)\n      0x08c379a000000000000000000000000000000000000000000000000000000000\n      dup2\n      mstore\n      0x04\n      add\n      tag_233\n      swap1\n      tag_190\n      jump\t// in\n    tag_233:\n      mload(0x40)\n      dup1\n      swap2\n      sub\n      swap1\n      revert\n    tag_232:\n        /* \"Contracts/DepositGame.sol\":7483:7501  bool successLeader */\n      0x00\n        /* \"Contracts/DepositGame.sol\":7507:7513  leader */\n      0x06\n      0x01\n      swap1\n      sload\n      swap1\n      0x0100\n      exp\n      swap1\n      div\n      0xffffffffffffffffffffffffffffffffffffffff\n      and\n        /* \"Contracts/DepositGame.sol\":7507:7518  leader.call */\n      0xffffffffffffffffffffffffffffffffffffffff\n      and\n        /* \"Contracts/DepositGame.sol\":7526:7540  amountToWinner */\n      dup4\n        /* \"Contracts/DepositGame.sol\":7547:7552  10000 */\n      0x2710\n        /* \"Contracts/DepositGame.sol\":7507:7557  leader.call{value: amountToWinner, gas: 10000}(\"\") */\n      swap1\n      mload(0x40)\n      tag_234\n      swap1\n      tag_184\n      jump\t// in\n    tag_234:\n      0x00\n      mload(0x40)\n      dup1\n      dup4\n      sub\n      dup2\n      dup6\n      dup9\n      dup9\n      call\n      swap4\n      pop\n      pop\n      pop\n      pop\n      returndatasize\n      dup1\n      0x00\n      dup2\n      eq\n      tag_237\n      jumpi\n      mload(0x40)\n      swap2\n      pop\n      and(add(returndatasize, 0x3f), not(0x1f))\n      dup3\n      add\n      0x40\n      mstore\n      returndatasize\n      dup3\n      mstore\n      returndatasize\n      0x00\n      0x20\n      dup5\n      add\n      returndatacopy\n      jump(tag_236)\n    tag_237:\n      0x60\n      swap2\n      pop\n    tag_236:\n      pop\n        /* \"Contracts/DepositGame.sol\":7482:7557  (bool successLeader, ) = leader.call{value: amountToWinner, gas: 10000}(\"\") */\n      pop\n      swap1\n      pop\n        /* \"Contracts/DepositGame.sol\":7576:7589  successLeader */\n      dup1\n        /* \"Contracts/DepositGame.sol\":7568:7609  require(successLeader, \"Transfer failed\") */\n      tag_238\n      jumpi\n      mload(0x40)\n      0x08c379a000000000000000000000000000000000000000000000000000000000\n      dup2\n      mstore\n      0x04\n      add\n      tag_239\n      swap1\n      tag_190\n      jump\t// in\n    tag_239:\n      mload(0x40)\n      dup1\n      swap2\n      sub\n      swap1\n      revert\n    tag_238:\n        /* \"Contracts/DepositGame.sol\":7677:7683  leader */\n      0x06\n      0x01\n      swap1\n      sload\n      swap1\n      0x0100\n      exp\n      swap1\n      div\n      0xffffffffffffffffffffffffffffffffffffffff\n      and\n        /* \"Contracts/DepositGame.sol\":7641:7739  GameCompleted(\"Game has finished!\", leader, address(this).balance, countDeposits, block.timestamp) */\n      0xffffffffffffffffffffffffffffffffffffffff\n      and\n      0x7edcc4eb74bc40a75c2d16f7dfa8f8c1191beed4db1d54d5552c4021cca4eaf8\n        /* \"Contracts/DepositGame.sol\":7685:7706  address(this).balance */\n      selfbalance\n        /* \"Contracts/DepositGame.sol\":7708:7721  countDeposits */\n      sload(0x08)\n        /* \"Contracts/DepositGame.sol\":7723:7738  block.timestamp */\n      timestamp\n        /* \"Contracts/DepositGame.sol\":7641:7739  GameCompleted(\"Game has finished!\", leader, address(this).balance, countDeposits, block.timestamp) */\n      mload(0x40)\n      tag_240\n      swap4\n      swap3\n      swap2\n      swap1\n      tag_241\n      jump\t// in\n    tag_240:\n      mload(0x40)\n      dup1\n      swap2\n      sub\n      swap1\n      log2\n        /* \"Contracts/DepositGame.sol\":7763:7782  GameStatus.FINISHED */\n      0x05\n        /* \"Contracts/DepositGame.sol\":7750:7760  gameStatus */\n      0x09\n      0x00\n        /* \"Contracts/DepositGame.sol\":7750:7782  gameStatus = GameStatus.FINISHED */\n      0x0100\n      exp\n      dup2\n      sload\n      dup2\n      0xff\n      mul\n      not\n      and\n      swap1\n      dup4\n      0x05\n      dup2\n      gt\n      iszero\n      tag_242\n      jumpi\n      tag_243\n      tag_29\n      jump\t// in\n    tag_243:\n    tag_242:\n      mul\n      or\n      swap1\n      sstore\n      pop\n        /* \"Contracts/DepositGame.sol\":7039:7790  {... */\n      pop\n      pop\n      pop\n      pop\n      pop\n        /* \"Contracts/DepositGame.sol\":2790:2795  false */\n      0x00\n        /* \"Contracts/DepositGame.sol\":2781:2787  locked */\n      0x06\n      0x00\n        /* \"Contracts/DepositGame.sol\":2781:2795  locked = false */\n      0x0100\n      exp\n      dup2\n      sload\n      dup2\n      0xff\n      mul\n      not\n      and\n      swap1\n      dup4\n      iszero\n      iszero\n      mul\n      or\n      swap1\n      sstore\n      pop\n        /* \"Contracts/DepositGame.sol\":6946:7790  function completeGame() public onlyOwner gameShouldBeActive nonReentrant goalShouldBeReached {... */\n      jump\t// out\n        /* \"Contracts/DepositGame.sol\":150:170  address public owner */\n    tag_86:\n      0x02\n      0x00\n      swap1\n      sload\n      swap1\n      0x0100\n      exp\n      swap1\n      div\n      0xffffffffffffffffffffffffffffffffffffffff\n      and\n      dup2\n      jump\t// out\n        /* \"Contracts/DepositGame.sol\":233:260  uint256 public ownerPercent */\n    tag_90:\n      sload(0x05)\n      dup2\n      jump\t// out\n        /* \"Contracts/DepositGame.sol\":5045:5327  function terminateGame() public onlyOwner gameShouldBeActive {... */\n    tag_94:\n        /* \"Contracts/DepositGame.sol\":2468:2478  msg.sender */\n      caller\n        /* \"Contracts/DepositGame.sol\":2459:2478  owner == msg.sender */\n      0xffffffffffffffffffffffffffffffffffffffff\n      and\n        /* \"Contracts/DepositGame.sol\":2459:2464  owner */\n      0x02\n      0x00\n      swap1\n      sload\n      swap1\n      0x0100\n      exp\n      swap1\n      div\n      0xffffffffffffffffffffffffffffffffffffffff\n      and\n        /* \"Contracts/DepositGame.sol\":2459:2478  owner == msg.sender */\n      0xffffffffffffffffffffffffffffffffffffffff\n      and\n      eq\n        /* \"Contracts/DepositGame.sol\":2451:2497  require(owner == msg.sender, \"Must be owner.\") */\n      tag_245\n      jumpi\n      mload(0x40)\n      0x08c379a000000000000000000000000000000000000000000000000000000000\n      dup2\n      mstore\n      0x04\n      add\n      tag_246\n      swap1\n      tag_153\n      jump\t// in\n    tag_246:\n      mload(0x40)\n      dup1\n      swap2\n      sub\n      swap1\n      revert\n    tag_245:\n        /* \"Contracts/DepositGame.sol\":2874:2891  GameStatus.ACTIVE */\n      0x01\n        /* \"Contracts/DepositGame.sol\":2860:2891  gameStatus == GameStatus.ACTIVE */\n      0x05\n      dup2\n      gt\n      iszero\n      tag_248\n      jumpi\n      tag_249\n      tag_29\n      jump\t// in\n    tag_249:\n    tag_248:\n        /* \"Contracts/DepositGame.sol\":2860:2870  gameStatus */\n      0x09\n      0x00\n      swap1\n      sload\n      swap1\n      0x0100\n      exp\n      swap1\n      div\n      0xff\n      and\n        /* \"Contracts/DepositGame.sol\":2860:2891  gameStatus == GameStatus.ACTIVE */\n      0x05\n      dup2\n      gt\n      iszero\n      tag_250\n      jumpi\n      tag_251\n      tag_29\n      jump\t// in\n    tag_251:\n    tag_250:\n      eq\n        /* \"Contracts/DepositGame.sol\":2852:2915  require(gameStatus == GameStatus.ACTIVE, \"Game is not active.\") */\n      tag_252\n      jumpi\n      mload(0x40)\n      0x08c379a000000000000000000000000000000000000000000000000000000000\n      dup2\n      mstore\n      0x04\n      add\n      tag_253\n      swap1\n      tag_34\n      jump\t// in\n    tag_253:\n      mload(0x40)\n      dup1\n      swap2\n      sub\n      swap1\n      revert\n    tag_252:\n        /* \"Contracts/DepositGame.sol\":5117:5134  checkUpdateGame() */\n      tag_255\n        /* \"Contracts/DepositGame.sol\":5117:5132  checkUpdateGame */\n      tag_143\n        /* \"Contracts/DepositGame.sol\":5117:5134  checkUpdateGame() */\n      jump\t// in\n    tag_255:\n        /* \"Contracts/DepositGame.sol\":5163:5183  GameStatus.COMPLETED */\n      0x03\n        /* \"Contracts/DepositGame.sol\":5149:5183  gameStatus != GameStatus.COMPLETED */\n      0x05\n      dup2\n      gt\n      iszero\n      tag_256\n      jumpi\n      tag_257\n      tag_29\n      jump\t// in\n    tag_257:\n    tag_256:\n        /* \"Contracts/DepositGame.sol\":5149:5159  gameStatus */\n      0x09\n      0x00\n      swap1\n      sload\n      swap1\n      0x0100\n      exp\n      swap1\n      div\n      0xff\n      and\n        /* \"Contracts/DepositGame.sol\":5149:5183  gameStatus != GameStatus.COMPLETED */\n      0x05\n      dup2\n      gt\n      iszero\n      tag_258\n      jumpi\n      tag_259\n      tag_29\n      jump\t// in\n    tag_259:\n    tag_258:\n      eq\n        /* \"Contracts/DepositGame.sol\":5145:5320  if (gameStatus != GameStatus.COMPLETED){... */\n      tag_260\n      jumpi\n        /* \"Contracts/DepositGame.sol\":5213:5234  GameStatus.TERMINATED */\n      0x04\n        /* \"Contracts/DepositGame.sol\":5200:5210  gameStatus */\n      0x09\n      0x00\n        /* \"Contracts/DepositGame.sol\":5200:5234  gameStatus = GameStatus.TERMINATED */\n      0x0100\n      exp\n      dup2\n      sload\n      dup2\n      0xff\n      mul\n      not\n      and\n      swap1\n      dup4\n      0x05\n      dup2\n      gt\n      iszero\n      tag_261\n      jumpi\n      tag_262\n      tag_29\n      jump\t// in\n    tag_262:\n    tag_261:\n      mul\n      or\n      swap1\n      sstore\n      pop\n        /* \"Contracts/DepositGame.sol\":5255:5308  GameTerminated(\"Game is terminated\", block.timestamp) */\n      0x531d9ed07fc41c774a20a0c80bfc1e3d4a1d5d5f028915424bfb538e9761ab50\n        /* \"Contracts/DepositGame.sol\":5292:5307  block.timestamp */\n      timestamp\n        /* \"Contracts/DepositGame.sol\":5255:5308  GameTerminated(\"Game is terminated\", block.timestamp) */\n      mload(0x40)\n      tag_263\n      swap2\n      swap1\n      tag_264\n      jump\t// in\n    tag_263:\n      mload(0x40)\n      dup1\n      swap2\n      sub\n      swap1\n      log1\n        /* \"Contracts/DepositGame.sol\":5145:5320  if (gameStatus != GameStatus.COMPLETED){... */\n    tag_260:\n        /* \"Contracts/DepositGame.sol\":5045:5327  function terminateGame() public onlyOwner gameShouldBeActive {... */\n      jump\t// out\n        /* \"Contracts/DepositGame.sol\":8148:8388  function changeOwner(address _newOwner) public onlyOwner {... */\n    tag_99:\n        /* \"Contracts/DepositGame.sol\":2468:2478  msg.sender */\n      caller\n        /* \"Contracts/DepositGame.sol\":2459:2478  owner == msg.sender */\n      0xffffffffffffffffffffffffffffffffffffffff\n      and\n        /* \"Contracts/DepositGame.sol\":2459:2464  owner */\n      0x02\n      0x00\n      swap1\n      sload\n      swap1\n      0x0100\n      exp\n      swap1\n      div\n      0xffffffffffffffffffffffffffffffffffffffff\n      and\n        /* \"Contracts/DepositGame.sol\":2459:2478  owner == msg.sender */\n      0xffffffffffffffffffffffffffffffffffffffff\n      and\n      eq\n        /* \"Contracts/DepositGame.sol\":2451:2497  require(owner == msg.sender, \"Must be owner.\") */\n      tag_266\n      jumpi\n      mload(0x40)\n      0x08c379a000000000000000000000000000000000000000000000000000000000\n      dup2\n      mstore\n      0x04\n      add\n      tag_267\n      swap1\n      tag_153\n      jump\t// in\n    tag_267:\n      mload(0x40)\n      dup1\n      swap2\n      sub\n      swap1\n      revert\n    tag_266:\n        /* \"Contracts/DepositGame.sol\":8245:8246  0 */\n      0x00\n        /* \"Contracts/DepositGame.sol\":8224:8247  _newOwner != address(0) */\n      0xffffffffffffffffffffffffffffffffffffffff\n      and\n        /* \"Contracts/DepositGame.sol\":8224:8233  _newOwner */\n      dup2\n        /* \"Contracts/DepositGame.sol\":8224:8247  _newOwner != address(0) */\n      0xffffffffffffffffffffffffffffffffffffffff\n      and\n      sub\n        /* \"Contracts/DepositGame.sol\":8216:8267  require(_newOwner != address(0), \"Invalid address\") */\n      tag_269\n      jumpi\n      mload(0x40)\n      0x08c379a000000000000000000000000000000000000000000000000000000000\n      dup2\n      mstore\n      0x04\n      add\n      tag_270\n      swap1\n      tag_271\n      jump\t// in\n    tag_270:\n      mload(0x40)\n      dup1\n      swap2\n      sub\n      swap1\n      revert\n    tag_269:\n        /* \"Contracts/DepositGame.sol\":8286:8295  _newOwner */\n      dup1\n        /* \"Contracts/DepositGame.sol\":8278:8283  owner */\n      0x02\n      0x00\n        /* \"Contracts/DepositGame.sol\":8278:8295  owner = _newOwner */\n      0x0100\n      exp\n      dup2\n      sload\n      dup2\n      0xffffffffffffffffffffffffffffffffffffffff\n      mul\n      not\n      and\n      swap1\n      dup4\n      0xffffffffffffffffffffffffffffffffffffffff\n      and\n      mul\n      or\n      swap1\n      sstore\n      pop\n        /* \"Contracts/DepositGame.sol\":8311:8379  OwnerChange(\"Owner has changed.\", owner, _newOwner, block.timestamp) */\n      0xae9d288f06c8e7b741f4a9ad5f43155ea325688e0cd2a76d1d8474ceb0c726aa\n        /* \"Contracts/DepositGame.sol\":8345:8350  owner */\n      0x02\n      0x00\n      swap1\n      sload\n      swap1\n      0x0100\n      exp\n      swap1\n      div\n      0xffffffffffffffffffffffffffffffffffffffff\n      and\n        /* \"Contracts/DepositGame.sol\":8352:8361  _newOwner */\n      dup3\n        /* \"Contracts/DepositGame.sol\":8363:8378  block.timestamp */\n      timestamp\n        /* \"Contracts/DepositGame.sol\":8311:8379  OwnerChange(\"Owner has changed.\", owner, _newOwner, block.timestamp) */\n      mload(0x40)\n      tag_272\n      swap4\n      swap3\n      swap2\n      swap1\n      tag_273\n      jump\t// in\n    tag_272:\n      mload(0x40)\n      dup1\n      swap2\n      sub\n      swap1\n      log1\n        /* \"Contracts/DepositGame.sol\":8148:8388  function changeOwner(address _newOwner) public onlyOwner {... */\n      pop\n      jump\t// out\n        /* \"Contracts/DepositGame.sol\":203:226  uint256 public deadLine */\n    tag_102:\n      sload(0x04)\n      dup2\n      jump\t// out\n        /* \"Contracts/DepositGame.sol\":4420:4624  function startGame() public onlyOwner gameShouldbeInactive gameBalanceShouldBeEmpty {... */\n    tag_106:\n        /* \"Contracts/DepositGame.sol\":2468:2478  msg.sender */\n      caller\n        /* \"Contracts/DepositGame.sol\":2459:2478  owner == msg.sender */\n      0xffffffffffffffffffffffffffffffffffffffff\n      and\n        /* \"Contracts/DepositGame.sol\":2459:2464  owner */\n      0x02\n      0x00\n      swap1\n      sload\n      swap1\n      0x0100\n      exp\n      swap1\n      div\n      0xffffffffffffffffffffffffffffffffffffffff\n      and\n        /* \"Contracts/DepositGame.sol\":2459:2478  owner == msg.sender */\n      0xffffffffffffffffffffffffffffffffffffffff\n      and\n      eq\n        /* \"Contracts/DepositGame.sol\":2451:2497  require(owner == msg.sender, \"Must be owner.\") */\n      tag_275\n      jumpi\n      mload(0x40)\n      0x08c379a000000000000000000000000000000000000000000000000000000000\n      dup2\n      mstore\n      0x04\n      add\n      tag_276\n      swap1\n      tag_153\n      jump\t// in\n    tag_276:\n      mload(0x40)\n      dup1\n      swap2\n      sub\n      swap1\n      revert\n    tag_275:\n        /* \"Contracts/DepositGame.sol\":3008:3027  GameStatus.INACTIVE */\n      0x00\n        /* \"Contracts/DepositGame.sol\":2994:3027  gameStatus == GameStatus.INACTIVE */\n      0x05\n      dup2\n      gt\n      iszero\n      tag_278\n      jumpi\n      tag_279\n      tag_29\n      jump\t// in\n    tag_279:\n    tag_278:\n        /* \"Contracts/DepositGame.sol\":2994:3004  gameStatus */\n      0x09\n      0x00\n      swap1\n      sload\n      swap1\n      0x0100\n      exp\n      swap1\n      div\n      0xff\n      and\n        /* \"Contracts/DepositGame.sol\":2994:3027  gameStatus == GameStatus.INACTIVE */\n      0x05\n      dup2\n      gt\n      iszero\n      tag_280\n      jumpi\n      tag_281\n      tag_29\n      jump\t// in\n    tag_281:\n    tag_280:\n      eq\n        /* \"Contracts/DepositGame.sol\":2994:3065  gameStatus == GameStatus.INACTIVE || gameStatus == GameStatus.COMPLETED */\n      dup1\n      tag_282\n      jumpi\n      pop\n        /* \"Contracts/DepositGame.sol\":3045:3065  GameStatus.COMPLETED */\n      0x03\n        /* \"Contracts/DepositGame.sol\":3031:3065  gameStatus == GameStatus.COMPLETED */\n      0x05\n      dup2\n      gt\n      iszero\n      tag_283\n      jumpi\n      tag_284\n      tag_29\n      jump\t// in\n    tag_284:\n    tag_283:\n        /* \"Contracts/DepositGame.sol\":3031:3041  gameStatus */\n      0x09\n      0x00\n      swap1\n      sload\n      swap1\n      0x0100\n      exp\n      swap1\n      div\n      0xff\n      and\n        /* \"Contracts/DepositGame.sol\":3031:3065  gameStatus == GameStatus.COMPLETED */\n      0x05\n      dup2\n      gt\n      iszero\n      tag_285\n      jumpi\n      tag_286\n      tag_29\n      jump\t// in\n    tag_286:\n    tag_285:\n      eq\n        /* \"Contracts/DepositGame.sol\":2994:3065  gameStatus == GameStatus.INACTIVE || gameStatus == GameStatus.COMPLETED */\n    tag_282:\n        /* \"Contracts/DepositGame.sol\":2986:3095  require(gameStatus == GameStatus.INACTIVE || gameStatus == GameStatus.COMPLETED, \"Game is active or paused.\") */\n      tag_287\n      jumpi\n      mload(0x40)\n      0x08c379a000000000000000000000000000000000000000000000000000000000\n      dup2\n      mstore\n      0x04\n      add\n      tag_288\n      swap1\n      tag_289\n      jump\t// in\n    tag_288:\n      mload(0x40)\n      dup1\n      swap2\n      sub\n      swap1\n      revert\n    tag_287:\n        /* \"Contracts/DepositGame.sol\":3203:3204  0 */\n      0x00\n        /* \"Contracts/DepositGame.sol\":3178:3199  address(this).balance */\n      selfbalance\n        /* \"Contracts/DepositGame.sol\":3178:3204  address(this).balance == 0 */\n      eq\n        /* \"Contracts/DepositGame.sol\":3170:3241  require(address(this).balance == 0, \"Contract balance should be empty\") */\n      tag_291\n      jumpi\n      mload(0x40)\n      0x08c379a000000000000000000000000000000000000000000000000000000000\n      dup2\n      mstore\n      0x04\n      add\n      tag_292\n      swap1\n      tag_293\n      jump\t// in\n    tag_292:\n      mload(0x40)\n      dup1\n      swap2\n      sub\n      swap1\n      revert\n    tag_291:\n        /* \"Contracts/DepositGame.sol\":4528:4545  GameStatus.ACTIVE */\n      0x01\n        /* \"Contracts/DepositGame.sol\":4515:4525  gameStatus */\n      0x09\n      0x00\n        /* \"Contracts/DepositGame.sol\":4515:4545  gameStatus = GameStatus.ACTIVE */\n      0x0100\n      exp\n      dup2\n      sload\n      dup2\n      0xff\n      mul\n      not\n      and\n      swap1\n      dup4\n      0x05\n      dup2\n      gt\n      iszero\n      tag_295\n      jumpi\n      tag_296\n      tag_29\n      jump\t// in\n    tag_296:\n    tag_295:\n      mul\n      or\n      swap1\n      sstore\n      pop\n        /* \"Contracts/DepositGame.sol\":4561:4616  GameStarted(\"Game has started!\", goal, block.timestamp) */\n      0x420c0b3991b6de993da00acefc7fb12bef31604d94cab8bf2a6e104e273cbf1f\n        /* \"Contracts/DepositGame.sol\":4594:4598  goal */\n      sload(0x03)\n        /* \"Contracts/DepositGame.sol\":4600:4615  block.timestamp */\n      timestamp\n        /* \"Contracts/DepositGame.sol\":4561:4616  GameStarted(\"Game has started!\", goal, block.timestamp) */\n      mload(0x40)\n      tag_297\n      swap3\n      swap2\n      swap1\n      tag_298\n      jump\t// in\n    tag_297:\n      mload(0x40)\n      dup1\n      swap2\n      sub\n      swap1\n      log1\n        /* \"Contracts/DepositGame.sol\":4420:4624  function startGame() public onlyOwner gameShouldbeInactive gameBalanceShouldBeEmpty {... */\n      jump\t// out\n        /* \"Contracts/DepositGame.sol\":7804:7911  function getMyDeposit() public view returns (uint256) {... */\n    tag_109:\n        /* \"Contracts/DepositGame.sol\":7849:7856  uint256 */\n      0x00\n        /* \"Contracts/DepositGame.sol\":7876:7884  deposits */\n      0x0a\n        /* \"Contracts/DepositGame.sol\":7876:7896  deposits[msg.sender] */\n      0x00\n        /* \"Contracts/DepositGame.sol\":7885:7895  msg.sender */\n      caller\n        /* \"Contracts/DepositGame.sol\":7876:7896  deposits[msg.sender] */\n      0xffffffffffffffffffffffffffffffffffffffff\n      and\n      0xffffffffffffffffffffffffffffffffffffffff\n      and\n      dup2\n      mstore\n      0x20\n      add\n      swap1\n      dup2\n      mstore\n      0x20\n      add\n      0x00\n      keccak256\n        /* \"Contracts/DepositGame.sol\":7876:7903  deposits[msg.sender].amount */\n      0x00\n      add\n      sload\n        /* \"Contracts/DepositGame.sol\":7869:7903  return deposits[msg.sender].amount */\n      swap1\n      pop\n        /* \"Contracts/DepositGame.sol\":7804:7911  function getMyDeposit() public view returns (uint256) {... */\n      swap1\n      jump\t// out\n        /* \"Contracts/DepositGame.sol\":4836:5037  function unPauseGame() public onlyOwner gameShouldBePaused {... */\n    tag_113:\n        /* \"Contracts/DepositGame.sol\":2468:2478  msg.sender */\n      caller\n        /* \"Contracts/DepositGame.sol\":2459:2478  owner == msg.sender */\n      0xffffffffffffffffffffffffffffffffffffffff\n      and\n        /* \"Contracts/DepositGame.sol\":2459:2464  owner */\n      0x02\n      0x00\n      swap1\n      sload\n      swap1\n      0x0100\n      exp\n      swap1\n      div\n      0xffffffffffffffffffffffffffffffffffffffff\n      and\n        /* \"Contracts/DepositGame.sol\":2459:2478  owner == msg.sender */\n      0xffffffffffffffffffffffffffffffffffffffff\n      and\n      eq\n        /* \"Contracts/DepositGame.sol\":2451:2497  require(owner == msg.sender, \"Must be owner.\") */\n      tag_301\n      jumpi\n      mload(0x40)\n      0x08c379a000000000000000000000000000000000000000000000000000000000\n      dup2\n      mstore\n      0x04\n      add\n      tag_302\n      swap1\n      tag_153\n      jump\t// in\n    tag_302:\n      mload(0x40)\n      dup1\n      swap2\n      sub\n      swap1\n      revert\n    tag_301:\n        /* \"Contracts/DepositGame.sol\":3467:3484  GameStatus.PAUSED */\n      0x02\n        /* \"Contracts/DepositGame.sol\":3453:3484  gameStatus == GameStatus.PAUSED */\n      0x05\n      dup2\n      gt\n      iszero\n      tag_304\n      jumpi\n      tag_305\n      tag_29\n      jump\t// in\n    tag_305:\n    tag_304:\n        /* \"Contracts/DepositGame.sol\":3453:3463  gameStatus */\n      0x09\n      0x00\n      swap1\n      sload\n      swap1\n      0x0100\n      exp\n      swap1\n      div\n      0xff\n      and\n        /* \"Contracts/DepositGame.sol\":3453:3484  gameStatus == GameStatus.PAUSED */\n      0x05\n      dup2\n      gt\n      iszero\n      tag_306\n      jumpi\n      tag_307\n      tag_29\n      jump\t// in\n    tag_307:\n    tag_306:\n      eq\n        /* \"Contracts/DepositGame.sol\":3445:3508  require(gameStatus == GameStatus.PAUSED, \"Game is not paused.\") */\n      tag_308\n      jumpi\n      mload(0x40)\n      0x08c379a000000000000000000000000000000000000000000000000000000000\n      dup2\n      mstore\n      0x04\n      add\n      tag_309\n      swap1\n      tag_310\n      jump\t// in\n    tag_309:\n      mload(0x40)\n      dup1\n      swap2\n      sub\n      swap1\n      revert\n    tag_308:\n        /* \"Contracts/DepositGame.sol\":4919:4936  GameStatus.ACTIVE */\n      0x01\n        /* \"Contracts/DepositGame.sol\":4906:4916  gameStatus */\n      0x09\n      0x00\n        /* \"Contracts/DepositGame.sol\":4906:4936  gameStatus = GameStatus.ACTIVE */\n      0x0100\n      exp\n      dup2\n      sload\n      dup2\n      0xff\n      mul\n      not\n      and\n      swap1\n      dup4\n      0x05\n      dup2\n      gt\n      iszero\n      tag_312\n      jumpi\n      tag_313\n      tag_29\n      jump\t// in\n    tag_313:\n    tag_312:\n      mul\n      or\n      swap1\n      sstore\n      pop\n        /* \"Contracts/DepositGame.sol\":4952:5001  GameUnpaused(\"Game is unpaused\", block.timestamp) */\n      0x6b8be408dc299319e92648f903a6eb02a11eed17a1f419ccd4edf8f46e8daaa2\n        /* \"Contracts/DepositGame.sol\":4985:5000  block.timestamp */\n      timestamp\n        /* \"Contracts/DepositGame.sol\":4952:5001  GameUnpaused(\"Game is unpaused\", block.timestamp) */\n      mload(0x40)\n      tag_314\n      swap2\n      swap1\n      tag_315\n      jump\t// in\n    tag_314:\n      mload(0x40)\n      dup1\n      swap2\n      sub\n      swap1\n      log1\n        /* \"Contracts/DepositGame.sol\":5012:5029  checkUpdateGame() */\n      tag_316\n        /* \"Contracts/DepositGame.sol\":5012:5027  checkUpdateGame */\n      tag_143\n        /* \"Contracts/DepositGame.sol\":5012:5029  checkUpdateGame() */\n      jump\t// in\n    tag_316:\n        /* \"Contracts/DepositGame.sol\":4836:5037  function unPauseGame() public onlyOwner gameShouldBePaused {... */\n      jump\t// out\n        /* \"Contracts/DepositGame.sol\":2296:2339  mapping(address => Deposit) public deposits */\n    tag_117:\n      mstore(0x20, 0x0a)\n      dup1\n      0x00\n      mstore\n      keccak256(0x00, 0x40)\n      0x00\n      swap2\n      pop\n      swap1\n      pop\n      dup1\n      0x00\n      add\n      sload\n      swap1\n      dup1\n      0x01\n      add\n      sload\n      swap1\n      pop\n      dup3\n      jump\t// out\n        /* \"Contracts/DepositGame.sol\":4070:4406  function checkUpdateGame() internal {... */\n    tag_143:\n        /* \"Contracts/DepositGame.sol\":4135:4152  GameStatus.ACTIVE */\n      0x01\n        /* \"Contracts/DepositGame.sol\":4121:4152  gameStatus == GameStatus.ACTIVE */\n      0x05\n      dup2\n      gt\n      iszero\n      tag_318\n      jumpi\n      tag_319\n      tag_29\n      jump\t// in\n    tag_319:\n    tag_318:\n        /* \"Contracts/DepositGame.sol\":4121:4131  gameStatus */\n      0x09\n      0x00\n      swap1\n      sload\n      swap1\n      0x0100\n      exp\n      swap1\n      div\n      0xff\n      and\n        /* \"Contracts/DepositGame.sol\":4121:4152  gameStatus == GameStatus.ACTIVE */\n      0x05\n      dup2\n      gt\n      iszero\n      tag_320\n      jumpi\n      tag_321\n      tag_29\n      jump\t// in\n    tag_321:\n    tag_320:\n      sub\n        /* \"Contracts/DepositGame.sol\":4117:4399  if (gameStatus == GameStatus.ACTIVE) {... */\n      tag_322\n      jumpi\n        /* \"Contracts/DepositGame.sol\":4192:4200  deadLine */\n      sload(0x04)\n        /* \"Contracts/DepositGame.sol\":4173:4188  block.timestamp */\n      timestamp\n        /* \"Contracts/DepositGame.sol\":4173:4200  block.timestamp >= deadLine */\n      lt\n        /* \"Contracts/DepositGame.sol\":4169:4388  if (block.timestamp >= deadLine) {... */\n      tag_323\n      jumpi\n        /* \"Contracts/DepositGame.sol\":4234:4254  GameStatus.COMPLETED */\n      0x03\n        /* \"Contracts/DepositGame.sol\":4221:4231  gameStatus */\n      0x09\n      0x00\n        /* \"Contracts/DepositGame.sol\":4221:4254  gameStatus = GameStatus.COMPLETED */\n      0x0100\n      exp\n      dup2\n      sload\n      dup2\n      0xff\n      mul\n      not\n      and\n      swap1\n      dup4\n      0x05\n      dup2\n      gt\n      iszero\n      tag_324\n      jumpi\n      tag_325\n      tag_29\n      jump\t// in\n    tag_325:\n    tag_324:\n      mul\n      or\n      swap1\n      sstore\n      pop\n        /* \"Contracts/DepositGame.sol\":4310:4316  leader */\n      0x06\n      0x01\n      swap1\n      sload\n      swap1\n      0x0100\n      exp\n      swap1\n      div\n      0xffffffffffffffffffffffffffffffffffffffff\n      and\n        /* \"Contracts/DepositGame.sol\":4278:4372  GameCompleted(\"Game has ended\", leader, address(this).balance, countDeposits, block.timestamp) */\n      0xffffffffffffffffffffffffffffffffffffffff\n      and\n      0x7edcc4eb74bc40a75c2d16f7dfa8f8c1191beed4db1d54d5552c4021cca4eaf8\n        /* \"Contracts/DepositGame.sol\":4318:4339  address(this).balance */\n      selfbalance\n        /* \"Contracts/DepositGame.sol\":4341:4354  countDeposits */\n      sload(0x08)\n        /* \"Contracts/DepositGame.sol\":4356:4371  block.timestamp */\n      timestamp\n        /* \"Contracts/DepositGame.sol\":4278:4372  GameCompleted(\"Game has ended\", leader, address(this).balance, countDeposits, block.timestamp) */\n      mload(0x40)\n      tag_326\n      swap4\n      swap3\n      swap2\n      swap1\n      tag_327\n      jump\t// in\n    tag_326:\n      mload(0x40)\n      dup1\n      swap2\n      sub\n      swap1\n      log2\n        /* \"Contracts/DepositGame.sol\":4169:4388  if (block.timestamp >= deadLine) {... */\n    tag_323:\n        /* \"Contracts/DepositGame.sol\":4117:4399  if (gameStatus == GameStatus.ACTIVE) {... */\n    tag_322:\n        /* \"Contracts/DepositGame.sol\":4070:4406  function checkUpdateGame() internal {... */\n      jump\t// out\n        /* \"#utility.yul\":7:187   */\n    tag_29:\n        /* \"#utility.yul\":55:132   */\n      0x4e487b7100000000000000000000000000000000000000000000000000000000\n        /* \"#utility.yul\":52:53   */\n      0x00\n        /* \"#utility.yul\":45:133   */\n      mstore\n        /* \"#utility.yul\":152:156   */\n      0x21\n        /* \"#utility.yul\":149:150   */\n      0x04\n        /* \"#utility.yul\":142:157   */\n      mstore\n        /* \"#utility.yul\":176:180   */\n      0x24\n        /* \"#utility.yul\":173:174   */\n      0x00\n        /* \"#utility.yul\":166:181   */\n      revert\n        /* \"#utility.yul\":193:362   */\n    tag_328:\n        /* \"#utility.yul\":277:288   */\n      0x00\n        /* \"#utility.yul\":311:317   */\n      dup3\n        /* \"#utility.yul\":306:309   */\n      dup3\n        /* \"#utility.yul\":299:318   */\n      mstore\n        /* \"#utility.yul\":351:355   */\n      0x20\n        /* \"#utility.yul\":346:349   */\n      dup3\n        /* \"#utility.yul\":342:356   */\n      add\n        /* \"#utility.yul\":327:356   */\n      swap1\n      pop\n        /* \"#utility.yul\":193:362   */\n      swap3\n      swap2\n      pop\n      pop\n      jump\t// out\n        /* \"#utility.yul\":368:537   */\n    tag_329:\n        /* \"#utility.yul\":508:529   */\n      0x47616d65206973206e6f74206163746976652e00000000000000000000000000\n        /* \"#utility.yul\":504:505   */\n      0x00\n        /* \"#utility.yul\":496:502   */\n      dup3\n        /* \"#utility.yul\":492:506   */\n      add\n        /* \"#utility.yul\":485:530   */\n      mstore\n        /* \"#utility.yul\":368:537   */\n      pop\n      jump\t// out\n        /* \"#utility.yul\":543:909   */\n    tag_330:\n        /* \"#utility.yul\":685:688   */\n      0x00\n        /* \"#utility.yul\":706:773   */\n      tag_406\n        /* \"#utility.yul\":770:772   */\n      0x13\n        /* \"#utility.yul\":765:768   */\n      dup4\n        /* \"#utility.yul\":706:773   */\n      tag_328\n      jump\t// in\n    tag_406:\n        /* \"#utility.yul\":699:773   */\n      swap2\n      pop\n        /* \"#utility.yul\":782:875   */\n      tag_407\n        /* \"#utility.yul\":871:874   */\n      dup3\n        /* \"#utility.yul\":782:875   */\n      tag_329\n      jump\t// in\n    tag_407:\n        /* \"#utility.yul\":900:902   */\n      0x20\n        /* \"#utility.yul\":895:898   */\n      dup3\n        /* \"#utility.yul\":891:903   */\n      add\n        /* \"#utility.yul\":884:903   */\n      swap1\n      pop\n        /* \"#utility.yul\":543:909   */\n      swap2\n      swap1\n      pop\n      jump\t// out\n        /* \"#utility.yul\":915:1334   */\n    tag_34:\n        /* \"#utility.yul\":1081:1085   */\n      0x00\n        /* \"#utility.yul\":1119:1121   */\n      0x20\n        /* \"#utility.yul\":1108:1117   */\n      dup3\n        /* \"#utility.yul\":1104:1122   */\n      add\n        /* \"#utility.yul\":1096:1122   */\n      swap1\n      pop\n        /* \"#utility.yul\":1168:1177   */\n      dup2\n        /* \"#utility.yul\":1162:1166   */\n      dup2\n        /* \"#utility.yul\":1158:1178   */\n      sub\n        /* \"#utility.yul\":1154:1155   */\n      0x00\n        /* \"#utility.yul\":1143:1152   */\n      dup4\n        /* \"#utility.yul\":1139:1156   */\n      add\n        /* \"#utility.yul\":1132:1179   */\n      mstore\n        /* \"#utility.yul\":1196:1327   */\n      tag_409\n        /* \"#utility.yul\":1322:1326   */\n      dup2\n        /* \"#utility.yul\":1196:1327   */\n      tag_330\n      jump\t// in\n    tag_409:\n        /* \"#utility.yul\":1188:1327   */\n      swap1\n      pop\n        /* \"#utility.yul\":915:1334   */\n      swap2\n      swap1\n      pop\n      jump\t// out\n        /* \"#utility.yul\":1340:1507   */\n    tag_331:\n        /* \"#utility.yul\":1480:1499   */\n      0x446561646c696e65206973206f7665722e000000000000000000000000000000\n        /* \"#utility.yul\":1476:1477   */\n      0x00\n        /* \"#utility.yul\":1468:1474   */\n      dup3\n        /* \"#utility.yul\":1464:1478   */\n      add\n        /* \"#utility.yul\":1457:1500   */\n      mstore\n        /* \"#utility.yul\":1340:1507   */\n      pop\n      jump\t// out\n        /* \"#utility.yul\":1513:1879   */\n    tag_332:\n        /* \"#utility.yul\":1655:1658   */\n      0x00\n        /* \"#utility.yul\":1676:1743   */\n      tag_412\n        /* \"#utility.yul\":1740:1742   */\n      0x11\n        /* \"#utility.yul\":1735:1738   */\n      dup4\n        /* \"#utility.yul\":1676:1743   */\n      tag_328\n      jump\t// in\n    tag_412:\n        /* \"#utility.yul\":1669:1743   */\n      swap2\n      pop\n        /* \"#utility.yul\":1752:1845   */\n      tag_413\n        /* \"#utility.yul\":1841:1844   */\n      dup3\n        /* \"#utility.yul\":1752:1845   */\n      tag_331\n      jump\t// in\n    tag_413:\n        /* \"#utility.yul\":1870:1872   */\n      0x20\n        /* \"#utility.yul\":1865:1868   */\n      dup3\n        /* \"#utility.yul\":1861:1873   */\n      add\n        /* \"#utility.yul\":1854:1873   */\n      swap1\n      pop\n        /* \"#utility.yul\":1513:1879   */\n      swap2\n      swap1\n      pop\n      jump\t// out\n        /* \"#utility.yul\":1885:2304   */\n    tag_38:\n        /* \"#utility.yul\":2051:2055   */\n      0x00\n        /* \"#utility.yul\":2089:2091   */\n      0x20\n        /* \"#utility.yul\":2078:2087   */\n      dup3\n        /* \"#utility.yul\":2074:2092   */\n      add\n        /* \"#utility.yul\":2066:2092   */\n      swap1\n      pop\n        /* \"#utility.yul\":2138:2147   */\n      dup2\n        /* \"#utility.yul\":2132:2136   */\n      dup2\n        /* \"#utility.yul\":2128:2148   */\n      sub\n        /* \"#utility.yul\":2124:2125   */\n      0x00\n        /* \"#utility.yul\":2113:2122   */\n      dup4\n        /* \"#utility.yul\":2109:2126   */\n      add\n        /* \"#utility.yul\":2102:2149   */\n      mstore\n        /* \"#utility.yul\":2166:2297   */\n      tag_415\n        /* \"#utility.yul\":2292:2296   */\n      dup2\n        /* \"#utility.yul\":2166:2297   */\n      tag_332\n      jump\t// in\n    tag_415:\n        /* \"#utility.yul\":2158:2297   */\n      swap1\n      pop\n        /* \"#utility.yul\":1885:2304   */\n      swap2\n      swap1\n      pop\n      jump\t// out\n        /* \"#utility.yul\":2310:2485   */\n    tag_333:\n        /* \"#utility.yul\":2450:2477   */\n      0x455448207265636569766564207669612066616c6c6261636b00000000000000\n        /* \"#utility.yul\":2446:2447   */\n      0x00\n        /* \"#utility.yul\":2438:2444   */\n      dup3\n        /* \"#utility.yul\":2434:2448   */\n      add\n        /* \"#utility.yul\":2427:2478   */\n      mstore\n        /* \"#utility.yul\":2310:2485   */\n      pop\n      jump\t// out\n        /* \"#utility.yul\":2491:2857   */\n    tag_334:\n        /* \"#utility.yul\":2633:2636   */\n      0x00\n        /* \"#utility.yul\":2654:2721   */\n      tag_418\n        /* \"#utility.yul\":2718:2720   */\n      0x19\n        /* \"#utility.yul\":2713:2716   */\n      dup4\n        /* \"#utility.yul\":2654:2721   */\n      tag_328\n      jump\t// in\n    tag_418:\n        /* \"#utility.yul\":2647:2721   */\n      swap2\n      pop\n        /* \"#utility.yul\":2730:2823   */\n      tag_419\n        /* \"#utility.yul\":2819:2822   */\n      dup3\n        /* \"#utility.yul\":2730:2823   */\n      tag_333\n      jump\t// in\n    tag_419:\n        /* \"#utility.yul\":2848:2850   */\n      0x20\n        /* \"#utility.yul\":2843:2846   */\n      dup3\n        /* \"#utility.yul\":2839:2851   */\n      add\n        /* \"#utility.yul\":2832:2851   */\n      swap1\n      pop\n        /* \"#utility.yul\":2491:2857   */\n      swap2\n      swap1\n      pop\n      jump\t// out\n        /* \"#utility.yul\":2863:2989   */\n    tag_335:\n        /* \"#utility.yul\":2900:2907   */\n      0x00\n        /* \"#utility.yul\":2940:2982   */\n      0xffffffffffffffffffffffffffffffffffffffff\n        /* \"#utility.yul\":2933:2938   */\n      dup3\n        /* \"#utility.yul\":2929:2983   */\n      and\n        /* \"#utility.yul\":2918:2983   */\n      swap1\n      pop\n        /* \"#utility.yul\":2863:2989   */\n      swap2\n      swap1\n      pop\n      jump\t// out\n        /* \"#utility.yul\":2995:3091   */\n    tag_336:\n        /* \"#utility.yul\":3032:3039   */\n      0x00\n        /* \"#utility.yul\":3061:3085   */\n      tag_422\n        /* \"#utility.yul\":3079:3084   */\n      dup3\n        /* \"#utility.yul\":3061:3085   */\n      tag_335\n      jump\t// in\n    tag_422:\n        /* \"#utility.yul\":3050:3085   */\n      swap1\n      pop\n        /* \"#utility.yul\":2995:3091   */\n      swap2\n      swap1\n      pop\n      jump\t// out\n        /* \"#utility.yul\":3097:3215   */\n    tag_337:\n        /* \"#utility.yul\":3184:3208   */\n      tag_424\n        /* \"#utility.yul\":3202:3207   */\n      dup2\n        /* \"#utility.yul\":3184:3208   */\n      tag_336\n      jump\t// in\n    tag_424:\n        /* \"#utility.yul\":3179:3182   */\n      dup3\n        /* \"#utility.yul\":3172:3209   */\n      mstore\n        /* \"#utility.yul\":3097:3215   */\n      pop\n      pop\n      jump\t// out\n        /* \"#utility.yul\":3221:3298   */\n    tag_338:\n        /* \"#utility.yul\":3258:3265   */\n      0x00\n        /* \"#utility.yul\":3287:3292   */\n      dup2\n        /* \"#utility.yul\":3276:3292   */\n      swap1\n      pop\n        /* \"#utility.yul\":3221:3298   */\n      swap2\n      swap1\n      pop\n      jump\t// out\n        /* \"#utility.yul\":3304:3422   */\n    tag_339:\n        /* \"#utility.yul\":3391:3415   */\n      tag_427\n        /* \"#utility.yul\":3409:3414   */\n      dup2\n        /* \"#utility.yul\":3391:3415   */\n      tag_338\n      jump\t// in\n    tag_427:\n        /* \"#utility.yul\":3386:3389   */\n      dup3\n        /* \"#utility.yul\":3379:3416   */\n      mstore\n        /* \"#utility.yul\":3304:3422   */\n      pop\n      pop\n      jump\t// out\n        /* \"#utility.yul\":3428:4067   */\n    tag_42:\n        /* \"#utility.yul\":3650:3654   */\n      0x00\n        /* \"#utility.yul\":3688:3690   */\n      0x60\n        /* \"#utility.yul\":3677:3686   */\n      dup3\n        /* \"#utility.yul\":3673:3691   */\n      add\n        /* \"#utility.yul\":3665:3691   */\n      swap1\n      pop\n        /* \"#utility.yul\":3737:3746   */\n      dup2\n        /* \"#utility.yul\":3731:3735   */\n      dup2\n        /* \"#utility.yul\":3727:3747   */\n      sub\n        /* \"#utility.yul\":3723:3724   */\n      0x00\n        /* \"#utility.yul\":3712:3721   */\n      dup4\n        /* \"#utility.yul\":3708:3725   */\n      add\n        /* \"#utility.yul\":3701:3748   */\n      mstore\n        /* \"#utility.yul\":3765:3896   */\n      tag_429\n        /* \"#utility.yul\":3891:3895   */\n      dup2\n        /* \"#utility.yul\":3765:3896   */\n      tag_334\n      jump\t// in\n    tag_429:\n        /* \"#utility.yul\":3757:3896   */\n      swap1\n      pop\n        /* \"#utility.yul\":3906:3978   */\n      tag_430\n        /* \"#utility.yul\":3974:3976   */\n      0x20\n        /* \"#utility.yul\":3963:3972   */\n      dup4\n        /* \"#utility.yul\":3959:3977   */\n      add\n        /* \"#utility.yul\":3950:3956   */\n      dup6\n        /* \"#utility.yul\":3906:3978   */\n      tag_337\n      jump\t// in\n    tag_430:\n        /* \"#utility.yul\":3988:4060   */\n      tag_431\n        /* \"#utility.yul\":4056:4058   */\n      0x40\n        /* \"#utility.yul\":4045:4054   */\n      dup4\n        /* \"#utility.yul\":4041:4059   */\n      add\n        /* \"#utility.yul\":4032:4038   */\n      dup5\n        /* \"#utility.yul\":3988:4060   */\n      tag_339\n      jump\t// in\n    tag_431:\n        /* \"#utility.yul\":3428:4067   */\n      swap4\n      swap3\n      pop\n      pop\n      pop\n      jump\t// out\n        /* \"#utility.yul\":4073:4172   */\n    tag_340:\n        /* \"#utility.yul\":4125:4131   */\n      0x00\n        /* \"#utility.yul\":4159:4164   */\n      dup2\n        /* \"#utility.yul\":4153:4165   */\n      mload\n        /* \"#utility.yul\":4143:4165   */\n      swap1\n      pop\n        /* \"#utility.yul\":4073:4172   */\n      swap2\n      swap1\n      pop\n      jump\t// out\n        /* \"#utility.yul\":4178:4317   */\n    tag_341:\n        /* \"#utility.yul\":4267:4273   */\n      dup3\n        /* \"#utility.yul\":4262:4265   */\n      dup2\n        /* \"#utility.yul\":4257:4260   */\n      dup4\n        /* \"#utility.yul\":4251:4274   */\n      mcopy\n        /* \"#utility.yul\":4308:4309   */\n      0x00\n        /* \"#utility.yul\":4299:4305   */\n      dup4\n        /* \"#utility.yul\":4294:4297   */\n      dup4\n        /* \"#utility.yul\":4290:4306   */\n      add\n        /* \"#utility.yul\":4283:4310   */\n      mstore\n        /* \"#utility.yul\":4178:4317   */\n      pop\n      pop\n      pop\n      jump\t// out\n        /* \"#utility.yul\":4323:4425   */\n    tag_342:\n        /* \"#utility.yul\":4364:4370   */\n      0x00\n        /* \"#utility.yul\":4415:4417   */\n      0x1f\n        /* \"#utility.yul\":4411:4418   */\n      not\n        /* \"#utility.yul\":4406:4408   */\n      0x1f\n        /* \"#utility.yul\":4399:4404   */\n      dup4\n        /* \"#utility.yul\":4395:4409   */\n      add\n        /* \"#utility.yul\":4391:4419   */\n      and\n        /* \"#utility.yul\":4381:4419   */\n      swap1\n      pop\n        /* \"#utility.yul\":4323:4425   */\n      swap2\n      swap1\n      pop\n      jump\t// out\n        /* \"#utility.yul\":4431:4808   */\n    tag_343:\n        /* \"#utility.yul\":4519:4522   */\n      0x00\n        /* \"#utility.yul\":4547:4586   */\n      tag_436\n        /* \"#utility.yul\":4580:4585   */\n      dup3\n        /* \"#utility.yul\":4547:4586   */\n      tag_340\n      jump\t// in\n    tag_436:\n        /* \"#utility.yul\":4602:4673   */\n      tag_437\n        /* \"#utility.yul\":4666:4672   */\n      dup2\n        /* \"#utility.yul\":4661:4664   */\n      dup6\n        /* \"#utility.yul\":4602:4673   */\n      tag_328\n      jump\t// in\n    tag_437:\n        /* \"#utility.yul\":4595:4673   */\n      swap4\n      pop\n        /* \"#utility.yul\":4682:4747   */\n      tag_438\n        /* \"#utility.yul\":4740:4746   */\n      dup2\n        /* \"#utility.yul\":4735:4738   */\n      dup6\n        /* \"#utility.yul\":4728:4732   */\n      0x20\n        /* \"#utility.yul\":4721:4726   */\n      dup7\n        /* \"#utility.yul\":4717:4733   */\n      add\n        /* \"#utility.yul\":4682:4747   */\n      tag_341\n      jump\t// in\n    tag_438:\n        /* \"#utility.yul\":4772:4801   */\n      tag_439\n        /* \"#utility.yul\":4794:4800   */\n      dup2\n        /* \"#utility.yul\":4772:4801   */\n      tag_342\n      jump\t// in\n    tag_439:\n        /* \"#utility.yul\":4767:4770   */\n      dup5\n        /* \"#utility.yul\":4763:4802   */\n      add\n        /* \"#utility.yul\":4756:4802   */\n      swap2\n      pop\n        /* \"#utility.yul\":4523:4808   */\n      pop\n        /* \"#utility.yul\":4431:4808   */\n      swap3\n      swap2\n      pop\n      pop\n      jump\t// out\n        /* \"#utility.yul\":4814:5127   */\n    tag_47:\n        /* \"#utility.yul\":4927:4931   */\n      0x00\n        /* \"#utility.yul\":4965:4967   */\n      0x20\n        /* \"#utility.yul\":4954:4963   */\n      dup3\n        /* \"#utility.yul\":4950:4968   */\n      add\n        /* \"#utility.yul\":4942:4968   */\n      swap1\n      pop\n        /* \"#utility.yul\":5014:5023   */\n      dup2\n        /* \"#utility.yul\":5008:5012   */\n      dup2\n        /* \"#utility.yul\":5004:5024   */\n      sub\n        /* \"#utility.yul\":5000:5001   */\n      0x00\n        /* \"#utility.yul\":4989:4998   */\n      dup4\n        /* \"#utility.yul\":4985:5002   */\n      add\n        /* \"#utility.yul\":4978:5025   */\n      mstore\n        /* \"#utility.yul\":5042:5120   */\n      tag_441\n        /* \"#utility.yul\":5115:5119   */\n      dup2\n        /* \"#utility.yul\":5106:5112   */\n      dup5\n        /* \"#utility.yul\":5042:5120   */\n      tag_343\n      jump\t// in\n    tag_441:\n        /* \"#utility.yul\":5034:5120   */\n      swap1\n      pop\n        /* \"#utility.yul\":4814:5127   */\n      swap3\n      swap2\n      pop\n      pop\n      jump\t// out\n        /* \"#utility.yul\":5214:5331   */\n    tag_345:\n        /* \"#utility.yul\":5323:5324   */\n      0x00\n        /* \"#utility.yul\":5320:5321   */\n      0x00\n        /* \"#utility.yul\":5313:5325   */\n      revert\n        /* \"#utility.yul\":5460:5582   */\n    tag_347:\n        /* \"#utility.yul\":5533:5557   */\n      tag_446\n        /* \"#utility.yul\":5551:5556   */\n      dup2\n        /* \"#utility.yul\":5533:5557   */\n      tag_338\n      jump\t// in\n    tag_446:\n        /* \"#utility.yul\":5526:5531   */\n      dup2\n        /* \"#utility.yul\":5523:5558   */\n      eq\n        /* \"#utility.yul\":5513:5576   */\n      tag_447\n      jumpi\n        /* \"#utility.yul\":5572:5573   */\n      0x00\n        /* \"#utility.yul\":5569:5570   */\n      0x00\n        /* \"#utility.yul\":5562:5574   */\n      revert\n        /* \"#utility.yul\":5513:5576   */\n    tag_447:\n        /* \"#utility.yul\":5460:5582   */\n      pop\n      jump\t// out\n        /* \"#utility.yul\":5588:5727   */\n    tag_348:\n        /* \"#utility.yul\":5634:5639   */\n      0x00\n        /* \"#utility.yul\":5672:5678   */\n      dup2\n        /* \"#utility.yul\":5659:5679   */\n      calldataload\n        /* \"#utility.yul\":5650:5679   */\n      swap1\n      pop\n        /* \"#utility.yul\":5688:5721   */\n      tag_449\n        /* \"#utility.yul\":5715:5720   */\n      dup2\n        /* \"#utility.yul\":5688:5721   */\n      tag_347\n      jump\t// in\n    tag_449:\n        /* \"#utility.yul\":5588:5727   */\n      swap3\n      swap2\n      pop\n      pop\n      jump\t// out\n        /* \"#utility.yul\":5733:6062   */\n    tag_53:\n        /* \"#utility.yul\":5792:5798   */\n      0x00\n        /* \"#utility.yul\":5841:5843   */\n      0x20\n        /* \"#utility.yul\":5829:5838   */\n      dup3\n        /* \"#utility.yul\":5820:5827   */\n      dup5\n        /* \"#utility.yul\":5816:5839   */\n      sub\n        /* \"#utility.yul\":5812:5844   */\n      slt\n        /* \"#utility.yul\":5809:5928   */\n      iszero\n      tag_451\n      jumpi\n        /* \"#utility.yul\":5847:5926   */\n      tag_452\n      tag_345\n      jump\t// in\n    tag_452:\n        /* \"#utility.yul\":5809:5928   */\n    tag_451:\n        /* \"#utility.yul\":5967:5968   */\n      0x00\n        /* \"#utility.yul\":5992:6045   */\n      tag_453\n        /* \"#utility.yul\":6037:6044   */\n      dup5\n        /* \"#utility.yul\":6028:6034   */\n      dup3\n        /* \"#utility.yul\":6017:6026   */\n      dup6\n        /* \"#utility.yul\":6013:6035   */\n      add\n        /* \"#utility.yul\":5992:6045   */\n      tag_348\n      jump\t// in\n    tag_453:\n        /* \"#utility.yul\":5982:6045   */\n      swap2\n      pop\n        /* \"#utility.yul\":5938:6055   */\n      pop\n        /* \"#utility.yul\":5733:6062   */\n      swap3\n      swap2\n      pop\n      pop\n      jump\t// out\n        /* \"#utility.yul\":6068:6290   */\n    tag_56:\n        /* \"#utility.yul\":6161:6165   */\n      0x00\n        /* \"#utility.yul\":6199:6201   */\n      0x20\n        /* \"#utility.yul\":6188:6197   */\n      dup3\n        /* \"#utility.yul\":6184:6202   */\n      add\n        /* \"#utility.yul\":6176:6202   */\n      swap1\n      pop\n        /* \"#utility.yul\":6212:6283   */\n      tag_455\n        /* \"#utility.yul\":6280:6281   */\n      0x00\n        /* \"#utility.yul\":6269:6278   */\n      dup4\n        /* \"#utility.yul\":6265:6282   */\n      add\n        /* \"#utility.yul\":6256:6262   */\n      dup5\n        /* \"#utility.yul\":6212:6283   */\n      tag_337\n      jump\t// in\n    tag_455:\n        /* \"#utility.yul\":6068:6290   */\n      swap3\n      swap2\n      pop\n      pop\n      jump\t// out\n        /* \"#utility.yul\":6296:6414   */\n    tag_349:\n        /* \"#utility.yul\":6382:6383   */\n      0x06\n        /* \"#utility.yul\":6375:6380   */\n      dup2\n        /* \"#utility.yul\":6372:6384   */\n      lt\n        /* \"#utility.yul\":6362:6408   */\n      tag_457\n      jumpi\n        /* \"#utility.yul\":6388:6406   */\n      tag_458\n      tag_29\n      jump\t// in\n    tag_458:\n        /* \"#utility.yul\":6362:6408   */\n    tag_457:\n        /* \"#utility.yul\":6296:6414   */\n      pop\n      jump\t// out\n        /* \"#utility.yul\":6420:6557   */\n    tag_350:\n        /* \"#utility.yul\":6470:6477   */\n      0x00\n        /* \"#utility.yul\":6499:6504   */\n      dup2\n        /* \"#utility.yul\":6488:6504   */\n      swap1\n      pop\n        /* \"#utility.yul\":6505:6551   */\n      tag_460\n        /* \"#utility.yul\":6545:6550   */\n      dup3\n        /* \"#utility.yul\":6505:6551   */\n      tag_349\n      jump\t// in\n    tag_460:\n        /* \"#utility.yul\":6420:6557   */\n      swap2\n      swap1\n      pop\n      jump\t// out\n        /* \"#utility.yul\":6563:6700   */\n    tag_351:\n        /* \"#utility.yul\":6624:6633   */\n      0x00\n        /* \"#utility.yul\":6657:6694   */\n      tag_462\n        /* \"#utility.yul\":6688:6693   */\n      dup3\n        /* \"#utility.yul\":6657:6694   */\n      tag_350\n      jump\t// in\n    tag_462:\n        /* \"#utility.yul\":6644:6694   */\n      swap1\n      pop\n        /* \"#utility.yul\":6563:6700   */\n      swap2\n      swap1\n      pop\n      jump\t// out\n        /* \"#utility.yul\":6706:6859   */\n    tag_352:\n        /* \"#utility.yul\":6804:6852   */\n      tag_464\n        /* \"#utility.yul\":6846:6851   */\n      dup2\n        /* \"#utility.yul\":6804:6852   */\n      tag_351\n      jump\t// in\n    tag_464:\n        /* \"#utility.yul\":6799:6802   */\n      dup3\n        /* \"#utility.yul\":6792:6853   */\n      mstore\n        /* \"#utility.yul\":6706:6859   */\n      pop\n      pop\n      jump\t// out\n        /* \"#utility.yul\":6865:7109   */\n    tag_61:\n        /* \"#utility.yul\":6969:6973   */\n      0x00\n        /* \"#utility.yul\":7007:7009   */\n      0x20\n        /* \"#utility.yul\":6996:7005   */\n      dup3\n        /* \"#utility.yul\":6992:7010   */\n      add\n        /* \"#utility.yul\":6984:7010   */\n      swap1\n      pop\n        /* \"#utility.yul\":7020:7102   */\n      tag_466\n        /* \"#utility.yul\":7099:7100   */\n      0x00\n        /* \"#utility.yul\":7088:7097   */\n      dup4\n        /* \"#utility.yul\":7084:7101   */\n      add\n        /* \"#utility.yul\":7075:7081   */\n      dup5\n        /* \"#utility.yul\":7020:7102   */\n      tag_352\n      jump\t// in\n    tag_466:\n        /* \"#utility.yul\":6865:7109   */\n      swap3\n      swap2\n      pop\n      pop\n      jump\t// out\n        /* \"#utility.yul\":7115:7337   */\n    tag_66:\n        /* \"#utility.yul\":7208:7212   */\n      0x00\n        /* \"#utility.yul\":7246:7248   */\n      0x20\n        /* \"#utility.yul\":7235:7244   */\n      dup3\n        /* \"#utility.yul\":7231:7249   */\n      add\n        /* \"#utility.yul\":7223:7249   */\n      swap1\n      pop\n        /* \"#utility.yul\":7259:7330   */\n      tag_468\n        /* \"#utility.yul\":7327:7328   */\n      0x00\n        /* \"#utility.yul\":7316:7325   */\n      dup4\n        /* \"#utility.yul\":7312:7329   */\n      add\n        /* \"#utility.yul\":7303:7309   */\n      dup5\n        /* \"#utility.yul\":7259:7330   */\n      tag_339\n      jump\t// in\n    tag_468:\n        /* \"#utility.yul\":7115:7337   */\n      swap3\n      swap2\n      pop\n      pop\n      jump\t// out\n        /* \"#utility.yul\":7343:7465   */\n    tag_353:\n        /* \"#utility.yul\":7416:7440   */\n      tag_470\n        /* \"#utility.yul\":7434:7439   */\n      dup2\n        /* \"#utility.yul\":7416:7440   */\n      tag_336\n      jump\t// in\n    tag_470:\n        /* \"#utility.yul\":7409:7414   */\n      dup2\n        /* \"#utility.yul\":7406:7441   */\n      eq\n        /* \"#utility.yul\":7396:7459   */\n      tag_471\n      jumpi\n        /* \"#utility.yul\":7455:7456   */\n      0x00\n        /* \"#utility.yul\":7452:7453   */\n      0x00\n        /* \"#utility.yul\":7445:7457   */\n      revert\n        /* \"#utility.yul\":7396:7459   */\n    tag_471:\n        /* \"#utility.yul\":7343:7465   */\n      pop\n      jump\t// out\n        /* \"#utility.yul\":7471:7610   */\n    tag_354:\n        /* \"#utility.yul\":7517:7522   */\n      0x00\n        /* \"#utility.yul\":7555:7561   */\n      dup2\n        /* \"#utility.yul\":7542:7562   */\n      calldataload\n        /* \"#utility.yul\":7533:7562   */\n      swap1\n      pop\n        /* \"#utility.yul\":7571:7604   */\n      tag_473\n        /* \"#utility.yul\":7598:7603   */\n      dup2\n        /* \"#utility.yul\":7571:7604   */\n      tag_353\n      jump\t// in\n    tag_473:\n        /* \"#utility.yul\":7471:7610   */\n      swap3\n      swap2\n      pop\n      pop\n      jump\t// out\n        /* \"#utility.yul\":7616:7945   */\n    tag_98:\n        /* \"#utility.yul\":7675:7681   */\n      0x00\n        /* \"#utility.yul\":7724:7726   */\n      0x20\n        /* \"#utility.yul\":7712:7721   */\n      dup3\n        /* \"#utility.yul\":7703:7710   */\n      dup5\n        /* \"#utility.yul\":7699:7722   */\n      sub\n        /* \"#utility.yul\":7695:7727   */\n      slt\n        /* \"#utility.yul\":7692:7811   */\n      iszero\n      tag_475\n      jumpi\n        /* \"#utility.yul\":7730:7809   */\n      tag_476\n      tag_345\n      jump\t// in\n    tag_476:\n        /* \"#utility.yul\":7692:7811   */\n    tag_475:\n        /* \"#utility.yul\":7850:7851   */\n      0x00\n        /* \"#utility.yul\":7875:7928   */\n      tag_477\n        /* \"#utility.yul\":7920:7927   */\n      dup5\n        /* \"#utility.yul\":7911:7917   */\n      dup3\n        /* \"#utility.yul\":7900:7909   */\n      dup6\n        /* \"#utility.yul\":7896:7918   */\n      add\n        /* \"#utility.yul\":7875:7928   */\n      tag_354\n      jump\t// in\n    tag_477:\n        /* \"#utility.yul\":7865:7928   */\n      swap2\n      pop\n        /* \"#utility.yul\":7821:7938   */\n      pop\n        /* \"#utility.yul\":7616:7945   */\n      swap3\n      swap2\n      pop\n      pop\n      jump\t// out\n        /* \"#utility.yul\":7951:8283   */\n    tag_119:\n        /* \"#utility.yul\":8072:8076   */\n      0x00\n        /* \"#utility.yul\":8110:8112   */\n      0x40\n        /* \"#utility.yul\":8099:8108   */\n      dup3\n        /* \"#utility.yul\":8095:8113   */\n      add\n        /* \"#utility.yul\":8087:8113   */\n      swap1\n      pop\n        /* \"#utility.yul\":8123:8194   */\n      tag_479\n        /* \"#utility.yul\":8191:8192   */\n      0x00\n        /* \"#utility.yul\":8180:8189   */\n      dup4\n        /* \"#utility.yul\":8176:8193   */\n      add\n        /* \"#utility.yul\":8167:8173   */\n      dup6\n        /* \"#utility.yul\":8123:8194   */\n      tag_339\n      jump\t// in\n    tag_479:\n        /* \"#utility.yul\":8204:8276   */\n      tag_480\n        /* \"#utility.yul\":8272:8274   */\n      0x20\n        /* \"#utility.yul\":8261:8270   */\n      dup4\n        /* \"#utility.yul\":8257:8275   */\n      add\n        /* \"#utility.yul\":8248:8254   */\n      dup5\n        /* \"#utility.yul\":8204:8276   */\n      tag_339\n      jump\t// in\n    tag_480:\n        /* \"#utility.yul\":7951:8283   */\n      swap4\n      swap3\n      pop\n      pop\n      pop\n      jump\t// out\n        /* \"#utility.yul\":8289:8469   */\n    tag_355:\n        /* \"#utility.yul\":8337:8414   */\n      0x4e487b7100000000000000000000000000000000000000000000000000000000\n        /* \"#utility.yul\":8334:8335   */\n      0x00\n        /* \"#utility.yul\":8327:8415   */\n      mstore\n        /* \"#utility.yul\":8434:8438   */\n      0x22\n        /* \"#utility.yul\":8431:8432   */\n      0x04\n        /* \"#utility.yul\":8424:8439   */\n      mstore\n        /* \"#utility.yul\":8458:8462   */\n      0x24\n        /* \"#utility.yul\":8455:8456   */\n      0x00\n        /* \"#utility.yul\":8448:8463   */\n      revert\n        /* \"#utility.yul\":8475:8795   */\n    tag_121:\n        /* \"#utility.yul\":8519:8525   */\n      0x00\n        /* \"#utility.yul\":8556:8557   */\n      0x02\n        /* \"#utility.yul\":8550:8554   */\n      dup3\n        /* \"#utility.yul\":8546:8558   */\n      div\n        /* \"#utility.yul\":8536:8558   */\n      swap1\n      pop\n        /* \"#utility.yul\":8603:8604   */\n      0x01\n        /* \"#utility.yul\":8597:8601   */\n      dup3\n        /* \"#utility.yul\":8593:8605   */\n      and\n        /* \"#utility.yul\":8624:8642   */\n      dup1\n        /* \"#utility.yul\":8614:8695   */\n      tag_483\n      jumpi\n        /* \"#utility.yul\":8680:8684   */\n      0x7f\n        /* \"#utility.yul\":8672:8678   */\n      dup3\n        /* \"#utility.yul\":8668:8685   */\n      and\n        /* \"#utility.yul\":8658:8685   */\n      swap2\n      pop\n        /* \"#utility.yul\":8614:8695   */\n    tag_483:\n        /* \"#utility.yul\":8742:8744   */\n      0x20\n        /* \"#utility.yul\":8734:8740   */\n      dup3\n        /* \"#utility.yul\":8731:8745   */\n      lt\n        /* \"#utility.yul\":8711:8729   */\n      dup2\n        /* \"#utility.yul\":8708:8746   */\n      sub\n        /* \"#utility.yul\":8705:8789   */\n      tag_484\n      jumpi\n        /* \"#utility.yul\":8761:8779   */\n      tag_485\n      tag_355\n      jump\t// in\n    tag_485:\n        /* \"#utility.yul\":8705:8789   */\n    tag_484:\n        /* \"#utility.yul\":8526:8795   */\n      pop\n        /* \"#utility.yul\":8475:8795   */\n      swap2\n      swap1\n      pop\n      jump\t// out\n        /* \"#utility.yul\":8801:9021   */\n    tag_356:\n        /* \"#utility.yul\":8941:8975   */\n      0x496e76616c696420616d6f756e742e204d75737420626520706f736974697665\n        /* \"#utility.yul\":8937:8938   */\n      0x00\n        /* \"#utility.yul\":8929:8935   */\n      dup3\n        /* \"#utility.yul\":8925:8939   */\n      add\n        /* \"#utility.yul\":8918:8976   */\n      mstore\n        /* \"#utility.yul\":9010:9013   */\n      0x2e00000000000000000000000000000000000000000000000000000000000000\n        /* \"#utility.yul\":9005:9007   */\n      0x20\n        /* \"#utility.yul\":8997:9003   */\n      dup3\n        /* \"#utility.yul\":8993:9008   */\n      add\n        /* \"#utility.yul\":8986:9014   */\n      mstore\n        /* \"#utility.yul\":8801:9021   */\n      pop\n      jump\t// out\n        /* \"#utility.yul\":9027:9393   */\n    tag_357:\n        /* \"#utility.yul\":9169:9172   */\n      0x00\n        /* \"#utility.yul\":9190:9257   */\n      tag_488\n        /* \"#utility.yul\":9254:9256   */\n      0x21\n        /* \"#utility.yul\":9249:9252   */\n      dup4\n        /* \"#utility.yul\":9190:9257   */\n      tag_328\n      jump\t// in\n    tag_488:\n        /* \"#utility.yul\":9183:9257   */\n      swap2\n      pop\n        /* \"#utility.yul\":9266:9359   */\n      tag_489\n        /* \"#utility.yul\":9355:9358   */\n      dup3\n        /* \"#utility.yul\":9266:9359   */\n      tag_356\n      jump\t// in\n    tag_489:\n        /* \"#utility.yul\":9384:9386   */\n      0x40\n        /* \"#utility.yul\":9379:9382   */\n      dup3\n        /* \"#utility.yul\":9375:9387   */\n      add\n        /* \"#utility.yul\":9368:9387   */\n      swap1\n      pop\n        /* \"#utility.yul\":9027:9393   */\n      swap2\n      swap1\n      pop\n      jump\t// out\n        /* \"#utility.yul\":9399:9818   */\n    tag_139:\n        /* \"#utility.yul\":9565:9569   */\n      0x00\n        /* \"#utility.yul\":9603:9605   */\n      0x20\n        /* \"#utility.yul\":9592:9601   */\n      dup3\n        /* \"#utility.yul\":9588:9606   */\n      add\n        /* \"#utility.yul\":9580:9606   */\n      swap1\n      pop\n        /* \"#utility.yul\":9652:9661   */\n      dup2\n        /* \"#utility.yul\":9646:9650   */\n      dup2\n        /* \"#utility.yul\":9642:9662   */\n      sub\n        /* \"#utility.yul\":9638:9639   */\n      0x00\n        /* \"#utility.yul\":9627:9636   */\n      dup4\n        /* \"#utility.yul\":9623:9640   */\n      add\n        /* \"#utility.yul\":9616:9663   */\n      mstore\n        /* \"#utility.yul\":9680:9811   */\n      tag_491\n        /* \"#utility.yul\":9806:9810   */\n      dup2\n        /* \"#utility.yul\":9680:9811   */\n      tag_357\n      jump\t// in\n    tag_491:\n        /* \"#utility.yul\":9672:9811   */\n      swap1\n      pop\n        /* \"#utility.yul\":9399:9818   */\n      swap2\n      swap1\n      pop\n      jump\t// out\n        /* \"#utility.yul\":9824:10004   */\n    tag_358:\n        /* \"#utility.yul\":9872:9949   */\n      0x4e487b7100000000000000000000000000000000000000000000000000000000\n        /* \"#utility.yul\":9869:9870   */\n      0x00\n        /* \"#utility.yul\":9862:9950   */\n      mstore\n        /* \"#utility.yul\":9969:9973   */\n      0x11\n        /* \"#utility.yul\":9966:9967   */\n      0x04\n        /* \"#utility.yul\":9959:9974   */\n      mstore\n        /* \"#utility.yul\":9993:9997   */\n      0x24\n        /* \"#utility.yul\":9990:9991   */\n      0x00\n        /* \"#utility.yul\":9983:9998   */\n      revert\n        /* \"#utility.yul\":10010:10243   */\n    tag_141:\n        /* \"#utility.yul\":10049:10052   */\n      0x00\n        /* \"#utility.yul\":10072:10096   */\n      tag_494\n        /* \"#utility.yul\":10090:10095   */\n      dup3\n        /* \"#utility.yul\":10072:10096   */\n      tag_338\n      jump\t// in\n    tag_494:\n        /* \"#utility.yul\":10063:10096   */\n      swap2\n      pop\n        /* \"#utility.yul\":10118:10184   */\n      0xffffffffffffffffffffffffffffffffffffffffffffffffffffffffffffffff\n        /* \"#utility.yul\":10111:10116   */\n      dup3\n        /* \"#utility.yul\":10108:10185   */\n      sub\n        /* \"#utility.yul\":10105:10208   */\n      tag_495\n      jumpi\n        /* \"#utility.yul\":10188:10206   */\n      tag_496\n      tag_358\n      jump\t// in\n    tag_496:\n        /* \"#utility.yul\":10105:10208   */\n    tag_495:\n        /* \"#utility.yul\":10235:10236   */\n      0x01\n        /* \"#utility.yul\":10228:10233   */\n      dup3\n        /* \"#utility.yul\":10224:10237   */\n      add\n        /* \"#utility.yul\":10217:10237   */\n      swap1\n      pop\n        /* \"#utility.yul\":10010:10243   */\n      swap2\n      swap1\n      pop\n      jump\t// out\n        /* \"#utility.yul\":10249:10414   */\n    tag_359:\n        /* \"#utility.yul\":10389:10406   */\n      0x4465706f73697420697320646f6e650000000000000000000000000000000000\n        /* \"#utility.yul\":10385:10386   */\n      0x00\n        /* \"#utility.yul\":10377:10383   */\n      dup3\n        /* \"#utility.yul\":10373:10387   */\n      add\n        /* \"#utility.yul\":10366:10407   */\n      mstore\n        /* \"#utility.yul\":10249:10414   */\n      pop\n      jump\t// out\n        /* \"#utility.yul\":10420:10786   */\n    tag_360:\n        /* \"#utility.yul\":10562:10565   */\n      0x00\n        /* \"#utility.yul\":10583:10650   */\n      tag_499\n        /* \"#utility.yul\":10647:10649   */\n      0x0f\n        /* \"#utility.yul\":10642:10645   */\n      dup4\n        /* \"#utility.yul\":10583:10650   */\n      tag_328\n      jump\t// in\n    tag_499:\n        /* \"#utility.yul\":10576:10650   */\n      swap2\n      pop\n        /* \"#utility.yul\":10659:10752   */\n      tag_500\n        /* \"#utility.yul\":10748:10751   */\n      dup3\n        /* \"#utility.yul\":10659:10752   */\n      tag_359\n      jump\t// in\n    tag_500:\n        /* \"#utility.yul\":10777:10779   */\n      0x20\n        /* \"#utility.yul\":10772:10775   */\n      dup3\n        /* \"#utility.yul\":10768:10780   */\n      add\n        /* \"#utility.yul\":10761:10780   */\n      swap1\n      pop\n        /* \"#utility.yul\":10420:10786   */\n      swap2\n      swap1\n      pop\n      jump\t// out\n        /* \"#utility.yul\":10792:11431   */\n    tag_146:\n        /* \"#utility.yul\":11014:11018   */\n      0x00\n        /* \"#utility.yul\":11052:11054   */\n      0x60\n        /* \"#utility.yul\":11041:11050   */\n      dup3\n        /* \"#utility.yul\":11037:11055   */\n      add\n        /* \"#utility.yul\":11029:11055   */\n      swap1\n      pop\n        /* \"#utility.yul\":11101:11110   */\n      dup2\n        /* \"#utility.yul\":11095:11099   */\n      dup2\n        /* \"#utility.yul\":11091:11111   */\n      sub\n        /* \"#utility.yul\":11087:11088   */\n      0x00\n        /* \"#utility.yul\":11076:11085   */\n      dup4\n        /* \"#utility.yul\":11072:11089   */\n      add\n        /* \"#utility.yul\":11065:11112   */\n      mstore\n        /* \"#utility.yul\":11129:11260   */\n      tag_502\n        /* \"#utility.yul\":11255:11259   */\n      dup2\n        /* \"#utility.yul\":11129:11260   */\n      tag_360\n      jump\t// in\n    tag_502:\n        /* \"#utility.yul\":11121:11260   */\n      swap1\n      pop\n        /* \"#utility.yul\":11270:11342   */\n      tag_503\n        /* \"#utility.yul\":11338:11340   */\n      0x20\n        /* \"#utility.yul\":11327:11336   */\n      dup4\n        /* \"#utility.yul\":11323:11341   */\n      add\n        /* \"#utility.yul\":11314:11320   */\n      dup6\n        /* \"#utility.yul\":11270:11342   */\n      tag_337\n      jump\t// in\n    tag_503:\n        /* \"#utility.yul\":11352:11424   */\n      tag_504\n        /* \"#utility.yul\":11420:11422   */\n      0x40\n        /* \"#utility.yul\":11409:11418   */\n      dup4\n        /* \"#utility.yul\":11405:11423   */\n      add\n        /* \"#utility.yul\":11396:11402   */\n      dup5\n        /* \"#utility.yul\":11352:11424   */\n      tag_339\n      jump\t// in\n    tag_504:\n        /* \"#utility.yul\":10792:11431   */\n      swap4\n      swap3\n      pop\n      pop\n      pop\n      jump\t// out\n        /* \"#utility.yul\":11437:11601   */\n    tag_361:\n        /* \"#utility.yul\":11577:11593   */\n      0x4d757374206265206f776e65722e000000000000000000000000000000000000\n        /* \"#utility.yul\":11573:11574   */\n      0x00\n        /* \"#utility.yul\":11565:11571   */\n      dup3\n        /* \"#utility.yul\":11561:11575   */\n      add\n        /* \"#utility.yul\":11554:11594   */\n      mstore\n        /* \"#utility.yul\":11437:11601   */\n      pop\n      jump\t// out\n        /* \"#utility.yul\":11607:11973   */\n    tag_362:\n        /* \"#utility.yul\":11749:11752   */\n      0x00\n        /* \"#utility.yul\":11770:11837   */\n      tag_507\n        /* \"#utility.yul\":11834:11836   */\n      0x0e\n        /* \"#utility.yul\":11829:11832   */\n      dup4\n        /* \"#utility.yul\":11770:11837   */\n      tag_328\n      jump\t// in\n    tag_507:\n        /* \"#utility.yul\":11763:11837   */\n      swap2\n      pop\n        /* \"#utility.yul\":11846:11939   */\n      tag_508\n        /* \"#utility.yul\":11935:11938   */\n      dup3\n        /* \"#utility.yul\":11846:11939   */\n      tag_361\n      jump\t// in\n    tag_508:\n        /* \"#utility.yul\":11964:11966   */\n      0x20\n        /* \"#utility.yul\":11959:11962   */\n      dup3\n        /* \"#utility.yul\":11955:11967   */\n      add\n        /* \"#utility.yul\":11948:11967   */\n      swap1\n      pop\n        /* \"#utility.yul\":11607:11973   */\n      swap2\n      swap1\n      pop\n      jump\t// out\n        /* \"#utility.yul\":11979:12398   */\n    tag_153:\n        /* \"#utility.yul\":12145:12149   */\n      0x00\n        /* \"#utility.yul\":12183:12185   */\n      0x20\n        /* \"#utility.yul\":12172:12181   */\n      dup3\n        /* \"#utility.yul\":12168:12186   */\n      add\n        /* \"#utility.yul\":12160:12186   */\n      swap1\n      pop\n        /* \"#utility.yul\":12232:12241   */\n      dup2\n        /* \"#utility.yul\":12226:12230   */\n      dup2\n        /* \"#utility.yul\":12222:12242   */\n      sub\n        /* \"#utility.yul\":12218:12219   */\n      0x00\n        /* \"#utility.yul\":12207:12216   */\n      dup4\n        /* \"#utility.yul\":12203:12220   */\n      add\n        /* \"#utility.yul\":12196:12243   */\n      mstore\n        /* \"#utility.yul\":12260:12391   */\n      tag_510\n        /* \"#utility.yul\":12386:12390   */\n      dup2\n        /* \"#utility.yul\":12260:12391   */\n      tag_362\n      jump\t// in\n    tag_510:\n        /* \"#utility.yul\":12252:12391   */\n      swap1\n      pop\n        /* \"#utility.yul\":11979:12398   */\n      swap2\n      swap1\n      pop\n      jump\t// out\n        /* \"#utility.yul\":12404:12569   */\n    tag_363:\n        /* \"#utility.yul\":12544:12561   */\n      0x47616d65206973207061757365642e0000000000000000000000000000000000\n        /* \"#utility.yul\":12540:12541   */\n      0x00\n        /* \"#utility.yul\":12532:12538   */\n      dup3\n        /* \"#utility.yul\":12528:12542   */\n      add\n        /* \"#utility.yul\":12521:12562   */\n      mstore\n        /* \"#utility.yul\":12404:12569   */\n      pop\n      jump\t// out\n        /* \"#utility.yul\":12575:12941   */\n    tag_364:\n        /* \"#utility.yul\":12717:12720   */\n      0x00\n        /* \"#utility.yul\":12738:12805   */\n      tag_513\n        /* \"#utility.yul\":12802:12804   */\n      0x0f\n        /* \"#utility.yul\":12797:12800   */\n      dup4\n        /* \"#utility.yul\":12738:12805   */\n      tag_328\n      jump\t// in\n    tag_513:\n        /* \"#utility.yul\":12731:12805   */\n      swap2\n      pop\n        /* \"#utility.yul\":12814:12907   */\n      tag_514\n        /* \"#utility.yul\":12903:12906   */\n      dup3\n        /* \"#utility.yul\":12814:12907   */\n      tag_363\n      jump\t// in\n    tag_514:\n        /* \"#utility.yul\":12932:12934   */\n      0x20\n        /* \"#utility.yul\":12927:12930   */\n      dup3\n        /* \"#utility.yul\":12923:12935   */\n      add\n        /* \"#utility.yul\":12916:12935   */\n      swap1\n      pop\n        /* \"#utility.yul\":12575:12941   */\n      swap2\n      swap1\n      pop\n      jump\t// out\n        /* \"#utility.yul\":12947:13476   */\n    tag_165:\n        /* \"#utility.yul\":13141:13145   */\n      0x00\n        /* \"#utility.yul\":13179:13181   */\n      0x40\n        /* \"#utility.yul\":13168:13177   */\n      dup3\n        /* \"#utility.yul\":13164:13182   */\n      add\n        /* \"#utility.yul\":13156:13182   */\n      swap1\n      pop\n        /* \"#utility.yul\":13228:13237   */\n      dup2\n        /* \"#utility.yul\":13222:13226   */\n      dup2\n        /* \"#utility.yul\":13218:13238   */\n      sub\n        /* \"#utility.yul\":13214:13215   */\n      0x00\n        /* \"#utility.yul\":13203:13212   */\n      dup4\n        /* \"#utility.yul\":13199:13216   */\n      add\n        /* \"#utility.yul\":13192:13239   */\n      mstore\n        /* \"#utility.yul\":13256:13387   */\n      tag_516\n        /* \"#utility.yul\":13382:13386   */\n      dup2\n        /* \"#utility.yul\":13256:13387   */\n      tag_364\n      jump\t// in\n    tag_516:\n        /* \"#utility.yul\":13248:13387   */\n      swap1\n      pop\n        /* \"#utility.yul\":13397:13469   */\n      tag_517\n        /* \"#utility.yul\":13465:13467   */\n      0x20\n        /* \"#utility.yul\":13454:13463   */\n      dup4\n        /* \"#utility.yul\":13450:13468   */\n      add\n        /* \"#utility.yul\":13441:13447   */\n      dup5\n        /* \"#utility.yul\":13397:13469   */\n      tag_339\n      jump\t// in\n    tag_517:\n        /* \"#utility.yul\":12947:13476   */\n      swap3\n      swap2\n      pop\n      pop\n      jump\t// out\n        /* \"#utility.yul\":13482:13651   */\n    tag_365:\n        /* \"#utility.yul\":13622:13643   */\n      0x5265656e7472616e637920646574656374656400000000000000000000000000\n        /* \"#utility.yul\":13618:13619   */\n      0x00\n        /* \"#utility.yul\":13610:13616   */\n      dup3\n        /* \"#utility.yul\":13606:13620   */\n      add\n        /* \"#utility.yul\":13599:13644   */\n      mstore\n        /* \"#utility.yul\":13482:13651   */\n      pop\n      jump\t// out\n        /* \"#utility.yul\":13657:14023   */\n    tag_366:\n        /* \"#utility.yul\":13799:13802   */\n      0x00\n        /* \"#utility.yul\":13820:13887   */\n      tag_520\n        /* \"#utility.yul\":13884:13886   */\n      0x13\n        /* \"#utility.yul\":13879:13882   */\n      dup4\n        /* \"#utility.yul\":13820:13887   */\n      tag_328\n      jump\t// in\n    tag_520:\n        /* \"#utility.yul\":13813:13887   */\n      swap2\n      pop\n        /* \"#utility.yul\":13896:13989   */\n      tag_521\n        /* \"#utility.yul\":13985:13988   */\n      dup3\n        /* \"#utility.yul\":13896:13989   */\n      tag_365\n      jump\t// in\n    tag_521:\n        /* \"#utility.yul\":14014:14016   */\n      0x20\n        /* \"#utility.yul\":14009:14012   */\n      dup3\n        /* \"#utility.yul\":14005:14017   */\n      add\n        /* \"#utility.yul\":13998:14017   */\n      swap1\n      pop\n        /* \"#utility.yul\":13657:14023   */\n      swap2\n      swap1\n      pop\n      jump\t// out\n        /* \"#utility.yul\":14029:14448   */\n    tag_170:\n        /* \"#utility.yul\":14195:14199   */\n      0x00\n        /* \"#utility.yul\":14233:14235   */\n      0x20\n        /* \"#utility.yul\":14222:14231   */\n      dup3\n        /* \"#utility.yul\":14218:14236   */\n      add\n        /* \"#utility.yul\":14210:14236   */\n      swap1\n      pop\n        /* \"#utility.yul\":14282:14291   */\n      dup2\n        /* \"#utility.yul\":14276:14280   */\n      dup2\n        /* \"#utility.yul\":14272:14292   */\n      sub\n        /* \"#utility.yul\":14268:14269   */\n      0x00\n        /* \"#utility.yul\":14257:14266   */\n      dup4\n        /* \"#utility.yul\":14253:14270   */\n      add\n        /* \"#utility.yul\":14246:14293   */\n      mstore\n        /* \"#utility.yul\":14310:14441   */\n      tag_523\n        /* \"#utility.yul\":14436:14440   */\n      dup2\n        /* \"#utility.yul\":14310:14441   */\n      tag_366\n      jump\t// in\n    tag_523:\n        /* \"#utility.yul\":14302:14441   */\n      swap1\n      pop\n        /* \"#utility.yul\":14029:14448   */\n      swap2\n      swap1\n      pop\n      jump\t// out\n        /* \"#utility.yul\":14454:14626   */\n    tag_367:\n        /* \"#utility.yul\":14594:14618   */\n      0x47616d65206973206e6f74207465726d696e6174656400000000000000000000\n        /* \"#utility.yul\":14590:14591   */\n      0x00\n        /* \"#utility.yul\":14582:14588   */\n      dup3\n        /* \"#utility.yul\":14578:14592   */\n      add\n        /* \"#utility.yul\":14571:14619   */\n      mstore\n        /* \"#utility.yul\":14454:14626   */\n      pop\n      jump\t// out\n        /* \"#utility.yul\":14632:14998   */\n    tag_368:\n        /* \"#utility.yul\":14774:14777   */\n      0x00\n        /* \"#utility.yul\":14795:14862   */\n      tag_526\n        /* \"#utility.yul\":14859:14861   */\n      0x16\n        /* \"#utility.yul\":14854:14857   */\n      dup4\n        /* \"#utility.yul\":14795:14862   */\n      tag_328\n      jump\t// in\n    tag_526:\n        /* \"#utility.yul\":14788:14862   */\n      swap2\n      pop\n        /* \"#utility.yul\":14871:14964   */\n      tag_527\n        /* \"#utility.yul\":14960:14963   */\n      dup3\n        /* \"#utility.yul\":14871:14964   */\n      tag_367\n      jump\t// in\n    tag_527:\n        /* \"#utility.yul\":14989:14991   */\n      0x20\n        /* \"#utility.yul\":14984:14987   */\n      dup3\n        /* \"#utility.yul\":14980:14992   */\n      add\n        /* \"#utility.yul\":14973:14992   */\n      swap1\n      pop\n        /* \"#utility.yul\":14632:14998   */\n      swap2\n      swap1\n      pop\n      jump\t// out\n        /* \"#utility.yul\":15004:15423   */\n    tag_178:\n        /* \"#utility.yul\":15170:15174   */\n      0x00\n        /* \"#utility.yul\":15208:15210   */\n      0x20\n        /* \"#utility.yul\":15197:15206   */\n      dup3\n        /* \"#utility.yul\":15193:15211   */\n      add\n        /* \"#utility.yul\":15185:15211   */\n      swap1\n      pop\n        /* \"#utility.yul\":15257:15266   */\n      dup2\n        /* \"#utility.yul\":15251:15255   */\n      dup2\n        /* \"#utility.yul\":15247:15267   */\n      sub\n        /* \"#utility.yul\":15243:15244   */\n      0x00\n        /* \"#utility.yul\":15232:15241   */\n      dup4\n        /* \"#utility.yul\":15228:15245   */\n      add\n        /* \"#utility.yul\":15221:15268   */\n      mstore\n        /* \"#utility.yul\":15285:15416   */\n      tag_529\n        /* \"#utility.yul\":15411:15415   */\n      dup2\n        /* \"#utility.yul\":15285:15416   */\n      tag_368\n      jump\t// in\n    tag_529:\n        /* \"#utility.yul\":15277:15416   */\n      swap1\n      pop\n        /* \"#utility.yul\":15004:15423   */\n      swap2\n      swap1\n      pop\n      jump\t// out\n        /* \"#utility.yul\":15429:15666   */\n    tag_369:\n        /* \"#utility.yul\":15569:15603   */\n      0x596f7572206465706f73697420697320302e2053686f756c6420626520706f73\n        /* \"#utility.yul\":15565:15566   */\n      0x00\n        /* \"#utility.yul\":15557:15563   */\n      dup3\n        /* \"#utility.yul\":15553:15567   */\n      add\n        /* \"#utility.yul\":15546:15604   */\n      mstore\n        /* \"#utility.yul\":15638:15658   */\n      0x697469766520746f2077697468647261772e0000000000000000000000000000\n        /* \"#utility.yul\":15633:15635   */\n      0x20\n        /* \"#utility.yul\":15625:15631   */\n      dup3\n        /* \"#utility.yul\":15621:15636   */\n      add\n        /* \"#utility.yul\":15614:15659   */\n      mstore\n        /* \"#utility.yul\":15429:15666   */\n      pop\n      jump\t// out\n        /* \"#utility.yul\":15672:16038   */\n    tag_370:\n        /* \"#utility.yul\":15814:15817   */\n      0x00\n        /* \"#utility.yul\":15835:15902   */\n      tag_532\n        /* \"#utility.yul\":15899:15901   */\n      0x32\n        /* \"#utility.yul\":15894:15897   */\n      dup4\n        /* \"#utility.yul\":15835:15902   */\n      tag_328\n      jump\t// in\n    tag_532:\n        /* \"#utility.yul\":15828:15902   */\n      swap2\n      pop\n        /* \"#utility.yul\":15911:16004   */\n      tag_533\n        /* \"#utility.yul\":16000:16003   */\n      dup3\n        /* \"#utility.yul\":15911:16004   */\n      tag_369\n      jump\t// in\n    tag_533:\n        /* \"#utility.yul\":16029:16031   */\n      0x40\n        /* \"#utility.yul\":16024:16027   */\n      dup3\n        /* \"#utility.yul\":16020:16032   */\n      add\n        /* \"#utility.yul\":16013:16032   */\n      swap1\n      pop\n        /* \"#utility.yul\":15672:16038   */\n      swap2\n      swap1\n      pop\n      jump\t// out\n        /* \"#utility.yul\":16044:16463   */\n    tag_182:\n        /* \"#utility.yul\":16210:16214   */\n      0x00\n        /* \"#utility.yul\":16248:16250   */\n      0x20\n        /* \"#utility.yul\":16237:16246   */\n      dup3\n        /* \"#utility.yul\":16233:16251   */\n      add\n        /* \"#utility.yul\":16225:16251   */\n      swap1\n      pop\n        /* \"#utility.yul\":16297:16306   */\n      dup2\n        /* \"#utility.yul\":16291:16295   */\n      dup2\n        /* \"#utility.yul\":16287:16307   */\n      sub\n        /* \"#utility.yul\":16283:16284   */\n      0x00\n        /* \"#utility.yul\":16272:16281   */\n      dup4\n        /* \"#utility.yul\":16268:16285   */\n      add\n        /* \"#utility.yul\":16261:16308   */\n      mstore\n        /* \"#utility.yul\":16325:16456   */\n      tag_535\n        /* \"#utility.yul\":16451:16455   */\n      dup2\n        /* \"#utility.yul\":16325:16456   */\n      tag_370\n      jump\t// in\n    tag_535:\n        /* \"#utility.yul\":16317:16456   */\n      swap1\n      pop\n        /* \"#utility.yul\":16044:16463   */\n      swap2\n      swap1\n      pop\n      jump\t// out\n        /* \"#utility.yul\":16469:16616   */\n    tag_371:\n        /* \"#utility.yul\":16570:16581   */\n      0x00\n        /* \"#utility.yul\":16607:16610   */\n      dup2\n        /* \"#utility.yul\":16592:16610   */\n      swap1\n      pop\n        /* \"#utility.yul\":16469:16616   */\n      swap3\n      swap2\n      pop\n      pop\n      jump\t// out\n        /* \"#utility.yul\":16622:16736   */\n    tag_372:\n      pop\n      jump\t// out\n        /* \"#utility.yul\":16742:17140   */\n    tag_373:\n        /* \"#utility.yul\":16901:16904   */\n      0x00\n        /* \"#utility.yul\":16922:17005   */\n      tag_539\n        /* \"#utility.yul\":17003:17004   */\n      0x00\n        /* \"#utility.yul\":16998:17001   */\n      dup4\n        /* \"#utility.yul\":16922:17005   */\n      tag_371\n      jump\t// in\n    tag_539:\n        /* \"#utility.yul\":16915:17005   */\n      swap2\n      pop\n        /* \"#utility.yul\":17014:17107   */\n      tag_540\n        /* \"#utility.yul\":17103:17106   */\n      dup3\n        /* \"#utility.yul\":17014:17107   */\n      tag_372\n      jump\t// in\n    tag_540:\n        /* \"#utility.yul\":17132:17133   */\n      0x00\n        /* \"#utility.yul\":17127:17130   */\n      dup3\n        /* \"#utility.yul\":17123:17134   */\n      add\n        /* \"#utility.yul\":17116:17134   */\n      swap1\n      pop\n        /* \"#utility.yul\":16742:17140   */\n      swap2\n      swap1\n      pop\n      jump\t// out\n        /* \"#utility.yul\":17146:17525   */\n    tag_184:\n        /* \"#utility.yul\":17330:17333   */\n      0x00\n        /* \"#utility.yul\":17352:17499   */\n      tag_542\n        /* \"#utility.yul\":17495:17498   */\n      dup3\n        /* \"#utility.yul\":17352:17499   */\n      tag_373\n      jump\t// in\n    tag_542:\n        /* \"#utility.yul\":17345:17499   */\n      swap2\n      pop\n        /* \"#utility.yul\":17516:17519   */\n      dup2\n        /* \"#utility.yul\":17509:17519   */\n      swap1\n      pop\n        /* \"#utility.yul\":17146:17525   */\n      swap2\n      swap1\n      pop\n      jump\t// out\n        /* \"#utility.yul\":17531:17696   */\n    tag_374:\n        /* \"#utility.yul\":17671:17688   */\n      0x5472616e73666572206661696c65640000000000000000000000000000000000\n        /* \"#utility.yul\":17667:17668   */\n      0x00\n        /* \"#utility.yul\":17659:17665   */\n      dup3\n        /* \"#utility.yul\":17655:17669   */\n      add\n        /* \"#utility.yul\":17648:17689   */\n      mstore\n        /* \"#utility.yul\":17531:17696   */\n      pop\n      jump\t// out\n        /* \"#utility.yul\":17702:18068   */\n    tag_375:\n        /* \"#utility.yul\":17844:17847   */\n      0x00\n        /* \"#utility.yul\":17865:17932   */\n      tag_545\n        /* \"#utility.yul\":17929:17931   */\n      0x0f\n        /* \"#utility.yul\":17924:17927   */\n      dup4\n        /* \"#utility.yul\":17865:17932   */\n      tag_328\n      jump\t// in\n    tag_545:\n        /* \"#utility.yul\":17858:17932   */\n      swap2\n      pop\n        /* \"#utility.yul\":17941:18034   */\n      tag_546\n        /* \"#utility.yul\":18030:18033   */\n      dup3\n        /* \"#utility.yul\":17941:18034   */\n      tag_374\n      jump\t// in\n    tag_546:\n        /* \"#utility.yul\":18059:18061   */\n      0x20\n        /* \"#utility.yul\":18054:18057   */\n      dup3\n        /* \"#utility.yul\":18050:18062   */\n      add\n        /* \"#utility.yul\":18043:18062   */\n      swap1\n      pop\n        /* \"#utility.yul\":17702:18068   */\n      swap2\n      swap1\n      pop\n      jump\t// out\n        /* \"#utility.yul\":18074:18493   */\n    tag_190:\n        /* \"#utility.yul\":18240:18244   */\n      0x00\n        /* \"#utility.yul\":18278:18280   */\n      0x20\n        /* \"#utility.yul\":18267:18276   */\n      dup3\n        /* \"#utility.yul\":18263:18281   */\n      add\n        /* \"#utility.yul\":18255:18281   */\n      swap1\n      pop\n        /* \"#utility.yul\":18327:18336   */\n      dup2\n        /* \"#utility.yul\":18321:18325   */\n      dup2\n        /* \"#utility.yul\":18317:18337   */\n      sub\n        /* \"#utility.yul\":18313:18314   */\n      0x00\n        /* \"#utility.yul\":18302:18311   */\n      dup4\n        /* \"#utility.yul\":18298:18315   */\n      add\n        /* \"#utility.yul\":18291:18338   */\n      mstore\n        /* \"#utility.yul\":18355:18486   */\n      tag_548\n        /* \"#utility.yul\":18481:18485   */\n      dup2\n        /* \"#utility.yul\":18355:18486   */\n      tag_375\n      jump\t// in\n    tag_548:\n        /* \"#utility.yul\":18347:18486   */\n      swap1\n      pop\n        /* \"#utility.yul\":18074:18493   */\n      swap2\n      swap1\n      pop\n      jump\t// out\n        /* \"#utility.yul\":18499:18673   */\n    tag_376:\n        /* \"#utility.yul\":18639:18665   */\n      0x4d79206465706f73697420697320776974686472617765640000000000000000\n        /* \"#utility.yul\":18635:18636   */\n      0x00\n        /* \"#utility.yul\":18627:18633   */\n      dup3\n        /* \"#utility.yul\":18623:18637   */\n      add\n        /* \"#utility.yul\":18616:18666   */\n      mstore\n        /* \"#utility.yul\":18499:18673   */\n      pop\n      jump\t// out\n        /* \"#utility.yul\":18679:19045   */\n    tag_377:\n        /* \"#utility.yul\":18821:18824   */\n      0x00\n        /* \"#utility.yul\":18842:18909   */\n      tag_551\n        /* \"#utility.yul\":18906:18908   */\n      0x18\n        /* \"#utility.yul\":18901:18904   */\n      dup4\n        /* \"#utility.yul\":18842:18909   */\n      tag_328\n      jump\t// in\n    tag_551:\n        /* \"#utility.yul\":18835:18909   */\n      swap2\n      pop\n        /* \"#utility.yul\":18918:19011   */\n      tag_552\n        /* \"#utility.yul\":19007:19010   */\n      dup3\n        /* \"#utility.yul\":18918:19011   */\n      tag_376\n      jump\t// in\n    tag_552:\n        /* \"#utility.yul\":19036:19038   */\n      0x20\n        /* \"#utility.yul\":19031:19034   */\n      dup3\n        /* \"#utility.yul\":19027:19039   */\n      add\n        /* \"#utility.yul\":19020:19039   */\n      swap1\n      pop\n        /* \"#utility.yul\":18679:19045   */\n      swap2\n      swap1\n      pop\n      jump\t// out\n        /* \"#utility.yul\":19051:19801   */\n    tag_192:\n        /* \"#utility.yul\":19301:19305   */\n      0x00\n        /* \"#utility.yul\":19339:19342   */\n      0x80\n        /* \"#utility.yul\":19328:19337   */\n      dup3\n        /* \"#utility.yul\":19324:19343   */\n      add\n        /* \"#utility.yul\":19316:19343   */\n      swap1\n      pop\n        /* \"#utility.yul\":19389:19398   */\n      dup2\n        /* \"#utility.yul\":19383:19387   */\n      dup2\n        /* \"#utility.yul\":19379:19399   */\n      sub\n        /* \"#utility.yul\":19375:19376   */\n      0x00\n        /* \"#utility.yul\":19364:19373   */\n      dup4\n        /* \"#utility.yul\":19360:19377   */\n      add\n        /* \"#utility.yul\":19353:19400   */\n      mstore\n        /* \"#utility.yul\":19417:19548   */\n      tag_554\n        /* \"#utility.yul\":19543:19547   */\n      dup2\n        /* \"#utility.yul\":19417:19548   */\n      tag_377\n      jump\t// in\n    tag_554:\n        /* \"#utility.yul\":19409:19548   */\n      swap1\n      pop\n        /* \"#utility.yul\":19558:19630   */\n      tag_555\n        /* \"#utility.yul\":19626:19628   */\n      0x20\n        /* \"#utility.yul\":19615:19624   */\n      dup4\n        /* \"#utility.yul\":19611:19629   */\n      add\n        /* \"#utility.yul\":19602:19608   */\n      dup7\n        /* \"#utility.yul\":19558:19630   */\n      tag_337\n      jump\t// in\n    tag_555:\n        /* \"#utility.yul\":19640:19712   */\n      tag_556\n        /* \"#utility.yul\":19708:19710   */\n      0x40\n        /* \"#utility.yul\":19697:19706   */\n      dup4\n        /* \"#utility.yul\":19693:19711   */\n      add\n        /* \"#utility.yul\":19684:19690   */\n      dup6\n        /* \"#utility.yul\":19640:19712   */\n      tag_339\n      jump\t// in\n    tag_556:\n        /* \"#utility.yul\":19722:19794   */\n      tag_557\n        /* \"#utility.yul\":19790:19792   */\n      0x60\n        /* \"#utility.yul\":19779:19788   */\n      dup4\n        /* \"#utility.yul\":19775:19793   */\n      add\n        /* \"#utility.yul\":19766:19772   */\n      dup5\n        /* \"#utility.yul\":19722:19794   */\n      tag_339\n      jump\t// in\n    tag_557:\n        /* \"#utility.yul\":19051:19801   */\n      swap5\n      swap4\n      pop\n      pop\n      pop\n      pop\n      jump\t// out\n        /* \"#utility.yul\":19807:19981   */\n    tag_378:\n        /* \"#utility.yul\":19947:19973   */\n      0x476f616c206973206e6f742072656163686564207965742e0000000000000000\n        /* \"#utility.yul\":19943:19944   */\n      0x00\n        /* \"#utility.yul\":19935:19941   */\n      dup3\n        /* \"#utility.yul\":19931:19945   */\n      add\n        /* \"#utility.yul\":19924:19974   */\n      mstore\n        /* \"#utility.yul\":19807:19981   */\n      pop\n      jump\t// out\n        /* \"#utility.yul\":19987:20353   */\n    tag_379:\n        /* \"#utility.yul\":20129:20132   */\n      0x00\n        /* \"#utility.yul\":20150:20217   */\n      tag_560\n        /* \"#utility.yul\":20214:20216   */\n      0x18\n        /* \"#utility.yul\":20209:20212   */\n      dup4\n        /* \"#utility.yul\":20150:20217   */\n      tag_328\n      jump\t// in\n    tag_560:\n        /* \"#utility.yul\":20143:20217   */\n      swap2\n      pop\n        /* \"#utility.yul\":20226:20319   */\n      tag_561\n        /* \"#utility.yul\":20315:20318   */\n      dup3\n        /* \"#utility.yul\":20226:20319   */\n      tag_378\n      jump\t// in\n    tag_561:\n        /* \"#utility.yul\":20344:20346   */\n      0x20\n        /* \"#utility.yul\":20339:20342   */\n      dup3\n        /* \"#utility.yul\":20335:20347   */\n      add\n        /* \"#utility.yul\":20328:20347   */\n      swap1\n      pop\n        /* \"#utility.yul\":19987:20353   */\n      swap2\n      swap1\n      pop\n      jump\t// out\n        /* \"#utility.yul\":20359:20778   */\n    tag_218:\n        /* \"#utility.yul\":20525:20529   */\n      0x00\n        /* \"#utility.yul\":20563:20565   */\n      0x20\n        /* \"#utility.yul\":20552:20561   */\n      dup3\n        /* \"#utility.yul\":20548:20566   */\n      add\n        /* \"#utility.yul\":20540:20566   */\n      swap1\n      pop\n        /* \"#utility.yul\":20612:20621   */\n      dup2\n        /* \"#utility.yul\":20606:20610   */\n      dup2\n        /* \"#utility.yul\":20602:20622   */\n      sub\n        /* \"#utility.yul\":20598:20599   */\n      0x00\n        /* \"#utility.yul\":20587:20596   */\n      dup4\n        /* \"#utility.yul\":20583:20600   */\n      add\n        /* \"#utility.yul\":20576:20623   */\n      mstore\n        /* \"#utility.yul\":20640:20771   */\n      tag_563\n        /* \"#utility.yul\":20766:20770   */\n      dup2\n        /* \"#utility.yul\":20640:20771   */\n      tag_379\n      jump\t// in\n    tag_563:\n        /* \"#utility.yul\":20632:20771   */\n      swap1\n      pop\n        /* \"#utility.yul\":20359:20778   */\n      swap2\n      swap1\n      pop\n      jump\t// out\n        /* \"#utility.yul\":20784:21194   */\n    tag_223:\n        /* \"#utility.yul\":20824:20831   */\n      0x00\n        /* \"#utility.yul\":20847:20867   */\n      tag_565\n        /* \"#utility.yul\":20865:20866   */\n      dup3\n        /* \"#utility.yul\":20847:20867   */\n      tag_338\n      jump\t// in\n    tag_565:\n        /* \"#utility.yul\":20842:20867   */\n      swap2\n      pop\n        /* \"#utility.yul\":20881:20901   */\n      tag_566\n        /* \"#utility.yul\":20899:20900   */\n      dup4\n        /* \"#utility.yul\":20881:20901   */\n      tag_338\n      jump\t// in\n    tag_566:\n        /* \"#utility.yul\":20876:20901   */\n      swap3\n      pop\n        /* \"#utility.yul\":20936:20937   */\n      dup3\n        /* \"#utility.yul\":20933:20934   */\n      dup3\n        /* \"#utility.yul\":20929:20938   */\n      mul\n        /* \"#utility.yul\":20958:20988   */\n      tag_567\n        /* \"#utility.yul\":20976:20987   */\n      dup2\n        /* \"#utility.yul\":20958:20988   */\n      tag_338\n      jump\t// in\n    tag_567:\n        /* \"#utility.yul\":20947:20988   */\n      swap2\n      pop\n        /* \"#utility.yul\":21137:21138   */\n      dup3\n        /* \"#utility.yul\":21128:21135   */\n      dup3\n        /* \"#utility.yul\":21124:21139   */\n      div\n        /* \"#utility.yul\":21121:21122   */\n      dup5\n        /* \"#utility.yul\":21118:21140   */\n      eq\n        /* \"#utility.yul\":21098:21099   */\n      dup4\n        /* \"#utility.yul\":21091:21100   */\n      iszero\n        /* \"#utility.yul\":21071:21154   */\n      or\n        /* \"#utility.yul\":21048:21187   */\n      tag_568\n      jumpi\n        /* \"#utility.yul\":21167:21185   */\n      tag_569\n      tag_358\n      jump\t// in\n    tag_569:\n        /* \"#utility.yul\":21048:21187   */\n    tag_568:\n        /* \"#utility.yul\":20832:21194   */\n      pop\n        /* \"#utility.yul\":20784:21194   */\n      swap3\n      swap2\n      pop\n      pop\n      jump\t// out\n        /* \"#utility.yul\":21200:21380   */\n    tag_380:\n        /* \"#utility.yul\":21248:21325   */\n      0x4e487b7100000000000000000000000000000000000000000000000000000000\n        /* \"#utility.yul\":21245:21246   */\n      0x00\n        /* \"#utility.yul\":21238:21326   */\n      mstore\n        /* \"#utility.yul\":21345:21349   */\n      0x12\n        /* \"#utility.yul\":21342:21343   */\n      0x04\n        /* \"#utility.yul\":21335:21350   */\n      mstore\n        /* \"#utility.yul\":21369:21373   */\n      0x24\n        /* \"#utility.yul\":21366:21367   */\n      0x00\n        /* \"#utility.yul\":21359:21374   */\n      revert\n        /* \"#utility.yul\":21386:21571   */\n    tag_225:\n        /* \"#utility.yul\":21426:21427   */\n      0x00\n        /* \"#utility.yul\":21443:21463   */\n      tag_572\n        /* \"#utility.yul\":21461:21462   */\n      dup3\n        /* \"#utility.yul\":21443:21463   */\n      tag_338\n      jump\t// in\n    tag_572:\n        /* \"#utility.yul\":21438:21463   */\n      swap2\n      pop\n        /* \"#utility.yul\":21477:21497   */\n      tag_573\n        /* \"#utility.yul\":21495:21496   */\n      dup4\n        /* \"#utility.yul\":21477:21497   */\n      tag_338\n      jump\t// in\n    tag_573:\n        /* \"#utility.yul\":21472:21497   */\n      swap3\n      pop\n        /* \"#utility.yul\":21516:21517   */\n      dup3\n        /* \"#utility.yul\":21506:21541   */\n      tag_574\n      jumpi\n        /* \"#utility.yul\":21521:21539   */\n      tag_575\n      tag_380\n      jump\t// in\n    tag_575:\n        /* \"#utility.yul\":21506:21541   */\n    tag_574:\n        /* \"#utility.yul\":21563:21564   */\n      dup3\n        /* \"#utility.yul\":21560:21561   */\n      dup3\n        /* \"#utility.yul\":21556:21565   */\n      div\n        /* \"#utility.yul\":21551:21565   */\n      swap1\n      pop\n        /* \"#utility.yul\":21386:21571   */\n      swap3\n      swap2\n      pop\n      pop\n      jump\t// out\n        /* \"#utility.yul\":21577:21771   */\n    tag_227:\n        /* \"#utility.yul\":21617:21621   */\n      0x00\n        /* \"#utility.yul\":21637:21657   */\n      tag_577\n        /* \"#utility.yul\":21655:21656   */\n      dup3\n        /* \"#utility.yul\":21637:21657   */\n      tag_338\n      jump\t// in\n    tag_577:\n        /* \"#utility.yul\":21632:21657   */\n      swap2\n      pop\n        /* \"#utility.yul\":21671:21691   */\n      tag_578\n        /* \"#utility.yul\":21689:21690   */\n      dup4\n        /* \"#utility.yul\":21671:21691   */\n      tag_338\n      jump\t// in\n    tag_578:\n        /* \"#utility.yul\":21666:21691   */\n      swap3\n      pop\n        /* \"#utility.yul\":21715:21716   */\n      dup3\n        /* \"#utility.yul\":21712:21713   */\n      dup3\n        /* \"#utility.yul\":21708:21717   */\n      sub\n        /* \"#utility.yul\":21700:21717   */\n      swap1\n      pop\n        /* \"#utility.yul\":21739:21740   */\n      dup2\n        /* \"#utility.yul\":21733:21737   */\n      dup2\n        /* \"#utility.yul\":21730:21741   */\n      gt\n        /* \"#utility.yul\":21727:21764   */\n      iszero\n      tag_579\n      jumpi\n        /* \"#utility.yul\":21744:21762   */\n      tag_580\n      tag_358\n      jump\t// in\n    tag_580:\n        /* \"#utility.yul\":21727:21764   */\n    tag_579:\n        /* \"#utility.yul\":21577:21771   */\n      swap3\n      swap2\n      pop\n      pop\n      jump\t// out\n        /* \"#utility.yul\":21777:21945   */\n    tag_381:\n        /* \"#utility.yul\":21917:21937   */\n      0x47616d65206861732066696e6973686564210000000000000000000000000000\n        /* \"#utility.yul\":21913:21914   */\n      0x00\n        /* \"#utility.yul\":21905:21911   */\n      dup3\n        /* \"#utility.yul\":21901:21915   */\n      add\n        /* \"#utility.yul\":21894:21938   */\n      mstore\n        /* \"#utility.yul\":21777:21945   */\n      pop\n      jump\t// out\n        /* \"#utility.yul\":21951:22317   */\n    tag_382:\n        /* \"#utility.yul\":22093:22096   */\n      0x00\n        /* \"#utility.yul\":22114:22181   */\n      tag_583\n        /* \"#utility.yul\":22178:22180   */\n      0x12\n        /* \"#utility.yul\":22173:22176   */\n      dup4\n        /* \"#utility.yul\":22114:22181   */\n      tag_328\n      jump\t// in\n    tag_583:\n        /* \"#utility.yul\":22107:22181   */\n      swap2\n      pop\n        /* \"#utility.yul\":22190:22283   */\n      tag_584\n        /* \"#utility.yul\":22279:22282   */\n      dup3\n        /* \"#utility.yul\":22190:22283   */\n      tag_381\n      jump\t// in\n    tag_584:\n        /* \"#utility.yul\":22308:22310   */\n      0x20\n        /* \"#utility.yul\":22303:22306   */\n      dup3\n        /* \"#utility.yul\":22299:22311   */\n      add\n        /* \"#utility.yul\":22292:22311   */\n      swap1\n      pop\n        /* \"#utility.yul\":21951:22317   */\n      swap2\n      swap1\n      pop\n      jump\t// out\n        /* \"#utility.yul\":22323:23073   */\n    tag_241:\n        /* \"#utility.yul\":22573:22577   */\n      0x00\n        /* \"#utility.yul\":22611:22614   */\n      0x80\n        /* \"#utility.yul\":22600:22609   */\n      dup3\n        /* \"#utility.yul\":22596:22615   */\n      add\n        /* \"#utility.yul\":22588:22615   */\n      swap1\n      pop\n        /* \"#utility.yul\":22661:22670   */\n      dup2\n        /* \"#utility.yul\":22655:22659   */\n      dup2\n        /* \"#utility.yul\":22651:22671   */\n      sub\n        /* \"#utility.yul\":22647:22648   */\n      0x00\n        /* \"#utility.yul\":22636:22645   */\n      dup4\n        /* \"#utility.yul\":22632:22649   */\n      add\n        /* \"#utility.yul\":22625:22672   */\n      mstore\n        /* \"#utility.yul\":22689:22820   */\n      tag_586\n        /* \"#utility.yul\":22815:22819   */\n      dup2\n        /* \"#utility.yul\":22689:22820   */\n      tag_382\n      jump\t// in\n    tag_586:\n        /* \"#utility.yul\":22681:22820   */\n      swap1\n      pop\n        /* \"#utility.yul\":22830:22902   */\n      tag_587\n        /* \"#utility.yul\":22898:22900   */\n      0x20\n        /* \"#utility.yul\":22887:22896   */\n      dup4\n        /* \"#utility.yul\":22883:22901   */\n      add\n        /* \"#utility.yul\":22874:22880   */\n      dup7\n        /* \"#utility.yul\":22830:22902   */\n      tag_339\n      jump\t// in\n    tag_587:\n        /* \"#utility.yul\":22912:22984   */\n      tag_588\n        /* \"#utility.yul\":22980:22982   */\n      0x40\n        /* \"#utility.yul\":22969:22978   */\n      dup4\n        /* \"#utility.yul\":22965:22983   */\n      add\n        /* \"#utility.yul\":22956:22962   */\n      dup6\n        /* \"#utility.yul\":22912:22984   */\n      tag_339\n      jump\t// in\n    tag_588:\n        /* \"#utility.yul\":22994:23066   */\n      tag_589\n        /* \"#utility.yul\":23062:23064   */\n      0x60\n        /* \"#utility.yul\":23051:23060   */\n      dup4\n        /* \"#utility.yul\":23047:23065   */\n      add\n        /* \"#utility.yul\":23038:23044   */\n      dup5\n        /* \"#utility.yul\":22994:23066   */\n      tag_339\n      jump\t// in\n    tag_589:\n        /* \"#utility.yul\":22323:23073   */\n      swap5\n      swap4\n      pop\n      pop\n      pop\n      pop\n      jump\t// out\n        /* \"#utility.yul\":23079:23247   */\n    tag_383:\n        /* \"#utility.yul\":23219:23239   */\n      0x47616d65206973207465726d696e617465640000000000000000000000000000\n        /* \"#utility.yul\":23215:23216   */\n      0x00\n        /* \"#utility.yul\":23207:23213   */\n      dup3\n        /* \"#utility.yul\":23203:23217   */\n      add\n        /* \"#utility.yul\":23196:23240   */\n      mstore\n        /* \"#utility.yul\":23079:23247   */\n      pop\n      jump\t// out\n        /* \"#utility.yul\":23253:23619   */\n    tag_384:\n        /* \"#utility.yul\":23395:23398   */\n      0x00\n        /* \"#utility.yul\":23416:23483   */\n      tag_592\n        /* \"#utility.yul\":23480:23482   */\n      0x12\n        /* \"#utility.yul\":23475:23478   */\n      dup4\n        /* \"#utility.yul\":23416:23483   */\n      tag_328\n      jump\t// in\n    tag_592:\n        /* \"#utility.yul\":23409:23483   */\n      swap2\n      pop\n        /* \"#utility.yul\":23492:23585   */\n      tag_593\n        /* \"#utility.yul\":23581:23584   */\n      dup3\n        /* \"#utility.yul\":23492:23585   */\n      tag_383\n      jump\t// in\n    tag_593:\n        /* \"#utility.yul\":23610:23612   */\n      0x20\n        /* \"#utility.yul\":23605:23608   */\n      dup3\n        /* \"#utility.yul\":23601:23613   */\n      add\n        /* \"#utility.yul\":23594:23613   */\n      swap1\n      pop\n        /* \"#utility.yul\":23253:23619   */\n      swap2\n      swap1\n      pop\n      jump\t// out\n        /* \"#utility.yul\":23625:24154   */\n    tag_264:\n        /* \"#utility.yul\":23819:23823   */\n      0x00\n        /* \"#utility.yul\":23857:23859   */\n      0x40\n        /* \"#utility.yul\":23846:23855   */\n      dup3\n        /* \"#utility.yul\":23842:23860   */\n      add\n        /* \"#utility.yul\":23834:23860   */\n      swap1\n      pop\n        /* \"#utility.yul\":23906:23915   */\n      dup2\n        /* \"#utility.yul\":23900:23904   */\n      dup2\n        /* \"#utility.yul\":23896:23916   */\n      sub\n        /* \"#utility.yul\":23892:23893   */\n      0x00\n        /* \"#utility.yul\":23881:23890   */\n      dup4\n        /* \"#utility.yul\":23877:23894   */\n      add\n        /* \"#utility.yul\":23870:23917   */\n      mstore\n        /* \"#utility.yul\":23934:24065   */\n      tag_595\n        /* \"#utility.yul\":24060:24064   */\n      dup2\n        /* \"#utility.yul\":23934:24065   */\n      tag_384\n      jump\t// in\n    tag_595:\n        /* \"#utility.yul\":23926:24065   */\n      swap1\n      pop\n        /* \"#utility.yul\":24075:24147   */\n      tag_596\n        /* \"#utility.yul\":24143:24145   */\n      0x20\n        /* \"#utility.yul\":24132:24141   */\n      dup4\n        /* \"#utility.yul\":24128:24146   */\n      add\n        /* \"#utility.yul\":24119:24125   */\n      dup5\n        /* \"#utility.yul\":24075:24147   */\n      tag_339\n      jump\t// in\n    tag_596:\n        /* \"#utility.yul\":23625:24154   */\n      swap3\n      swap2\n      pop\n      pop\n      jump\t// out\n        /* \"#utility.yul\":24160:24325   */\n    tag_385:\n        /* \"#utility.yul\":24300:24317   */\n      0x496e76616c696420616464726573730000000000000000000000000000000000\n        /* \"#utility.yul\":24296:24297   */\n      0x00\n        /* \"#utility.yul\":24288:24294   */\n      dup3\n        /* \"#utility.yul\":24284:24298   */\n      add\n        /* \"#utility.yul\":24277:24318   */\n      mstore\n        /* \"#utility.yul\":24160:24325   */\n      pop\n      jump\t// out\n        /* \"#utility.yul\":24331:24697   */\n    tag_386:\n        /* \"#utility.yul\":24473:24476   */\n      0x00\n        /* \"#utility.yul\":24494:24561   */\n      tag_599\n        /* \"#utility.yul\":24558:24560   */\n      0x0f\n        /* \"#utility.yul\":24553:24556   */\n      dup4\n        /* \"#utility.yul\":24494:24561   */\n      tag_328\n      jump\t// in\n    tag_599:\n        /* \"#utility.yul\":24487:24561   */\n      swap2\n      pop\n        /* \"#utility.yul\":24570:24663   */\n      tag_600\n        /* \"#utility.yul\":24659:24662   */\n      dup3\n        /* \"#utility.yul\":24570:24663   */\n      tag_385\n      jump\t// in\n    tag_600:\n        /* \"#utility.yul\":24688:24690   */\n      0x20\n        /* \"#utility.yul\":24683:24686   */\n      dup3\n        /* \"#utility.yul\":24679:24691   */\n      add\n        /* \"#utility.yul\":24672:24691   */\n      swap1\n      pop\n        /* \"#utility.yul\":24331:24697   */\n      swap2\n      swap1\n      pop\n      jump\t// out\n        /* \"#utility.yul\":24703:25122   */\n    tag_271:\n        /* \"#utility.yul\":24869:24873   */\n      0x00\n        /* \"#utility.yul\":24907:24909   */\n      0x20\n        /* \"#utility.yul\":24896:24905   */\n      dup3\n        /* \"#utility.yul\":24892:24910   */\n      add\n        /* \"#utility.yul\":24884:24910   */\n      swap1\n      pop\n        /* \"#utility.yul\":24956:24965   */\n      dup2\n        /* \"#utility.yul\":24950:24954   */\n      dup2\n        /* \"#utility.yul\":24946:24966   */\n      sub\n        /* \"#utility.yul\":24942:24943   */\n      0x00\n        /* \"#utility.yul\":24931:24940   */\n      dup4\n        /* \"#utility.yul\":24927:24944   */\n      add\n        /* \"#utility.yul\":24920:24967   */\n      mstore\n        /* \"#utility.yul\":24984:25115   */\n      tag_602\n        /* \"#utility.yul\":25110:25114   */\n      dup2\n        /* \"#utility.yul\":24984:25115   */\n      tag_386\n      jump\t// in\n    tag_602:\n        /* \"#utility.yul\":24976:25115   */\n      swap1\n      pop\n        /* \"#utility.yul\":24703:25122   */\n      swap2\n      swap1\n      pop\n      jump\t// out\n        /* \"#utility.yul\":25128:25296   */\n    tag_387:\n        /* \"#utility.yul\":25268:25288   */\n      0x4f776e657220686173206368616e6765642e0000000000000000000000000000\n        /* \"#utility.yul\":25264:25265   */\n      0x00\n        /* \"#utility.yul\":25256:25262   */\n      dup3\n        /* \"#utility.yul\":25252:25266   */\n      add\n        /* \"#utility.yul\":25245:25289   */\n      mstore\n        /* \"#utility.yul\":25128:25296   */\n      pop\n      jump\t// out\n        /* \"#utility.yul\":25302:25668   */\n    tag_388:\n        /* \"#utility.yul\":25444:25447   */\n      0x00\n        /* \"#utility.yul\":25465:25532   */\n      tag_605\n        /* \"#utility.yul\":25529:25531   */\n      0x12\n        /* \"#utility.yul\":25524:25527   */\n      dup4\n        /* \"#utility.yul\":25465:25532   */\n      tag_328\n      jump\t// in\n    tag_605:\n        /* \"#utility.yul\":25458:25532   */\n      swap2\n      pop\n        /* \"#utility.yul\":25541:25634   */\n      tag_606\n        /* \"#utility.yul\":25630:25633   */\n      dup3\n        /* \"#utility.yul\":25541:25634   */\n      tag_387\n      jump\t// in\n    tag_606:\n        /* \"#utility.yul\":25659:25661   */\n      0x20\n        /* \"#utility.yul\":25654:25657   */\n      dup3\n        /* \"#utility.yul\":25650:25662   */\n      add\n        /* \"#utility.yul\":25643:25662   */\n      swap1\n      pop\n        /* \"#utility.yul\":25302:25668   */\n      swap2\n      swap1\n      pop\n      jump\t// out\n        /* \"#utility.yul\":25674:26424   */\n    tag_273:\n        /* \"#utility.yul\":25924:25928   */\n      0x00\n        /* \"#utility.yul\":25962:25965   */\n      0x80\n        /* \"#utility.yul\":25951:25960   */\n      dup3\n        /* \"#utility.yul\":25947:25966   */\n      add\n        /* \"#utility.yul\":25939:25966   */\n      swap1\n      pop\n        /* \"#utility.yul\":26012:26021   */\n      dup2\n        /* \"#utility.yul\":26006:26010   */\n      dup2\n        /* \"#utility.yul\":26002:26022   */\n      sub\n        /* \"#utility.yul\":25998:25999   */\n      0x00\n        /* \"#utility.yul\":25987:25996   */\n      dup4\n        /* \"#utility.yul\":25983:26000   */\n      add\n        /* \"#utility.yul\":25976:26023   */\n      mstore\n        /* \"#utility.yul\":26040:26171   */\n      tag_608\n        /* \"#utility.yul\":26166:26170   */\n      dup2\n        /* \"#utility.yul\":26040:26171   */\n      tag_388\n      jump\t// in\n    tag_608:\n        /* \"#utility.yul\":26032:26171   */\n      swap1\n      pop\n        /* \"#utility.yul\":26181:26253   */\n      tag_609\n        /* \"#utility.yul\":26249:26251   */\n      0x20\n        /* \"#utility.yul\":26238:26247   */\n      dup4\n        /* \"#utility.yul\":26234:26252   */\n      add\n        /* \"#utility.yul\":26225:26231   */\n      dup7\n        /* \"#utility.yul\":26181:26253   */\n      tag_337\n      jump\t// in\n    tag_609:\n        /* \"#utility.yul\":26263:26335   */\n      tag_610\n        /* \"#utility.yul\":26331:26333   */\n      0x40\n        /* \"#utility.yul\":26320:26329   */\n      dup4\n        /* \"#utility.yul\":26316:26334   */\n      add\n        /* \"#utility.yul\":26307:26313   */\n      dup6\n        /* \"#utility.yul\":26263:26335   */\n      tag_337\n      jump\t// in\n    tag_610:\n        /* \"#utility.yul\":26345:26417   */\n      tag_611\n        /* \"#utility.yul\":26413:26415   */\n      0x60\n        /* \"#utility.yul\":26402:26411   */\n      dup4\n        /* \"#utility.yul\":26398:26416   */\n      add\n        /* \"#utility.yul\":26389:26395   */\n      dup5\n        /* \"#utility.yul\":26345:26417   */\n      tag_339\n      jump\t// in\n    tag_611:\n        /* \"#utility.yul\":25674:26424   */\n      swap5\n      swap4\n      pop\n      pop\n      pop\n      pop\n      jump\t// out\n        /* \"#utility.yul\":26430:26605   */\n    tag_389:\n        /* \"#utility.yul\":26570:26597   */\n      0x47616d6520697320616374697665206f72207061757365642e00000000000000\n        /* \"#utility.yul\":26566:26567   */\n      0x00\n        /* \"#utility.yul\":26558:26564   */\n      dup3\n        /* \"#utility.yul\":26554:26568   */\n      add\n        /* \"#utility.yul\":26547:26598   */\n      mstore\n        /* \"#utility.yul\":26430:26605   */\n      pop\n      jump\t// out\n        /* \"#utility.yul\":26611:26977   */\n    tag_390:\n        /* \"#utility.yul\":26753:26756   */\n      0x00\n        /* \"#utility.yul\":26774:26841   */\n      tag_614\n        /* \"#utility.yul\":26838:26840   */\n      0x19\n        /* \"#utility.yul\":26833:26836   */\n      dup4\n        /* \"#utility.yul\":26774:26841   */\n      tag_328\n      jump\t// in\n    tag_614:\n        /* \"#utility.yul\":26767:26841   */\n      swap2\n      pop\n        /* \"#utility.yul\":26850:26943   */\n      tag_615\n        /* \"#utility.yul\":26939:26942   */\n      dup3\n        /* \"#utility.yul\":26850:26943   */\n      tag_389\n      jump\t// in\n    tag_615:\n        /* \"#utility.yul\":26968:26970   */\n      0x20\n        /* \"#utility.yul\":26963:26966   */\n      dup3\n        /* \"#utility.yul\":26959:26971   */\n      add\n        /* \"#utility.yul\":26952:26971   */\n      swap1\n      pop\n        /* \"#utility.yul\":26611:26977   */\n      swap2\n      swap1\n      pop\n      jump\t// out\n        /* \"#utility.yul\":26983:27402   */\n    tag_289:\n        /* \"#utility.yul\":27149:27153   */\n      0x00\n        /* \"#utility.yul\":27187:27189   */\n      0x20\n        /* \"#utility.yul\":27176:27185   */\n      dup3\n        /* \"#utility.yul\":27172:27190   */\n      add\n        /* \"#utility.yul\":27164:27190   */\n      swap1\n      pop\n        /* \"#utility.yul\":27236:27245   */\n      dup2\n        /* \"#utility.yul\":27230:27234   */\n      dup2\n        /* \"#utility.yul\":27226:27246   */\n      sub\n        /* \"#utility.yul\":27222:27223   */\n      0x00\n        /* \"#utility.yul\":27211:27220   */\n      dup4\n        /* \"#utility.yul\":27207:27224   */\n      add\n        /* \"#utility.yul\":27200:27247   */\n      mstore\n        /* \"#utility.yul\":27264:27395   */\n      tag_617\n        /* \"#utility.yul\":27390:27394   */\n      dup2\n        /* \"#utility.yul\":27264:27395   */\n      tag_390\n      jump\t// in\n    tag_617:\n        /* \"#utility.yul\":27256:27395   */\n      swap1\n      pop\n        /* \"#utility.yul\":26983:27402   */\n      swap2\n      swap1\n      pop\n      jump\t// out\n        /* \"#utility.yul\":27408:27590   */\n    tag_391:\n        /* \"#utility.yul\":27548:27582   */\n      0x436f6e74726163742062616c616e63652073686f756c6420626520656d707479\n        /* \"#utility.yul\":27544:27545   */\n      0x00\n        /* \"#utility.yul\":27536:27542   */\n      dup3\n        /* \"#utility.yul\":27532:27546   */\n      add\n        /* \"#utility.yul\":27525:27583   */\n      mstore\n        /* \"#utility.yul\":27408:27590   */\n      pop\n      jump\t// out\n        /* \"#utility.yul\":27596:27962   */\n    tag_392:\n        /* \"#utility.yul\":27738:27741   */\n      0x00\n        /* \"#utility.yul\":27759:27826   */\n      tag_620\n        /* \"#utility.yul\":27823:27825   */\n      0x20\n        /* \"#utility.yul\":27818:27821   */\n      dup4\n        /* \"#utility.yul\":27759:27826   */\n      tag_328\n      jump\t// in\n    tag_620:\n        /* \"#utility.yul\":27752:27826   */\n      swap2\n      pop\n        /* \"#utility.yul\":27835:27928   */\n      tag_621\n        /* \"#utility.yul\":27924:27927   */\n      dup3\n        /* \"#utility.yul\":27835:27928   */\n      tag_391\n      jump\t// in\n    tag_621:\n        /* \"#utility.yul\":27953:27955   */\n      0x20\n        /* \"#utility.yul\":27948:27951   */\n      dup3\n        /* \"#utility.yul\":27944:27956   */\n      add\n        /* \"#utility.yul\":27937:27956   */\n      swap1\n      pop\n        /* \"#utility.yul\":27596:27962   */\n      swap2\n      swap1\n      pop\n      jump\t// out\n        /* \"#utility.yul\":27968:28387   */\n    tag_293:\n        /* \"#utility.yul\":28134:28138   */\n      0x00\n        /* \"#utility.yul\":28172:28174   */\n      0x20\n        /* \"#utility.yul\":28161:28170   */\n      dup3\n        /* \"#utility.yul\":28157:28175   */\n      add\n        /* \"#utility.yul\":28149:28175   */\n      swap1\n      pop\n        /* \"#utility.yul\":28221:28230   */\n      dup2\n        /* \"#utility.yul\":28215:28219   */\n      dup2\n        /* \"#utility.yul\":28211:28231   */\n      sub\n        /* \"#utility.yul\":28207:28208   */\n      0x00\n        /* \"#utility.yul\":28196:28205   */\n      dup4\n        /* \"#utility.yul\":28192:28209   */\n      add\n        /* \"#utility.yul\":28185:28232   */\n      mstore\n        /* \"#utility.yul\":28249:28380   */\n      tag_623\n        /* \"#utility.yul\":28375:28379   */\n      dup2\n        /* \"#utility.yul\":28249:28380   */\n      tag_392\n      jump\t// in\n    tag_623:\n        /* \"#utility.yul\":28241:28380   */\n      swap1\n      pop\n        /* \"#utility.yul\":27968:28387   */\n      swap2\n      swap1\n      pop\n      jump\t// out\n        /* \"#utility.yul\":28393:28560   */\n    tag_393:\n        /* \"#utility.yul\":28533:28552   */\n      0x47616d6520686173207374617274656421000000000000000000000000000000\n        /* \"#utility.yul\":28529:28530   */\n      0x00\n        /* \"#utility.yul\":28521:28527   */\n      dup3\n        /* \"#utility.yul\":28517:28531   */\n      add\n        /* \"#utility.yul\":28510:28553   */\n      mstore\n        /* \"#utility.yul\":28393:28560   */\n      pop\n      jump\t// out\n        /* \"#utility.yul\":28566:28932   */\n    tag_394:\n        /* \"#utility.yul\":28708:28711   */\n      0x00\n        /* \"#utility.yul\":28729:28796   */\n      tag_626\n        /* \"#utility.yul\":28793:28795   */\n      0x11\n        /* \"#utility.yul\":28788:28791   */\n      dup4\n        /* \"#utility.yul\":28729:28796   */\n      tag_328\n      jump\t// in\n    tag_626:\n        /* \"#utility.yul\":28722:28796   */\n      swap2\n      pop\n        /* \"#utility.yul\":28805:28898   */\n      tag_627\n        /* \"#utility.yul\":28894:28897   */\n      dup3\n        /* \"#utility.yul\":28805:28898   */\n      tag_393\n      jump\t// in\n    tag_627:\n        /* \"#utility.yul\":28923:28925   */\n      0x20\n        /* \"#utility.yul\":28918:28921   */\n      dup3\n        /* \"#utility.yul\":28914:28926   */\n      add\n        /* \"#utility.yul\":28907:28926   */\n      swap1\n      pop\n        /* \"#utility.yul\":28566:28932   */\n      swap2\n      swap1\n      pop\n      jump\t// out\n        /* \"#utility.yul\":28938:29577   */\n    tag_298:\n        /* \"#utility.yul\":29160:29164   */\n      0x00\n        /* \"#utility.yul\":29198:29200   */\n      0x60\n        /* \"#utility.yul\":29187:29196   */\n      dup3\n        /* \"#utility.yul\":29183:29201   */\n      add\n        /* \"#utility.yul\":29175:29201   */\n      swap1\n      pop\n        /* \"#utility.yul\":29247:29256   */\n      dup2\n        /* \"#utility.yul\":29241:29245   */\n      dup2\n        /* \"#utility.yul\":29237:29257   */\n      sub\n        /* \"#utility.yul\":29233:29234   */\n      0x00\n        /* \"#utility.yul\":29222:29231   */\n      dup4\n        /* \"#utility.yul\":29218:29235   */\n      add\n        /* \"#utility.yul\":29211:29258   */\n      mstore\n        /* \"#utility.yul\":29275:29406   */\n      tag_629\n        /* \"#utility.yul\":29401:29405   */\n      dup2\n        /* \"#utility.yul\":29275:29406   */\n      tag_394\n      jump\t// in\n    tag_629:\n        /* \"#utility.yul\":29267:29406   */\n      swap1\n      pop\n        /* \"#utility.yul\":29416:29488   */\n      tag_630\n        /* \"#utility.yul\":29484:29486   */\n      0x20\n        /* \"#utility.yul\":29473:29482   */\n      dup4\n        /* \"#utility.yul\":29469:29487   */\n      add\n        /* \"#utility.yul\":29460:29466   */\n      dup6\n        /* \"#utility.yul\":29416:29488   */\n      tag_339\n      jump\t// in\n    tag_630:\n        /* \"#utility.yul\":29498:29570   */\n      tag_631\n        /* \"#utility.yul\":29566:29568   */\n      0x40\n        /* \"#utility.yul\":29555:29564   */\n      dup4\n        /* \"#utility.yul\":29551:29569   */\n      add\n        /* \"#utility.yul\":29542:29548   */\n      dup5\n        /* \"#utility.yul\":29498:29570   */\n      tag_339\n      jump\t// in\n    tag_631:\n        /* \"#utility.yul\":28938:29577   */\n      swap4\n      swap3\n      pop\n      pop\n      pop\n      jump\t// out\n        /* \"#utility.yul\":29583:29752   */\n    tag_395:\n        /* \"#utility.yul\":29723:29744   */\n      0x47616d65206973206e6f74207061757365642e00000000000000000000000000\n        /* \"#utility.yul\":29719:29720   */\n      0x00\n        /* \"#utility.yul\":29711:29717   */\n      dup3\n        /* \"#utility.yul\":29707:29721   */\n      add\n        /* \"#utility.yul\":29700:29745   */\n      mstore\n        /* \"#utility.yul\":29583:29752   */\n      pop\n      jump\t// out\n        /* \"#utility.yul\":29758:30124   */\n    tag_396:\n        /* \"#utility.yul\":29900:29903   */\n      0x00\n        /* \"#utility.yul\":29921:29988   */\n      tag_634\n        /* \"#utility.yul\":29985:29987   */\n      0x13\n        /* \"#utility.yul\":29980:29983   */\n      dup4\n        /* \"#utility.yul\":29921:29988   */\n      tag_328\n      jump\t// in\n    tag_634:\n        /* \"#utility.yul\":29914:29988   */\n      swap2\n      pop\n        /* \"#utility.yul\":29997:30090   */\n      tag_635\n        /* \"#utility.yul\":30086:30089   */\n      dup3\n        /* \"#utility.yul\":29997:30090   */\n      tag_395\n      jump\t// in\n    tag_635:\n        /* \"#utility.yul\":30115:30117   */\n      0x20\n        /* \"#utility.yul\":30110:30113   */\n      dup3\n        /* \"#utility.yul\":30106:30118   */\n      add\n        /* \"#utility.yul\":30099:30118   */\n      swap1\n      pop\n        /* \"#utility.yul\":29758:30124   */\n      swap2\n      swap1\n      pop\n      jump\t// out\n        /* \"#utility.yul\":30130:30549   */\n    tag_310:\n        /* \"#utility.yul\":30296:30300   */\n      0x00\n        /* \"#utility.yul\":30334:30336   */\n      0x20\n        /* \"#utility.yul\":30323:30332   */\n      dup3\n        /* \"#utility.yul\":30319:30337   */\n      add\n        /* \"#utility.yul\":30311:30337   */\n      swap1\n      pop\n        /* \"#utility.yul\":30383:30392   */\n      dup2\n        /* \"#utility.yul\":30377:30381   */\n      dup2\n        /* \"#utility.yul\":30373:30393   */\n      sub\n        /* \"#utility.yul\":30369:30370   */\n      0x00\n        /* \"#utility.yul\":30358:30367   */\n      dup4\n        /* \"#utility.yul\":30354:30371   */\n      add\n        /* \"#utility.yul\":30347:30394   */\n      mstore\n        /* \"#utility.yul\":30411:30542   */\n      tag_637\n        /* \"#utility.yul\":30537:30541   */\n      dup2\n        /* \"#utility.yul\":30411:30542   */\n      tag_396\n      jump\t// in\n    tag_637:\n        /* \"#utility.yul\":30403:30542   */\n      swap1\n      pop\n        /* \"#utility.yul\":30130:30549   */\n      swap2\n      swap1\n      pop\n      jump\t// out\n        /* \"#utility.yul\":30555:30721   */\n    tag_397:\n        /* \"#utility.yul\":30695:30713   */\n      0x47616d6520697320756e70617573656400000000000000000000000000000000\n        /* \"#utility.yul\":30691:30692   */\n      0x00\n        /* \"#utility.yul\":30683:30689   */\n      dup3\n        /* \"#utility.yul\":30679:30693   */\n      add\n        /* \"#utility.yul\":30672:30714   */\n      mstore\n        /* \"#utility.yul\":30555:30721   */\n      pop\n      jump\t// out\n        /* \"#utility.yul\":30727:31093   */\n    tag_398:\n        /* \"#utility.yul\":30869:30872   */\n      0x00\n        /* \"#utility.yul\":30890:30957   */\n      tag_640\n        /* \"#utility.yul\":30954:30956   */\n      0x10\n        /* \"#utility.yul\":30949:30952   */\n      dup4\n        /* \"#utility.yul\":30890:30957   */\n      tag_328\n      jump\t// in\n    tag_640:\n        /* \"#utility.yul\":30883:30957   */\n      swap2\n      pop\n        /* \"#utility.yul\":30966:31059   */\n      tag_641\n        /* \"#utility.yul\":31055:31058   */\n      dup3\n        /* \"#utility.yul\":30966:31059   */\n      tag_397\n      jump\t// in\n    tag_641:\n        /* \"#utility.yul\":31084:31086   */\n      0x20\n        /* \"#utility.yul\":31079:31082   */\n      dup3\n        /* \"#utility.yul\":31075:31087   */\n      add\n        /* \"#utility.yul\":31068:31087   */\n      swap1\n      pop\n        /* \"#utility.yul\":30727:31093   */\n      swap2\n      swap1\n      pop\n      jump\t// out\n        /* \"#utility.yul\":31099:31628   */\n    tag_315:\n        /* \"#utility.yul\":31293:31297   */\n      0x00\n        /* \"#utility.yul\":31331:31333   */\n      0x40\n        /* \"#utility.yul\":31320:31329   */\n      dup3\n        /* \"#utility.yul\":31316:31334   */\n      add\n        /* \"#utility.yul\":31308:31334   */\n      swap1\n      pop\n        /* \"#utility.yul\":31380:31389   */\n      dup2\n        /* \"#utility.yul\":31374:31378   */\n      dup2\n        /* \"#utility.yul\":31370:31390   */\n      sub\n        /* \"#utility.yul\":31366:31367   */\n      0x00\n        /* \"#utility.yul\":31355:31364   */\n      dup4\n        /* \"#utility.yul\":31351:31368   */\n      add\n        /* \"#utility.yul\":31344:31391   */\n      mstore\n        /* \"#utility.yul\":31408:31539   */\n      tag_643\n        /* \"#utility.yul\":31534:31538   */\n      dup2\n        /* \"#utility.yul\":31408:31539   */\n      tag_398\n      jump\t// in\n    tag_643:\n        /* \"#utility.yul\":31400:31539   */\n      swap1\n      pop\n        /* \"#utility.yul\":31549:31621   */\n      tag_644\n        /* \"#utility.yul\":31617:31619   */\n      0x20\n        /* \"#utility.yul\":31606:31615   */\n      dup4\n        /* \"#utility.yul\":31602:31620   */\n      add\n        /* \"#utility.yul\":31593:31599   */\n      dup5\n        /* \"#utility.yul\":31549:31621   */\n      tag_339\n      jump\t// in\n    tag_644:\n        /* \"#utility.yul\":31099:31628   */\n      swap3\n      swap2\n      pop\n      pop\n      jump\t// out\n        /* \"#utility.yul\":31634:31798   */\n    tag_399:\n        /* \"#utility.yul\":31774:31790   */\n      0x47616d652068617320656e646564000000000000000000000000000000000000\n        /* \"#utility.yul\":31770:31771   */\n      0x00\n        /* \"#utility.yul\":31762:31768   */\n      dup3\n        /* \"#utility.yul\":31758:31772   */\n      add\n        /* \"#utility.yul\":31751:31791   */\n      mstore\n        /* \"#utility.yul\":31634:31798   */\n      pop\n      jump\t// out\n        /* \"#utility.yul\":31804:32170   */\n    tag_400:\n        /* \"#utility.yul\":31946:31949   */\n      0x00\n        /* \"#utility.yul\":31967:32034   */\n      tag_647\n        /* \"#utility.yul\":32031:32033   */\n      0x0e\n        /* \"#utility.yul\":32026:32029   */\n      dup4\n        /* \"#utility.yul\":31967:32034   */\n      tag_328\n      jump\t// in\n    tag_647:\n        /* \"#utility.yul\":31960:32034   */\n      swap2\n      pop\n        /* \"#utility.yul\":32043:32136   */\n      tag_648\n        /* \"#utility.yul\":32132:32135   */\n      dup3\n        /* \"#utility.yul\":32043:32136   */\n      tag_399\n      jump\t// in\n    tag_648:\n        /* \"#utility.yul\":32161:32163   */\n      0x20\n        /* \"#utility.yul\":32156:32159   */\n      dup3\n        /* \"#utility.yul\":32152:32164   */\n      add\n        /* \"#utility.yul\":32145:32164   */\n      swap1\n      pop\n        /* \"#utility.yul\":31804:32170   */\n      swap2\n      swap1\n      pop\n      jump\t// out\n        /* \"#utility.yul\":32176:32926   */\n    tag_327:\n        /* \"#utility.yul\":32426:32430   */\n      0x00\n        /* \"#utility.yul\":32464:32467   */\n      0x80\n        /* \"#utility.yul\":32453:32462   */\n      dup3\n        /* \"#utility.yul\":32449:32468   */\n      add\n        /* \"#utility.yul\":32441:32468   */\n      swap1\n      pop\n        /* \"#utility.yul\":32514:32523   */\n      dup2\n        /* \"#utility.yul\":32508:32512   */\n      dup2\n        /* \"#utility.yul\":32504:32524   */\n      sub\n        /* \"#utility.yul\":32500:32501   */\n      0x00\n        /* \"#utility.yul\":32489:32498   */\n      dup4\n        /* \"#utility.yul\":32485:32502   */\n      add\n        /* \"#utility.yul\":32478:32525   */\n      mstore\n        /* \"#utility.yul\":32542:32673   */\n      tag_650\n        /* \"#utility.yul\":32668:32672   */\n      dup2\n        /* \"#utility.yul\":32542:32673   */\n      tag_400\n      jump\t// in\n    tag_650:\n        /* \"#utility.yul\":32534:32673   */\n      swap1\n      pop\n        /* \"#utility.yul\":32683:32755   */\n      tag_651\n        /* \"#utility.yul\":32751:32753   */\n      0x20\n        /* \"#utility.yul\":32740:32749   */\n      dup4\n        /* \"#utility.yul\":32736:32754   */\n      add\n        /* \"#utility.yul\":32727:32733   */\n      dup7\n        /* \"#utility.yul\":32683:32755   */\n      tag_339\n      jump\t// in\n    tag_651:\n        /* \"#utility.yul\":32765:32837   */\n      tag_652\n        /* \"#utility.yul\":32833:32835   */\n      0x40\n        /* \"#utility.yul\":32822:32831   */\n      dup4\n        /* \"#utility.yul\":32818:32836   */\n      add\n        /* \"#utility.yul\":32809:32815   */\n      dup6\n        /* \"#utility.yul\":32765:32837   */\n      tag_339\n      jump\t// in\n    tag_652:\n        /* \"#utility.yul\":32847:32919   */\n      tag_653\n        /* \"#utility.yul\":32915:32917   */\n      0x60\n        /* \"#utility.yul\":32904:32913   */\n      dup4\n        /* \"#utility.yul\":32900:32918   */\n      add\n        /* \"#utility.yul\":32891:32897   */\n      dup5\n        /* \"#utility.yul\":32847:32919   */\n      tag_339\n      jump\t// in\n    tag_653:\n        /* \"#utility.yul\":32176:32926   */\n      swap5\n      swap4\n      pop\n      pop\n      pop\n      pop\n      jump\t// out\n\n    auxdata: 0xa26469706673582212200fcb258075860caeb26ee7314501616c0d9631efefc76fa03402f541d0831a4e64736f6c634300081e0033\n}\n",
				"bytecode": {
					"linkReferences": {},
					"object": "608060405234801561000f575f5ffd5b506040516135273803806135278339818101604052810190610031919061043e565b5f73ffffffffffffffffffffffffffffffffffffffff163373ffffffffffffffffffffffffffffffffffffffff160361009f576040517f08c379a000000000000000000000000000000000000000000000000000000000815260040161009690610547565b60405180910390fd5b5f8551116100e2576040517f08c379a00000000000000000000000000000000000000000000000000000000081526004016100d9906105af565b60405180910390fd5b5f845111610125576040517f08c379a000000000000000000000000000000000000000000000000000000000815260040161011c90610617565b60405180910390fd5b5f8311610167576040517f08c379a000000000000000000000000000000000000000000000000000000000815260040161015e9061067f565b60405180910390fd5b5f82116101a9576040517f08c379a00000000000000000000000000000000000000000000000000000000081526004016101a0906106e7565b60405180910390fd5b6064811115806101b857505f81115b6101f7576040517f08c379a00000000000000000000000000000000000000000000000000000000081526004016101ee9061074f565b60405180910390fd5b3360025f6101000a81548173ffffffffffffffffffffffffffffffffffffffff021916908373ffffffffffffffffffffffffffffffffffffffff1602179055505f60095f6101000a81548160ff0219169083600581111561025b5761025a61076d565b5b0217905550845f908161026e91906109a1565b50836001908161027e91906109a1565b5082600381905550806005819055505f60078190555062015180826102a39190610a9d565b426102ae9190610ade565b6004819055505050505050610b11565b5f604051905090565b5f5ffd5b5f5ffd5b5f5ffd5b5f5ffd5b5f601f19601f8301169050919050565b7f4e487b71000000000000000000000000000000000000000000000000000000005f52604160045260245ffd5b61031d826102d7565b810181811067ffffffffffffffff8211171561033c5761033b6102e7565b5b80604052505050565b5f61034e6102be565b905061035a8282610314565b919050565b5f67ffffffffffffffff821115610379576103786102e7565b5b610382826102d7565b9050602081019050919050565b8281835e5f83830152505050565b5f6103af6103aa8461035f565b610345565b9050828152602081018484840111156103cb576103ca6102d3565b5b6103d684828561038f565b509392505050565b5f82601f8301126103f2576103f16102cf565b5b815161040284826020860161039d565b91505092915050565b5f819050919050565b61041d8161040b565b8114610427575f5ffd5b50565b5f8151905061043881610414565b92915050565b5f5f5f5f5f60a08688031215610457576104566102c7565b5b5f86015167ffffffffffffffff811115610474576104736102cb565b5b610480888289016103de565b955050602086015167ffffffffffffffff8111156104a1576104a06102cb565b5b6104ad888289016103de565b94505060406104be8882890161042a565b93505060606104cf8882890161042a565b92505060806104e08882890161042a565b9150509295509295909350565b5f82825260208201905092915050565b7f496e76616c696420616464726573732e000000000000000000000000000000005f82015250565b5f6105316010836104ed565b915061053c826104fd565b602082019050919050565b5f6020820190508181035f83015261055e81610525565b9050919050565b7f4e616d652063616e206e6f7420626520656d7072792e000000000000000000005f82015250565b5f6105996016836104ed565b91506105a482610565565b602082019050919050565b5f6020820190508181035f8301526105c68161058d565b9050919050565b7f4465736372697074696f6e2063616e206e6f7420626520656d7074792e0000005f82015250565b5f610601601d836104ed565b915061060c826105cd565b602082019050919050565b5f6020820190508181035f83015261062e816105f5565b9050919050565b7f476f616c206d75737420626520706f7369746976652e000000000000000000005f82015250565b5f6106696016836104ed565b915061067482610635565b602082019050919050565b5f6020820190508181035f8301526106968161065d565b9050919050565b7f4475726174696f6e206d75737420626520706f7369746976652e0000000000005f82015250565b5f6106d1601a836104ed565b91506106dc8261069d565b602082019050919050565b5f6020820190508181035f8301526106fe816106c5565b9050919050565b7f50657263656e74206d757374206265206265747765656e2030202d203130302e5f82015250565b5f6107396020836104ed565b915061074482610705565b602082019050919050565b5f6020820190508181035f8301526107668161072d565b9050919050565b7f4e487b71000000000000000000000000000000000000000000000000000000005f52602160045260245ffd5b5f81519050919050565b7f4e487b71000000000000000000000000000000000000000000000000000000005f52602260045260245ffd5b5f60028204905060018216806107e857607f821691505b6020821081036107fb576107fa6107a4565b5b50919050565b5f819050815f5260205f209050919050565b5f6020601f8301049050919050565b5f82821b905092915050565b5f6008830261085d7fffffffffffffffffffffffffffffffffffffffffffffffffffffffffffffffff82610822565b6108678683610822565b95508019841693508086168417925050509392505050565b5f819050919050565b5f6108a261089d6108988461040b565b61087f565b61040b565b9050919050565b5f819050919050565b6108bb83610888565b6108cf6108c7826108a9565b84845461082e565b825550505050565b5f5f905090565b6108e66108d7565b6108f18184846108b2565b505050565b5b81811015610914576109095f826108de565b6001810190506108f7565b5050565b601f8211156109595761092a81610801565b61093384610813565b81016020851015610942578190505b61095661094e85610813565b8301826108f6565b50505b505050565b5f82821c905092915050565b5f6109795f198460080261095e565b1980831691505092915050565b5f610991838361096a565b9150826002028217905092915050565b6109aa8261079a565b67ffffffffffffffff8111156109c3576109c26102e7565b5b6109cd82546107d1565b6109d8828285610918565b5f60209050601f831160018114610a09575f84156109f7578287015190505b610a018582610986565b865550610a68565b601f198416610a1786610801565b5f5b82811015610a3e57848901518255600182019150602085019450602081019050610a19565b86831015610a5b5784890151610a57601f89168261096a565b8355505b6001600288020188555050505b505050505050565b7f4e487b71000000000000000000000000000000000000000000000000000000005f52601160045260245ffd5b5f610aa78261040b565b9150610ab28361040b565b9250828202610ac08161040b565b91508282048414831517610ad757610ad6610a70565b5b5092915050565b5f610ae88261040b565b9150610af38361040b565b9250828201905080821115610b0b57610b0a610a70565b5b92915050565b612a0980610b1e5f395ff3fe608060405260043610610117575f3560e01c80637b51b4ad1161009f578063bef3a08311610063578063bef3a083146104ba578063d65ab5f2146104e4578063f4135992146104fa578063f42b1ae014610524578063fc7e286d1461053a576102ca565b80637b51b4ad146104125780638da5cb5b1461042857806395d120001461045257806397661f311461047c578063a6f9dae114610492576102ca565b806340193883116100e65780634019388314610368578063499831f214610392578063590e1ae3146103a85780636f9fb98a146103be5780637284e416146103e8576102ca565b806306fdde03146102ce57806331bf64ab146102f857806335c1d34914610302578063382396ee1461033e576102ca565b366102ca57600160058111156101305761012f611aac565b5b60095f9054906101000a900460ff16600581111561015157610150611aac565b5b14610191576040517f08c379a000000000000000000000000000000000000000000000000000000000815260040161018890611b33565b60405180910390fd5b42600454116101d5576040517f08c379a00000000000000000000000000000000000000000000000000000000081526004016101cc90611b9b565b60405180910390fd5b604051806040016040528034815260200142815250600a5f3373ffffffffffffffffffffffffffffffffffffffff1673ffffffffffffffffffffffffffffffffffffffff1681526020019081526020015f205f820151815f01556020820151816001015590505060075434111561028f573460078190555033600660016101000a81548173ffffffffffffffffffffffffffffffffffffffff021916908373ffffffffffffffffffffffffffffffffffffffff1602179055505b7f086ef21bf36e265f583d1740184679fa503cfbfb695cffff03746dbcbb0a541a33426040516102c0929190611c5a565b60405180910390a1005b5f5ffd5b3480156102d9575f5ffd5b506102e2610577565b6040516102ef9190611cf4565b60405180910390f35b610300610602565b005b34801561030d575f5ffd5b5061032860048036038101906103239190611d42565b610811565b6040516103359190611d6d565b60405180910390f35b348015610349575f5ffd5b5061035261084c565b60405161035f9190611dcc565b60405180910390f35b348015610373575f5ffd5b5061037c610861565b6040516103899190611de5565b60405180910390f35b34801561039d575f5ffd5b506103a6610867565b005b3480156103b3575f5ffd5b506103bc6109d6565b005b3480156103c9575f5ffd5b506103d2610d05565b6040516103df9190611de5565b60405180910390f35b3480156103f3575f5ffd5b506103fc610d9b565b6040516104099190611cf4565b60405180910390f35b34801561041d575f5ffd5b50610426610e27565b005b348015610433575f5ffd5b5061043c611290565b6040516104499190611d6d565b60405180910390f35b34801561045d575f5ffd5b506104666112b5565b6040516104739190611de5565b60405180910390f35b348015610487575f5ffd5b506104906112bb565b005b34801561049d575f5ffd5b506104b860048036038101906104b39190611e28565b611465565b005b3480156104c5575f5ffd5b506104ce611601565b6040516104db9190611de5565b60405180910390f35b3480156104ef575f5ffd5b506104f8611607565b005b348015610505575f5ffd5b5061050e6117f0565b60405161051b9190611de5565b60405180910390f35b34801561052f575f5ffd5b50610538611836565b005b348015610545575f5ffd5b50610560600480360381019061055b9190611e28565b6119a5565b60405161056e929190611e53565b60405180910390f35b5f805461058390611ea7565b80601f01602080910402602001604051908101604052809291908181526020018280546105af90611ea7565b80156105fa5780601f106105d1576101008083540402835291602001916105fa565b820191905f5260205f20905b8154815290600101906020018083116105dd57829003601f168201915b505050505081565b6001600581111561061657610615611aac565b5b60095f9054906101000a900460ff16600581111561063757610636611aac565b5b14610677576040517f08c379a000000000000000000000000000000000000000000000000000000000815260040161066e90611b33565b60405180910390fd5b42600454116106bb576040517f08c379a00000000000000000000000000000000000000000000000000000000081526004016106b290611b9b565b60405180910390fd5b5f34116106fd576040517f08c379a00000000000000000000000000000000000000000000000000000000081526004016106f490611f47565b60405180910390fd5b604051806040016040528034815260200142815250600a5f3373ffffffffffffffffffffffffffffffffffffffff1673ffffffffffffffffffffffffffffffffffffffff1681526020019081526020015f205f820151815f01556020820151816001015590505060085f81548092919061077690611f92565b91905055506107836119c5565b6007543411156107d6573460078190555033600660016101000a81548173ffffffffffffffffffffffffffffffffffffffff021916908373ffffffffffffffffffffffffffffffffffffffff1602179055505b7f086ef21bf36e265f583d1740184679fa503cfbfb695cffff03746dbcbb0a541a3342604051610807929190612023565b60405180910390a1565b600b8181548110610820575f80fd5b905f5260205f20015f915054906101000a900473ffffffffffffffffffffffffffffffffffffffff1681565b5f60095f9054906101000a900460ff16905090565b60035481565b3373ffffffffffffffffffffffffffffffffffffffff1660025f9054906101000a900473ffffffffffffffffffffffffffffffffffffffff1673ffffffffffffffffffffffffffffffffffffffff16146108f6576040517f08c379a00000000000000000000000000000000000000000000000000000000081526004016108ed906120a7565b60405180910390fd5b6001600581111561090a57610909611aac565b5b60095f9054906101000a900460ff16600581111561092b5761092a611aac565b5b1461096b576040517f08c379a000000000000000000000000000000000000000000000000000000000815260040161096290611b33565b60405180910390fd5b600260095f6101000a81548160ff021916908360058111156109905761098f611aac565b5b02179055507fd8a7da7323410642828723771d853997704601cf6852ad3353c02d8a0c8c5b83426040516109c4919061210f565b60405180910390a16109d46119c5565b565b60065f9054906101000a900460ff1615610a25576040517f08c379a0000000000000000000000000000000000000000000000000000000008152600401610a1c90612185565b60405180910390fd5b600160065f6101000a81548160ff02191690831515021790555060046005811115610a5357610a52611aac565b5b60095f9054906101000a900460ff166005811115610a7457610a73611aac565b5b14610ab4576040517f08c379a0000000000000000000000000000000000000000000000000000000008152600401610aab906121ed565b60405180910390fd5b5f600a5f3373ffffffffffffffffffffffffffffffffffffffff1673ffffffffffffffffffffffffffffffffffffffff1681526020019081526020015f205f015411610b35576040517f08c379a0000000000000000000000000000000000000000000000000000000008152600401610b2c9061227b565b60405180910390fd5b5f600a5f3373ffffffffffffffffffffffffffffffffffffffff1673ffffffffffffffffffffffffffffffffffffffff1681526020019081526020015f205f015490505f600a5f3373ffffffffffffffffffffffffffffffffffffffff1673ffffffffffffffffffffffffffffffffffffffff1681526020019081526020015f205f01819055505f3373ffffffffffffffffffffffffffffffffffffffff168261271090604051610be5906122c6565b5f60405180830381858888f193505050503d805f8114610c20576040519150601f19603f3d011682016040523d82523d5f602084013e610c25565b606091505b5050905080610cad5781600a5f3373ffffffffffffffffffffffffffffffffffffffff1673ffffffffffffffffffffffffffffffffffffffff1681526020019081526020015f205f01819055506040517f08c379a0000000000000000000000000000000000000000000000000000000008152600401610ca490612324565b60405180910390fd5b7f01a7efab681ea302614d1ee06d09053b2eb69ce20a9851858ff847d4d42d3ee0338342604051610ce09392919061238c565b60405180910390a150505f60065f6101000a81548160ff021916908315150217905550565b5f3373ffffffffffffffffffffffffffffffffffffffff1660025f9054906101000a900473ffffffffffffffffffffffffffffffffffffffff1673ffffffffffffffffffffffffffffffffffffffff1614610d95576040517f08c379a0000000000000000000000000000000000000000000000000000000008152600401610d8c906120a7565b60405180910390fd5b47905090565b60018054610da890611ea7565b80601f0160208091040260200160405190810160405280929190818152602001828054610dd490611ea7565b8015610e1f5780601f10610df657610100808354040283529160200191610e1f565b820191905f5260205f20905b815481529060010190602001808311610e0257829003601f168201915b505050505081565b3373ffffffffffffffffffffffffffffffffffffffff1660025f9054906101000a900473ffffffffffffffffffffffffffffffffffffffff1673ffffffffffffffffffffffffffffffffffffffff1614610eb6576040517f08c379a0000000000000000000000000000000000000000000000000000000008152600401610ead906120a7565b60405180910390fd5b60016005811115610eca57610ec9611aac565b5b60095f9054906101000a900460ff166005811115610eeb57610eea611aac565b5b14610f2b576040517f08c379a0000000000000000000000000000000000000000000000000000000008152600401610f2290611b33565b60405180910390fd5b60065f9054906101000a900460ff1615610f7a576040517f08c379a0000000000000000000000000000000000000000000000000000000008152600401610f7190612185565b60405180910390fd5b600160065f6101000a81548160ff021916908315150217905550600354471015610fd9576040517f08c379a0000000000000000000000000000000000000000000000000000000008152600401610fd09061241e565b60405180910390fd5b600360095f6101000a81548160ff02191690836005811115610ffe57610ffd611aac565b5b02179055505f4790505f606460055483611018919061243c565b61102291906124aa565b90505f818361103191906124da565b90505f60025f9054906101000a900473ffffffffffffffffffffffffffffffffffffffff1673ffffffffffffffffffffffffffffffffffffffff16836127109060405161107d906122c6565b5f60405180830381858888f193505050503d805f81146110b8576040519150601f19603f3d011682016040523d82523d5f602084013e6110bd565b606091505b5050905080611101576040517f08c379a00000000000000000000000000000000000000000000000000000000081526004016110f890612324565b60405180910390fd5b5f600660019054906101000a900473ffffffffffffffffffffffffffffffffffffffff1673ffffffffffffffffffffffffffffffffffffffff16836127109060405161114c906122c6565b5f60405180830381858888f193505050503d805f8114611187576040519150601f19603f3d011682016040523d82523d5f602084013e61118c565b606091505b50509050806111d0576040517f08c379a00000000000000000000000000000000000000000000000000000000081526004016111c790612324565b60405180910390fd5b600660019054906101000a900473ffffffffffffffffffffffffffffffffffffffff1673ffffffffffffffffffffffffffffffffffffffff167f7edcc4eb74bc40a75c2d16f7dfa8f8c1191beed4db1d54d5552c4021cca4eaf8476008544260405161123e93929190612557565b60405180910390a2600560095f6101000a81548160ff0219169083600581111561126b5761126a611aac565b5b021790555050505050505f60065f6101000a81548160ff021916908315150217905550565b60025f9054906101000a900473ffffffffffffffffffffffffffffffffffffffff1681565b60055481565b3373ffffffffffffffffffffffffffffffffffffffff1660025f9054906101000a900473ffffffffffffffffffffffffffffffffffffffff1673ffffffffffffffffffffffffffffffffffffffff161461134a576040517f08c379a0000000000000000000000000000000000000000000000000000000008152600401611341906120a7565b60405180910390fd5b6001600581111561135e5761135d611aac565b5b60095f9054906101000a900460ff16600581111561137f5761137e611aac565b5b146113bf576040517f08c379a00000000000000000000000000000000000000000000000000000000081526004016113b690611b33565b60405180910390fd5b6113c76119c5565b600360058111156113db576113da611aac565b5b60095f9054906101000a900460ff1660058111156113fc576113fb611aac565b5b1461146357600460095f6101000a81548160ff0219169083600581111561142657611425611aac565b5b02179055507f531d9ed07fc41c774a20a0c80bfc1e3d4a1d5d5f028915424bfb538e9761ab504260405161145a91906125e9565b60405180910390a15b565b3373ffffffffffffffffffffffffffffffffffffffff1660025f9054906101000a900473ffffffffffffffffffffffffffffffffffffffff1673ffffffffffffffffffffffffffffffffffffffff16146114f4576040517f08c379a00000000000000000000000000000000000000000000000000000000081526004016114eb906120a7565b60405180910390fd5b5f73ffffffffffffffffffffffffffffffffffffffff168173ffffffffffffffffffffffffffffffffffffffff1603611562576040517f08c379a00000000000000000000000000000000000000000000000000000000081526004016115599061265f565b60405180910390fd5b8060025f6101000a81548173ffffffffffffffffffffffffffffffffffffffff021916908373ffffffffffffffffffffffffffffffffffffffff1602179055507fae9d288f06c8e7b741f4a9ad5f43155ea325688e0cd2a76d1d8474ceb0c726aa60025f9054906101000a900473ffffffffffffffffffffffffffffffffffffffff1682426040516115f6939291906126c7565b60405180910390a150565b60045481565b3373ffffffffffffffffffffffffffffffffffffffff1660025f9054906101000a900473ffffffffffffffffffffffffffffffffffffffff1673ffffffffffffffffffffffffffffffffffffffff1614611696576040517f08c379a000000000000000000000000000000000000000000000000000000000815260040161168d906120a7565b60405180910390fd5b5f60058111156116a9576116a8611aac565b5b60095f9054906101000a900460ff1660058111156116ca576116c9611aac565b5b14806117085750600360058111156116e5576116e4611aac565b5b60095f9054906101000a900460ff16600581111561170657611705611aac565b5b145b611747576040517f08c379a000000000000000000000000000000000000000000000000000000000815260040161173e90612759565b60405180910390fd5b5f4714611789576040517f08c379a0000000000000000000000000000000000000000000000000000000008152600401611780906127c1565b60405180910390fd5b600160095f6101000a81548160ff021916908360058111156117ae576117ad611aac565b5b02179055507f420c0b3991b6de993da00acefc7fb12bef31604d94cab8bf2a6e104e273cbf1f600354426040516117e6929190612829565b60405180910390a1565b5f600a5f3373ffffffffffffffffffffffffffffffffffffffff1673ffffffffffffffffffffffffffffffffffffffff1681526020019081526020015f205f0154905090565b3373ffffffffffffffffffffffffffffffffffffffff1660025f9054906101000a900473ffffffffffffffffffffffffffffffffffffffff1673ffffffffffffffffffffffffffffffffffffffff16146118c5576040517f08c379a00000000000000000000000000000000000000000000000000000000081526004016118bc906120a7565b60405180910390fd5b600260058111156118d9576118d8611aac565b5b60095f9054906101000a900460ff1660058111156118fa576118f9611aac565b5b1461193a576040517f08c379a0000000000000000000000000000000000000000000000000000000008152600401611931906128ad565b60405180910390fd5b600160095f6101000a81548160ff0219169083600581111561195f5761195e611aac565b5b02179055507f6b8be408dc299319e92648f903a6eb02a11eed17a1f419ccd4edf8f46e8daaa2426040516119939190612915565b60405180910390a16119a36119c5565b565b600a602052805f5260405f205f91509050805f0154908060010154905082565b600160058111156119d9576119d8611aac565b5b60095f9054906101000a900460ff1660058111156119fa576119f9611aac565b5b03611aaa576004544210611aa957600360095f6101000a81548160ff02191690836005811115611a2d57611a2c611aac565b5b0217905550600660019054906101000a900473ffffffffffffffffffffffffffffffffffffffff1673ffffffffffffffffffffffffffffffffffffffff167f7edcc4eb74bc40a75c2d16f7dfa8f8c1191beed4db1d54d5552c4021cca4eaf84760085442604051611aa09392919061298b565b60405180910390a25b5b565b7f4e487b71000000000000000000000000000000000000000000000000000000005f52602160045260245ffd5b5f82825260208201905092915050565b7f47616d65206973206e6f74206163746976652e000000000000000000000000005f82015250565b5f611b1d601383611ad9565b9150611b2882611ae9565b602082019050919050565b5f6020820190508181035f830152611b4a81611b11565b9050919050565b7f446561646c696e65206973206f7665722e0000000000000000000000000000005f82015250565b5f611b85601183611ad9565b9150611b9082611b51565b602082019050919050565b5f6020820190508181035f830152611bb281611b79565b9050919050565b7f455448207265636569766564207669612066616c6c6261636b000000000000005f82015250565b5f611bed601983611ad9565b9150611bf882611bb9565b602082019050919050565b5f73ffffffffffffffffffffffffffffffffffffffff82169050919050565b5f611c2c82611c03565b9050919050565b611c3c81611c22565b82525050565b5f819050919050565b611c5481611c42565b82525050565b5f6060820190508181035f830152611c7181611be1565b9050611c806020830185611c33565b611c8d6040830184611c4b565b9392505050565b5f81519050919050565b8281835e5f83830152505050565b5f601f19601f8301169050919050565b5f611cc682611c94565b611cd08185611ad9565b9350611ce0818560208601611c9e565b611ce981611cac565b840191505092915050565b5f6020820190508181035f830152611d0c8184611cbc565b905092915050565b5f5ffd5b611d2181611c42565b8114611d2b575f5ffd5b50565b5f81359050611d3c81611d18565b92915050565b5f60208284031215611d5757611d56611d14565b5b5f611d6484828501611d2e565b91505092915050565b5f602082019050611d805f830184611c33565b92915050565b60068110611d9757611d96611aac565b5b50565b5f819050611da782611d86565b919050565b5f611db682611d9a565b9050919050565b611dc681611dac565b82525050565b5f602082019050611ddf5f830184611dbd565b92915050565b5f602082019050611df85f830184611c4b565b92915050565b611e0781611c22565b8114611e11575f5ffd5b50565b5f81359050611e2281611dfe565b92915050565b5f60208284031215611e3d57611e3c611d14565b5b5f611e4a84828501611e14565b91505092915050565b5f604082019050611e665f830185611c4b565b611e736020830184611c4b565b9392505050565b7f4e487b71000000000000000000000000000000000000000000000000000000005f52602260045260245ffd5b5f6002820490506001821680611ebe57607f821691505b602082108103611ed157611ed0611e7a565b5b50919050565b7f496e76616c696420616d6f756e742e204d75737420626520706f7369746976655f8201527f2e00000000000000000000000000000000000000000000000000000000000000602082015250565b5f611f31602183611ad9565b9150611f3c82611ed7565b604082019050919050565b5f6020820190508181035f830152611f5e81611f25565b9050919050565b7f4e487b71000000000000000000000000000000000000000000000000000000005f52601160045260245ffd5b5f611f9c82611c42565b91507fffffffffffffffffffffffffffffffffffffffffffffffffffffffffffffffff8203611fce57611fcd611f65565b5b600182019050919050565b7f4465706f73697420697320646f6e6500000000000000000000000000000000005f82015250565b5f61200d600f83611ad9565b915061201882611fd9565b602082019050919050565b5f6060820190508181035f83015261203a81612001565b90506120496020830185611c33565b6120566040830184611c4b565b9392505050565b7f4d757374206265206f776e65722e0000000000000000000000000000000000005f82015250565b5f612091600e83611ad9565b915061209c8261205d565b602082019050919050565b5f6020820190508181035f8301526120be81612085565b9050919050565b7f47616d65206973207061757365642e00000000000000000000000000000000005f82015250565b5f6120f9600f83611ad9565b9150612104826120c5565b602082019050919050565b5f6040820190508181035f830152612126816120ed565b90506121356020830184611c4b565b92915050565b7f5265656e7472616e6379206465746563746564000000000000000000000000005f82015250565b5f61216f601383611ad9565b915061217a8261213b565b602082019050919050565b5f6020820190508181035f83015261219c81612163565b9050919050565b7f47616d65206973206e6f74207465726d696e61746564000000000000000000005f82015250565b5f6121d7601683611ad9565b91506121e2826121a3565b602082019050919050565b5f6020820190508181035f830152612204816121cb565b9050919050565b7f596f7572206465706f73697420697320302e2053686f756c6420626520706f735f8201527f697469766520746f2077697468647261772e0000000000000000000000000000602082015250565b5f612265603283611ad9565b91506122708261220b565b604082019050919050565b5f6020820190508181035f83015261229281612259565b9050919050565b5f81905092915050565b50565b5f6122b15f83612299565b91506122bc826122a3565b5f82019050919050565b5f6122d0826122a6565b9150819050919050565b7f5472616e73666572206661696c656400000000000000000000000000000000005f82015250565b5f61230e600f83611ad9565b9150612319826122da565b602082019050919050565b5f6020820190508181035f83015261233b81612302565b9050919050565b7f4d79206465706f736974206973207769746864726177656400000000000000005f82015250565b5f612376601883611ad9565b915061238182612342565b602082019050919050565b5f6080820190508181035f8301526123a38161236a565b90506123b26020830186611c33565b6123bf6040830185611c4b565b6123cc6060830184611c4b565b949350505050565b7f476f616c206973206e6f742072656163686564207965742e00000000000000005f82015250565b5f612408601883611ad9565b9150612413826123d4565b602082019050919050565b5f6020820190508181035f830152612435816123fc565b9050919050565b5f61244682611c42565b915061245183611c42565b925082820261245f81611c42565b9150828204841483151761247657612475611f65565b5b5092915050565b7f4e487b71000000000000000000000000000000000000000000000000000000005f52601260045260245ffd5b5f6124b482611c42565b91506124bf83611c42565b9250826124cf576124ce61247d565b5b828204905092915050565b5f6124e482611c42565b91506124ef83611c42565b925082820390508181111561250757612506611f65565b5b92915050565b7f47616d65206861732066696e69736865642100000000000000000000000000005f82015250565b5f612541601283611ad9565b915061254c8261250d565b602082019050919050565b5f6080820190508181035f83015261256e81612535565b905061257d6020830186611c4b565b61258a6040830185611c4b565b6125976060830184611c4b565b949350505050565b7f47616d65206973207465726d696e6174656400000000000000000000000000005f82015250565b5f6125d3601283611ad9565b91506125de8261259f565b602082019050919050565b5f6040820190508181035f830152612600816125c7565b905061260f6020830184611c4b565b92915050565b7f496e76616c6964206164647265737300000000000000000000000000000000005f82015250565b5f612649600f83611ad9565b915061265482612615565b602082019050919050565b5f6020820190508181035f8301526126768161263d565b9050919050565b7f4f776e657220686173206368616e6765642e00000000000000000000000000005f82015250565b5f6126b1601283611ad9565b91506126bc8261267d565b602082019050919050565b5f6080820190508181035f8301526126de816126a5565b90506126ed6020830186611c33565b6126fa6040830185611c33565b6127076060830184611c4b565b949350505050565b7f47616d6520697320616374697665206f72207061757365642e000000000000005f82015250565b5f612743601983611ad9565b915061274e8261270f565b602082019050919050565b5f6020820190508181035f83015261277081612737565b9050919050565b7f436f6e74726163742062616c616e63652073686f756c6420626520656d7074795f82015250565b5f6127ab602083611ad9565b91506127b682612777565b602082019050919050565b5f6020820190508181035f8301526127d88161279f565b9050919050565b7f47616d65206861732073746172746564210000000000000000000000000000005f82015250565b5f612813601183611ad9565b915061281e826127df565b602082019050919050565b5f6060820190508181035f83015261284081612807565b905061284f6020830185611c4b565b61285c6040830184611c4b565b9392505050565b7f47616d65206973206e6f74207061757365642e000000000000000000000000005f82015250565b5f612897601383611ad9565b91506128a282612863565b602082019050919050565b5f6020820190508181035f8301526128c48161288b565b9050919050565b7f47616d6520697320756e706175736564000000000000000000000000000000005f82015250565b5f6128ff601083611ad9565b915061290a826128cb565b602082019050919050565b5f6040820190508181035f83015261292c816128f3565b905061293b6020830184611c4b565b92915050565b7f47616d652068617320656e6465640000000000000000000000000000000000005f82015250565b5f612975600e83611ad9565b915061298082612941565b602082019050919050565b5f6080820190508181035f8301526129a281612969565b90506129b16020830186611c4b565b6129be6040830185611c4b565b6129cb6060830184611c4b565b94935050505056fea26469706673582212200fcb258075860caeb26ee7314501616c0d9631efefc76fa03402f541d0831a4e64736f6c634300081e0033",
					"opcodes": "PUSH1 0x80 PUSH1 0x40 MSTORE CALLVALUE DUP1 ISZERO PUSH2 0xF JUMPI PUSH0 PUSH0 REVERT JUMPDEST POP PUSH1 0x40 MLOAD PUSH2 0x3527 CODESIZE SUB DUP1 PUSH2 0x3527 DUP4 CODECOPY DUP2 DUP2 ADD PUSH1 0x40 MSTORE DUP2 ADD SWAP1 PUSH2 0x31 SWAP2 SWAP1 PUSH2 0x43E JUMP JUMPDEST PUSH0 PUSH20 0xFFFFFFFFFFFFFFFFFFFFFFFFFFFFFFFFFFFFFFFF AND CALLER PUSH20 0xFFFFFFFFFFFFFFFFFFFFFFFFFFFFFFFFFFFFFFFF AND SUB PUSH2 0x9F JUMPI PUSH1 0x40 MLOAD PUSH32 0x8C379A000000000000000000000000000000000000000000000000000000000 DUP2 MSTORE PUSH1 0x4 ADD PUSH2 0x96 SWAP1 PUSH2 0x547 JUMP JUMPDEST PUSH1 0x40 MLOAD DUP1 SWAP2 SUB SWAP1 REVERT JUMPDEST PUSH0 DUP6 MLOAD GT PUSH2 0xE2 JUMPI PUSH1 0x40 MLOAD PUSH32 0x8C379A000000000000000000000000000000000000000000000000000000000 DUP2 MSTORE PUSH1 0x4 ADD PUSH2 0xD9 SWAP1 PUSH2 0x5AF JUMP JUMPDEST PUSH1 0x40 MLOAD DUP1 SWAP2 SUB SWAP1 REVERT JUMPDEST PUSH0 DUP5 MLOAD GT PUSH2 0x125 JUMPI PUSH1 0x40 MLOAD PUSH32 0x8C379A000000000000000000000000000000000000000000000000000000000 DUP2 MSTORE PUSH1 0x4 ADD PUSH2 0x11C SWAP1 PUSH2 0x617 JUMP JUMPDEST PUSH1 0x40 MLOAD DUP1 SWAP2 SUB SWAP1 REVERT JUMPDEST PUSH0 DUP4 GT PUSH2 0x167 JUMPI PUSH1 0x40 MLOAD PUSH32 0x8C379A000000000000000000000000000000000000000000000000000000000 DUP2 MSTORE PUSH1 0x4 ADD PUSH2 0x15E SWAP1 PUSH2 0x67F JUMP JUMPDEST PUSH1 0x40 MLOAD DUP1 SWAP2 SUB SWAP1 REVERT JUMPDEST PUSH0 DUP3 GT PUSH2 0x1A9 JUMPI PUSH1 0x40 MLOAD PUSH32 0x8C379A000000000000000000000000000000000000000000000000000000000 DUP2 MSTORE PUSH1 0x4 ADD PUSH2 0x1A0 SWAP1 PUSH2 0x6E7 JUMP JUMPDEST PUSH1 0x40 MLOAD DUP1 SWAP2 SUB SWAP1 REVERT JUMPDEST PUSH1 0x64 DUP2 GT ISZERO DUP1 PUSH2 0x1B8 JUMPI POP PUSH0 DUP2 GT JUMPDEST PUSH2 0x1F7 JUMPI PUSH1 0x40 MLOAD PUSH32 0x8C379A000000000000000000000000000000000000000000000000000000000 DUP2 MSTORE PUSH1 0x4 ADD PUSH2 0x1EE SWAP1 PUSH2 0x74F JUMP JUMPDEST PUSH1 0x40 MLOAD DUP1 SWAP2 SUB SWAP1 REVERT JUMPDEST CALLER PUSH1 0x2 PUSH0 PUSH2 0x100 EXP DUP2 SLOAD DUP2 PUSH20 0xFFFFFFFFFFFFFFFFFFFFFFFFFFFFFFFFFFFFFFFF MUL NOT AND SWAP1 DUP4 PUSH20 0xFFFFFFFFFFFFFFFFFFFFFFFFFFFFFFFFFFFFFFFF AND MUL OR SWAP1 SSTORE POP PUSH0 PUSH1 0x9 PUSH0 PUSH2 0x100 EXP DUP2 SLOAD DUP2 PUSH1 0xFF MUL NOT AND SWAP1 DUP4 PUSH1 0x5 DUP2 GT ISZERO PUSH2 0x25B JUMPI PUSH2 0x25A PUSH2 0x76D JUMP JUMPDEST JUMPDEST MUL OR SWAP1 SSTORE POP DUP5 PUSH0 SWAP1 DUP2 PUSH2 0x26E SWAP2 SWAP1 PUSH2 0x9A1 JUMP JUMPDEST POP DUP4 PUSH1 0x1 SWAP1 DUP2 PUSH2 0x27E SWAP2 SWAP1 PUSH2 0x9A1 JUMP JUMPDEST POP DUP3 PUSH1 0x3 DUP2 SWAP1 SSTORE POP DUP1 PUSH1 0x5 DUP2 SWAP1 SSTORE POP PUSH0 PUSH1 0x7 DUP2 SWAP1 SSTORE POP PUSH3 0x15180 DUP3 PUSH2 0x2A3 SWAP2 SWAP1 PUSH2 0xA9D JUMP JUMPDEST TIMESTAMP PUSH2 0x2AE SWAP2 SWAP1 PUSH2 0xADE JUMP JUMPDEST PUSH1 0x4 DUP2 SWAP1 SSTORE POP POP POP POP POP POP PUSH2 0xB11 JUMP JUMPDEST PUSH0 PUSH1 0x40 MLOAD SWAP1 POP SWAP1 JUMP JUMPDEST PUSH0 PUSH0 REVERT JUMPDEST PUSH0 PUSH0 REVERT JUMPDEST PUSH0 PUSH0 REVERT JUMPDEST PUSH0 PUSH0 REVERT JUMPDEST PUSH0 PUSH1 0x1F NOT PUSH1 0x1F DUP4 ADD AND SWAP1 POP SWAP2 SWAP1 POP JUMP JUMPDEST PUSH32 0x4E487B7100000000000000000000000000000000000000000000000000000000 PUSH0 MSTORE PUSH1 0x41 PUSH1 0x4 MSTORE PUSH1 0x24 PUSH0 REVERT JUMPDEST PUSH2 0x31D DUP3 PUSH2 0x2D7 JUMP JUMPDEST DUP2 ADD DUP2 DUP2 LT PUSH8 0xFFFFFFFFFFFFFFFF DUP3 GT OR ISZERO PUSH2 0x33C JUMPI PUSH2 0x33B PUSH2 0x2E7 JUMP JUMPDEST JUMPDEST DUP1 PUSH1 0x40 MSTORE POP POP POP JUMP JUMPDEST PUSH0 PUSH2 0x34E PUSH2 0x2BE JUMP JUMPDEST SWAP1 POP PUSH2 0x35A DUP3 DUP3 PUSH2 0x314 JUMP JUMPDEST SWAP2 SWAP1 POP JUMP JUMPDEST PUSH0 PUSH8 0xFFFFFFFFFFFFFFFF DUP3 GT ISZERO PUSH2 0x379 JUMPI PUSH2 0x378 PUSH2 0x2E7 JUMP JUMPDEST JUMPDEST PUSH2 0x382 DUP3 PUSH2 0x2D7 JUMP JUMPDEST SWAP1 POP PUSH1 0x20 DUP2 ADD SWAP1 POP SWAP2 SWAP1 POP JUMP JUMPDEST DUP3 DUP2 DUP4 MCOPY PUSH0 DUP4 DUP4 ADD MSTORE POP POP POP JUMP JUMPDEST PUSH0 PUSH2 0x3AF PUSH2 0x3AA DUP5 PUSH2 0x35F JUMP JUMPDEST PUSH2 0x345 JUMP JUMPDEST SWAP1 POP DUP3 DUP2 MSTORE PUSH1 0x20 DUP2 ADD DUP5 DUP5 DUP5 ADD GT ISZERO PUSH2 0x3CB JUMPI PUSH2 0x3CA PUSH2 0x2D3 JUMP JUMPDEST JUMPDEST PUSH2 0x3D6 DUP5 DUP3 DUP6 PUSH2 0x38F JUMP JUMPDEST POP SWAP4 SWAP3 POP POP POP JUMP JUMPDEST PUSH0 DUP3 PUSH1 0x1F DUP4 ADD SLT PUSH2 0x3F2 JUMPI PUSH2 0x3F1 PUSH2 0x2CF JUMP JUMPDEST JUMPDEST DUP2 MLOAD PUSH2 0x402 DUP5 DUP3 PUSH1 0x20 DUP7 ADD PUSH2 0x39D JUMP JUMPDEST SWAP2 POP POP SWAP3 SWAP2 POP POP JUMP JUMPDEST PUSH0 DUP2 SWAP1 POP SWAP2 SWAP1 POP JUMP JUMPDEST PUSH2 0x41D DUP2 PUSH2 0x40B JUMP JUMPDEST DUP2 EQ PUSH2 0x427 JUMPI PUSH0 PUSH0 REVERT JUMPDEST POP JUMP JUMPDEST PUSH0 DUP2 MLOAD SWAP1 POP PUSH2 0x438 DUP2 PUSH2 0x414 JUMP JUMPDEST SWAP3 SWAP2 POP POP JUMP JUMPDEST PUSH0 PUSH0 PUSH0 PUSH0 PUSH0 PUSH1 0xA0 DUP7 DUP9 SUB SLT ISZERO PUSH2 0x457 JUMPI PUSH2 0x456 PUSH2 0x2C7 JUMP JUMPDEST JUMPDEST PUSH0 DUP7 ADD MLOAD PUSH8 0xFFFFFFFFFFFFFFFF DUP2 GT ISZERO PUSH2 0x474 JUMPI PUSH2 0x473 PUSH2 0x2CB JUMP JUMPDEST JUMPDEST PUSH2 0x480 DUP9 DUP3 DUP10 ADD PUSH2 0x3DE JUMP JUMPDEST SWAP6 POP POP PUSH1 0x20 DUP7 ADD MLOAD PUSH8 0xFFFFFFFFFFFFFFFF DUP2 GT ISZERO PUSH2 0x4A1 JUMPI PUSH2 0x4A0 PUSH2 0x2CB JUMP JUMPDEST JUMPDEST PUSH2 0x4AD DUP9 DUP3 DUP10 ADD PUSH2 0x3DE JUMP JUMPDEST SWAP5 POP POP PUSH1 0x40 PUSH2 0x4BE DUP9 DUP3 DUP10 ADD PUSH2 0x42A JUMP JUMPDEST SWAP4 POP POP PUSH1 0x60 PUSH2 0x4CF DUP9 DUP3 DUP10 ADD PUSH2 0x42A JUMP JUMPDEST SWAP3 POP POP PUSH1 0x80 PUSH2 0x4E0 DUP9 DUP3 DUP10 ADD PUSH2 0x42A JUMP JUMPDEST SWAP2 POP POP SWAP3 SWAP6 POP SWAP3 SWAP6 SWAP1 SWAP4 POP JUMP JUMPDEST PUSH0 DUP3 DUP3 MSTORE PUSH1 0x20 DUP3 ADD SWAP1 POP SWAP3 SWAP2 POP POP JUMP JUMPDEST PUSH32 0x496E76616C696420616464726573732E00000000000000000000000000000000 PUSH0 DUP3 ADD MSTORE POP JUMP JUMPDEST PUSH0 PUSH2 0x531 PUSH1 0x10 DUP4 PUSH2 0x4ED JUMP JUMPDEST SWAP2 POP PUSH2 0x53C DUP3 PUSH2 0x4FD JUMP JUMPDEST PUSH1 0x20 DUP3 ADD SWAP1 POP SWAP2 SWAP1 POP JUMP JUMPDEST PUSH0 PUSH1 0x20 DUP3 ADD SWAP1 POP DUP2 DUP2 SUB PUSH0 DUP4 ADD MSTORE PUSH2 0x55E DUP2 PUSH2 0x525 JUMP JUMPDEST SWAP1 POP SWAP2 SWAP1 POP JUMP JUMPDEST PUSH32 0x4E616D652063616E206E6F7420626520656D7072792E00000000000000000000 PUSH0 DUP3 ADD MSTORE POP JUMP JUMPDEST PUSH0 PUSH2 0x599 PUSH1 0x16 DUP4 PUSH2 0x4ED JUMP JUMPDEST SWAP2 POP PUSH2 0x5A4 DUP3 PUSH2 0x565 JUMP JUMPDEST PUSH1 0x20 DUP3 ADD SWAP1 POP SWAP2 SWAP1 POP JUMP JUMPDEST PUSH0 PUSH1 0x20 DUP3 ADD SWAP1 POP DUP2 DUP2 SUB PUSH0 DUP4 ADD MSTORE PUSH2 0x5C6 DUP2 PUSH2 0x58D JUMP JUMPDEST SWAP1 POP SWAP2 SWAP1 POP JUMP JUMPDEST PUSH32 0x4465736372697074696F6E2063616E206E6F7420626520656D7074792E000000 PUSH0 DUP3 ADD MSTORE POP JUMP JUMPDEST PUSH0 PUSH2 0x601 PUSH1 0x1D DUP4 PUSH2 0x4ED JUMP JUMPDEST SWAP2 POP PUSH2 0x60C DUP3 PUSH2 0x5CD JUMP JUMPDEST PUSH1 0x20 DUP3 ADD SWAP1 POP SWAP2 SWAP1 POP JUMP JUMPDEST PUSH0 PUSH1 0x20 DUP3 ADD SWAP1 POP DUP2 DUP2 SUB PUSH0 DUP4 ADD MSTORE PUSH2 0x62E DUP2 PUSH2 0x5F5 JUMP JUMPDEST SWAP1 POP SWAP2 SWAP1 POP JUMP JUMPDEST PUSH32 0x476F616C206D75737420626520706F7369746976652E00000000000000000000 PUSH0 DUP3 ADD MSTORE POP JUMP JUMPDEST PUSH0 PUSH2 0x669 PUSH1 0x16 DUP4 PUSH2 0x4ED JUMP JUMPDEST SWAP2 POP PUSH2 0x674 DUP3 PUSH2 0x635 JUMP JUMPDEST PUSH1 0x20 DUP3 ADD SWAP1 POP SWAP2 SWAP1 POP JUMP JUMPDEST PUSH0 PUSH1 0x20 DUP3 ADD SWAP1 POP DUP2 DUP2 SUB PUSH0 DUP4 ADD MSTORE PUSH2 0x696 DUP2 PUSH2 0x65D JUMP JUMPDEST SWAP1 POP SWAP2 SWAP1 POP JUMP JUMPDEST PUSH32 0x4475726174696F6E206D75737420626520706F7369746976652E000000000000 PUSH0 DUP3 ADD MSTORE POP JUMP JUMPDEST PUSH0 PUSH2 0x6D1 PUSH1 0x1A DUP4 PUSH2 0x4ED JUMP JUMPDEST SWAP2 POP PUSH2 0x6DC DUP3 PUSH2 0x69D JUMP JUMPDEST PUSH1 0x20 DUP3 ADD SWAP1 POP SWAP2 SWAP1 POP JUMP JUMPDEST PUSH0 PUSH1 0x20 DUP3 ADD SWAP1 POP DUP2 DUP2 SUB PUSH0 DUP4 ADD MSTORE PUSH2 0x6FE DUP2 PUSH2 0x6C5 JUMP JUMPDEST SWAP1 POP SWAP2 SWAP1 POP JUMP JUMPDEST PUSH32 0x50657263656E74206D757374206265206265747765656E2030202D203130302E PUSH0 DUP3 ADD MSTORE POP JUMP JUMPDEST PUSH0 PUSH2 0x739 PUSH1 0x20 DUP4 PUSH2 0x4ED JUMP JUMPDEST SWAP2 POP PUSH2 0x744 DUP3 PUSH2 0x705 JUMP JUMPDEST PUSH1 0x20 DUP3 ADD SWAP1 POP SWAP2 SWAP1 POP JUMP JUMPDEST PUSH0 PUSH1 0x20 DUP3 ADD SWAP1 POP DUP2 DUP2 SUB PUSH0 DUP4 ADD MSTORE PUSH2 0x766 DUP2 PUSH2 0x72D JUMP JUMPDEST SWAP1 POP SWAP2 SWAP1 POP JUMP JUMPDEST PUSH32 0x4E487B7100000000000000000000000000000000000000000000000000000000 PUSH0 MSTORE PUSH1 0x21 PUSH1 0x4 MSTORE PUSH1 0x24 PUSH0 REVERT JUMPDEST PUSH0 DUP2 MLOAD SWAP1 POP SWAP2 SWAP1 POP JUMP JUMPDEST PUSH32 0x4E487B7100000000000000000000000000000000000000000000000000000000 PUSH0 MSTORE PUSH1 0x22 PUSH1 0x4 MSTORE PUSH1 0x24 PUSH0 REVERT JUMPDEST PUSH0 PUSH1 0x2 DUP3 DIV SWAP1 POP PUSH1 0x1 DUP3 AND DUP1 PUSH2 0x7E8 JUMPI PUSH1 0x7F DUP3 AND SWAP2 POP JUMPDEST PUSH1 0x20 DUP3 LT DUP2 SUB PUSH2 0x7FB JUMPI PUSH2 0x7FA PUSH2 0x7A4 JUMP JUMPDEST JUMPDEST POP SWAP2 SWAP1 POP JUMP JUMPDEST PUSH0 DUP2 SWAP1 POP DUP2 PUSH0 MSTORE PUSH1 0x20 PUSH0 KECCAK256 SWAP1 POP SWAP2 SWAP1 POP JUMP JUMPDEST PUSH0 PUSH1 0x20 PUSH1 0x1F DUP4 ADD DIV SWAP1 POP SWAP2 SWAP1 POP JUMP JUMPDEST PUSH0 DUP3 DUP3 SHL SWAP1 POP SWAP3 SWAP2 POP POP JUMP JUMPDEST PUSH0 PUSH1 0x8 DUP4 MUL PUSH2 0x85D PUSH32 0xFFFFFFFFFFFFFFFFFFFFFFFFFFFFFFFFFFFFFFFFFFFFFFFFFFFFFFFFFFFFFFFF DUP3 PUSH2 0x822 JUMP JUMPDEST PUSH2 0x867 DUP7 DUP4 PUSH2 0x822 JUMP JUMPDEST SWAP6 POP DUP1 NOT DUP5 AND SWAP4 POP DUP1 DUP7 AND DUP5 OR SWAP3 POP POP POP SWAP4 SWAP3 POP POP POP JUMP JUMPDEST PUSH0 DUP2 SWAP1 POP SWAP2 SWAP1 POP JUMP JUMPDEST PUSH0 PUSH2 0x8A2 PUSH2 0x89D PUSH2 0x898 DUP5 PUSH2 0x40B JUMP JUMPDEST PUSH2 0x87F JUMP JUMPDEST PUSH2 0x40B JUMP JUMPDEST SWAP1 POP SWAP2 SWAP1 POP JUMP JUMPDEST PUSH0 DUP2 SWAP1 POP SWAP2 SWAP1 POP JUMP JUMPDEST PUSH2 0x8BB DUP4 PUSH2 0x888 JUMP JUMPDEST PUSH2 0x8CF PUSH2 0x8C7 DUP3 PUSH2 0x8A9 JUMP JUMPDEST DUP5 DUP5 SLOAD PUSH2 0x82E JUMP JUMPDEST DUP3 SSTORE POP POP POP POP JUMP JUMPDEST PUSH0 PUSH0 SWAP1 POP SWAP1 JUMP JUMPDEST PUSH2 0x8E6 PUSH2 0x8D7 JUMP JUMPDEST PUSH2 0x8F1 DUP2 DUP5 DUP5 PUSH2 0x8B2 JUMP JUMPDEST POP POP POP JUMP JUMPDEST JUMPDEST DUP2 DUP2 LT ISZERO PUSH2 0x914 JUMPI PUSH2 0x909 PUSH0 DUP3 PUSH2 0x8DE JUMP JUMPDEST PUSH1 0x1 DUP2 ADD SWAP1 POP PUSH2 0x8F7 JUMP JUMPDEST POP POP JUMP JUMPDEST PUSH1 0x1F DUP3 GT ISZERO PUSH2 0x959 JUMPI PUSH2 0x92A DUP2 PUSH2 0x801 JUMP JUMPDEST PUSH2 0x933 DUP5 PUSH2 0x813 JUMP JUMPDEST DUP2 ADD PUSH1 0x20 DUP6 LT ISZERO PUSH2 0x942 JUMPI DUP2 SWAP1 POP JUMPDEST PUSH2 0x956 PUSH2 0x94E DUP6 PUSH2 0x813 JUMP JUMPDEST DUP4 ADD DUP3 PUSH2 0x8F6 JUMP JUMPDEST POP POP JUMPDEST POP POP POP JUMP JUMPDEST PUSH0 DUP3 DUP3 SHR SWAP1 POP SWAP3 SWAP2 POP POP JUMP JUMPDEST PUSH0 PUSH2 0x979 PUSH0 NOT DUP5 PUSH1 0x8 MUL PUSH2 0x95E JUMP JUMPDEST NOT DUP1 DUP4 AND SWAP2 POP POP SWAP3 SWAP2 POP POP JUMP JUMPDEST PUSH0 PUSH2 0x991 DUP4 DUP4 PUSH2 0x96A JUMP JUMPDEST SWAP2 POP DUP3 PUSH1 0x2 MUL DUP3 OR SWAP1 POP SWAP3 SWAP2 POP POP JUMP JUMPDEST PUSH2 0x9AA DUP3 PUSH2 0x79A JUMP JUMPDEST PUSH8 0xFFFFFFFFFFFFFFFF DUP2 GT ISZERO PUSH2 0x9C3 JUMPI PUSH2 0x9C2 PUSH2 0x2E7 JUMP JUMPDEST JUMPDEST PUSH2 0x9CD DUP3 SLOAD PUSH2 0x7D1 JUMP JUMPDEST PUSH2 0x9D8 DUP3 DUP3 DUP6 PUSH2 0x918 JUMP JUMPDEST PUSH0 PUSH1 0x20 SWAP1 POP PUSH1 0x1F DUP4 GT PUSH1 0x1 DUP2 EQ PUSH2 0xA09 JUMPI PUSH0 DUP5 ISZERO PUSH2 0x9F7 JUMPI DUP3 DUP8 ADD MLOAD SWAP1 POP JUMPDEST PUSH2 0xA01 DUP6 DUP3 PUSH2 0x986 JUMP JUMPDEST DUP7 SSTORE POP PUSH2 0xA68 JUMP JUMPDEST PUSH1 0x1F NOT DUP5 AND PUSH2 0xA17 DUP7 PUSH2 0x801 JUMP JUMPDEST PUSH0 JUMPDEST DUP3 DUP2 LT ISZERO PUSH2 0xA3E JUMPI DUP5 DUP10 ADD MLOAD DUP3 SSTORE PUSH1 0x1 DUP3 ADD SWAP2 POP PUSH1 0x20 DUP6 ADD SWAP5 POP PUSH1 0x20 DUP2 ADD SWAP1 POP PUSH2 0xA19 JUMP JUMPDEST DUP7 DUP4 LT ISZERO PUSH2 0xA5B JUMPI DUP5 DUP10 ADD MLOAD PUSH2 0xA57 PUSH1 0x1F DUP10 AND DUP3 PUSH2 0x96A JUMP JUMPDEST DUP4 SSTORE POP JUMPDEST PUSH1 0x1 PUSH1 0x2 DUP9 MUL ADD DUP9 SSTORE POP POP POP JUMPDEST POP POP POP POP POP POP JUMP JUMPDEST PUSH32 0x4E487B7100000000000000000000000000000000000000000000000000000000 PUSH0 MSTORE PUSH1 0x11 PUSH1 0x4 MSTORE PUSH1 0x24 PUSH0 REVERT JUMPDEST PUSH0 PUSH2 0xAA7 DUP3 PUSH2 0x40B JUMP JUMPDEST SWAP2 POP PUSH2 0xAB2 DUP4 PUSH2 0x40B JUMP JUMPDEST SWAP3 POP DUP3 DUP3 MUL PUSH2 0xAC0 DUP2 PUSH2 0x40B JUMP JUMPDEST SWAP2 POP DUP3 DUP3 DIV DUP5 EQ DUP4 ISZERO OR PUSH2 0xAD7 JUMPI PUSH2 0xAD6 PUSH2 0xA70 JUMP JUMPDEST JUMPDEST POP SWAP3 SWAP2 POP POP JUMP JUMPDEST PUSH0 PUSH2 0xAE8 DUP3 PUSH2 0x40B JUMP JUMPDEST SWAP2 POP PUSH2 0xAF3 DUP4 PUSH2 0x40B JUMP JUMPDEST SWAP3 POP DUP3 DUP3 ADD SWAP1 POP DUP1 DUP3 GT ISZERO PUSH2 0xB0B JUMPI PUSH2 0xB0A PUSH2 0xA70 JUMP JUMPDEST JUMPDEST SWAP3 SWAP2 POP POP JUMP JUMPDEST PUSH2 0x2A09 DUP1 PUSH2 0xB1E PUSH0 CODECOPY PUSH0 RETURN INVALID PUSH1 0x80 PUSH1 0x40 MSTORE PUSH1 0x4 CALLDATASIZE LT PUSH2 0x117 JUMPI PUSH0 CALLDATALOAD PUSH1 0xE0 SHR DUP1 PUSH4 0x7B51B4AD GT PUSH2 0x9F JUMPI DUP1 PUSH4 0xBEF3A083 GT PUSH2 0x63 JUMPI DUP1 PUSH4 0xBEF3A083 EQ PUSH2 0x4BA JUMPI DUP1 PUSH4 0xD65AB5F2 EQ PUSH2 0x4E4 JUMPI DUP1 PUSH4 0xF4135992 EQ PUSH2 0x4FA JUMPI DUP1 PUSH4 0xF42B1AE0 EQ PUSH2 0x524 JUMPI DUP1 PUSH4 0xFC7E286D EQ PUSH2 0x53A JUMPI PUSH2 0x2CA JUMP JUMPDEST DUP1 PUSH4 0x7B51B4AD EQ PUSH2 0x412 JUMPI DUP1 PUSH4 0x8DA5CB5B EQ PUSH2 0x428 JUMPI DUP1 PUSH4 0x95D12000 EQ PUSH2 0x452 JUMPI DUP1 PUSH4 0x97661F31 EQ PUSH2 0x47C JUMPI DUP1 PUSH4 0xA6F9DAE1 EQ PUSH2 0x492 JUMPI PUSH2 0x2CA JUMP JUMPDEST DUP1 PUSH4 0x40193883 GT PUSH2 0xE6 JUMPI DUP1 PUSH4 0x40193883 EQ PUSH2 0x368 JUMPI DUP1 PUSH4 0x499831F2 EQ PUSH2 0x392 JUMPI DUP1 PUSH4 0x590E1AE3 EQ PUSH2 0x3A8 JUMPI DUP1 PUSH4 0x6F9FB98A EQ PUSH2 0x3BE JUMPI DUP1 PUSH4 0x7284E416 EQ PUSH2 0x3E8 JUMPI PUSH2 0x2CA JUMP JUMPDEST DUP1 PUSH4 0x6FDDE03 EQ PUSH2 0x2CE JUMPI DUP1 PUSH4 0x31BF64AB EQ PUSH2 0x2F8 JUMPI DUP1 PUSH4 0x35C1D349 EQ PUSH2 0x302 JUMPI DUP1 PUSH4 0x382396EE EQ PUSH2 0x33E JUMPI PUSH2 0x2CA JUMP JUMPDEST CALLDATASIZE PUSH2 0x2CA JUMPI PUSH1 0x1 PUSH1 0x5 DUP2 GT ISZERO PUSH2 0x130 JUMPI PUSH2 0x12F PUSH2 0x1AAC JUMP JUMPDEST JUMPDEST PUSH1 0x9 PUSH0 SWAP1 SLOAD SWAP1 PUSH2 0x100 EXP SWAP1 DIV PUSH1 0xFF AND PUSH1 0x5 DUP2 GT ISZERO PUSH2 0x151 JUMPI PUSH2 0x150 PUSH2 0x1AAC JUMP JUMPDEST JUMPDEST EQ PUSH2 0x191 JUMPI PUSH1 0x40 MLOAD PUSH32 0x8C379A000000000000000000000000000000000000000000000000000000000 DUP2 MSTORE PUSH1 0x4 ADD PUSH2 0x188 SWAP1 PUSH2 0x1B33 JUMP JUMPDEST PUSH1 0x40 MLOAD DUP1 SWAP2 SUB SWAP1 REVERT JUMPDEST TIMESTAMP PUSH1 0x4 SLOAD GT PUSH2 0x1D5 JUMPI PUSH1 0x40 MLOAD PUSH32 0x8C379A000000000000000000000000000000000000000000000000000000000 DUP2 MSTORE PUSH1 0x4 ADD PUSH2 0x1CC SWAP1 PUSH2 0x1B9B JUMP JUMPDEST PUSH1 0x40 MLOAD DUP1 SWAP2 SUB SWAP1 REVERT JUMPDEST PUSH1 0x40 MLOAD DUP1 PUSH1 0x40 ADD PUSH1 0x40 MSTORE DUP1 CALLVALUE DUP2 MSTORE PUSH1 0x20 ADD TIMESTAMP DUP2 MSTORE POP PUSH1 0xA PUSH0 CALLER PUSH20 0xFFFFFFFFFFFFFFFFFFFFFFFFFFFFFFFFFFFFFFFF AND PUSH20 0xFFFFFFFFFFFFFFFFFFFFFFFFFFFFFFFFFFFFFFFF AND DUP2 MSTORE PUSH1 0x20 ADD SWAP1 DUP2 MSTORE PUSH1 0x20 ADD PUSH0 KECCAK256 PUSH0 DUP3 ADD MLOAD DUP2 PUSH0 ADD SSTORE PUSH1 0x20 DUP3 ADD MLOAD DUP2 PUSH1 0x1 ADD SSTORE SWAP1 POP POP PUSH1 0x7 SLOAD CALLVALUE GT ISZERO PUSH2 0x28F JUMPI CALLVALUE PUSH1 0x7 DUP2 SWAP1 SSTORE POP CALLER PUSH1 0x6 PUSH1 0x1 PUSH2 0x100 EXP DUP2 SLOAD DUP2 PUSH20 0xFFFFFFFFFFFFFFFFFFFFFFFFFFFFFFFFFFFFFFFF MUL NOT AND SWAP1 DUP4 PUSH20 0xFFFFFFFFFFFFFFFFFFFFFFFFFFFFFFFFFFFFFFFF AND MUL OR SWAP1 SSTORE POP JUMPDEST PUSH32 0x86EF21BF36E265F583D1740184679FA503CFBFB695CFFFF03746DBCBB0A541A CALLER TIMESTAMP PUSH1 0x40 MLOAD PUSH2 0x2C0 SWAP3 SWAP2 SWAP1 PUSH2 0x1C5A JUMP JUMPDEST PUSH1 0x40 MLOAD DUP1 SWAP2 SUB SWAP1 LOG1 STOP JUMPDEST PUSH0 PUSH0 REVERT JUMPDEST CALLVALUE DUP1 ISZERO PUSH2 0x2D9 JUMPI PUSH0 PUSH0 REVERT JUMPDEST POP PUSH2 0x2E2 PUSH2 0x577 JUMP JUMPDEST PUSH1 0x40 MLOAD PUSH2 0x2EF SWAP2 SWAP1 PUSH2 0x1CF4 JUMP JUMPDEST PUSH1 0x40 MLOAD DUP1 SWAP2 SUB SWAP1 RETURN JUMPDEST PUSH2 0x300 PUSH2 0x602 JUMP JUMPDEST STOP JUMPDEST CALLVALUE DUP1 ISZERO PUSH2 0x30D JUMPI PUSH0 PUSH0 REVERT JUMPDEST POP PUSH2 0x328 PUSH1 0x4 DUP1 CALLDATASIZE SUB DUP2 ADD SWAP1 PUSH2 0x323 SWAP2 SWAP1 PUSH2 0x1D42 JUMP JUMPDEST PUSH2 0x811 JUMP JUMPDEST PUSH1 0x40 MLOAD PUSH2 0x335 SWAP2 SWAP1 PUSH2 0x1D6D JUMP JUMPDEST PUSH1 0x40 MLOAD DUP1 SWAP2 SUB SWAP1 RETURN JUMPDEST CALLVALUE DUP1 ISZERO PUSH2 0x349 JUMPI PUSH0 PUSH0 REVERT JUMPDEST POP PUSH2 0x352 PUSH2 0x84C JUMP JUMPDEST PUSH1 0x40 MLOAD PUSH2 0x35F SWAP2 SWAP1 PUSH2 0x1DCC JUMP JUMPDEST PUSH1 0x40 MLOAD DUP1 SWAP2 SUB SWAP1 RETURN JUMPDEST CALLVALUE DUP1 ISZERO PUSH2 0x373 JUMPI PUSH0 PUSH0 REVERT JUMPDEST POP PUSH2 0x37C PUSH2 0x861 JUMP JUMPDEST PUSH1 0x40 MLOAD PUSH2 0x389 SWAP2 SWAP1 PUSH2 0x1DE5 JUMP JUMPDEST PUSH1 0x40 MLOAD DUP1 SWAP2 SUB SWAP1 RETURN JUMPDEST CALLVALUE DUP1 ISZERO PUSH2 0x39D JUMPI PUSH0 PUSH0 REVERT JUMPDEST POP PUSH2 0x3A6 PUSH2 0x867 JUMP JUMPDEST STOP JUMPDEST CALLVALUE DUP1 ISZERO PUSH2 0x3B3 JUMPI PUSH0 PUSH0 REVERT JUMPDEST POP PUSH2 0x3BC PUSH2 0x9D6 JUMP JUMPDEST STOP JUMPDEST CALLVALUE DUP1 ISZERO PUSH2 0x3C9 JUMPI PUSH0 PUSH0 REVERT JUMPDEST POP PUSH2 0x3D2 PUSH2 0xD05 JUMP JUMPDEST PUSH1 0x40 MLOAD PUSH2 0x3DF SWAP2 SWAP1 PUSH2 0x1DE5 JUMP JUMPDEST PUSH1 0x40 MLOAD DUP1 SWAP2 SUB SWAP1 RETURN JUMPDEST CALLVALUE DUP1 ISZERO PUSH2 0x3F3 JUMPI PUSH0 PUSH0 REVERT JUMPDEST POP PUSH2 0x3FC PUSH2 0xD9B JUMP JUMPDEST PUSH1 0x40 MLOAD PUSH2 0x409 SWAP2 SWAP1 PUSH2 0x1CF4 JUMP JUMPDEST PUSH1 0x40 MLOAD DUP1 SWAP2 SUB SWAP1 RETURN JUMPDEST CALLVALUE DUP1 ISZERO PUSH2 0x41D JUMPI PUSH0 PUSH0 REVERT JUMPDEST POP PUSH2 0x426 PUSH2 0xE27 JUMP JUMPDEST STOP JUMPDEST CALLVALUE DUP1 ISZERO PUSH2 0x433 JUMPI PUSH0 PUSH0 REVERT JUMPDEST POP PUSH2 0x43C PUSH2 0x1290 JUMP JUMPDEST PUSH1 0x40 MLOAD PUSH2 0x449 SWAP2 SWAP1 PUSH2 0x1D6D JUMP JUMPDEST PUSH1 0x40 MLOAD DUP1 SWAP2 SUB SWAP1 RETURN JUMPDEST CALLVALUE DUP1 ISZERO PUSH2 0x45D JUMPI PUSH0 PUSH0 REVERT JUMPDEST POP PUSH2 0x466 PUSH2 0x12B5 JUMP JUMPDEST PUSH1 0x40 MLOAD PUSH2 0x473 SWAP2 SWAP1 PUSH2 0x1DE5 JUMP JUMPDEST PUSH1 0x40 MLOAD DUP1 SWAP2 SUB SWAP1 RETURN JUMPDEST CALLVALUE DUP1 ISZERO PUSH2 0x487 JUMPI PUSH0 PUSH0 REVERT JUMPDEST POP PUSH2 0x490 PUSH2 0x12BB JUMP JUMPDEST STOP JUMPDEST CALLVALUE DUP1 ISZERO PUSH2 0x49D JUMPI PUSH0 PUSH0 REVERT JUMPDEST POP PUSH2 0x4B8 PUSH1 0x4 DUP1 CALLDATASIZE SUB DUP2 ADD SWAP1 PUSH2 0x4B3 SWAP2 SWAP1 PUSH2 0x1E28 JUMP JUMPDEST PUSH2 0x1465 JUMP JUMPDEST STOP JUMPDEST CALLVALUE DUP1 ISZERO PUSH2 0x4C5 JUMPI PUSH0 PUSH0 REVERT JUMPDEST POP PUSH2 0x4CE PUSH2 0x1601 JUMP JUMPDEST PUSH1 0x40 MLOAD PUSH2 0x4DB SWAP2 SWAP1 PUSH2 0x1DE5 JUMP JUMPDEST PUSH1 0x40 MLOAD DUP1 SWAP2 SUB SWAP1 RETURN JUMPDEST CALLVALUE DUP1 ISZERO PUSH2 0x4EF JUMPI PUSH0 PUSH0 REVERT JUMPDEST POP PUSH2 0x4F8 PUSH2 0x1607 JUMP JUMPDEST STOP JUMPDEST CALLVALUE DUP1 ISZERO PUSH2 0x505 JUMPI PUSH0 PUSH0 REVERT JUMPDEST POP PUSH2 0x50E PUSH2 0x17F0 JUMP JUMPDEST PUSH1 0x40 MLOAD PUSH2 0x51B SWAP2 SWAP1 PUSH2 0x1DE5 JUMP JUMPDEST PUSH1 0x40 MLOAD DUP1 SWAP2 SUB SWAP1 RETURN JUMPDEST CALLVALUE DUP1 ISZERO PUSH2 0x52F JUMPI PUSH0 PUSH0 REVERT JUMPDEST POP PUSH2 0x538 PUSH2 0x1836 JUMP JUMPDEST STOP JUMPDEST CALLVALUE DUP1 ISZERO PUSH2 0x545 JUMPI PUSH0 PUSH0 REVERT JUMPDEST POP PUSH2 0x560 PUSH1 0x4 DUP1 CALLDATASIZE SUB DUP2 ADD SWAP1 PUSH2 0x55B SWAP2 SWAP1 PUSH2 0x1E28 JUMP JUMPDEST PUSH2 0x19A5 JUMP JUMPDEST PUSH1 0x40 MLOAD PUSH2 0x56E SWAP3 SWAP2 SWAP1 PUSH2 0x1E53 JUMP JUMPDEST PUSH1 0x40 MLOAD DUP1 SWAP2 SUB SWAP1 RETURN JUMPDEST PUSH0 DUP1 SLOAD PUSH2 0x583 SWAP1 PUSH2 0x1EA7 JUMP JUMPDEST DUP1 PUSH1 0x1F ADD PUSH1 0x20 DUP1 SWAP2 DIV MUL PUSH1 0x20 ADD PUSH1 0x40 MLOAD SWAP1 DUP2 ADD PUSH1 0x40 MSTORE DUP1 SWAP3 SWAP2 SWAP1 DUP2 DUP2 MSTORE PUSH1 0x20 ADD DUP3 DUP1 SLOAD PUSH2 0x5AF SWAP1 PUSH2 0x1EA7 JUMP JUMPDEST DUP1 ISZERO PUSH2 0x5FA JUMPI DUP1 PUSH1 0x1F LT PUSH2 0x5D1 JUMPI PUSH2 0x100 DUP1 DUP4 SLOAD DIV MUL DUP4 MSTORE SWAP2 PUSH1 0x20 ADD SWAP2 PUSH2 0x5FA JUMP JUMPDEST DUP3 ADD SWAP2 SWAP1 PUSH0 MSTORE PUSH1 0x20 PUSH0 KECCAK256 SWAP1 JUMPDEST DUP2 SLOAD DUP2 MSTORE SWAP1 PUSH1 0x1 ADD SWAP1 PUSH1 0x20 ADD DUP1 DUP4 GT PUSH2 0x5DD JUMPI DUP3 SWAP1 SUB PUSH1 0x1F AND DUP3 ADD SWAP2 JUMPDEST POP POP POP POP POP DUP2 JUMP JUMPDEST PUSH1 0x1 PUSH1 0x5 DUP2 GT ISZERO PUSH2 0x616 JUMPI PUSH2 0x615 PUSH2 0x1AAC JUMP JUMPDEST JUMPDEST PUSH1 0x9 PUSH0 SWAP1 SLOAD SWAP1 PUSH2 0x100 EXP SWAP1 DIV PUSH1 0xFF AND PUSH1 0x5 DUP2 GT ISZERO PUSH2 0x637 JUMPI PUSH2 0x636 PUSH2 0x1AAC JUMP JUMPDEST JUMPDEST EQ PUSH2 0x677 JUMPI PUSH1 0x40 MLOAD PUSH32 0x8C379A000000000000000000000000000000000000000000000000000000000 DUP2 MSTORE PUSH1 0x4 ADD PUSH2 0x66E SWAP1 PUSH2 0x1B33 JUMP JUMPDEST PUSH1 0x40 MLOAD DUP1 SWAP2 SUB SWAP1 REVERT JUMPDEST TIMESTAMP PUSH1 0x4 SLOAD GT PUSH2 0x6BB JUMPI PUSH1 0x40 MLOAD PUSH32 0x8C379A000000000000000000000000000000000000000000000000000000000 DUP2 MSTORE PUSH1 0x4 ADD PUSH2 0x6B2 SWAP1 PUSH2 0x1B9B JUMP JUMPDEST PUSH1 0x40 MLOAD DUP1 SWAP2 SUB SWAP1 REVERT JUMPDEST PUSH0 CALLVALUE GT PUSH2 0x6FD JUMPI PUSH1 0x40 MLOAD PUSH32 0x8C379A000000000000000000000000000000000000000000000000000000000 DUP2 MSTORE PUSH1 0x4 ADD PUSH2 0x6F4 SWAP1 PUSH2 0x1F47 JUMP JUMPDEST PUSH1 0x40 MLOAD DUP1 SWAP2 SUB SWAP1 REVERT JUMPDEST PUSH1 0x40 MLOAD DUP1 PUSH1 0x40 ADD PUSH1 0x40 MSTORE DUP1 CALLVALUE DUP2 MSTORE PUSH1 0x20 ADD TIMESTAMP DUP2 MSTORE POP PUSH1 0xA PUSH0 CALLER PUSH20 0xFFFFFFFFFFFFFFFFFFFFFFFFFFFFFFFFFFFFFFFF AND PUSH20 0xFFFFFFFFFFFFFFFFFFFFFFFFFFFFFFFFFFFFFFFF AND DUP2 MSTORE PUSH1 0x20 ADD SWAP1 DUP2 MSTORE PUSH1 0x20 ADD PUSH0 KECCAK256 PUSH0 DUP3 ADD MLOAD DUP2 PUSH0 ADD SSTORE PUSH1 0x20 DUP3 ADD MLOAD DUP2 PUSH1 0x1 ADD SSTORE SWAP1 POP POP PUSH1 0x8 PUSH0 DUP2 SLOAD DUP1 SWAP3 SWAP2 SWAP1 PUSH2 0x776 SWAP1 PUSH2 0x1F92 JUMP JUMPDEST SWAP2 SWAP1 POP SSTORE POP PUSH2 0x783 PUSH2 0x19C5 JUMP JUMPDEST PUSH1 0x7 SLOAD CALLVALUE GT ISZERO PUSH2 0x7D6 JUMPI CALLVALUE PUSH1 0x7 DUP2 SWAP1 SSTORE POP CALLER PUSH1 0x6 PUSH1 0x1 PUSH2 0x100 EXP DUP2 SLOAD DUP2 PUSH20 0xFFFFFFFFFFFFFFFFFFFFFFFFFFFFFFFFFFFFFFFF MUL NOT AND SWAP1 DUP4 PUSH20 0xFFFFFFFFFFFFFFFFFFFFFFFFFFFFFFFFFFFFFFFF AND MUL OR SWAP1 SSTORE POP JUMPDEST PUSH32 0x86EF21BF36E265F583D1740184679FA503CFBFB695CFFFF03746DBCBB0A541A CALLER TIMESTAMP PUSH1 0x40 MLOAD PUSH2 0x807 SWAP3 SWAP2 SWAP1 PUSH2 0x2023 JUMP JUMPDEST PUSH1 0x40 MLOAD DUP1 SWAP2 SUB SWAP1 LOG1 JUMP JUMPDEST PUSH1 0xB DUP2 DUP2 SLOAD DUP2 LT PUSH2 0x820 JUMPI PUSH0 DUP1 REVERT JUMPDEST SWAP1 PUSH0 MSTORE PUSH1 0x20 PUSH0 KECCAK256 ADD PUSH0 SWAP2 POP SLOAD SWAP1 PUSH2 0x100 EXP SWAP1 DIV PUSH20 0xFFFFFFFFFFFFFFFFFFFFFFFFFFFFFFFFFFFFFFFF AND DUP2 JUMP JUMPDEST PUSH0 PUSH1 0x9 PUSH0 SWAP1 SLOAD SWAP1 PUSH2 0x100 EXP SWAP1 DIV PUSH1 0xFF AND SWAP1 POP SWAP1 JUMP JUMPDEST PUSH1 0x3 SLOAD DUP2 JUMP JUMPDEST CALLER PUSH20 0xFFFFFFFFFFFFFFFFFFFFFFFFFFFFFFFFFFFFFFFF AND PUSH1 0x2 PUSH0 SWAP1 SLOAD SWAP1 PUSH2 0x100 EXP SWAP1 DIV PUSH20 0xFFFFFFFFFFFFFFFFFFFFFFFFFFFFFFFFFFFFFFFF AND PUSH20 0xFFFFFFFFFFFFFFFFFFFFFFFFFFFFFFFFFFFFFFFF AND EQ PUSH2 0x8F6 JUMPI PUSH1 0x40 MLOAD PUSH32 0x8C379A000000000000000000000000000000000000000000000000000000000 DUP2 MSTORE PUSH1 0x4 ADD PUSH2 0x8ED SWAP1 PUSH2 0x20A7 JUMP JUMPDEST PUSH1 0x40 MLOAD DUP1 SWAP2 SUB SWAP1 REVERT JUMPDEST PUSH1 0x1 PUSH1 0x5 DUP2 GT ISZERO PUSH2 0x90A JUMPI PUSH2 0x909 PUSH2 0x1AAC JUMP JUMPDEST JUMPDEST PUSH1 0x9 PUSH0 SWAP1 SLOAD SWAP1 PUSH2 0x100 EXP SWAP1 DIV PUSH1 0xFF AND PUSH1 0x5 DUP2 GT ISZERO PUSH2 0x92B JUMPI PUSH2 0x92A PUSH2 0x1AAC JUMP JUMPDEST JUMPDEST EQ PUSH2 0x96B JUMPI PUSH1 0x40 MLOAD PUSH32 0x8C379A000000000000000000000000000000000000000000000000000000000 DUP2 MSTORE PUSH1 0x4 ADD PUSH2 0x962 SWAP1 PUSH2 0x1B33 JUMP JUMPDEST PUSH1 0x40 MLOAD DUP1 SWAP2 SUB SWAP1 REVERT JUMPDEST PUSH1 0x2 PUSH1 0x9 PUSH0 PUSH2 0x100 EXP DUP2 SLOAD DUP2 PUSH1 0xFF MUL NOT AND SWAP1 DUP4 PUSH1 0x5 DUP2 GT ISZERO PUSH2 0x990 JUMPI PUSH2 0x98F PUSH2 0x1AAC JUMP JUMPDEST JUMPDEST MUL OR SWAP1 SSTORE POP PUSH32 0xD8A7DA7323410642828723771D853997704601CF6852AD3353C02D8A0C8C5B83 TIMESTAMP PUSH1 0x40 MLOAD PUSH2 0x9C4 SWAP2 SWAP1 PUSH2 0x210F JUMP JUMPDEST PUSH1 0x40 MLOAD DUP1 SWAP2 SUB SWAP1 LOG1 PUSH2 0x9D4 PUSH2 0x19C5 JUMP JUMPDEST JUMP JUMPDEST PUSH1 0x6 PUSH0 SWAP1 SLOAD SWAP1 PUSH2 0x100 EXP SWAP1 DIV PUSH1 0xFF AND ISZERO PUSH2 0xA25 JUMPI PUSH1 0x40 MLOAD PUSH32 0x8C379A000000000000000000000000000000000000000000000000000000000 DUP2 MSTORE PUSH1 0x4 ADD PUSH2 0xA1C SWAP1 PUSH2 0x2185 JUMP JUMPDEST PUSH1 0x40 MLOAD DUP1 SWAP2 SUB SWAP1 REVERT JUMPDEST PUSH1 0x1 PUSH1 0x6 PUSH0 PUSH2 0x100 EXP DUP2 SLOAD DUP2 PUSH1 0xFF MUL NOT AND SWAP1 DUP4 ISZERO ISZERO MUL OR SWAP1 SSTORE POP PUSH1 0x4 PUSH1 0x5 DUP2 GT ISZERO PUSH2 0xA53 JUMPI PUSH2 0xA52 PUSH2 0x1AAC JUMP JUMPDEST JUMPDEST PUSH1 0x9 PUSH0 SWAP1 SLOAD SWAP1 PUSH2 0x100 EXP SWAP1 DIV PUSH1 0xFF AND PUSH1 0x5 DUP2 GT ISZERO PUSH2 0xA74 JUMPI PUSH2 0xA73 PUSH2 0x1AAC JUMP JUMPDEST JUMPDEST EQ PUSH2 0xAB4 JUMPI PUSH1 0x40 MLOAD PUSH32 0x8C379A000000000000000000000000000000000000000000000000000000000 DUP2 MSTORE PUSH1 0x4 ADD PUSH2 0xAAB SWAP1 PUSH2 0x21ED JUMP JUMPDEST PUSH1 0x40 MLOAD DUP1 SWAP2 SUB SWAP1 REVERT JUMPDEST PUSH0 PUSH1 0xA PUSH0 CALLER PUSH20 0xFFFFFFFFFFFFFFFFFFFFFFFFFFFFFFFFFFFFFFFF AND PUSH20 0xFFFFFFFFFFFFFFFFFFFFFFFFFFFFFFFFFFFFFFFF AND DUP2 MSTORE PUSH1 0x20 ADD SWAP1 DUP2 MSTORE PUSH1 0x20 ADD PUSH0 KECCAK256 PUSH0 ADD SLOAD GT PUSH2 0xB35 JUMPI PUSH1 0x40 MLOAD PUSH32 0x8C379A000000000000000000000000000000000000000000000000000000000 DUP2 MSTORE PUSH1 0x4 ADD PUSH2 0xB2C SWAP1 PUSH2 0x227B JUMP JUMPDEST PUSH1 0x40 MLOAD DUP1 SWAP2 SUB SWAP1 REVERT JUMPDEST PUSH0 PUSH1 0xA PUSH0 CALLER PUSH20 0xFFFFFFFFFFFFFFFFFFFFFFFFFFFFFFFFFFFFFFFF AND PUSH20 0xFFFFFFFFFFFFFFFFFFFFFFFFFFFFFFFFFFFFFFFF AND DUP2 MSTORE PUSH1 0x20 ADD SWAP1 DUP2 MSTORE PUSH1 0x20 ADD PUSH0 KECCAK256 PUSH0 ADD SLOAD SWAP1 POP PUSH0 PUSH1 0xA PUSH0 CALLER PUSH20 0xFFFFFFFFFFFFFFFFFFFFFFFFFFFFFFFFFFFFFFFF AND PUSH20 0xFFFFFFFFFFFFFFFFFFFFFFFFFFFFFFFFFFFFFFFF AND DUP2 MSTORE PUSH1 0x20 ADD SWAP1 DUP2 MSTORE PUSH1 0x20 ADD PUSH0 KECCAK256 PUSH0 ADD DUP2 SWAP1 SSTORE POP PUSH0 CALLER PUSH20 0xFFFFFFFFFFFFFFFFFFFFFFFFFFFFFFFFFFFFFFFF AND DUP3 PUSH2 0x2710 SWAP1 PUSH1 0x40 MLOAD PUSH2 0xBE5 SWAP1 PUSH2 0x22C6 JUMP JUMPDEST PUSH0 PUSH1 0x40 MLOAD DUP1 DUP4 SUB DUP2 DUP6 DUP9 DUP9 CALL SWAP4 POP POP POP POP RETURNDATASIZE DUP1 PUSH0 DUP2 EQ PUSH2 0xC20 JUMPI PUSH1 0x40 MLOAD SWAP2 POP PUSH1 0x1F NOT PUSH1 0x3F RETURNDATASIZE ADD AND DUP3 ADD PUSH1 0x40 MSTORE RETURNDATASIZE DUP3 MSTORE RETURNDATASIZE PUSH0 PUSH1 0x20 DUP5 ADD RETURNDATACOPY PUSH2 0xC25 JUMP JUMPDEST PUSH1 0x60 SWAP2 POP JUMPDEST POP POP SWAP1 POP DUP1 PUSH2 0xCAD JUMPI DUP2 PUSH1 0xA PUSH0 CALLER PUSH20 0xFFFFFFFFFFFFFFFFFFFFFFFFFFFFFFFFFFFFFFFF AND PUSH20 0xFFFFFFFFFFFFFFFFFFFFFFFFFFFFFFFFFFFFFFFF AND DUP2 MSTORE PUSH1 0x20 ADD SWAP1 DUP2 MSTORE PUSH1 0x20 ADD PUSH0 KECCAK256 PUSH0 ADD DUP2 SWAP1 SSTORE POP PUSH1 0x40 MLOAD PUSH32 0x8C379A000000000000000000000000000000000000000000000000000000000 DUP2 MSTORE PUSH1 0x4 ADD PUSH2 0xCA4 SWAP1 PUSH2 0x2324 JUMP JUMPDEST PUSH1 0x40 MLOAD DUP1 SWAP2 SUB SWAP1 REVERT JUMPDEST PUSH32 0x1A7EFAB681EA302614D1EE06D09053B2EB69CE20A9851858FF847D4D42D3EE0 CALLER DUP4 TIMESTAMP PUSH1 0x40 MLOAD PUSH2 0xCE0 SWAP4 SWAP3 SWAP2 SWAP1 PUSH2 0x238C JUMP JUMPDEST PUSH1 0x40 MLOAD DUP1 SWAP2 SUB SWAP1 LOG1 POP POP PUSH0 PUSH1 0x6 PUSH0 PUSH2 0x100 EXP DUP2 SLOAD DUP2 PUSH1 0xFF MUL NOT AND SWAP1 DUP4 ISZERO ISZERO MUL OR SWAP1 SSTORE POP JUMP JUMPDEST PUSH0 CALLER PUSH20 0xFFFFFFFFFFFFFFFFFFFFFFFFFFFFFFFFFFFFFFFF AND PUSH1 0x2 PUSH0 SWAP1 SLOAD SWAP1 PUSH2 0x100 EXP SWAP1 DIV PUSH20 0xFFFFFFFFFFFFFFFFFFFFFFFFFFFFFFFFFFFFFFFF AND PUSH20 0xFFFFFFFFFFFFFFFFFFFFFFFFFFFFFFFFFFFFFFFF AND EQ PUSH2 0xD95 JUMPI PUSH1 0x40 MLOAD PUSH32 0x8C379A000000000000000000000000000000000000000000000000000000000 DUP2 MSTORE PUSH1 0x4 ADD PUSH2 0xD8C SWAP1 PUSH2 0x20A7 JUMP JUMPDEST PUSH1 0x40 MLOAD DUP1 SWAP2 SUB SWAP1 REVERT JUMPDEST SELFBALANCE SWAP1 POP SWAP1 JUMP JUMPDEST PUSH1 0x1 DUP1 SLOAD PUSH2 0xDA8 SWAP1 PUSH2 0x1EA7 JUMP JUMPDEST DUP1 PUSH1 0x1F ADD PUSH1 0x20 DUP1 SWAP2 DIV MUL PUSH1 0x20 ADD PUSH1 0x40 MLOAD SWAP1 DUP2 ADD PUSH1 0x40 MSTORE DUP1 SWAP3 SWAP2 SWAP1 DUP2 DUP2 MSTORE PUSH1 0x20 ADD DUP3 DUP1 SLOAD PUSH2 0xDD4 SWAP1 PUSH2 0x1EA7 JUMP JUMPDEST DUP1 ISZERO PUSH2 0xE1F JUMPI DUP1 PUSH1 0x1F LT PUSH2 0xDF6 JUMPI PUSH2 0x100 DUP1 DUP4 SLOAD DIV MUL DUP4 MSTORE SWAP2 PUSH1 0x20 ADD SWAP2 PUSH2 0xE1F JUMP JUMPDEST DUP3 ADD SWAP2 SWAP1 PUSH0 MSTORE PUSH1 0x20 PUSH0 KECCAK256 SWAP1 JUMPDEST DUP2 SLOAD DUP2 MSTORE SWAP1 PUSH1 0x1 ADD SWAP1 PUSH1 0x20 ADD DUP1 DUP4 GT PUSH2 0xE02 JUMPI DUP3 SWAP1 SUB PUSH1 0x1F AND DUP3 ADD SWAP2 JUMPDEST POP POP POP POP POP DUP2 JUMP JUMPDEST CALLER PUSH20 0xFFFFFFFFFFFFFFFFFFFFFFFFFFFFFFFFFFFFFFFF AND PUSH1 0x2 PUSH0 SWAP1 SLOAD SWAP1 PUSH2 0x100 EXP SWAP1 DIV PUSH20 0xFFFFFFFFFFFFFFFFFFFFFFFFFFFFFFFFFFFFFFFF AND PUSH20 0xFFFFFFFFFFFFFFFFFFFFFFFFFFFFFFFFFFFFFFFF AND EQ PUSH2 0xEB6 JUMPI PUSH1 0x40 MLOAD PUSH32 0x8C379A000000000000000000000000000000000000000000000000000000000 DUP2 MSTORE PUSH1 0x4 ADD PUSH2 0xEAD SWAP1 PUSH2 0x20A7 JUMP JUMPDEST PUSH1 0x40 MLOAD DUP1 SWAP2 SUB SWAP1 REVERT JUMPDEST PUSH1 0x1 PUSH1 0x5 DUP2 GT ISZERO PUSH2 0xECA JUMPI PUSH2 0xEC9 PUSH2 0x1AAC JUMP JUMPDEST JUMPDEST PUSH1 0x9 PUSH0 SWAP1 SLOAD SWAP1 PUSH2 0x100 EXP SWAP1 DIV PUSH1 0xFF AND PUSH1 0x5 DUP2 GT ISZERO PUSH2 0xEEB JUMPI PUSH2 0xEEA PUSH2 0x1AAC JUMP JUMPDEST JUMPDEST EQ PUSH2 0xF2B JUMPI PUSH1 0x40 MLOAD PUSH32 0x8C379A000000000000000000000000000000000000000000000000000000000 DUP2 MSTORE PUSH1 0x4 ADD PUSH2 0xF22 SWAP1 PUSH2 0x1B33 JUMP JUMPDEST PUSH1 0x40 MLOAD DUP1 SWAP2 SUB SWAP1 REVERT JUMPDEST PUSH1 0x6 PUSH0 SWAP1 SLOAD SWAP1 PUSH2 0x100 EXP SWAP1 DIV PUSH1 0xFF AND ISZERO PUSH2 0xF7A JUMPI PUSH1 0x40 MLOAD PUSH32 0x8C379A000000000000000000000000000000000000000000000000000000000 DUP2 MSTORE PUSH1 0x4 ADD PUSH2 0xF71 SWAP1 PUSH2 0x2185 JUMP JUMPDEST PUSH1 0x40 MLOAD DUP1 SWAP2 SUB SWAP1 REVERT JUMPDEST PUSH1 0x1 PUSH1 0x6 PUSH0 PUSH2 0x100 EXP DUP2 SLOAD DUP2 PUSH1 0xFF MUL NOT AND SWAP1 DUP4 ISZERO ISZERO MUL OR SWAP1 SSTORE POP PUSH1 0x3 SLOAD SELFBALANCE LT ISZERO PUSH2 0xFD9 JUMPI PUSH1 0x40 MLOAD PUSH32 0x8C379A000000000000000000000000000000000000000000000000000000000 DUP2 MSTORE PUSH1 0x4 ADD PUSH2 0xFD0 SWAP1 PUSH2 0x241E JUMP JUMPDEST PUSH1 0x40 MLOAD DUP1 SWAP2 SUB SWAP1 REVERT JUMPDEST PUSH1 0x3 PUSH1 0x9 PUSH0 PUSH2 0x100 EXP DUP2 SLOAD DUP2 PUSH1 0xFF MUL NOT AND SWAP1 DUP4 PUSH1 0x5 DUP2 GT ISZERO PUSH2 0xFFE JUMPI PUSH2 0xFFD PUSH2 0x1AAC JUMP JUMPDEST JUMPDEST MUL OR SWAP1 SSTORE POP PUSH0 SELFBALANCE SWAP1 POP PUSH0 PUSH1 0x64 PUSH1 0x5 SLOAD DUP4 PUSH2 0x1018 SWAP2 SWAP1 PUSH2 0x243C JUMP JUMPDEST PUSH2 0x1022 SWAP2 SWAP1 PUSH2 0x24AA JUMP JUMPDEST SWAP1 POP PUSH0 DUP2 DUP4 PUSH2 0x1031 SWAP2 SWAP1 PUSH2 0x24DA JUMP JUMPDEST SWAP1 POP PUSH0 PUSH1 0x2 PUSH0 SWAP1 SLOAD SWAP1 PUSH2 0x100 EXP SWAP1 DIV PUSH20 0xFFFFFFFFFFFFFFFFFFFFFFFFFFFFFFFFFFFFFFFF AND PUSH20 0xFFFFFFFFFFFFFFFFFFFFFFFFFFFFFFFFFFFFFFFF AND DUP4 PUSH2 0x2710 SWAP1 PUSH1 0x40 MLOAD PUSH2 0x107D SWAP1 PUSH2 0x22C6 JUMP JUMPDEST PUSH0 PUSH1 0x40 MLOAD DUP1 DUP4 SUB DUP2 DUP6 DUP9 DUP9 CALL SWAP4 POP POP POP POP RETURNDATASIZE DUP1 PUSH0 DUP2 EQ PUSH2 0x10B8 JUMPI PUSH1 0x40 MLOAD SWAP2 POP PUSH1 0x1F NOT PUSH1 0x3F RETURNDATASIZE ADD AND DUP3 ADD PUSH1 0x40 MSTORE RETURNDATASIZE DUP3 MSTORE RETURNDATASIZE PUSH0 PUSH1 0x20 DUP5 ADD RETURNDATACOPY PUSH2 0x10BD JUMP JUMPDEST PUSH1 0x60 SWAP2 POP JUMPDEST POP POP SWAP1 POP DUP1 PUSH2 0x1101 JUMPI PUSH1 0x40 MLOAD PUSH32 0x8C379A000000000000000000000000000000000000000000000000000000000 DUP2 MSTORE PUSH1 0x4 ADD PUSH2 0x10F8 SWAP1 PUSH2 0x2324 JUMP JUMPDEST PUSH1 0x40 MLOAD DUP1 SWAP2 SUB SWAP1 REVERT JUMPDEST PUSH0 PUSH1 0x6 PUSH1 0x1 SWAP1 SLOAD SWAP1 PUSH2 0x100 EXP SWAP1 DIV PUSH20 0xFFFFFFFFFFFFFFFFFFFFFFFFFFFFFFFFFFFFFFFF AND PUSH20 0xFFFFFFFFFFFFFFFFFFFFFFFFFFFFFFFFFFFFFFFF AND DUP4 PUSH2 0x2710 SWAP1 PUSH1 0x40 MLOAD PUSH2 0x114C SWAP1 PUSH2 0x22C6 JUMP JUMPDEST PUSH0 PUSH1 0x40 MLOAD DUP1 DUP4 SUB DUP2 DUP6 DUP9 DUP9 CALL SWAP4 POP POP POP POP RETURNDATASIZE DUP1 PUSH0 DUP2 EQ PUSH2 0x1187 JUMPI PUSH1 0x40 MLOAD SWAP2 POP PUSH1 0x1F NOT PUSH1 0x3F RETURNDATASIZE ADD AND DUP3 ADD PUSH1 0x40 MSTORE RETURNDATASIZE DUP3 MSTORE RETURNDATASIZE PUSH0 PUSH1 0x20 DUP5 ADD RETURNDATACOPY PUSH2 0x118C JUMP JUMPDEST PUSH1 0x60 SWAP2 POP JUMPDEST POP POP SWAP1 POP DUP1 PUSH2 0x11D0 JUMPI PUSH1 0x40 MLOAD PUSH32 0x8C379A000000000000000000000000000000000000000000000000000000000 DUP2 MSTORE PUSH1 0x4 ADD PUSH2 0x11C7 SWAP1 PUSH2 0x2324 JUMP JUMPDEST PUSH1 0x40 MLOAD DUP1 SWAP2 SUB SWAP1 REVERT JUMPDEST PUSH1 0x6 PUSH1 0x1 SWAP1 SLOAD SWAP1 PUSH2 0x100 EXP SWAP1 DIV PUSH20 0xFFFFFFFFFFFFFFFFFFFFFFFFFFFFFFFFFFFFFFFF AND PUSH20 0xFFFFFFFFFFFFFFFFFFFFFFFFFFFFFFFFFFFFFFFF AND PUSH32 0x7EDCC4EB74BC40A75C2D16F7DFA8F8C1191BEED4DB1D54D5552C4021CCA4EAF8 SELFBALANCE PUSH1 0x8 SLOAD TIMESTAMP PUSH1 0x40 MLOAD PUSH2 0x123E SWAP4 SWAP3 SWAP2 SWAP1 PUSH2 0x2557 JUMP JUMPDEST PUSH1 0x40 MLOAD DUP1 SWAP2 SUB SWAP1 LOG2 PUSH1 0x5 PUSH1 0x9 PUSH0 PUSH2 0x100 EXP DUP2 SLOAD DUP2 PUSH1 0xFF MUL NOT AND SWAP1 DUP4 PUSH1 0x5 DUP2 GT ISZERO PUSH2 0x126B JUMPI PUSH2 0x126A PUSH2 0x1AAC JUMP JUMPDEST JUMPDEST MUL OR SWAP1 SSTORE POP POP POP POP POP POP PUSH0 PUSH1 0x6 PUSH0 PUSH2 0x100 EXP DUP2 SLOAD DUP2 PUSH1 0xFF MUL NOT AND SWAP1 DUP4 ISZERO ISZERO MUL OR SWAP1 SSTORE POP JUMP JUMPDEST PUSH1 0x2 PUSH0 SWAP1 SLOAD SWAP1 PUSH2 0x100 EXP SWAP1 DIV PUSH20 0xFFFFFFFFFFFFFFFFFFFFFFFFFFFFFFFFFFFFFFFF AND DUP2 JUMP JUMPDEST PUSH1 0x5 SLOAD DUP2 JUMP JUMPDEST CALLER PUSH20 0xFFFFFFFFFFFFFFFFFFFFFFFFFFFFFFFFFFFFFFFF AND PUSH1 0x2 PUSH0 SWAP1 SLOAD SWAP1 PUSH2 0x100 EXP SWAP1 DIV PUSH20 0xFFFFFFFFFFFFFFFFFFFFFFFFFFFFFFFFFFFFFFFF AND PUSH20 0xFFFFFFFFFFFFFFFFFFFFFFFFFFFFFFFFFFFFFFFF AND EQ PUSH2 0x134A JUMPI PUSH1 0x40 MLOAD PUSH32 0x8C379A000000000000000000000000000000000000000000000000000000000 DUP2 MSTORE PUSH1 0x4 ADD PUSH2 0x1341 SWAP1 PUSH2 0x20A7 JUMP JUMPDEST PUSH1 0x40 MLOAD DUP1 SWAP2 SUB SWAP1 REVERT JUMPDEST PUSH1 0x1 PUSH1 0x5 DUP2 GT ISZERO PUSH2 0x135E JUMPI PUSH2 0x135D PUSH2 0x1AAC JUMP JUMPDEST JUMPDEST PUSH1 0x9 PUSH0 SWAP1 SLOAD SWAP1 PUSH2 0x100 EXP SWAP1 DIV PUSH1 0xFF AND PUSH1 0x5 DUP2 GT ISZERO PUSH2 0x137F JUMPI PUSH2 0x137E PUSH2 0x1AAC JUMP JUMPDEST JUMPDEST EQ PUSH2 0x13BF JUMPI PUSH1 0x40 MLOAD PUSH32 0x8C379A000000000000000000000000000000000000000000000000000000000 DUP2 MSTORE PUSH1 0x4 ADD PUSH2 0x13B6 SWAP1 PUSH2 0x1B33 JUMP JUMPDEST PUSH1 0x40 MLOAD DUP1 SWAP2 SUB SWAP1 REVERT JUMPDEST PUSH2 0x13C7 PUSH2 0x19C5 JUMP JUMPDEST PUSH1 0x3 PUSH1 0x5 DUP2 GT ISZERO PUSH2 0x13DB JUMPI PUSH2 0x13DA PUSH2 0x1AAC JUMP JUMPDEST JUMPDEST PUSH1 0x9 PUSH0 SWAP1 SLOAD SWAP1 PUSH2 0x100 EXP SWAP1 DIV PUSH1 0xFF AND PUSH1 0x5 DUP2 GT ISZERO PUSH2 0x13FC JUMPI PUSH2 0x13FB PUSH2 0x1AAC JUMP JUMPDEST JUMPDEST EQ PUSH2 0x1463 JUMPI PUSH1 0x4 PUSH1 0x9 PUSH0 PUSH2 0x100 EXP DUP2 SLOAD DUP2 PUSH1 0xFF MUL NOT AND SWAP1 DUP4 PUSH1 0x5 DUP2 GT ISZERO PUSH2 0x1426 JUMPI PUSH2 0x1425 PUSH2 0x1AAC JUMP JUMPDEST JUMPDEST MUL OR SWAP1 SSTORE POP PUSH32 0x531D9ED07FC41C774A20A0C80BFC1E3D4A1D5D5F028915424BFB538E9761AB50 TIMESTAMP PUSH1 0x40 MLOAD PUSH2 0x145A SWAP2 SWAP1 PUSH2 0x25E9 JUMP JUMPDEST PUSH1 0x40 MLOAD DUP1 SWAP2 SUB SWAP1 LOG1 JUMPDEST JUMP JUMPDEST CALLER PUSH20 0xFFFFFFFFFFFFFFFFFFFFFFFFFFFFFFFFFFFFFFFF AND PUSH1 0x2 PUSH0 SWAP1 SLOAD SWAP1 PUSH2 0x100 EXP SWAP1 DIV PUSH20 0xFFFFFFFFFFFFFFFFFFFFFFFFFFFFFFFFFFFFFFFF AND PUSH20 0xFFFFFFFFFFFFFFFFFFFFFFFFFFFFFFFFFFFFFFFF AND EQ PUSH2 0x14F4 JUMPI PUSH1 0x40 MLOAD PUSH32 0x8C379A000000000000000000000000000000000000000000000000000000000 DUP2 MSTORE PUSH1 0x4 ADD PUSH2 0x14EB SWAP1 PUSH2 0x20A7 JUMP JUMPDEST PUSH1 0x40 MLOAD DUP1 SWAP2 SUB SWAP1 REVERT JUMPDEST PUSH0 PUSH20 0xFFFFFFFFFFFFFFFFFFFFFFFFFFFFFFFFFFFFFFFF AND DUP2 PUSH20 0xFFFFFFFFFFFFFFFFFFFFFFFFFFFFFFFFFFFFFFFF AND SUB PUSH2 0x1562 JUMPI PUSH1 0x40 MLOAD PUSH32 0x8C379A000000000000000000000000000000000000000000000000000000000 DUP2 MSTORE PUSH1 0x4 ADD PUSH2 0x1559 SWAP1 PUSH2 0x265F JUMP JUMPDEST PUSH1 0x40 MLOAD DUP1 SWAP2 SUB SWAP1 REVERT JUMPDEST DUP1 PUSH1 0x2 PUSH0 PUSH2 0x100 EXP DUP2 SLOAD DUP2 PUSH20 0xFFFFFFFFFFFFFFFFFFFFFFFFFFFFFFFFFFFFFFFF MUL NOT AND SWAP1 DUP4 PUSH20 0xFFFFFFFFFFFFFFFFFFFFFFFFFFFFFFFFFFFFFFFF AND MUL OR SWAP1 SSTORE POP PUSH32 0xAE9D288F06C8E7B741F4A9AD5F43155EA325688E0CD2A76D1D8474CEB0C726AA PUSH1 0x2 PUSH0 SWAP1 SLOAD SWAP1 PUSH2 0x100 EXP SWAP1 DIV PUSH20 0xFFFFFFFFFFFFFFFFFFFFFFFFFFFFFFFFFFFFFFFF AND DUP3 TIMESTAMP PUSH1 0x40 MLOAD PUSH2 0x15F6 SWAP4 SWAP3 SWAP2 SWAP1 PUSH2 0x26C7 JUMP JUMPDEST PUSH1 0x40 MLOAD DUP1 SWAP2 SUB SWAP1 LOG1 POP JUMP JUMPDEST PUSH1 0x4 SLOAD DUP2 JUMP JUMPDEST CALLER PUSH20 0xFFFFFFFFFFFFFFFFFFFFFFFFFFFFFFFFFFFFFFFF AND PUSH1 0x2 PUSH0 SWAP1 SLOAD SWAP1 PUSH2 0x100 EXP SWAP1 DIV PUSH20 0xFFFFFFFFFFFFFFFFFFFFFFFFFFFFFFFFFFFFFFFF AND PUSH20 0xFFFFFFFFFFFFFFFFFFFFFFFFFFFFFFFFFFFFFFFF AND EQ PUSH2 0x1696 JUMPI PUSH1 0x40 MLOAD PUSH32 0x8C379A000000000000000000000000000000000000000000000000000000000 DUP2 MSTORE PUSH1 0x4 ADD PUSH2 0x168D SWAP1 PUSH2 0x20A7 JUMP JUMPDEST PUSH1 0x40 MLOAD DUP1 SWAP2 SUB SWAP1 REVERT JUMPDEST PUSH0 PUSH1 0x5 DUP2 GT ISZERO PUSH2 0x16A9 JUMPI PUSH2 0x16A8 PUSH2 0x1AAC JUMP JUMPDEST JUMPDEST PUSH1 0x9 PUSH0 SWAP1 SLOAD SWAP1 PUSH2 0x100 EXP SWAP1 DIV PUSH1 0xFF AND PUSH1 0x5 DUP2 GT ISZERO PUSH2 0x16CA JUMPI PUSH2 0x16C9 PUSH2 0x1AAC JUMP JUMPDEST JUMPDEST EQ DUP1 PUSH2 0x1708 JUMPI POP PUSH1 0x3 PUSH1 0x5 DUP2 GT ISZERO PUSH2 0x16E5 JUMPI PUSH2 0x16E4 PUSH2 0x1AAC JUMP JUMPDEST JUMPDEST PUSH1 0x9 PUSH0 SWAP1 SLOAD SWAP1 PUSH2 0x100 EXP SWAP1 DIV PUSH1 0xFF AND PUSH1 0x5 DUP2 GT ISZERO PUSH2 0x1706 JUMPI PUSH2 0x1705 PUSH2 0x1AAC JUMP JUMPDEST JUMPDEST EQ JUMPDEST PUSH2 0x1747 JUMPI PUSH1 0x40 MLOAD PUSH32 0x8C379A000000000000000000000000000000000000000000000000000000000 DUP2 MSTORE PUSH1 0x4 ADD PUSH2 0x173E SWAP1 PUSH2 0x2759 JUMP JUMPDEST PUSH1 0x40 MLOAD DUP1 SWAP2 SUB SWAP1 REVERT JUMPDEST PUSH0 SELFBALANCE EQ PUSH2 0x1789 JUMPI PUSH1 0x40 MLOAD PUSH32 0x8C379A000000000000000000000000000000000000000000000000000000000 DUP2 MSTORE PUSH1 0x4 ADD PUSH2 0x1780 SWAP1 PUSH2 0x27C1 JUMP JUMPDEST PUSH1 0x40 MLOAD DUP1 SWAP2 SUB SWAP1 REVERT JUMPDEST PUSH1 0x1 PUSH1 0x9 PUSH0 PUSH2 0x100 EXP DUP2 SLOAD DUP2 PUSH1 0xFF MUL NOT AND SWAP1 DUP4 PUSH1 0x5 DUP2 GT ISZERO PUSH2 0x17AE JUMPI PUSH2 0x17AD PUSH2 0x1AAC JUMP JUMPDEST JUMPDEST MUL OR SWAP1 SSTORE POP PUSH32 0x420C0B3991B6DE993DA00ACEFC7FB12BEF31604D94CAB8BF2A6E104E273CBF1F PUSH1 0x3 SLOAD TIMESTAMP PUSH1 0x40 MLOAD PUSH2 0x17E6 SWAP3 SWAP2 SWAP1 PUSH2 0x2829 JUMP JUMPDEST PUSH1 0x40 MLOAD DUP1 SWAP2 SUB SWAP1 LOG1 JUMP JUMPDEST PUSH0 PUSH1 0xA PUSH0 CALLER PUSH20 0xFFFFFFFFFFFFFFFFFFFFFFFFFFFFFFFFFFFFFFFF AND PUSH20 0xFFFFFFFFFFFFFFFFFFFFFFFFFFFFFFFFFFFFFFFF AND DUP2 MSTORE PUSH1 0x20 ADD SWAP1 DUP2 MSTORE PUSH1 0x20 ADD PUSH0 KECCAK256 PUSH0 ADD SLOAD SWAP1 POP SWAP1 JUMP JUMPDEST CALLER PUSH20 0xFFFFFFFFFFFFFFFFFFFFFFFFFFFFFFFFFFFFFFFF AND PUSH1 0x2 PUSH0 SWAP1 SLOAD SWAP1 PUSH2 0x100 EXP SWAP1 DIV PUSH20 0xFFFFFFFFFFFFFFFFFFFFFFFFFFFFFFFFFFFFFFFF AND PUSH20 0xFFFFFFFFFFFFFFFFFFFFFFFFFFFFFFFFFFFFFFFF AND EQ PUSH2 0x18C5 JUMPI PUSH1 0x40 MLOAD PUSH32 0x8C379A000000000000000000000000000000000000000000000000000000000 DUP2 MSTORE PUSH1 0x4 ADD PUSH2 0x18BC SWAP1 PUSH2 0x20A7 JUMP JUMPDEST PUSH1 0x40 MLOAD DUP1 SWAP2 SUB SWAP1 REVERT JUMPDEST PUSH1 0x2 PUSH1 0x5 DUP2 GT ISZERO PUSH2 0x18D9 JUMPI PUSH2 0x18D8 PUSH2 0x1AAC JUMP JUMPDEST JUMPDEST PUSH1 0x9 PUSH0 SWAP1 SLOAD SWAP1 PUSH2 0x100 EXP SWAP1 DIV PUSH1 0xFF AND PUSH1 0x5 DUP2 GT ISZERO PUSH2 0x18FA JUMPI PUSH2 0x18F9 PUSH2 0x1AAC JUMP JUMPDEST JUMPDEST EQ PUSH2 0x193A JUMPI PUSH1 0x40 MLOAD PUSH32 0x8C379A000000000000000000000000000000000000000000000000000000000 DUP2 MSTORE PUSH1 0x4 ADD PUSH2 0x1931 SWAP1 PUSH2 0x28AD JUMP JUMPDEST PUSH1 0x40 MLOAD DUP1 SWAP2 SUB SWAP1 REVERT JUMPDEST PUSH1 0x1 PUSH1 0x9 PUSH0 PUSH2 0x100 EXP DUP2 SLOAD DUP2 PUSH1 0xFF MUL NOT AND SWAP1 DUP4 PUSH1 0x5 DUP2 GT ISZERO PUSH2 0x195F JUMPI PUSH2 0x195E PUSH2 0x1AAC JUMP JUMPDEST JUMPDEST MUL OR SWAP1 SSTORE POP PUSH32 0x6B8BE408DC299319E92648F903A6EB02A11EED17A1F419CCD4EDF8F46E8DAAA2 TIMESTAMP PUSH1 0x40 MLOAD PUSH2 0x1993 SWAP2 SWAP1 PUSH2 0x2915 JUMP JUMPDEST PUSH1 0x40 MLOAD DUP1 SWAP2 SUB SWAP1 LOG1 PUSH2 0x19A3 PUSH2 0x19C5 JUMP JUMPDEST JUMP JUMPDEST PUSH1 0xA PUSH1 0x20 MSTORE DUP1 PUSH0 MSTORE PUSH1 0x40 PUSH0 KECCAK256 PUSH0 SWAP2 POP SWAP1 POP DUP1 PUSH0 ADD SLOAD SWAP1 DUP1 PUSH1 0x1 ADD SLOAD SWAP1 POP DUP3 JUMP JUMPDEST PUSH1 0x1 PUSH1 0x5 DUP2 GT ISZERO PUSH2 0x19D9 JUMPI PUSH2 0x19D8 PUSH2 0x1AAC JUMP JUMPDEST JUMPDEST PUSH1 0x9 PUSH0 SWAP1 SLOAD SWAP1 PUSH2 0x100 EXP SWAP1 DIV PUSH1 0xFF AND PUSH1 0x5 DUP2 GT ISZERO PUSH2 0x19FA JUMPI PUSH2 0x19F9 PUSH2 0x1AAC JUMP JUMPDEST JUMPDEST SUB PUSH2 0x1AAA JUMPI PUSH1 0x4 SLOAD TIMESTAMP LT PUSH2 0x1AA9 JUMPI PUSH1 0x3 PUSH1 0x9 PUSH0 PUSH2 0x100 EXP DUP2 SLOAD DUP2 PUSH1 0xFF MUL NOT AND SWAP1 DUP4 PUSH1 0x5 DUP2 GT ISZERO PUSH2 0x1A2D JUMPI PUSH2 0x1A2C PUSH2 0x1AAC JUMP JUMPDEST JUMPDEST MUL OR SWAP1 SSTORE POP PUSH1 0x6 PUSH1 0x1 SWAP1 SLOAD SWAP1 PUSH2 0x100 EXP SWAP1 DIV PUSH20 0xFFFFFFFFFFFFFFFFFFFFFFFFFFFFFFFFFFFFFFFF AND PUSH20 0xFFFFFFFFFFFFFFFFFFFFFFFFFFFFFFFFFFFFFFFF AND PUSH32 0x7EDCC4EB74BC40A75C2D16F7DFA8F8C1191BEED4DB1D54D5552C4021CCA4EAF8 SELFBALANCE PUSH1 0x8 SLOAD TIMESTAMP PUSH1 0x40 MLOAD PUSH2 0x1AA0 SWAP4 SWAP3 SWAP2 SWAP1 PUSH2 0x298B JUMP JUMPDEST PUSH1 0x40 MLOAD DUP1 SWAP2 SUB SWAP1 LOG2 JUMPDEST JUMPDEST JUMP JUMPDEST PUSH32 0x4E487B7100000000000000000000000000000000000000000000000000000000 PUSH0 MSTORE PUSH1 0x21 PUSH1 0x4 MSTORE PUSH1 0x24 PUSH0 REVERT JUMPDEST PUSH0 DUP3 DUP3 MSTORE PUSH1 0x20 DUP3 ADD SWAP1 POP SWAP3 SWAP2 POP POP JUMP JUMPDEST PUSH32 0x47616D65206973206E6F74206163746976652E00000000000000000000000000 PUSH0 DUP3 ADD MSTORE POP JUMP JUMPDEST PUSH0 PUSH2 0x1B1D PUSH1 0x13 DUP4 PUSH2 0x1AD9 JUMP JUMPDEST SWAP2 POP PUSH2 0x1B28 DUP3 PUSH2 0x1AE9 JUMP JUMPDEST PUSH1 0x20 DUP3 ADD SWAP1 POP SWAP2 SWAP1 POP JUMP JUMPDEST PUSH0 PUSH1 0x20 DUP3 ADD SWAP1 POP DUP2 DUP2 SUB PUSH0 DUP4 ADD MSTORE PUSH2 0x1B4A DUP2 PUSH2 0x1B11 JUMP JUMPDEST SWAP1 POP SWAP2 SWAP1 POP JUMP JUMPDEST PUSH32 0x446561646C696E65206973206F7665722E000000000000000000000000000000 PUSH0 DUP3 ADD MSTORE POP JUMP JUMPDEST PUSH0 PUSH2 0x1B85 PUSH1 0x11 DUP4 PUSH2 0x1AD9 JUMP JUMPDEST SWAP2 POP PUSH2 0x1B90 DUP3 PUSH2 0x1B51 JUMP JUMPDEST PUSH1 0x20 DUP3 ADD SWAP1 POP SWAP2 SWAP1 POP JUMP JUMPDEST PUSH0 PUSH1 0x20 DUP3 ADD SWAP1 POP DUP2 DUP2 SUB PUSH0 DUP4 ADD MSTORE PUSH2 0x1BB2 DUP2 PUSH2 0x1B79 JUMP JUMPDEST SWAP1 POP SWAP2 SWAP1 POP JUMP JUMPDEST PUSH32 0x455448207265636569766564207669612066616C6C6261636B00000000000000 PUSH0 DUP3 ADD MSTORE POP JUMP JUMPDEST PUSH0 PUSH2 0x1BED PUSH1 0x19 DUP4 PUSH2 0x1AD9 JUMP JUMPDEST SWAP2 POP PUSH2 0x1BF8 DUP3 PUSH2 0x1BB9 JUMP JUMPDEST PUSH1 0x20 DUP3 ADD SWAP1 POP SWAP2 SWAP1 POP JUMP JUMPDEST PUSH0 PUSH20 0xFFFFFFFFFFFFFFFFFFFFFFFFFFFFFFFFFFFFFFFF DUP3 AND SWAP1 POP SWAP2 SWAP1 POP JUMP JUMPDEST PUSH0 PUSH2 0x1C2C DUP3 PUSH2 0x1C03 JUMP JUMPDEST SWAP1 POP SWAP2 SWAP1 POP JUMP JUMPDEST PUSH2 0x1C3C DUP2 PUSH2 0x1C22 JUMP JUMPDEST DUP3 MSTORE POP POP JUMP JUMPDEST PUSH0 DUP2 SWAP1 POP SWAP2 SWAP1 POP JUMP JUMPDEST PUSH2 0x1C54 DUP2 PUSH2 0x1C42 JUMP JUMPDEST DUP3 MSTORE POP POP JUMP JUMPDEST PUSH0 PUSH1 0x60 DUP3 ADD SWAP1 POP DUP2 DUP2 SUB PUSH0 DUP4 ADD MSTORE PUSH2 0x1C71 DUP2 PUSH2 0x1BE1 JUMP JUMPDEST SWAP1 POP PUSH2 0x1C80 PUSH1 0x20 DUP4 ADD DUP6 PUSH2 0x1C33 JUMP JUMPDEST PUSH2 0x1C8D PUSH1 0x40 DUP4 ADD DUP5 PUSH2 0x1C4B JUMP JUMPDEST SWAP4 SWAP3 POP POP POP JUMP JUMPDEST PUSH0 DUP2 MLOAD SWAP1 POP SWAP2 SWAP1 POP JUMP JUMPDEST DUP3 DUP2 DUP4 MCOPY PUSH0 DUP4 DUP4 ADD MSTORE POP POP POP JUMP JUMPDEST PUSH0 PUSH1 0x1F NOT PUSH1 0x1F DUP4 ADD AND SWAP1 POP SWAP2 SWAP1 POP JUMP JUMPDEST PUSH0 PUSH2 0x1CC6 DUP3 PUSH2 0x1C94 JUMP JUMPDEST PUSH2 0x1CD0 DUP2 DUP6 PUSH2 0x1AD9 JUMP JUMPDEST SWAP4 POP PUSH2 0x1CE0 DUP2 DUP6 PUSH1 0x20 DUP7 ADD PUSH2 0x1C9E JUMP JUMPDEST PUSH2 0x1CE9 DUP2 PUSH2 0x1CAC JUMP JUMPDEST DUP5 ADD SWAP2 POP POP SWAP3 SWAP2 POP POP JUMP JUMPDEST PUSH0 PUSH1 0x20 DUP3 ADD SWAP1 POP DUP2 DUP2 SUB PUSH0 DUP4 ADD MSTORE PUSH2 0x1D0C DUP2 DUP5 PUSH2 0x1CBC JUMP JUMPDEST SWAP1 POP SWAP3 SWAP2 POP POP JUMP JUMPDEST PUSH0 PUSH0 REVERT JUMPDEST PUSH2 0x1D21 DUP2 PUSH2 0x1C42 JUMP JUMPDEST DUP2 EQ PUSH2 0x1D2B JUMPI PUSH0 PUSH0 REVERT JUMPDEST POP JUMP JUMPDEST PUSH0 DUP2 CALLDATALOAD SWAP1 POP PUSH2 0x1D3C DUP2 PUSH2 0x1D18 JUMP JUMPDEST SWAP3 SWAP2 POP POP JUMP JUMPDEST PUSH0 PUSH1 0x20 DUP3 DUP5 SUB SLT ISZERO PUSH2 0x1D57 JUMPI PUSH2 0x1D56 PUSH2 0x1D14 JUMP JUMPDEST JUMPDEST PUSH0 PUSH2 0x1D64 DUP5 DUP3 DUP6 ADD PUSH2 0x1D2E JUMP JUMPDEST SWAP2 POP POP SWAP3 SWAP2 POP POP JUMP JUMPDEST PUSH0 PUSH1 0x20 DUP3 ADD SWAP1 POP PUSH2 0x1D80 PUSH0 DUP4 ADD DUP5 PUSH2 0x1C33 JUMP JUMPDEST SWAP3 SWAP2 POP POP JUMP JUMPDEST PUSH1 0x6 DUP2 LT PUSH2 0x1D97 JUMPI PUSH2 0x1D96 PUSH2 0x1AAC JUMP JUMPDEST JUMPDEST POP JUMP JUMPDEST PUSH0 DUP2 SWAP1 POP PUSH2 0x1DA7 DUP3 PUSH2 0x1D86 JUMP JUMPDEST SWAP2 SWAP1 POP JUMP JUMPDEST PUSH0 PUSH2 0x1DB6 DUP3 PUSH2 0x1D9A JUMP JUMPDEST SWAP1 POP SWAP2 SWAP1 POP JUMP JUMPDEST PUSH2 0x1DC6 DUP2 PUSH2 0x1DAC JUMP JUMPDEST DUP3 MSTORE POP POP JUMP JUMPDEST PUSH0 PUSH1 0x20 DUP3 ADD SWAP1 POP PUSH2 0x1DDF PUSH0 DUP4 ADD DUP5 PUSH2 0x1DBD JUMP JUMPDEST SWAP3 SWAP2 POP POP JUMP JUMPDEST PUSH0 PUSH1 0x20 DUP3 ADD SWAP1 POP PUSH2 0x1DF8 PUSH0 DUP4 ADD DUP5 PUSH2 0x1C4B JUMP JUMPDEST SWAP3 SWAP2 POP POP JUMP JUMPDEST PUSH2 0x1E07 DUP2 PUSH2 0x1C22 JUMP JUMPDEST DUP2 EQ PUSH2 0x1E11 JUMPI PUSH0 PUSH0 REVERT JUMPDEST POP JUMP JUMPDEST PUSH0 DUP2 CALLDATALOAD SWAP1 POP PUSH2 0x1E22 DUP2 PUSH2 0x1DFE JUMP JUMPDEST SWAP3 SWAP2 POP POP JUMP JUMPDEST PUSH0 PUSH1 0x20 DUP3 DUP5 SUB SLT ISZERO PUSH2 0x1E3D JUMPI PUSH2 0x1E3C PUSH2 0x1D14 JUMP JUMPDEST JUMPDEST PUSH0 PUSH2 0x1E4A DUP5 DUP3 DUP6 ADD PUSH2 0x1E14 JUMP JUMPDEST SWAP2 POP POP SWAP3 SWAP2 POP POP JUMP JUMPDEST PUSH0 PUSH1 0x40 DUP3 ADD SWAP1 POP PUSH2 0x1E66 PUSH0 DUP4 ADD DUP6 PUSH2 0x1C4B JUMP JUMPDEST PUSH2 0x1E73 PUSH1 0x20 DUP4 ADD DUP5 PUSH2 0x1C4B JUMP JUMPDEST SWAP4 SWAP3 POP POP POP JUMP JUMPDEST PUSH32 0x4E487B7100000000000000000000000000000000000000000000000000000000 PUSH0 MSTORE PUSH1 0x22 PUSH1 0x4 MSTORE PUSH1 0x24 PUSH0 REVERT JUMPDEST PUSH0 PUSH1 0x2 DUP3 DIV SWAP1 POP PUSH1 0x1 DUP3 AND DUP1 PUSH2 0x1EBE JUMPI PUSH1 0x7F DUP3 AND SWAP2 POP JUMPDEST PUSH1 0x20 DUP3 LT DUP2 SUB PUSH2 0x1ED1 JUMPI PUSH2 0x1ED0 PUSH2 0x1E7A JUMP JUMPDEST JUMPDEST POP SWAP2 SWAP1 POP JUMP JUMPDEST PUSH32 0x496E76616C696420616D6F756E742E204D75737420626520706F736974697665 PUSH0 DUP3 ADD MSTORE PUSH32 0x2E00000000000000000000000000000000000000000000000000000000000000 PUSH1 0x20 DUP3 ADD MSTORE POP JUMP JUMPDEST PUSH0 PUSH2 0x1F31 PUSH1 0x21 DUP4 PUSH2 0x1AD9 JUMP JUMPDEST SWAP2 POP PUSH2 0x1F3C DUP3 PUSH2 0x1ED7 JUMP JUMPDEST PUSH1 0x40 DUP3 ADD SWAP1 POP SWAP2 SWAP1 POP JUMP JUMPDEST PUSH0 PUSH1 0x20 DUP3 ADD SWAP1 POP DUP2 DUP2 SUB PUSH0 DUP4 ADD MSTORE PUSH2 0x1F5E DUP2 PUSH2 0x1F25 JUMP JUMPDEST SWAP1 POP SWAP2 SWAP1 POP JUMP JUMPDEST PUSH32 0x4E487B7100000000000000000000000000000000000000000000000000000000 PUSH0 MSTORE PUSH1 0x11 PUSH1 0x4 MSTORE PUSH1 0x24 PUSH0 REVERT JUMPDEST PUSH0 PUSH2 0x1F9C DUP3 PUSH2 0x1C42 JUMP JUMPDEST SWAP2 POP PUSH32 0xFFFFFFFFFFFFFFFFFFFFFFFFFFFFFFFFFFFFFFFFFFFFFFFFFFFFFFFFFFFFFFFF DUP3 SUB PUSH2 0x1FCE JUMPI PUSH2 0x1FCD PUSH2 0x1F65 JUMP JUMPDEST JUMPDEST PUSH1 0x1 DUP3 ADD SWAP1 POP SWAP2 SWAP1 POP JUMP JUMPDEST PUSH32 0x4465706F73697420697320646F6E650000000000000000000000000000000000 PUSH0 DUP3 ADD MSTORE POP JUMP JUMPDEST PUSH0 PUSH2 0x200D PUSH1 0xF DUP4 PUSH2 0x1AD9 JUMP JUMPDEST SWAP2 POP PUSH2 0x2018 DUP3 PUSH2 0x1FD9 JUMP JUMPDEST PUSH1 0x20 DUP3 ADD SWAP1 POP SWAP2 SWAP1 POP JUMP JUMPDEST PUSH0 PUSH1 0x60 DUP3 ADD SWAP1 POP DUP2 DUP2 SUB PUSH0 DUP4 ADD MSTORE PUSH2 0x203A DUP2 PUSH2 0x2001 JUMP JUMPDEST SWAP1 POP PUSH2 0x2049 PUSH1 0x20 DUP4 ADD DUP6 PUSH2 0x1C33 JUMP JUMPDEST PUSH2 0x2056 PUSH1 0x40 DUP4 ADD DUP5 PUSH2 0x1C4B JUMP JUMPDEST SWAP4 SWAP3 POP POP POP JUMP JUMPDEST PUSH32 0x4D757374206265206F776E65722E000000000000000000000000000000000000 PUSH0 DUP3 ADD MSTORE POP JUMP JUMPDEST PUSH0 PUSH2 0x2091 PUSH1 0xE DUP4 PUSH2 0x1AD9 JUMP JUMPDEST SWAP2 POP PUSH2 0x209C DUP3 PUSH2 0x205D JUMP JUMPDEST PUSH1 0x20 DUP3 ADD SWAP1 POP SWAP2 SWAP1 POP JUMP JUMPDEST PUSH0 PUSH1 0x20 DUP3 ADD SWAP1 POP DUP2 DUP2 SUB PUSH0 DUP4 ADD MSTORE PUSH2 0x20BE DUP2 PUSH2 0x2085 JUMP JUMPDEST SWAP1 POP SWAP2 SWAP1 POP JUMP JUMPDEST PUSH32 0x47616D65206973207061757365642E0000000000000000000000000000000000 PUSH0 DUP3 ADD MSTORE POP JUMP JUMPDEST PUSH0 PUSH2 0x20F9 PUSH1 0xF DUP4 PUSH2 0x1AD9 JUMP JUMPDEST SWAP2 POP PUSH2 0x2104 DUP3 PUSH2 0x20C5 JUMP JUMPDEST PUSH1 0x20 DUP3 ADD SWAP1 POP SWAP2 SWAP1 POP JUMP JUMPDEST PUSH0 PUSH1 0x40 DUP3 ADD SWAP1 POP DUP2 DUP2 SUB PUSH0 DUP4 ADD MSTORE PUSH2 0x2126 DUP2 PUSH2 0x20ED JUMP JUMPDEST SWAP1 POP PUSH2 0x2135 PUSH1 0x20 DUP4 ADD DUP5 PUSH2 0x1C4B JUMP JUMPDEST SWAP3 SWAP2 POP POP JUMP JUMPDEST PUSH32 0x5265656E7472616E637920646574656374656400000000000000000000000000 PUSH0 DUP3 ADD MSTORE POP JUMP JUMPDEST PUSH0 PUSH2 0x216F PUSH1 0x13 DUP4 PUSH2 0x1AD9 JUMP JUMPDEST SWAP2 POP PUSH2 0x217A DUP3 PUSH2 0x213B JUMP JUMPDEST PUSH1 0x20 DUP3 ADD SWAP1 POP SWAP2 SWAP1 POP JUMP JUMPDEST PUSH0 PUSH1 0x20 DUP3 ADD SWAP1 POP DUP2 DUP2 SUB PUSH0 DUP4 ADD MSTORE PUSH2 0x219C DUP2 PUSH2 0x2163 JUMP JUMPDEST SWAP1 POP SWAP2 SWAP1 POP JUMP JUMPDEST PUSH32 0x47616D65206973206E6F74207465726D696E6174656400000000000000000000 PUSH0 DUP3 ADD MSTORE POP JUMP JUMPDEST PUSH0 PUSH2 0x21D7 PUSH1 0x16 DUP4 PUSH2 0x1AD9 JUMP JUMPDEST SWAP2 POP PUSH2 0x21E2 DUP3 PUSH2 0x21A3 JUMP JUMPDEST PUSH1 0x20 DUP3 ADD SWAP1 POP SWAP2 SWAP1 POP JUMP JUMPDEST PUSH0 PUSH1 0x20 DUP3 ADD SWAP1 POP DUP2 DUP2 SUB PUSH0 DUP4 ADD MSTORE PUSH2 0x2204 DUP2 PUSH2 0x21CB JUMP JUMPDEST SWAP1 POP SWAP2 SWAP1 POP JUMP JUMPDEST PUSH32 0x596F7572206465706F73697420697320302E2053686F756C6420626520706F73 PUSH0 DUP3 ADD MSTORE PUSH32 0x697469766520746F2077697468647261772E0000000000000000000000000000 PUSH1 0x20 DUP3 ADD MSTORE POP JUMP JUMPDEST PUSH0 PUSH2 0x2265 PUSH1 0x32 DUP4 PUSH2 0x1AD9 JUMP JUMPDEST SWAP2 POP PUSH2 0x2270 DUP3 PUSH2 0x220B JUMP JUMPDEST PUSH1 0x40 DUP3 ADD SWAP1 POP SWAP2 SWAP1 POP JUMP JUMPDEST PUSH0 PUSH1 0x20 DUP3 ADD SWAP1 POP DUP2 DUP2 SUB PUSH0 DUP4 ADD MSTORE PUSH2 0x2292 DUP2 PUSH2 0x2259 JUMP JUMPDEST SWAP1 POP SWAP2 SWAP1 POP JUMP JUMPDEST PUSH0 DUP2 SWAP1 POP SWAP3 SWAP2 POP POP JUMP JUMPDEST POP JUMP JUMPDEST PUSH0 PUSH2 0x22B1 PUSH0 DUP4 PUSH2 0x2299 JUMP JUMPDEST SWAP2 POP PUSH2 0x22BC DUP3 PUSH2 0x22A3 JUMP JUMPDEST PUSH0 DUP3 ADD SWAP1 POP SWAP2 SWAP1 POP JUMP JUMPDEST PUSH0 PUSH2 0x22D0 DUP3 PUSH2 0x22A6 JUMP JUMPDEST SWAP2 POP DUP2 SWAP1 POP SWAP2 SWAP1 POP JUMP JUMPDEST PUSH32 0x5472616E73666572206661696C65640000000000000000000000000000000000 PUSH0 DUP3 ADD MSTORE POP JUMP JUMPDEST PUSH0 PUSH2 0x230E PUSH1 0xF DUP4 PUSH2 0x1AD9 JUMP JUMPDEST SWAP2 POP PUSH2 0x2319 DUP3 PUSH2 0x22DA JUMP JUMPDEST PUSH1 0x20 DUP3 ADD SWAP1 POP SWAP2 SWAP1 POP JUMP JUMPDEST PUSH0 PUSH1 0x20 DUP3 ADD SWAP1 POP DUP2 DUP2 SUB PUSH0 DUP4 ADD MSTORE PUSH2 0x233B DUP2 PUSH2 0x2302 JUMP JUMPDEST SWAP1 POP SWAP2 SWAP1 POP JUMP JUMPDEST PUSH32 0x4D79206465706F73697420697320776974686472617765640000000000000000 PUSH0 DUP3 ADD MSTORE POP JUMP JUMPDEST PUSH0 PUSH2 0x2376 PUSH1 0x18 DUP4 PUSH2 0x1AD9 JUMP JUMPDEST SWAP2 POP PUSH2 0x2381 DUP3 PUSH2 0x2342 JUMP JUMPDEST PUSH1 0x20 DUP3 ADD SWAP1 POP SWAP2 SWAP1 POP JUMP JUMPDEST PUSH0 PUSH1 0x80 DUP3 ADD SWAP1 POP DUP2 DUP2 SUB PUSH0 DUP4 ADD MSTORE PUSH2 0x23A3 DUP2 PUSH2 0x236A JUMP JUMPDEST SWAP1 POP PUSH2 0x23B2 PUSH1 0x20 DUP4 ADD DUP7 PUSH2 0x1C33 JUMP JUMPDEST PUSH2 0x23BF PUSH1 0x40 DUP4 ADD DUP6 PUSH2 0x1C4B JUMP JUMPDEST PUSH2 0x23CC PUSH1 0x60 DUP4 ADD DUP5 PUSH2 0x1C4B JUMP JUMPDEST SWAP5 SWAP4 POP POP POP POP JUMP JUMPDEST PUSH32 0x476F616C206973206E6F742072656163686564207965742E0000000000000000 PUSH0 DUP3 ADD MSTORE POP JUMP JUMPDEST PUSH0 PUSH2 0x2408 PUSH1 0x18 DUP4 PUSH2 0x1AD9 JUMP JUMPDEST SWAP2 POP PUSH2 0x2413 DUP3 PUSH2 0x23D4 JUMP JUMPDEST PUSH1 0x20 DUP3 ADD SWAP1 POP SWAP2 SWAP1 POP JUMP JUMPDEST PUSH0 PUSH1 0x20 DUP3 ADD SWAP1 POP DUP2 DUP2 SUB PUSH0 DUP4 ADD MSTORE PUSH2 0x2435 DUP2 PUSH2 0x23FC JUMP JUMPDEST SWAP1 POP SWAP2 SWAP1 POP JUMP JUMPDEST PUSH0 PUSH2 0x2446 DUP3 PUSH2 0x1C42 JUMP JUMPDEST SWAP2 POP PUSH2 0x2451 DUP4 PUSH2 0x1C42 JUMP JUMPDEST SWAP3 POP DUP3 DUP3 MUL PUSH2 0x245F DUP2 PUSH2 0x1C42 JUMP JUMPDEST SWAP2 POP DUP3 DUP3 DIV DUP5 EQ DUP4 ISZERO OR PUSH2 0x2476 JUMPI PUSH2 0x2475 PUSH2 0x1F65 JUMP JUMPDEST JUMPDEST POP SWAP3 SWAP2 POP POP JUMP JUMPDEST PUSH32 0x4E487B7100000000000000000000000000000000000000000000000000000000 PUSH0 MSTORE PUSH1 0x12 PUSH1 0x4 MSTORE PUSH1 0x24 PUSH0 REVERT JUMPDEST PUSH0 PUSH2 0x24B4 DUP3 PUSH2 0x1C42 JUMP JUMPDEST SWAP2 POP PUSH2 0x24BF DUP4 PUSH2 0x1C42 JUMP JUMPDEST SWAP3 POP DUP3 PUSH2 0x24CF JUMPI PUSH2 0x24CE PUSH2 0x247D JUMP JUMPDEST JUMPDEST DUP3 DUP3 DIV SWAP1 POP SWAP3 SWAP2 POP POP JUMP JUMPDEST PUSH0 PUSH2 0x24E4 DUP3 PUSH2 0x1C42 JUMP JUMPDEST SWAP2 POP PUSH2 0x24EF DUP4 PUSH2 0x1C42 JUMP JUMPDEST SWAP3 POP DUP3 DUP3 SUB SWAP1 POP DUP2 DUP2 GT ISZERO PUSH2 0x2507 JUMPI PUSH2 0x2506 PUSH2 0x1F65 JUMP JUMPDEST JUMPDEST SWAP3 SWAP2 POP POP JUMP JUMPDEST PUSH32 0x47616D65206861732066696E6973686564210000000000000000000000000000 PUSH0 DUP3 ADD MSTORE POP JUMP JUMPDEST PUSH0 PUSH2 0x2541 PUSH1 0x12 DUP4 PUSH2 0x1AD9 JUMP JUMPDEST SWAP2 POP PUSH2 0x254C DUP3 PUSH2 0x250D JUMP JUMPDEST PUSH1 0x20 DUP3 ADD SWAP1 POP SWAP2 SWAP1 POP JUMP JUMPDEST PUSH0 PUSH1 0x80 DUP3 ADD SWAP1 POP DUP2 DUP2 SUB PUSH0 DUP4 ADD MSTORE PUSH2 0x256E DUP2 PUSH2 0x2535 JUMP JUMPDEST SWAP1 POP PUSH2 0x257D PUSH1 0x20 DUP4 ADD DUP7 PUSH2 0x1C4B JUMP JUMPDEST PUSH2 0x258A PUSH1 0x40 DUP4 ADD DUP6 PUSH2 0x1C4B JUMP JUMPDEST PUSH2 0x2597 PUSH1 0x60 DUP4 ADD DUP5 PUSH2 0x1C4B JUMP JUMPDEST SWAP5 SWAP4 POP POP POP POP JUMP JUMPDEST PUSH32 0x47616D65206973207465726D696E617465640000000000000000000000000000 PUSH0 DUP3 ADD MSTORE POP JUMP JUMPDEST PUSH0 PUSH2 0x25D3 PUSH1 0x12 DUP4 PUSH2 0x1AD9 JUMP JUMPDEST SWAP2 POP PUSH2 0x25DE DUP3 PUSH2 0x259F JUMP JUMPDEST PUSH1 0x20 DUP3 ADD SWAP1 POP SWAP2 SWAP1 POP JUMP JUMPDEST PUSH0 PUSH1 0x40 DUP3 ADD SWAP1 POP DUP2 DUP2 SUB PUSH0 DUP4 ADD MSTORE PUSH2 0x2600 DUP2 PUSH2 0x25C7 JUMP JUMPDEST SWAP1 POP PUSH2 0x260F PUSH1 0x20 DUP4 ADD DUP5 PUSH2 0x1C4B JUMP JUMPDEST SWAP3 SWAP2 POP POP JUMP JUMPDEST PUSH32 0x496E76616C696420616464726573730000000000000000000000000000000000 PUSH0 DUP3 ADD MSTORE POP JUMP JUMPDEST PUSH0 PUSH2 0x2649 PUSH1 0xF DUP4 PUSH2 0x1AD9 JUMP JUMPDEST SWAP2 POP PUSH2 0x2654 DUP3 PUSH2 0x2615 JUMP JUMPDEST PUSH1 0x20 DUP3 ADD SWAP1 POP SWAP2 SWAP1 POP JUMP JUMPDEST PUSH0 PUSH1 0x20 DUP3 ADD SWAP1 POP DUP2 DUP2 SUB PUSH0 DUP4 ADD MSTORE PUSH2 0x2676 DUP2 PUSH2 0x263D JUMP JUMPDEST SWAP1 POP SWAP2 SWAP1 POP JUMP JUMPDEST PUSH32 0x4F776E657220686173206368616E6765642E0000000000000000000000000000 PUSH0 DUP3 ADD MSTORE POP JUMP JUMPDEST PUSH0 PUSH2 0x26B1 PUSH1 0x12 DUP4 PUSH2 0x1AD9 JUMP JUMPDEST SWAP2 POP PUSH2 0x26BC DUP3 PUSH2 0x267D JUMP JUMPDEST PUSH1 0x20 DUP3 ADD SWAP1 POP SWAP2 SWAP1 POP JUMP JUMPDEST PUSH0 PUSH1 0x80 DUP3 ADD SWAP1 POP DUP2 DUP2 SUB PUSH0 DUP4 ADD MSTORE PUSH2 0x26DE DUP2 PUSH2 0x26A5 JUMP JUMPDEST SWAP1 POP PUSH2 0x26ED PUSH1 0x20 DUP4 ADD DUP7 PUSH2 0x1C33 JUMP JUMPDEST PUSH2 0x26FA PUSH1 0x40 DUP4 ADD DUP6 PUSH2 0x1C33 JUMP JUMPDEST PUSH2 0x2707 PUSH1 0x60 DUP4 ADD DUP5 PUSH2 0x1C4B JUMP JUMPDEST SWAP5 SWAP4 POP POP POP POP JUMP JUMPDEST PUSH32 0x47616D6520697320616374697665206F72207061757365642E00000000000000 PUSH0 DUP3 ADD MSTORE POP JUMP JUMPDEST PUSH0 PUSH2 0x2743 PUSH1 0x19 DUP4 PUSH2 0x1AD9 JUMP JUMPDEST SWAP2 POP PUSH2 0x274E DUP3 PUSH2 0x270F JUMP JUMPDEST PUSH1 0x20 DUP3 ADD SWAP1 POP SWAP2 SWAP1 POP JUMP JUMPDEST PUSH0 PUSH1 0x20 DUP3 ADD SWAP1 POP DUP2 DUP2 SUB PUSH0 DUP4 ADD MSTORE PUSH2 0x2770 DUP2 PUSH2 0x2737 JUMP JUMPDEST SWAP1 POP SWAP2 SWAP1 POP JUMP JUMPDEST PUSH32 0x436F6E74726163742062616C616E63652073686F756C6420626520656D707479 PUSH0 DUP3 ADD MSTORE POP JUMP JUMPDEST PUSH0 PUSH2 0x27AB PUSH1 0x20 DUP4 PUSH2 0x1AD9 JUMP JUMPDEST SWAP2 POP PUSH2 0x27B6 DUP3 PUSH2 0x2777 JUMP JUMPDEST PUSH1 0x20 DUP3 ADD SWAP1 POP SWAP2 SWAP1 POP JUMP JUMPDEST PUSH0 PUSH1 0x20 DUP3 ADD SWAP1 POP DUP2 DUP2 SUB PUSH0 DUP4 ADD MSTORE PUSH2 0x27D8 DUP2 PUSH2 0x279F JUMP JUMPDEST SWAP1 POP SWAP2 SWAP1 POP JUMP JUMPDEST PUSH32 0x47616D6520686173207374617274656421000000000000000000000000000000 PUSH0 DUP3 ADD MSTORE POP JUMP JUMPDEST PUSH0 PUSH2 0x2813 PUSH1 0x11 DUP4 PUSH2 0x1AD9 JUMP JUMPDEST SWAP2 POP PUSH2 0x281E DUP3 PUSH2 0x27DF JUMP JUMPDEST PUSH1 0x20 DUP3 ADD SWAP1 POP SWAP2 SWAP1 POP JUMP JUMPDEST PUSH0 PUSH1 0x60 DUP3 ADD SWAP1 POP DUP2 DUP2 SUB PUSH0 DUP4 ADD MSTORE PUSH2 0x2840 DUP2 PUSH2 0x2807 JUMP JUMPDEST SWAP1 POP PUSH2 0x284F PUSH1 0x20 DUP4 ADD DUP6 PUSH2 0x1C4B JUMP JUMPDEST PUSH2 0x285C PUSH1 0x40 DUP4 ADD DUP5 PUSH2 0x1C4B JUMP JUMPDEST SWAP4 SWAP3 POP POP POP JUMP JUMPDEST PUSH32 0x47616D65206973206E6F74207061757365642E00000000000000000000000000 PUSH0 DUP3 ADD MSTORE POP JUMP JUMPDEST PUSH0 PUSH2 0x2897 PUSH1 0x13 DUP4 PUSH2 0x1AD9 JUMP JUMPDEST SWAP2 POP PUSH2 0x28A2 DUP3 PUSH2 0x2863 JUMP JUMPDEST PUSH1 0x20 DUP3 ADD SWAP1 POP SWAP2 SWAP1 POP JUMP JUMPDEST PUSH0 PUSH1 0x20 DUP3 ADD SWAP1 POP DUP2 DUP2 SUB PUSH0 DUP4 ADD MSTORE PUSH2 0x28C4 DUP2 PUSH2 0x288B JUMP JUMPDEST SWAP1 POP SWAP2 SWAP1 POP JUMP JUMPDEST PUSH32 0x47616D6520697320756E70617573656400000000000000000000000000000000 PUSH0 DUP3 ADD MSTORE POP JUMP JUMPDEST PUSH0 PUSH2 0x28FF PUSH1 0x10 DUP4 PUSH2 0x1AD9 JUMP JUMPDEST SWAP2 POP PUSH2 0x290A DUP3 PUSH2 0x28CB JUMP JUMPDEST PUSH1 0x20 DUP3 ADD SWAP1 POP SWAP2 SWAP1 POP JUMP JUMPDEST PUSH0 PUSH1 0x40 DUP3 ADD SWAP1 POP DUP2 DUP2 SUB PUSH0 DUP4 ADD MSTORE PUSH2 0x292C DUP2 PUSH2 0x28F3 JUMP JUMPDEST SWAP1 POP PUSH2 0x293B PUSH1 0x20 DUP4 ADD DUP5 PUSH2 0x1C4B JUMP JUMPDEST SWAP3 SWAP2 POP POP JUMP JUMPDEST PUSH32 0x47616D652068617320656E646564000000000000000000000000000000000000 PUSH0 DUP3 ADD MSTORE POP JUMP JUMPDEST PUSH0 PUSH2 0x2975 PUSH1 0xE DUP4 PUSH2 0x1AD9 JUMP JUMPDEST SWAP2 POP PUSH2 0x2980 DUP3 PUSH2 0x2941 JUMP JUMPDEST PUSH1 0x20 DUP3 ADD SWAP1 POP SWAP2 SWAP1 POP JUMP JUMPDEST PUSH0 PUSH1 0x80 DUP3 ADD SWAP1 POP DUP2 DUP2 SUB PUSH0 DUP4 ADD MSTORE PUSH2 0x29A2 DUP2 PUSH2 0x2969 JUMP JUMPDEST SWAP1 POP PUSH2 0x29B1 PUSH1 0x20 DUP4 ADD DUP7 PUSH2 0x1C4B JUMP JUMPDEST PUSH2 0x29BE PUSH1 0x40 DUP4 ADD DUP6 PUSH2 0x1C4B JUMP JUMPDEST PUSH2 0x29CB PUSH1 0x60 DUP4 ADD DUP5 PUSH2 0x1C4B JUMP JUMPDEST SWAP5 SWAP4 POP POP POP POP JUMP INVALID LOG2 PUSH5 0x6970667358 0x22 SLT KECCAK256 0xF 0xCB 0x25 DUP1 PUSH22 0x860CAEB26EE7314501616C0D9631EFEFC76FA03402F5 COINBASE 0xD0 DUP4 BYTE 0x4E PUSH5 0x736F6C6343 STOP ADDMOD 0x1E STOP CALLER "
				},
				"gasEstimates": {
					"creation": {
						"codeDepositCost": "2152200",
						"executionCost": "infinite",
						"totalCost": "infinite"
					},
					"external": {
						"changeOwner(address)": "infinite",
						"completeGame()": "infinite",
						"deadLine()": "2447",
						"deposits(address)": "infinite",
						"description()": "infinite",
						"getContractBalance()": "2687",
						"getGameStatus()": "2651",
						"getMyDeposit()": "2590",
						"goal()": "2448",
						"makeDepsit()": "infinite",
						"name()": "infinite",
						"owner()": "2553",
						"ownerPercent()": "2492",
						"participants(uint256)": "5012",
						"pauseGame()": "33241",
						"refund()": "infinite",
						"startGame()": "infinite",
						"terminateGame()": "infinite",
						"unPauseGame()": "infinite"
					},
					"internal": {
						"checkUpdateGame()": "infinite"
					}
				},
				"methodIdentifiers": {
					"changeOwner(address)": "a6f9dae1",
					"completeGame()": "7b51b4ad",
					"deadLine()": "bef3a083",
					"deposits(address)": "fc7e286d",
					"description()": "7284e416",
					"getContractBalance()": "6f9fb98a",
					"getGameStatus()": "382396ee",
					"getMyDeposit()": "f4135992",
					"goal()": "40193883",
					"makeDepsit()": "31bf64ab",
					"name()": "06fdde03",
					"owner()": "8da5cb5b",
					"ownerPercent()": "95d12000",
					"participants(uint256)": "35c1d349",
					"pauseGame()": "499831f2",
					"refund()": "590e1ae3",
					"startGame()": "d65ab5f2",
					"terminateGame()": "97661f31",
					"unPauseGame()": "f42b1ae0"
				}
			},
			"storageLayout": {
				"storage": [
					{
						"astId": 3,
						"contract": "Contracts/DepositGame.sol:DepositGame",
						"label": "name",
						"offset": 0,
						"slot": "0",
						"type": "t_string_storage"
					},
					{
						"astId": 5,
						"contract": "Contracts/DepositGame.sol:DepositGame",
						"label": "description",
						"offset": 0,
						"slot": "1",
						"type": "t_string_storage"
					},
					{
						"astId": 7,
						"contract": "Contracts/DepositGame.sol:DepositGame",
						"label": "owner",
						"offset": 0,
						"slot": "2",
						"type": "t_address"
					},
					{
						"astId": 9,
						"contract": "Contracts/DepositGame.sol:DepositGame",
						"label": "goal",
						"offset": 0,
						"slot": "3",
						"type": "t_uint256"
					},
					{
						"astId": 11,
						"contract": "Contracts/DepositGame.sol:DepositGame",
						"label": "deadLine",
						"offset": 0,
						"slot": "4",
						"type": "t_uint256"
					},
					{
						"astId": 13,
						"contract": "Contracts/DepositGame.sol:DepositGame",
						"label": "ownerPercent",
						"offset": 0,
						"slot": "5",
						"type": "t_uint256"
					},
					{
						"astId": 15,
						"contract": "Contracts/DepositGame.sol:DepositGame",
						"label": "locked",
						"offset": 0,
						"slot": "6",
						"type": "t_bool"
					},
					{
						"astId": 17,
						"contract": "Contracts/DepositGame.sol:DepositGame",
						"label": "leader",
						"offset": 1,
						"slot": "6",
						"type": "t_address"
					},
					{
						"astId": 19,
						"contract": "Contracts/DepositGame.sol:DepositGame",
						"label": "maxDeposit",
						"offset": 0,
						"slot": "7",
						"type": "t_uint256"
					},
					{
						"astId": 21,
						"contract": "Contracts/DepositGame.sol:DepositGame",
						"label": "countDeposits",
						"offset": 0,
						"slot": "8",
						"type": "t_uint256"
					},
					{
						"astId": 31,
						"contract": "Contracts/DepositGame.sol:DepositGame",
						"label": "gameStatus",
						"offset": 0,
						"slot": "9",
						"type": "t_enum(GameStatus)28"
					},
					{
						"astId": 229,
						"contract": "Contracts/DepositGame.sol:DepositGame",
						"label": "deposits",
						"offset": 0,
						"slot": "10",
						"type": "t_mapping(t_address,t_struct(Deposit)224_storage)"
					},
					{
						"astId": 232,
						"contract": "Contracts/DepositGame.sol:DepositGame",
						"label": "participants",
						"offset": 0,
						"slot": "11",
						"type": "t_array(t_address)dyn_storage"
					}
				],
				"types": {
					"t_address": {
						"encoding": "inplace",
						"label": "address",
						"numberOfBytes": "20"
					},
					"t_array(t_address)dyn_storage": {
						"base": "t_address",
						"encoding": "dynamic_array",
						"label": "address[]",
						"numberOfBytes": "32"
					},
					"t_bool": {
						"encoding": "inplace",
						"label": "bool",
						"numberOfBytes": "1"
					},
					"t_enum(GameStatus)28": {
						"encoding": "inplace",
						"label": "enum DepositGame.GameStatus",
						"numberOfBytes": "1"
					},
					"t_mapping(t_address,t_struct(Deposit)224_storage)": {
						"encoding": "mapping",
						"key": "t_address",
						"label": "mapping(address => struct DepositGame.Deposit)",
						"numberOfBytes": "32",
						"value": "t_struct(Deposit)224_storage"
					},
					"t_string_storage": {
						"encoding": "bytes",
						"label": "string",
						"numberOfBytes": "32"
					},
					"t_struct(Deposit)224_storage": {
						"encoding": "inplace",
						"label": "struct DepositGame.Deposit",
						"members": [
							{
								"astId": 221,
								"contract": "Contracts/DepositGame.sol:DepositGame",
								"label": "amount",
								"offset": 0,
								"slot": "0",
								"type": "t_uint256"
							},
							{
								"astId": 223,
								"contract": "Contracts/DepositGame.sol:DepositGame",
								"label": "timeStamp",
								"offset": 0,
								"slot": "1",
								"type": "t_uint256"
							}
						],
						"numberOfBytes": "64"
					},
					"t_uint256": {
						"encoding": "inplace",
						"label": "uint256",
						"numberOfBytes": "32"
					}
				}
			},
			"userdoc": {
				"kind": "user",
				"methods": {},
				"version": 1
			}
		}
	}
}