{
	"data": {
		"bytecode": {
			"linkReferences": {},
			"object": "6080604052348015600e575f5ffd5b50614c308061001c5f395ff3fe608060405234801561000f575f5ffd5b5060043610610086575f3560e01c8063800476ae11610059578063800476ae14610138578063b847bd8e14610168578063db1c45f914610198578063ee9ada29146101b657610086565b8063117a5b901461008a57806317b7a476146100ba5780633801729f146100d857806364afadb614610108575b5f5ffd5b6100a4600480360381019061009f91906106d4565b6101e6565b6040516100b1919061073e565b60405180910390f35b6100c2610220565b6040516100cf9190610766565b60405180910390f35b6100f260048036038101906100ed91906108bb565b61022b565b6040516100ff919061073e565b60405180910390f35b610122600480360381019061011d9190610994565b610425565b60405161012f919061073e565b60405180910390f35b610152600480360381019061014d91906109d2565b61046d565b60405161015f919061073e565b60405180910390f35b610182600480360381019061017d91906109d2565b61049d565b60405161018f9190610ab4565b60405180910390f35b6101a0610565565b6040516101ad9190610ab4565b60405180910390f35b6101d060048036038101906101cb9190610ad4565b6105ef565b6040516101dd9190610b2c565b60405180910390f35b5f81815481106101f4575f80fd5b905f5260205f20015f915054906101000a900473ffffffffffffffffffffffffffffffffffffffff1681565b5f5f80549050905090565b5f5f868686868660405161023e90610683565b61024c959493929190610ba5565b604051809103905ff080158015610265573d5f5f3e3d5ffd5b5090505f81908060018154018082558091505060019003905f5260205f20015f9091909190916101000a81548173ffffffffffffffffffffffffffffffffffffffff021916908373ffffffffffffffffffffffffffffffffffffffff1602179055503360015f8373ffffffffffffffffffffffffffffffffffffffff1673ffffffffffffffffffffffffffffffffffffffff1681526020019081526020015f205f6101000a81548173ffffffffffffffffffffffffffffffffffffffff021916908373ffffffffffffffffffffffffffffffffffffffff16021790555060025f3373ffffffffffffffffffffffffffffffffffffffff1673ffffffffffffffffffffffffffffffffffffffff1681526020019081526020015f2081908060018154018082558091505060019003905f5260205f20015f9091909190916101000a81548173ffffffffffffffffffffffffffffffffffffffff021916908373ffffffffffffffffffffffffffffffffffffffff1602179055507fb61c4351b4059c41eefbf7ebe3d6b3e3558d6d7d628b991e6f8a1f172a578aad81334260405161041093929190610c4e565b60405180910390a18091505095945050505050565b6002602052815f5260405f20818154811061043e575f80fd5b905f5260205f20015f915091509054906101000a900473ffffffffffffffffffffffffffffffffffffffff1681565b6001602052805f5260405f205f915054906101000a900473ffffffffffffffffffffffffffffffffffffffff1681565b606060025f8373ffffffffffffffffffffffffffffffffffffffff1673ffffffffffffffffffffffffffffffffffffffff1681526020019081526020015f2080548060200260200160405190810160405280929190818152602001828054801561055957602002820191905f5260205f20905b815f9054906101000a900473ffffffffffffffffffffffffffffffffffffffff1673ffffffffffffffffffffffffffffffffffffffff1681526020019060010190808311610510575b50505050509050919050565b60605f8054806020026020016040519081016040528092919081815260200182805480156105e557602002820191905f5260205f20905b815f9054906101000a900473ffffffffffffffffffffffffffffffffffffffff1673ffffffffffffffffffffffffffffffffffffffff168152602001906001019080831161059c575b5050505050905090565b5f8173ffffffffffffffffffffffffffffffffffffffff1660015f8573ffffffffffffffffffffffffffffffffffffffff1673ffffffffffffffffffffffffffffffffffffffff1681526020019081526020015f205f9054906101000a900473ffffffffffffffffffffffffffffffffffffffff1673ffffffffffffffffffffffffffffffffffffffff1614905092915050565b613f6480610c9783390190565b5f604051905090565b5f5ffd5b5f5ffd5b5f819050919050565b6106b3816106a1565b81146106bd575f5ffd5b50565b5f813590506106ce816106aa565b92915050565b5f602082840312156106e9576106e8610699565b5b5f6106f6848285016106c0565b91505092915050565b5f73ffffffffffffffffffffffffffffffffffffffff82169050919050565b5f610728826106ff565b9050919050565b6107388161071e565b82525050565b5f6020820190506107515f83018461072f565b92915050565b610760816106a1565b82525050565b5f6020820190506107795f830184610757565b92915050565b5f5ffd5b5f5ffd5b5f601f19601f8301169050919050565b7f4e487b71000000000000000000000000000000000000000000000000000000005f52604160045260245ffd5b6107cd82610787565b810181811067ffffffffffffffff821117156107ec576107eb610797565b5b80604052505050565b5f6107fe610690565b905061080a82826107c4565b919050565b5f67ffffffffffffffff82111561082957610828610797565b5b61083282610787565b9050602081019050919050565b828183375f83830152505050565b5f61085f61085a8461080f565b6107f5565b90508281526020810184848401111561087b5761087a610783565b5b61088684828561083f565b509392505050565b5f82601f8301126108a2576108a161077f565b5b81356108b284826020860161084d565b91505092915050565b5f5f5f5f5f60a086880312156108d4576108d3610699565b5b5f86013567ffffffffffffffff8111156108f1576108f061069d565b5b6108fd8882890161088e565b955050602086013567ffffffffffffffff81111561091e5761091d61069d565b5b61092a8882890161088e565b945050604061093b888289016106c0565b935050606061094c888289016106c0565b925050608061095d888289016106c0565b9150509295509295909350565b6109738161071e565b811461097d575f5ffd5b50565b5f8135905061098e8161096a565b92915050565b5f5f604083850312156109aa576109a9610699565b5b5f6109b785828601610980565b92505060206109c8858286016106c0565b9150509250929050565b5f602082840312156109e7576109e6610699565b5b5f6109f484828501610980565b91505092915050565b5f81519050919050565b5f82825260208201905092915050565b5f819050602082019050919050565b610a2f8161071e565b82525050565b5f610a408383610a26565b60208301905092915050565b5f602082019050919050565b5f610a62826109fd565b610a6c8185610a07565b9350610a7783610a17565b805f5b83811015610aa7578151610a8e8882610a35565b9750610a9983610a4c565b925050600181019050610a7a565b5085935050505092915050565b5f6020820190508181035f830152610acc8184610a58565b905092915050565b5f5f60408385031215610aea57610ae9610699565b5b5f610af785828601610980565b9250506020610b0885828601610980565b9150509250929050565b5f8115159050919050565b610b2681610b12565b82525050565b5f602082019050610b3f5f830184610b1d565b92915050565b5f81519050919050565b5f82825260208201905092915050565b8281835e5f83830152505050565b5f610b7782610b45565b610b818185610b4f565b9350610b91818560208601610b5f565b610b9a81610787565b840191505092915050565b5f60a0820190508181035f830152610bbd8188610b6d565b90508181036020830152610bd18187610b6d565b9050610be06040830186610757565b610bed6060830185610757565b610bfa6080830184610757565b9695505050505050565b7f4e65772067616d6520686173206265656e20767265617465642e0000000000005f82015250565b5f610c38601a83610b4f565b9150610c4382610c04565b602082019050919050565b5f6080820190508181035f830152610c6581610c2c565b9050610c74602083018661072f565b610c81604083018561072f565b610c8e6060830184610757565b94935050505056fe608060405234801561000f575f5ffd5b50604051613f64380380613f6483398181016040528101906100319190610482565b5f73ffffffffffffffffffffffffffffffffffffffff163373ffffffffffffffffffffffffffffffffffffffff160361009f576040517f08c379a00000000000000000000000000000000000000000000000000000000081526004016100969061058b565b60405180910390fd5b5f8551116100e2576040517f08c379a00000000000000000000000000000000000000000000000000000000081526004016100d9906105f3565b60405180910390fd5b5f845111610125576040517f08c379a000000000000000000000000000000000000000000000000000000000815260040161011c9061065b565b60405180910390fd5b5f8311610167576040517f08c379a000000000000000000000000000000000000000000000000000000000815260040161015e906106c3565b60405180910390fd5b606483106101aa576040517f08c379a00000000000000000000000000000000000000000000000000000000081526004016101a19061072b565b60405180910390fd5b606482111580156101ba57505f82115b6101f9576040517f08c379a00000000000000000000000000000000000000000000000000000000081526004016101f090610793565b60405180910390fd5b5f811161023b576040517f08c379a000000000000000000000000000000000000000000000000000000000815260040161023290610821565b60405180910390fd5b3360025f6101000a81548173ffffffffffffffffffffffffffffffffffffffff021916908373ffffffffffffffffffffffffffffffffffffffff1602179055505f60095f6101000a81548160ff0219169083600581111561029f5761029e61083f565b5b0217905550845f90816102b29190610a73565b5083600190816102c29190610a73565b50816004819055508060088190555062015180836102e09190610b6f565b426102eb9190610bb0565b6003819055505f6006819055505050505050610be3565b5f604051905090565b5f5ffd5b5f5ffd5b5f5ffd5b5f5ffd5b5f601f19601f8301169050919050565b7f4e487b71000000000000000000000000000000000000000000000000000000005f52604160045260245ffd5b6103618261031b565b810181811067ffffffffffffffff821117156103805761037f61032b565b5b80604052505050565b5f610392610302565b905061039e8282610358565b919050565b5f67ffffffffffffffff8211156103bd576103bc61032b565b5b6103c68261031b565b9050602081019050919050565b8281835e5f83830152505050565b5f6103f36103ee846103a3565b610389565b90508281526020810184848401111561040f5761040e610317565b5b61041a8482856103d3565b509392505050565b5f82601f83011261043657610435610313565b5b81516104468482602086016103e1565b91505092915050565b5f819050919050565b6104618161044f565b811461046b575f5ffd5b50565b5f8151905061047c81610458565b92915050565b5f5f5f5f5f60a0868803121561049b5761049a61030b565b5b5f86015167ffffffffffffffff8111156104b8576104b761030f565b5b6104c488828901610422565b955050602086015167ffffffffffffffff8111156104e5576104e461030f565b5b6104f188828901610422565b94505060406105028882890161046e565b93505060606105138882890161046e565b92505060806105248882890161046e565b9150509295509295909350565b5f82825260208201905092915050565b7f496e76616c696420616464726573732e000000000000000000000000000000005f82015250565b5f610575601083610531565b915061058082610541565b602082019050919050565b5f6020820190508181035f8301526105a281610569565b9050919050565b7f4e616d652063616e206e6f7420626520656d7072792e000000000000000000005f82015250565b5f6105dd601683610531565b91506105e8826105a9565b602082019050919050565b5f6020820190508181035f83015261060a816105d1565b9050919050565b7f4465736372697074696f6e2063616e206e6f7420626520656d7074792e0000005f82015250565b5f610645601d83610531565b915061065082610611565b602082019050919050565b5f6020820190508181035f83015261067281610639565b9050919050565b7f4475726174696f6e206d75737420626520706f7369746976652e0000000000005f82015250565b5f6106ad601a83610531565b91506106b882610679565b602082019050919050565b5f6020820190508181035f8301526106da816106a1565b9050919050565b7f4c696d69742069732031303020646179732e00000000000000000000000000005f82015250565b5f610715601283610531565b9150610720826106e1565b602082019050919050565b5f6020820190508181035f83015261074281610709565b9050919050565b7f50657263656e74206d757374206265206265747765656e2030202d203130302e5f82015250565b5f61077d602083610531565b915061078882610749565b602082019050919050565b5f6020820190508181035f8301526107aa81610771565b9050919050565b7f4465706f736974206c696d69742073686f756c6420626520706f7369746976655f8201527f2e00000000000000000000000000000000000000000000000000000000000000602082015250565b5f61080b602183610531565b9150610816826107b1565b604082019050919050565b5f6020820190508181035f830152610838816107ff565b9050919050565b7f4e487b71000000000000000000000000000000000000000000000000000000005f52602160045260245ffd5b5f81519050919050565b7f4e487b71000000000000000000000000000000000000000000000000000000005f52602260045260245ffd5b5f60028204905060018216806108ba57607f821691505b6020821081036108cd576108cc610876565b5b50919050565b5f819050815f5260205f209050919050565b5f6020601f8301049050919050565b5f82821b905092915050565b5f6008830261092f7fffffffffffffffffffffffffffffffffffffffffffffffffffffffffffffffff826108f4565b61093986836108f4565b95508019841693508086168417925050509392505050565b5f819050919050565b5f61097461096f61096a8461044f565b610951565b61044f565b9050919050565b5f819050919050565b61098d8361095a565b6109a16109998261097b565b848454610900565b825550505050565b5f5f905090565b6109b86109a9565b6109c3818484610984565b505050565b5b818110156109e6576109db5f826109b0565b6001810190506109c9565b5050565b601f821115610a2b576109fc816108d3565b610a05846108e5565b81016020851015610a14578190505b610a28610a20856108e5565b8301826109c8565b50505b505050565b5f82821c905092915050565b5f610a4b5f1984600802610a30565b1980831691505092915050565b5f610a638383610a3c565b9150826002028217905092915050565b610a7c8261086c565b67ffffffffffffffff811115610a9557610a9461032b565b5b610a9f82546108a3565b610aaa8282856109ea565b5f60209050601f831160018114610adb575f8415610ac9578287015190505b610ad38582610a58565b865550610b3a565b601f198416610ae9866108d3565b5f5b82811015610b1057848901518255600182019150602085019450602081019050610aeb565b86831015610b2d5784890151610b29601f891682610a3c565b8355505b6001600288020188555050505b505050505050565b7f4e487b71000000000000000000000000000000000000000000000000000000005f52601160045260245ffd5b5f610b798261044f565b9150610b848361044f565b9250828202610b928161044f565b91508282048414831517610ba957610ba8610b42565b5b5092915050565b5f610bba8261044f565b9150610bc58361044f565b9250828201905080821115610bdd57610bdc610b42565b5b92915050565b61337480610bf05f395ff3fe608060405260043610610117575f3560e01c80638da5cb5b1161009f578063bef3a08311610063578063bef3a08314610640578063d65ab5f21461066a578063f413599214610680578063f42b1ae0146106aa578063fc7e286d146106c057610450565b80638da5cb5b146105845780638decfa77146105ae57806395d12000146105d857806397661f3114610602578063a6f9dae11461061857610450565b806338e771ab116100e657806338e771ab146104ee578063499831f214610504578063590e1ae31461051a5780636f9fb98a146105305780637284e4161461055a57610450565b806306fdde031461045457806331bf64ab1461047e57806335c1d34914610488578063382396ee146104c457610450565b3661045057600160058111156101305761012f612329565b5b60095f9054906101000a900460ff16600581111561015157610150612329565b5b14610191576040517f08c379a0000000000000000000000000000000000000000000000000000000008152600401610188906123b0565b60405180910390fd5b42600354116101d5576040517f08c379a00000000000000000000000000000000000000000000000000000000081526004016101cc90612418565b60405180910390fd5b604051806040016040528034600a5f3373ffffffffffffffffffffffffffffffffffffffff1673ffffffffffffffffffffffffffffffffffffffff1681526020019081526020015f205f015461022b919061246c565b815260200142815250600a5f3373ffffffffffffffffffffffffffffffffffffffff1673ffffffffffffffffffffffffffffffffffffffff1681526020019081526020015f205f820151815f0155602082015181600101559050505f600a5f3373ffffffffffffffffffffffffffffffffffffffff1673ffffffffffffffffffffffffffffffffffffffff1681526020019081526020015f205f01540361034457600b33908060018154018082558091505060019003905f5260205f20015f9091909190916101000a81548173ffffffffffffffffffffffffffffffffffffffff021916908373ffffffffffffffffffffffffffffffffffffffff16021790555060075f81548092919061033e9061249f565b91905055505b600654600a5f3373ffffffffffffffffffffffffffffffffffffffff1673ffffffffffffffffffffffffffffffffffffffff1681526020019081526020015f205f0154111561041557600a5f3373ffffffffffffffffffffffffffffffffffffffff1673ffffffffffffffffffffffffffffffffffffffff1681526020019081526020015f205f015460068190555033600560016101000a81548173ffffffffffffffffffffffffffffffffffffffff021916908373ffffffffffffffffffffffffffffffffffffffff1602179055505b7f086ef21bf36e265f583d1740184679fa503cfbfb695cffff03746dbcbb0a541a334260405161044692919061257e565b60405180910390a1005b5f5ffd5b34801561045f575f5ffd5b506104686106fd565b6040516104759190612618565b60405180910390f35b610486610788565b005b348015610493575f5ffd5b506104ae60048036038101906104a99190612666565b610bb8565b6040516104bb9190612691565b60405180910390f35b3480156104cf575f5ffd5b506104d8610bf3565b6040516104e591906126f0565b60405180910390f35b3480156104f9575f5ffd5b50610502610c08565b005b34801561050f575f5ffd5b50610518610fbf565b005b348015610525575f5ffd5b5061052e611126565b005b34801561053b575f5ffd5b50610544611455565b6040516105519190612709565b60405180910390f35b348015610565575f5ffd5b5061056e6114eb565b60405161057b9190612618565b60405180910390f35b34801561058f575f5ffd5b50610598611577565b6040516105a59190612691565b60405180910390f35b3480156105b9575f5ffd5b506105c261159c565b6040516105cf9190612709565b60405180910390f35b3480156105e3575f5ffd5b506105ec6115a2565b6040516105f99190612709565b60405180910390f35b34801561060d575f5ffd5b506106166115a8565b005b348015610623575f5ffd5b5061063e6004803603810190610639919061274c565b6117a4565b005b34801561064b575f5ffd5b50610654611940565b6040516106619190612709565b60405180910390f35b348015610675575f5ffd5b5061067e611946565b005b34801561068b575f5ffd5b50610694611b30565b6040516106a19190612709565b60405180910390f35b3480156106b5575f5ffd5b506106be611b76565b005b3480156106cb575f5ffd5b506106e660048036038101906106e1919061274c565b611ce5565b6040516106f4929190612777565b60405180910390f35b5f8054610709906127cb565b80601f0160208091040260200160405190810160405280929190818152602001828054610735906127cb565b80156107805780601f1061075757610100808354040283529160200191610780565b820191905f5260205f20905b81548152906001019060200180831161076357829003601f168201915b505050505081565b6001600581111561079c5761079b612329565b5b60095f9054906101000a900460ff1660058111156107bd576107bc612329565b5b146107fd576040517f08c379a00000000000000000000000000000000000000000000000000000000081526004016107f4906123b0565b60405180910390fd5b4260035411610841576040517f08c379a000000000000000000000000000000000000000000000000000000000815260040161083890612418565b60405180910390fd5b5f3411610883576040517f08c379a000000000000000000000000000000000000000000000000000000000815260040161087a9061286b565b60405180910390fd5b60085434106108c7576040517f08c379a00000000000000000000000000000000000000000000000000000000081526004016108be906128d3565b60405180910390fd5b5f73ffffffffffffffffffffffffffffffffffffffff163373ffffffffffffffffffffffffffffffffffffffff1603610935576040517f08c379a000000000000000000000000000000000000000000000000000000000815260040161092c9061293b565b60405180910390fd5b604051806040016040528034600a5f3373ffffffffffffffffffffffffffffffffffffffff1673ffffffffffffffffffffffffffffffffffffffff1681526020019081526020015f205f015461098b919061246c565b815260200142815250600a5f3373ffffffffffffffffffffffffffffffffffffffff1673ffffffffffffffffffffffffffffffffffffffff1681526020019081526020015f205f820151815f0155602082015181600101559050505f600a5f3373ffffffffffffffffffffffffffffffffffffffff1673ffffffffffffffffffffffffffffffffffffffff1681526020019081526020015f205f015403610aa457600b33908060018154018082558091505060019003905f5260205f20015f9091909190916101000a81548173ffffffffffffffffffffffffffffffffffffffff021916908373ffffffffffffffffffffffffffffffffffffffff16021790555060075f815480929190610a9e9061249f565b91905055505b610aac611d05565b7f086ef21bf36e265f583d1740184679fa503cfbfb695cffff03746dbcbb0a541a3342604051610add9291906129a3565b60405180910390a1600654600a5f3373ffffffffffffffffffffffffffffffffffffffff1673ffffffffffffffffffffffffffffffffffffffff1681526020019081526020015f205f01541115610bb657600a5f3373ffffffffffffffffffffffffffffffffffffffff1673ffffffffffffffffffffffffffffffffffffffff1681526020019081526020015f205f015460068190555033600560016101000a81548173ffffffffffffffffffffffffffffffffffffffff021916908373ffffffffffffffffffffffffffffffffffffffff1602179055505b565b600b8181548110610bc7575f80fd5b905f5260205f20015f915054906101000a900473ffffffffffffffffffffffffffffffffffffffff1681565b5f60095f9054906101000a900460ff16905090565b3373ffffffffffffffffffffffffffffffffffffffff1660025f9054906101000a900473ffffffffffffffffffffffffffffffffffffffff1673ffffffffffffffffffffffffffffffffffffffff1614610c97576040517f08c379a0000000000000000000000000000000000000000000000000000000008152600401610c8e90612a27565b60405180910390fd5b60055f9054906101000a900460ff1615610ce6576040517f08c379a0000000000000000000000000000000000000000000000000000000008152600401610cdd90612a8f565b60405180910390fd5b600160055f6101000a81548160ff02191690831515021790555060046005811115610d1457610d13612329565b5b60095f9054906101000a900460ff166005811115610d3557610d34612329565b5b14610d75576040517f08c379a0000000000000000000000000000000000000000000000000000000008152600401610d6c90612af7565b60405180910390fd5b60326007541115610dbb576040517f08c379a0000000000000000000000000000000000000000000000000000000008152600401610db290612b85565b60405180910390fd5b5f5f90505b600754811015610fa3575f600a5f600b8481548110610de257610de1612ba3565b5b905f5260205f20015f9054906101000a900473ffffffffffffffffffffffffffffffffffffffff1673ffffffffffffffffffffffffffffffffffffffff1673ffffffffffffffffffffffffffffffffffffffff1681526020019081526020015f205f015490505f600b8381548110610e5d57610e5c612ba3565b5b905f5260205f20015f9054906101000a900473ffffffffffffffffffffffffffffffffffffffff1690505f821115610f93575f600a5f8373ffffffffffffffffffffffffffffffffffffffff1673ffffffffffffffffffffffffffffffffffffffff1681526020019081526020015f205f01819055505f8173ffffffffffffffffffffffffffffffffffffffff1683614e2090604051610efc90612bfd565b5f60405180830381858888f193505050503d805f8114610f37576040519150601f19603f3d011682016040523d82523d5f602084013e610f3c565b606091505b5050905080610f915782600a5f8473ffffffffffffffffffffffffffffffffffffffff1673ffffffffffffffffffffffffffffffffffffffff1681526020019081526020015f205f0181905550505050610f96565b505b50505b8080600101915050610dc0565b505f60055f6101000a81548160ff021916908315150217905550565b3373ffffffffffffffffffffffffffffffffffffffff1660025f9054906101000a900473ffffffffffffffffffffffffffffffffffffffff1673ffffffffffffffffffffffffffffffffffffffff161461104e576040517f08c379a000000000000000000000000000000000000000000000000000000000815260040161104590612a27565b60405180910390fd5b6001600581111561106257611061612329565b5b60095f9054906101000a900460ff16600581111561108357611082612329565b5b146110c3576040517f08c379a00000000000000000000000000000000000000000000000000000000081526004016110ba906123b0565b60405180910390fd5b600260095f6101000a81548160ff021916908360058111156110e8576110e7612329565b5b02179055507fd8a7da7323410642828723771d853997704601cf6852ad3353c02d8a0c8c5b834260405161111c9190612c5b565b60405180910390a1565b60055f9054906101000a900460ff1615611175576040517f08c379a000000000000000000000000000000000000000000000000000000000815260040161116c90612a8f565b60405180910390fd5b600160055f6101000a81548160ff021916908315150217905550600460058111156111a3576111a2612329565b5b60095f9054906101000a900460ff1660058111156111c4576111c3612329565b5b14611204576040517f08c379a00000000000000000000000000000000000000000000000000000000081526004016111fb90612af7565b60405180910390fd5b5f600a5f3373ffffffffffffffffffffffffffffffffffffffff1673ffffffffffffffffffffffffffffffffffffffff1681526020019081526020015f205f015411611285576040517f08c379a000000000000000000000000000000000000000000000000000000000815260040161127c90612cf7565b60405180910390fd5b5f600a5f3373ffffffffffffffffffffffffffffffffffffffff1673ffffffffffffffffffffffffffffffffffffffff1681526020019081526020015f205f015490505f600a5f3373ffffffffffffffffffffffffffffffffffffffff1673ffffffffffffffffffffffffffffffffffffffff1681526020019081526020015f205f01819055505f3373ffffffffffffffffffffffffffffffffffffffff16826127109060405161133590612bfd565b5f60405180830381858888f193505050503d805f8114611370576040519150601f19603f3d011682016040523d82523d5f602084013e611375565b606091505b50509050806113fd5781600a5f3373ffffffffffffffffffffffffffffffffffffffff1673ffffffffffffffffffffffffffffffffffffffff1681526020019081526020015f205f01819055506040517f08c379a00000000000000000000000000000000000000000000000000000000081526004016113f490612d5f565b60405180910390fd5b7f01a7efab681ea302614d1ee06d09053b2eb69ce20a9851858ff847d4d42d3ee033834260405161143093929190612dc7565b60405180910390a150505f60055f6101000a81548160ff021916908315150217905550565b5f3373ffffffffffffffffffffffffffffffffffffffff1660025f9054906101000a900473ffffffffffffffffffffffffffffffffffffffff1673ffffffffffffffffffffffffffffffffffffffff16146114e5576040517f08c379a00000000000000000000000000000000000000000000000000000000081526004016114dc90612a27565b60405180910390fd5b47905090565b600180546114f8906127cb565b80601f0160208091040260200160405190810160405280929190818152602001828054611524906127cb565b801561156f5780601f106115465761010080835404028352916020019161156f565b820191905f5260205f20905b81548152906001019060200180831161155257829003601f168201915b505050505081565b60025f9054906101000a900473ffffffffffffffffffffffffffffffffffffffff1681565b60085481565b60045481565b3373ffffffffffffffffffffffffffffffffffffffff1660025f9054906101000a900473ffffffffffffffffffffffffffffffffffffffff1673ffffffffffffffffffffffffffffffffffffffff1614611637576040517f08c379a000000000000000000000000000000000000000000000000000000000815260040161162e90612a27565b60405180910390fd5b6001600581111561164b5761164a612329565b5b60095f9054906101000a900460ff16600581111561166c5761166b612329565b5b146116ac576040517f08c379a00000000000000000000000000000000000000000000000000000000081526004016116a3906123b0565b60405180910390fd5b6116b4611d05565b600360058111156116c8576116c7612329565b5b60095f9054906101000a900460ff1660058111156116e9576116e8612329565b5b141580611728575060058081111561170457611703612329565b5b60095f9054906101000a900460ff16600581111561172557611724612329565b5b14155b156117a257600460095f6101000a81548160ff0219169083600581111561175257611751612329565b5b02179055507f531d9ed07fc41c774a20a0c80bfc1e3d4a1d5d5f028915424bfb538e9761ab50426040516117869190612e59565b60405180910390a16064600754116117a1576117a0610c08565b5b5b565b3373ffffffffffffffffffffffffffffffffffffffff1660025f9054906101000a900473ffffffffffffffffffffffffffffffffffffffff1673ffffffffffffffffffffffffffffffffffffffff1614611833576040517f08c379a000000000000000000000000000000000000000000000000000000000815260040161182a90612a27565b60405180910390fd5b5f73ffffffffffffffffffffffffffffffffffffffff168173ffffffffffffffffffffffffffffffffffffffff16036118a1576040517f08c379a00000000000000000000000000000000000000000000000000000000081526004016118989061293b565b60405180910390fd5b8060025f6101000a81548173ffffffffffffffffffffffffffffffffffffffff021916908373ffffffffffffffffffffffffffffffffffffffff1602179055507fae9d288f06c8e7b741f4a9ad5f43155ea325688e0cd2a76d1d8474ceb0c726aa60025f9054906101000a900473ffffffffffffffffffffffffffffffffffffffff16824260405161193593929190612ecf565b60405180910390a150565b60035481565b3373ffffffffffffffffffffffffffffffffffffffff1660025f9054906101000a900473ffffffffffffffffffffffffffffffffffffffff1673ffffffffffffffffffffffffffffffffffffffff16146119d5576040517f08c379a00000000000000000000000000000000000000000000000000000000081526004016119cc90612a27565b60405180910390fd5b5f60058111156119e8576119e7612329565b5b60095f9054906101000a900460ff166005811115611a0957611a08612329565b5b148015611a48575060036005811115611a2557611a24612329565b5b60095f9054906101000a900460ff166005811115611a4657611a45612329565b5b145b611a87576040517f08c379a0000000000000000000000000000000000000000000000000000000008152600401611a7e90612f61565b60405180910390fd5b5f4714611ac9576040517f08c379a0000000000000000000000000000000000000000000000000000000008152600401611ac090612fc9565b60405180910390fd5b600160095f6101000a81548160ff02191690836005811115611aee57611aed612329565b5b02179055507f420c0b3991b6de993da00acefc7fb12bef31604d94cab8bf2a6e104e273cbf1f60035442604051611b26929190613031565b60405180910390a1565b5f600a5f3373ffffffffffffffffffffffffffffffffffffffff1673ffffffffffffffffffffffffffffffffffffffff1681526020019081526020015f205f0154905090565b3373ffffffffffffffffffffffffffffffffffffffff1660025f9054906101000a900473ffffffffffffffffffffffffffffffffffffffff1673ffffffffffffffffffffffffffffffffffffffff1614611c05576040517f08c379a0000000000000000000000000000000000000000000000000000000008152600401611bfc90612a27565b60405180910390fd5b60026005811115611c1957611c18612329565b5b60095f9054906101000a900460ff166005811115611c3a57611c39612329565b5b14611c7a576040517f08c379a0000000000000000000000000000000000000000000000000000000008152600401611c71906130b5565b60405180910390fd5b600160095f6101000a81548160ff02191690836005811115611c9f57611c9e612329565b5b02179055507f6b8be408dc299319e92648f903a6eb02a11eed17a1f419ccd4edf8f46e8daaa242604051611cd3919061311d565b60405180910390a1611ce3611d05565b565b600a602052805f5260405f205f91509050805f0154908060010154905082565b3373ffffffffffffffffffffffffffffffffffffffff1660025f9054906101000a900473ffffffffffffffffffffffffffffffffffffffff1673ffffffffffffffffffffffffffffffffffffffff1614611d94576040517f08c379a0000000000000000000000000000000000000000000000000000000008152600401611d8b90612a27565b60405180910390fd5b60055f9054906101000a900460ff1615611de3576040517f08c379a0000000000000000000000000000000000000000000000000000000008152600401611dda90612a8f565b60405180910390fd5b600160055f6101000a81548160ff02191690831515021790555060016005811115611e1157611e10612329565b5b60095f9054906101000a900460ff166005811115611e3257611e31612329565b5b03611eea576003544210611ee957600360095f6101000a81548160ff02191690836005811115611e6557611e64612329565b5b0217905550600560019054906101000a900473ffffffffffffffffffffffffffffffffffffffff1673ffffffffffffffffffffffffffffffffffffffff167f7edcc4eb74bc40a75c2d16f7dfa8f8c1191beed4db1d54d5552c4021cca4eaf84760075442604051611ed893929190613193565b60405180910390a2611ee8611f05565b5b5b5f60055f6101000a81548160ff021916908315150217905550565b3373ffffffffffffffffffffffffffffffffffffffff1660025f9054906101000a900473ffffffffffffffffffffffffffffffffffffffff1673ffffffffffffffffffffffffffffffffffffffff1614611f94576040517f08c379a0000000000000000000000000000000000000000000000000000000008152600401611f8b90612a27565b60405180910390fd5b60016005811115611fa857611fa7612329565b5b60095f9054906101000a900460ff166005811115611fc957611fc8612329565b5b14612009576040517f08c379a0000000000000000000000000000000000000000000000000000000008152600401612000906123b0565b60405180910390fd5b60055f9054906101000a900460ff1615612058576040517f08c379a000000000000000000000000000000000000000000000000000000000815260040161204f90612a8f565b60405180910390fd5b600160055f6101000a81548160ff021916908315150217905550600360095f6101000a81548160ff0219169083600581111561209757612096612329565b5b02179055505f4790505f6064600454836120b191906131db565b6120bb9190613249565b90505f81836120ca9190613279565b90505f60025f9054906101000a900473ffffffffffffffffffffffffffffffffffffffff1673ffffffffffffffffffffffffffffffffffffffff16836127109060405161211690612bfd565b5f60405180830381858888f193505050503d805f8114612151576040519150601f19603f3d011682016040523d82523d5f602084013e612156565b606091505b505090508061219a576040517f08c379a000000000000000000000000000000000000000000000000000000000815260040161219190612d5f565b60405180910390fd5b5f600560019054906101000a900473ffffffffffffffffffffffffffffffffffffffff1673ffffffffffffffffffffffffffffffffffffffff1683612710906040516121e590612bfd565b5f60405180830381858888f193505050503d805f8114612220576040519150601f19603f3d011682016040523d82523d5f602084013e612225565b606091505b5050905080612269576040517f08c379a000000000000000000000000000000000000000000000000000000000815260040161226090612d5f565b60405180910390fd5b600560019054906101000a900473ffffffffffffffffffffffffffffffffffffffff1673ffffffffffffffffffffffffffffffffffffffff167f7edcc4eb74bc40a75c2d16f7dfa8f8c1191beed4db1d54d5552c4021cca4eaf847600754426040516122d7939291906132f6565b60405180910390a2600560095f6101000a81548160ff0219169083600581111561230457612303612329565b5b021790555050505050505f60055f6101000a81548160ff021916908315150217905550565b7f4e487b71000000000000000000000000000000000000000000000000000000005f52602160045260245ffd5b5f82825260208201905092915050565b7f47616d65206973206e6f74206163746976652e000000000000000000000000005f82015250565b5f61239a601383612356565b91506123a582612366565b602082019050919050565b5f6020820190508181035f8301526123c78161238e565b9050919050565b7f446561646c696e65206973206f7665722e0000000000000000000000000000005f82015250565b5f612402601183612356565b915061240d826123ce565b602082019050919050565b5f6020820190508181035f83015261242f816123f6565b9050919050565b5f819050919050565b7f4e487b71000000000000000000000000000000000000000000000000000000005f52601160045260245ffd5b5f61247682612436565b915061248183612436565b92508282019050808211156124995761249861243f565b5b92915050565b5f6124a982612436565b91507fffffffffffffffffffffffffffffffffffffffffffffffffffffffffffffffff82036124db576124da61243f565b5b600182019050919050565b7f455448207265636569766564207669612066616c6c6261636b000000000000005f82015250565b5f61251a601983612356565b9150612525826124e6565b602082019050919050565b5f73ffffffffffffffffffffffffffffffffffffffff82169050919050565b5f61255982612530565b9050919050565b6125698161254f565b82525050565b61257881612436565b82525050565b5f6060820190508181035f8301526125958161250e565b90506125a46020830185612560565b6125b1604083018461256f565b9392505050565b5f81519050919050565b8281835e5f83830152505050565b5f601f19601f8301169050919050565b5f6125ea826125b8565b6125f48185612356565b93506126048185602086016125c2565b61260d816125d0565b840191505092915050565b5f6020820190508181035f83015261263081846125e0565b905092915050565b5f5ffd5b61264581612436565b811461264f575f5ffd5b50565b5f813590506126608161263c565b92915050565b5f6020828403121561267b5761267a612638565b5b5f61268884828501612652565b91505092915050565b5f6020820190506126a45f830184612560565b92915050565b600681106126bb576126ba612329565b5b50565b5f8190506126cb826126aa565b919050565b5f6126da826126be565b9050919050565b6126ea816126d0565b82525050565b5f6020820190506127035f8301846126e1565b92915050565b5f60208201905061271c5f83018461256f565b92915050565b61272b8161254f565b8114612735575f5ffd5b50565b5f8135905061274681612722565b92915050565b5f6020828403121561276157612760612638565b5b5f61276e84828501612738565b91505092915050565b5f60408201905061278a5f83018561256f565b612797602083018461256f565b9392505050565b7f4e487b71000000000000000000000000000000000000000000000000000000005f52602260045260245ffd5b5f60028204905060018216806127e257607f821691505b6020821081036127f5576127f461279e565b5b50919050565b7f496e76616c696420616d6f756e742e204d75737420626520706f7369746976655f8201527f2e00000000000000000000000000000000000000000000000000000000000000602082015250565b5f612855602183612356565b9150612860826127fb565b604082019050919050565b5f6020820190508181035f83015261288281612849565b9050919050565b7f4d6178696d756d206465706f736974206973206c6f7765722e000000000000005f82015250565b5f6128bd601983612356565b91506128c882612889565b602082019050919050565b5f6020820190508181035f8301526128ea816128b1565b9050919050565b7f496e76616c6964206164647265737300000000000000000000000000000000005f82015250565b5f612925600f83612356565b9150612930826128f1565b602082019050919050565b5f6020820190508181035f83015261295281612919565b9050919050565b7f4465706f73697420697320646f6e6500000000000000000000000000000000005f82015250565b5f61298d600f83612356565b915061299882612959565b602082019050919050565b5f6060820190508181035f8301526129ba81612981565b90506129c96020830185612560565b6129d6604083018461256f565b9392505050565b7f4d757374206265206f776e65722e0000000000000000000000000000000000005f82015250565b5f612a11600e83612356565b9150612a1c826129dd565b602082019050919050565b5f6020820190508181035f830152612a3e81612a05565b9050919050565b7f5265656e7472616e6379206465746563746564000000000000000000000000005f82015250565b5f612a79601383612356565b9150612a8482612a45565b602082019050919050565b5f6020820190508181035f830152612aa681612a6d565b9050919050565b7f47616d65206973206e6f74207465726d696e61746564000000000000000000005f82015250565b5f612ae1601683612356565b9150612aec82612aad565b602082019050919050565b5f6020820190508181035f830152612b0e81612ad5565b9050919050565b7f546f206d616e79207061727469636970616e74732e20506c65617365207573655f8201527f20726566756e6400000000000000000000000000000000000000000000000000602082015250565b5f612b6f602783612356565b9150612b7a82612b15565b604082019050919050565b5f6020820190508181035f830152612b9c81612b63565b9050919050565b7f4e487b71000000000000000000000000000000000000000000000000000000005f52603260045260245ffd5b5f81905092915050565b50565b5f612be85f83612bd0565b9150612bf382612bda565b5f82019050919050565b5f612c0782612bdd565b9150819050919050565b7f47616d65206973207061757365642e00000000000000000000000000000000005f82015250565b5f612c45600f83612356565b9150612c5082612c11565b602082019050919050565b5f6040820190508181035f830152612c7281612c39565b9050612c81602083018461256f565b92915050565b7f596f7572206465706f73697420697320302e2053686f756c6420626520706f735f8201527f697469766520746f2077697468647261772e0000000000000000000000000000602082015250565b5f612ce1603283612356565b9150612cec82612c87565b604082019050919050565b5f6020820190508181035f830152612d0e81612cd5565b9050919050565b7f5472616e73666572206661696c656400000000000000000000000000000000005f82015250565b5f612d49600f83612356565b9150612d5482612d15565b602082019050919050565b5f6020820190508181035f830152612d7681612d3d565b9050919050565b7f4d79206465706f736974206973207769746864726177656400000000000000005f82015250565b5f612db1601883612356565b9150612dbc82612d7d565b602082019050919050565b5f6080820190508181035f830152612dde81612da5565b9050612ded6020830186612560565b612dfa604083018561256f565b612e07606083018461256f565b949350505050565b7f47616d65206973207465726d696e6174656400000000000000000000000000005f82015250565b5f612e43601283612356565b9150612e4e82612e0f565b602082019050919050565b5f6040820190508181035f830152612e7081612e37565b9050612e7f602083018461256f565b92915050565b7f4f776e657220686173206368616e6765642e00000000000000000000000000005f82015250565b5f612eb9601283612356565b9150612ec482612e85565b602082019050919050565b5f6080820190508181035f830152612ee681612ead565b9050612ef56020830186612560565b612f026040830185612560565b612f0f606083018461256f565b949350505050565b7f47616d6520697320616374697665206f72207061757365642e000000000000005f82015250565b5f612f4b601983612356565b9150612f5682612f17565b602082019050919050565b5f6020820190508181035f830152612f7881612f3f565b9050919050565b7f436f6e74726163742062616c616e63652073686f756c6420626520656d7074795f82015250565b5f612fb3602083612356565b9150612fbe82612f7f565b602082019050919050565b5f6020820190508181035f830152612fe081612fa7565b9050919050565b7f47616d65206861732073746172746564210000000000000000000000000000005f82015250565b5f61301b601183612356565b915061302682612fe7565b602082019050919050565b5f6060820190508181035f8301526130488161300f565b9050613057602083018561256f565b613064604083018461256f565b9392505050565b7f47616d65206973206e6f74207061757365642e000000000000000000000000005f82015250565b5f61309f601383612356565b91506130aa8261306b565b602082019050919050565b5f6020820190508181035f8301526130cc81613093565b9050919050565b7f47616d6520697320756e706175736564000000000000000000000000000000005f82015250565b5f613107601083612356565b9150613112826130d3565b602082019050919050565b5f6040820190508181035f830152613134816130fb565b9050613143602083018461256f565b92915050565b7f47616d652068617320656e6465640000000000000000000000000000000000005f82015250565b5f61317d600e83612356565b915061318882613149565b602082019050919050565b5f6080820190508181035f8301526131aa81613171565b90506131b9602083018661256f565b6131c6604083018561256f565b6131d3606083018461256f565b949350505050565b5f6131e582612436565b91506131f083612436565b92508282026131fe81612436565b915082820484148315176132155761321461243f565b5b5092915050565b7f4e487b71000000000000000000000000000000000000000000000000000000005f52601260045260245ffd5b5f61325382612436565b915061325e83612436565b92508261326e5761326d61321c565b5b828204905092915050565b5f61328382612436565b915061328e83612436565b92508282039050818111156132a6576132a561243f565b5b92915050565b7f47616d65206861732066696e69736865642100000000000000000000000000005f82015250565b5f6132e0601283612356565b91506132eb826132ac565b602082019050919050565b5f6080820190508181035f83015261330d816132d4565b905061331c602083018661256f565b613329604083018561256f565b613336606083018461256f565b94935050505056fea264697066735822122075b01e7d97f0a854f1a22c6119991e7a7f10cdc9a4cfdae15231da059b74e4b664736f6c634300081e0033a2646970667358221220ebc09ff62fa568bf8dc18cf7dd85eb6a2c480f067b97ddee44ab1eba858ebf4064736f6c634300081e0033",
			"opcodes": "PUSH1 0x80 PUSH1 0x40 MSTORE CALLVALUE DUP1 ISZERO PUSH1 0xE JUMPI PUSH0 PUSH0 REVERT JUMPDEST POP PUSH2 0x4C30 DUP1 PUSH2 0x1C PUSH0 CODECOPY PUSH0 RETURN INVALID PUSH1 0x80 PUSH1 0x40 MSTORE CALLVALUE DUP1 ISZERO PUSH2 0xF JUMPI PUSH0 PUSH0 REVERT JUMPDEST POP PUSH1 0x4 CALLDATASIZE LT PUSH2 0x86 JUMPI PUSH0 CALLDATALOAD PUSH1 0xE0 SHR DUP1 PUSH4 0x800476AE GT PUSH2 0x59 JUMPI DUP1 PUSH4 0x800476AE EQ PUSH2 0x138 JUMPI DUP1 PUSH4 0xB847BD8E EQ PUSH2 0x168 JUMPI DUP1 PUSH4 0xDB1C45F9 EQ PUSH2 0x198 JUMPI DUP1 PUSH4 0xEE9ADA29 EQ PUSH2 0x1B6 JUMPI PUSH2 0x86 JUMP JUMPDEST DUP1 PUSH4 0x117A5B90 EQ PUSH2 0x8A JUMPI DUP1 PUSH4 0x17B7A476 EQ PUSH2 0xBA JUMPI DUP1 PUSH4 0x3801729F EQ PUSH2 0xD8 JUMPI DUP1 PUSH4 0x64AFADB6 EQ PUSH2 0x108 JUMPI JUMPDEST PUSH0 PUSH0 REVERT JUMPDEST PUSH2 0xA4 PUSH1 0x4 DUP1 CALLDATASIZE SUB DUP2 ADD SWAP1 PUSH2 0x9F SWAP2 SWAP1 PUSH2 0x6D4 JUMP JUMPDEST PUSH2 0x1E6 JUMP JUMPDEST PUSH1 0x40 MLOAD PUSH2 0xB1 SWAP2 SWAP1 PUSH2 0x73E JUMP JUMPDEST PUSH1 0x40 MLOAD DUP1 SWAP2 SUB SWAP1 RETURN JUMPDEST PUSH2 0xC2 PUSH2 0x220 JUMP JUMPDEST PUSH1 0x40 MLOAD PUSH2 0xCF SWAP2 SWAP1 PUSH2 0x766 JUMP JUMPDEST PUSH1 0x40 MLOAD DUP1 SWAP2 SUB SWAP1 RETURN JUMPDEST PUSH2 0xF2 PUSH1 0x4 DUP1 CALLDATASIZE SUB DUP2 ADD SWAP1 PUSH2 0xED SWAP2 SWAP1 PUSH2 0x8BB JUMP JUMPDEST PUSH2 0x22B JUMP JUMPDEST PUSH1 0x40 MLOAD PUSH2 0xFF SWAP2 SWAP1 PUSH2 0x73E JUMP JUMPDEST PUSH1 0x40 MLOAD DUP1 SWAP2 SUB SWAP1 RETURN JUMPDEST PUSH2 0x122 PUSH1 0x4 DUP1 CALLDATASIZE SUB DUP2 ADD SWAP1 PUSH2 0x11D SWAP2 SWAP1 PUSH2 0x994 JUMP JUMPDEST PUSH2 0x425 JUMP JUMPDEST PUSH1 0x40 MLOAD PUSH2 0x12F SWAP2 SWAP1 PUSH2 0x73E JUMP JUMPDEST PUSH1 0x40 MLOAD DUP1 SWAP2 SUB SWAP1 RETURN JUMPDEST PUSH2 0x152 PUSH1 0x4 DUP1 CALLDATASIZE SUB DUP2 ADD SWAP1 PUSH2 0x14D SWAP2 SWAP1 PUSH2 0x9D2 JUMP JUMPDEST PUSH2 0x46D JUMP JUMPDEST PUSH1 0x40 MLOAD PUSH2 0x15F SWAP2 SWAP1 PUSH2 0x73E JUMP JUMPDEST PUSH1 0x40 MLOAD DUP1 SWAP2 SUB SWAP1 RETURN JUMPDEST PUSH2 0x182 PUSH1 0x4 DUP1 CALLDATASIZE SUB DUP2 ADD SWAP1 PUSH2 0x17D SWAP2 SWAP1 PUSH2 0x9D2 JUMP JUMPDEST PUSH2 0x49D JUMP JUMPDEST PUSH1 0x40 MLOAD PUSH2 0x18F SWAP2 SWAP1 PUSH2 0xAB4 JUMP JUMPDEST PUSH1 0x40 MLOAD DUP1 SWAP2 SUB SWAP1 RETURN JUMPDEST PUSH2 0x1A0 PUSH2 0x565 JUMP JUMPDEST PUSH1 0x40 MLOAD PUSH2 0x1AD SWAP2 SWAP1 PUSH2 0xAB4 JUMP JUMPDEST PUSH1 0x40 MLOAD DUP1 SWAP2 SUB SWAP1 RETURN JUMPDEST PUSH2 0x1D0 PUSH1 0x4 DUP1 CALLDATASIZE SUB DUP2 ADD SWAP1 PUSH2 0x1CB SWAP2 SWAP1 PUSH2 0xAD4 JUMP JUMPDEST PUSH2 0x5EF JUMP JUMPDEST PUSH1 0x40 MLOAD PUSH2 0x1DD SWAP2 SWAP1 PUSH2 0xB2C JUMP JUMPDEST PUSH1 0x40 MLOAD DUP1 SWAP2 SUB SWAP1 RETURN JUMPDEST PUSH0 DUP2 DUP2 SLOAD DUP2 LT PUSH2 0x1F4 JUMPI PUSH0 DUP1 REVERT JUMPDEST SWAP1 PUSH0 MSTORE PUSH1 0x20 PUSH0 KECCAK256 ADD PUSH0 SWAP2 POP SLOAD SWAP1 PUSH2 0x100 EXP SWAP1 DIV PUSH20 0xFFFFFFFFFFFFFFFFFFFFFFFFFFFFFFFFFFFFFFFF AND DUP2 JUMP JUMPDEST PUSH0 PUSH0 DUP1 SLOAD SWAP1 POP SWAP1 POP SWAP1 JUMP JUMPDEST PUSH0 PUSH0 DUP7 DUP7 DUP7 DUP7 DUP7 PUSH1 0x40 MLOAD PUSH2 0x23E SWAP1 PUSH2 0x683 JUMP JUMPDEST PUSH2 0x24C SWAP6 SWAP5 SWAP4 SWAP3 SWAP2 SWAP1 PUSH2 0xBA5 JUMP JUMPDEST PUSH1 0x40 MLOAD DUP1 SWAP2 SUB SWAP1 PUSH0 CREATE DUP1 ISZERO DUP1 ISZERO PUSH2 0x265 JUMPI RETURNDATASIZE PUSH0 PUSH0 RETURNDATACOPY RETURNDATASIZE PUSH0 REVERT JUMPDEST POP SWAP1 POP PUSH0 DUP2 SWAP1 DUP1 PUSH1 0x1 DUP2 SLOAD ADD DUP1 DUP3 SSTORE DUP1 SWAP2 POP POP PUSH1 0x1 SWAP1 SUB SWAP1 PUSH0 MSTORE PUSH1 0x20 PUSH0 KECCAK256 ADD PUSH0 SWAP1 SWAP2 SWAP1 SWAP2 SWAP1 SWAP2 PUSH2 0x100 EXP DUP2 SLOAD DUP2 PUSH20 0xFFFFFFFFFFFFFFFFFFFFFFFFFFFFFFFFFFFFFFFF MUL NOT AND SWAP1 DUP4 PUSH20 0xFFFFFFFFFFFFFFFFFFFFFFFFFFFFFFFFFFFFFFFF AND MUL OR SWAP1 SSTORE POP CALLER PUSH1 0x1 PUSH0 DUP4 PUSH20 0xFFFFFFFFFFFFFFFFFFFFFFFFFFFFFFFFFFFFFFFF AND PUSH20 0xFFFFFFFFFFFFFFFFFFFFFFFFFFFFFFFFFFFFFFFF AND DUP2 MSTORE PUSH1 0x20 ADD SWAP1 DUP2 MSTORE PUSH1 0x20 ADD PUSH0 KECCAK256 PUSH0 PUSH2 0x100 EXP DUP2 SLOAD DUP2 PUSH20 0xFFFFFFFFFFFFFFFFFFFFFFFFFFFFFFFFFFFFFFFF MUL NOT AND SWAP1 DUP4 PUSH20 0xFFFFFFFFFFFFFFFFFFFFFFFFFFFFFFFFFFFFFFFF AND MUL OR SWAP1 SSTORE POP PUSH1 0x2 PUSH0 CALLER PUSH20 0xFFFFFFFFFFFFFFFFFFFFFFFFFFFFFFFFFFFFFFFF AND PUSH20 0xFFFFFFFFFFFFFFFFFFFFFFFFFFFFFFFFFFFFFFFF AND DUP2 MSTORE PUSH1 0x20 ADD SWAP1 DUP2 MSTORE PUSH1 0x20 ADD PUSH0 KECCAK256 DUP2 SWAP1 DUP1 PUSH1 0x1 DUP2 SLOAD ADD DUP1 DUP3 SSTORE DUP1 SWAP2 POP POP PUSH1 0x1 SWAP1 SUB SWAP1 PUSH0 MSTORE PUSH1 0x20 PUSH0 KECCAK256 ADD PUSH0 SWAP1 SWAP2 SWAP1 SWAP2 SWAP1 SWAP2 PUSH2 0x100 EXP DUP2 SLOAD DUP2 PUSH20 0xFFFFFFFFFFFFFFFFFFFFFFFFFFFFFFFFFFFFFFFF MUL NOT AND SWAP1 DUP4 PUSH20 0xFFFFFFFFFFFFFFFFFFFFFFFFFFFFFFFFFFFFFFFF AND MUL OR SWAP1 SSTORE POP PUSH32 0xB61C4351B4059C41EEFBF7EBE3D6B3E3558D6D7D628B991E6F8A1F172A578AAD DUP2 CALLER TIMESTAMP PUSH1 0x40 MLOAD PUSH2 0x410 SWAP4 SWAP3 SWAP2 SWAP1 PUSH2 0xC4E JUMP JUMPDEST PUSH1 0x40 MLOAD DUP1 SWAP2 SUB SWAP1 LOG1 DUP1 SWAP2 POP POP SWAP6 SWAP5 POP POP POP POP POP JUMP JUMPDEST PUSH1 0x2 PUSH1 0x20 MSTORE DUP2 PUSH0 MSTORE PUSH1 0x40 PUSH0 KECCAK256 DUP2 DUP2 SLOAD DUP2 LT PUSH2 0x43E JUMPI PUSH0 DUP1 REVERT JUMPDEST SWAP1 PUSH0 MSTORE PUSH1 0x20 PUSH0 KECCAK256 ADD PUSH0 SWAP2 POP SWAP2 POP SWAP1 SLOAD SWAP1 PUSH2 0x100 EXP SWAP1 DIV PUSH20 0xFFFFFFFFFFFFFFFFFFFFFFFFFFFFFFFFFFFFFFFF AND DUP2 JUMP JUMPDEST PUSH1 0x1 PUSH1 0x20 MSTORE DUP1 PUSH0 MSTORE PUSH1 0x40 PUSH0 KECCAK256 PUSH0 SWAP2 POP SLOAD SWAP1 PUSH2 0x100 EXP SWAP1 DIV PUSH20 0xFFFFFFFFFFFFFFFFFFFFFFFFFFFFFFFFFFFFFFFF AND DUP2 JUMP JUMPDEST PUSH1 0x60 PUSH1 0x2 PUSH0 DUP4 PUSH20 0xFFFFFFFFFFFFFFFFFFFFFFFFFFFFFFFFFFFFFFFF AND PUSH20 0xFFFFFFFFFFFFFFFFFFFFFFFFFFFFFFFFFFFFFFFF AND DUP2 MSTORE PUSH1 0x20 ADD SWAP1 DUP2 MSTORE PUSH1 0x20 ADD PUSH0 KECCAK256 DUP1 SLOAD DUP1 PUSH1 0x20 MUL PUSH1 0x20 ADD PUSH1 0x40 MLOAD SWAP1 DUP2 ADD PUSH1 0x40 MSTORE DUP1 SWAP3 SWAP2 SWAP1 DUP2 DUP2 MSTORE PUSH1 0x20 ADD DUP3 DUP1 SLOAD DUP1 ISZERO PUSH2 0x559 JUMPI PUSH1 0x20 MUL DUP3 ADD SWAP2 SWAP1 PUSH0 MSTORE PUSH1 0x20 PUSH0 KECCAK256 SWAP1 JUMPDEST DUP2 PUSH0 SWAP1 SLOAD SWAP1 PUSH2 0x100 EXP SWAP1 DIV PUSH20 0xFFFFFFFFFFFFFFFFFFFFFFFFFFFFFFFFFFFFFFFF AND PUSH20 0xFFFFFFFFFFFFFFFFFFFFFFFFFFFFFFFFFFFFFFFF AND DUP2 MSTORE PUSH1 0x20 ADD SWAP1 PUSH1 0x1 ADD SWAP1 DUP1 DUP4 GT PUSH2 0x510 JUMPI JUMPDEST POP POP POP POP POP SWAP1 POP SWAP2 SWAP1 POP JUMP JUMPDEST PUSH1 0x60 PUSH0 DUP1 SLOAD DUP1 PUSH1 0x20 MUL PUSH1 0x20 ADD PUSH1 0x40 MLOAD SWAP1 DUP2 ADD PUSH1 0x40 MSTORE DUP1 SWAP3 SWAP2 SWAP1 DUP2 DUP2 MSTORE PUSH1 0x20 ADD DUP3 DUP1 SLOAD DUP1 ISZERO PUSH2 0x5E5 JUMPI PUSH1 0x20 MUL DUP3 ADD SWAP2 SWAP1 PUSH0 MSTORE PUSH1 0x20 PUSH0 KECCAK256 SWAP1 JUMPDEST DUP2 PUSH0 SWAP1 SLOAD SWAP1 PUSH2 0x100 EXP SWAP1 DIV PUSH20 0xFFFFFFFFFFFFFFFFFFFFFFFFFFFFFFFFFFFFFFFF AND PUSH20 0xFFFFFFFFFFFFFFFFFFFFFFFFFFFFFFFFFFFFFFFF AND DUP2 MSTORE PUSH1 0x20 ADD SWAP1 PUSH1 0x1 ADD SWAP1 DUP1 DUP4 GT PUSH2 0x59C JUMPI JUMPDEST POP POP POP POP POP SWAP1 POP SWAP1 JUMP JUMPDEST PUSH0 DUP2 PUSH20 0xFFFFFFFFFFFFFFFFFFFFFFFFFFFFFFFFFFFFFFFF AND PUSH1 0x1 PUSH0 DUP6 PUSH20 0xFFFFFFFFFFFFFFFFFFFFFFFFFFFFFFFFFFFFFFFF AND PUSH20 0xFFFFFFFFFFFFFFFFFFFFFFFFFFFFFFFFFFFFFFFF AND DUP2 MSTORE PUSH1 0x20 ADD SWAP1 DUP2 MSTORE PUSH1 0x20 ADD PUSH0 KECCAK256 PUSH0 SWAP1 SLOAD SWAP1 PUSH2 0x100 EXP SWAP1 DIV PUSH20 0xFFFFFFFFFFFFFFFFFFFFFFFFFFFFFFFFFFFFFFFF AND PUSH20 0xFFFFFFFFFFFFFFFFFFFFFFFFFFFFFFFFFFFFFFFF AND EQ SWAP1 POP SWAP3 SWAP2 POP POP JUMP JUMPDEST PUSH2 0x3F64 DUP1 PUSH2 0xC97 DUP4 CODECOPY ADD SWAP1 JUMP JUMPDEST PUSH0 PUSH1 0x40 MLOAD SWAP1 POP SWAP1 JUMP JUMPDEST PUSH0 PUSH0 REVERT JUMPDEST PUSH0 PUSH0 REVERT JUMPDEST PUSH0 DUP2 SWAP1 POP SWAP2 SWAP1 POP JUMP JUMPDEST PUSH2 0x6B3 DUP2 PUSH2 0x6A1 JUMP JUMPDEST DUP2 EQ PUSH2 0x6BD JUMPI PUSH0 PUSH0 REVERT JUMPDEST POP JUMP JUMPDEST PUSH0 DUP2 CALLDATALOAD SWAP1 POP PUSH2 0x6CE DUP2 PUSH2 0x6AA JUMP JUMPDEST SWAP3 SWAP2 POP POP JUMP JUMPDEST PUSH0 PUSH1 0x20 DUP3 DUP5 SUB SLT ISZERO PUSH2 0x6E9 JUMPI PUSH2 0x6E8 PUSH2 0x699 JUMP JUMPDEST JUMPDEST PUSH0 PUSH2 0x6F6 DUP5 DUP3 DUP6 ADD PUSH2 0x6C0 JUMP JUMPDEST SWAP2 POP POP SWAP3 SWAP2 POP POP JUMP JUMPDEST PUSH0 PUSH20 0xFFFFFFFFFFFFFFFFFFFFFFFFFFFFFFFFFFFFFFFF DUP3 AND SWAP1 POP SWAP2 SWAP1 POP JUMP JUMPDEST PUSH0 PUSH2 0x728 DUP3 PUSH2 0x6FF JUMP JUMPDEST SWAP1 POP SWAP2 SWAP1 POP JUMP JUMPDEST PUSH2 0x738 DUP2 PUSH2 0x71E JUMP JUMPDEST DUP3 MSTORE POP POP JUMP JUMPDEST PUSH0 PUSH1 0x20 DUP3 ADD SWAP1 POP PUSH2 0x751 PUSH0 DUP4 ADD DUP5 PUSH2 0x72F JUMP JUMPDEST SWAP3 SWAP2 POP POP JUMP JUMPDEST PUSH2 0x760 DUP2 PUSH2 0x6A1 JUMP JUMPDEST DUP3 MSTORE POP POP JUMP JUMPDEST PUSH0 PUSH1 0x20 DUP3 ADD SWAP1 POP PUSH2 0x779 PUSH0 DUP4 ADD DUP5 PUSH2 0x757 JUMP JUMPDEST SWAP3 SWAP2 POP POP JUMP JUMPDEST PUSH0 PUSH0 REVERT JUMPDEST PUSH0 PUSH0 REVERT JUMPDEST PUSH0 PUSH1 0x1F NOT PUSH1 0x1F DUP4 ADD AND SWAP1 POP SWAP2 SWAP1 POP JUMP JUMPDEST PUSH32 0x4E487B7100000000000000000000000000000000000000000000000000000000 PUSH0 MSTORE PUSH1 0x41 PUSH1 0x4 MSTORE PUSH1 0x24 PUSH0 REVERT JUMPDEST PUSH2 0x7CD DUP3 PUSH2 0x787 JUMP JUMPDEST DUP2 ADD DUP2 DUP2 LT PUSH8 0xFFFFFFFFFFFFFFFF DUP3 GT OR ISZERO PUSH2 0x7EC JUMPI PUSH2 0x7EB PUSH2 0x797 JUMP JUMPDEST JUMPDEST DUP1 PUSH1 0x40 MSTORE POP POP POP JUMP JUMPDEST PUSH0 PUSH2 0x7FE PUSH2 0x690 JUMP JUMPDEST SWAP1 POP PUSH2 0x80A DUP3 DUP3 PUSH2 0x7C4 JUMP JUMPDEST SWAP2 SWAP1 POP JUMP JUMPDEST PUSH0 PUSH8 0xFFFFFFFFFFFFFFFF DUP3 GT ISZERO PUSH2 0x829 JUMPI PUSH2 0x828 PUSH2 0x797 JUMP JUMPDEST JUMPDEST PUSH2 0x832 DUP3 PUSH2 0x787 JUMP JUMPDEST SWAP1 POP PUSH1 0x20 DUP2 ADD SWAP1 POP SWAP2 SWAP1 POP JUMP JUMPDEST DUP3 DUP2 DUP4 CALLDATACOPY PUSH0 DUP4 DUP4 ADD MSTORE POP POP POP JUMP JUMPDEST PUSH0 PUSH2 0x85F PUSH2 0x85A DUP5 PUSH2 0x80F JUMP JUMPDEST PUSH2 0x7F5 JUMP JUMPDEST SWAP1 POP DUP3 DUP2 MSTORE PUSH1 0x20 DUP2 ADD DUP5 DUP5 DUP5 ADD GT ISZERO PUSH2 0x87B JUMPI PUSH2 0x87A PUSH2 0x783 JUMP JUMPDEST JUMPDEST PUSH2 0x886 DUP5 DUP3 DUP6 PUSH2 0x83F JUMP JUMPDEST POP SWAP4 SWAP3 POP POP POP JUMP JUMPDEST PUSH0 DUP3 PUSH1 0x1F DUP4 ADD SLT PUSH2 0x8A2 JUMPI PUSH2 0x8A1 PUSH2 0x77F JUMP JUMPDEST JUMPDEST DUP2 CALLDATALOAD PUSH2 0x8B2 DUP5 DUP3 PUSH1 0x20 DUP7 ADD PUSH2 0x84D JUMP JUMPDEST SWAP2 POP POP SWAP3 SWAP2 POP POP JUMP JUMPDEST PUSH0 PUSH0 PUSH0 PUSH0 PUSH0 PUSH1 0xA0 DUP7 DUP9 SUB SLT ISZERO PUSH2 0x8D4 JUMPI PUSH2 0x8D3 PUSH2 0x699 JUMP JUMPDEST JUMPDEST PUSH0 DUP7 ADD CALLDATALOAD PUSH8 0xFFFFFFFFFFFFFFFF DUP2 GT ISZERO PUSH2 0x8F1 JUMPI PUSH2 0x8F0 PUSH2 0x69D JUMP JUMPDEST JUMPDEST PUSH2 0x8FD DUP9 DUP3 DUP10 ADD PUSH2 0x88E JUMP JUMPDEST SWAP6 POP POP PUSH1 0x20 DUP7 ADD CALLDATALOAD PUSH8 0xFFFFFFFFFFFFFFFF DUP2 GT ISZERO PUSH2 0x91E JUMPI PUSH2 0x91D PUSH2 0x69D JUMP JUMPDEST JUMPDEST PUSH2 0x92A DUP9 DUP3 DUP10 ADD PUSH2 0x88E JUMP JUMPDEST SWAP5 POP POP PUSH1 0x40 PUSH2 0x93B DUP9 DUP3 DUP10 ADD PUSH2 0x6C0 JUMP JUMPDEST SWAP4 POP POP PUSH1 0x60 PUSH2 0x94C DUP9 DUP3 DUP10 ADD PUSH2 0x6C0 JUMP JUMPDEST SWAP3 POP POP PUSH1 0x80 PUSH2 0x95D DUP9 DUP3 DUP10 ADD PUSH2 0x6C0 JUMP JUMPDEST SWAP2 POP POP SWAP3 SWAP6 POP SWAP3 SWAP6 SWAP1 SWAP4 POP JUMP JUMPDEST PUSH2 0x973 DUP2 PUSH2 0x71E JUMP JUMPDEST DUP2 EQ PUSH2 0x97D JUMPI PUSH0 PUSH0 REVERT JUMPDEST POP JUMP JUMPDEST PUSH0 DUP2 CALLDATALOAD SWAP1 POP PUSH2 0x98E DUP2 PUSH2 0x96A JUMP JUMPDEST SWAP3 SWAP2 POP POP JUMP JUMPDEST PUSH0 PUSH0 PUSH1 0x40 DUP4 DUP6 SUB SLT ISZERO PUSH2 0x9AA JUMPI PUSH2 0x9A9 PUSH2 0x699 JUMP JUMPDEST JUMPDEST PUSH0 PUSH2 0x9B7 DUP6 DUP3 DUP7 ADD PUSH2 0x980 JUMP JUMPDEST SWAP3 POP POP PUSH1 0x20 PUSH2 0x9C8 DUP6 DUP3 DUP7 ADD PUSH2 0x6C0 JUMP JUMPDEST SWAP2 POP POP SWAP3 POP SWAP3 SWAP1 POP JUMP JUMPDEST PUSH0 PUSH1 0x20 DUP3 DUP5 SUB SLT ISZERO PUSH2 0x9E7 JUMPI PUSH2 0x9E6 PUSH2 0x699 JUMP JUMPDEST JUMPDEST PUSH0 PUSH2 0x9F4 DUP5 DUP3 DUP6 ADD PUSH2 0x980 JUMP JUMPDEST SWAP2 POP POP SWAP3 SWAP2 POP POP JUMP JUMPDEST PUSH0 DUP2 MLOAD SWAP1 POP SWAP2 SWAP1 POP JUMP JUMPDEST PUSH0 DUP3 DUP3 MSTORE PUSH1 0x20 DUP3 ADD SWAP1 POP SWAP3 SWAP2 POP POP JUMP JUMPDEST PUSH0 DUP2 SWAP1 POP PUSH1 0x20 DUP3 ADD SWAP1 POP SWAP2 SWAP1 POP JUMP JUMPDEST PUSH2 0xA2F DUP2 PUSH2 0x71E JUMP JUMPDEST DUP3 MSTORE POP POP JUMP JUMPDEST PUSH0 PUSH2 0xA40 DUP4 DUP4 PUSH2 0xA26 JUMP JUMPDEST PUSH1 0x20 DUP4 ADD SWAP1 POP SWAP3 SWAP2 POP POP JUMP JUMPDEST PUSH0 PUSH1 0x20 DUP3 ADD SWAP1 POP SWAP2 SWAP1 POP JUMP JUMPDEST PUSH0 PUSH2 0xA62 DUP3 PUSH2 0x9FD JUMP JUMPDEST PUSH2 0xA6C DUP2 DUP6 PUSH2 0xA07 JUMP JUMPDEST SWAP4 POP PUSH2 0xA77 DUP4 PUSH2 0xA17 JUMP JUMPDEST DUP1 PUSH0 JUMPDEST DUP4 DUP2 LT ISZERO PUSH2 0xAA7 JUMPI DUP2 MLOAD PUSH2 0xA8E DUP9 DUP3 PUSH2 0xA35 JUMP JUMPDEST SWAP8 POP PUSH2 0xA99 DUP4 PUSH2 0xA4C JUMP JUMPDEST SWAP3 POP POP PUSH1 0x1 DUP2 ADD SWAP1 POP PUSH2 0xA7A JUMP JUMPDEST POP DUP6 SWAP4 POP POP POP POP SWAP3 SWAP2 POP POP JUMP JUMPDEST PUSH0 PUSH1 0x20 DUP3 ADD SWAP1 POP DUP2 DUP2 SUB PUSH0 DUP4 ADD MSTORE PUSH2 0xACC DUP2 DUP5 PUSH2 0xA58 JUMP JUMPDEST SWAP1 POP SWAP3 SWAP2 POP POP JUMP JUMPDEST PUSH0 PUSH0 PUSH1 0x40 DUP4 DUP6 SUB SLT ISZERO PUSH2 0xAEA JUMPI PUSH2 0xAE9 PUSH2 0x699 JUMP JUMPDEST JUMPDEST PUSH0 PUSH2 0xAF7 DUP6 DUP3 DUP7 ADD PUSH2 0x980 JUMP JUMPDEST SWAP3 POP POP PUSH1 0x20 PUSH2 0xB08 DUP6 DUP3 DUP7 ADD PUSH2 0x980 JUMP JUMPDEST SWAP2 POP POP SWAP3 POP SWAP3 SWAP1 POP JUMP JUMPDEST PUSH0 DUP2 ISZERO ISZERO SWAP1 POP SWAP2 SWAP1 POP JUMP JUMPDEST PUSH2 0xB26 DUP2 PUSH2 0xB12 JUMP JUMPDEST DUP3 MSTORE POP POP JUMP JUMPDEST PUSH0 PUSH1 0x20 DUP3 ADD SWAP1 POP PUSH2 0xB3F PUSH0 DUP4 ADD DUP5 PUSH2 0xB1D JUMP JUMPDEST SWAP3 SWAP2 POP POP JUMP JUMPDEST PUSH0 DUP2 MLOAD SWAP1 POP SWAP2 SWAP1 POP JUMP JUMPDEST PUSH0 DUP3 DUP3 MSTORE PUSH1 0x20 DUP3 ADD SWAP1 POP SWAP3 SWAP2 POP POP JUMP JUMPDEST DUP3 DUP2 DUP4 MCOPY PUSH0 DUP4 DUP4 ADD MSTORE POP POP POP JUMP JUMPDEST PUSH0 PUSH2 0xB77 DUP3 PUSH2 0xB45 JUMP JUMPDEST PUSH2 0xB81 DUP2 DUP6 PUSH2 0xB4F JUMP JUMPDEST SWAP4 POP PUSH2 0xB91 DUP2 DUP6 PUSH1 0x20 DUP7 ADD PUSH2 0xB5F JUMP JUMPDEST PUSH2 0xB9A DUP2 PUSH2 0x787 JUMP JUMPDEST DUP5 ADD SWAP2 POP POP SWAP3 SWAP2 POP POP JUMP JUMPDEST PUSH0 PUSH1 0xA0 DUP3 ADD SWAP1 POP DUP2 DUP2 SUB PUSH0 DUP4 ADD MSTORE PUSH2 0xBBD DUP2 DUP9 PUSH2 0xB6D JUMP JUMPDEST SWAP1 POP DUP2 DUP2 SUB PUSH1 0x20 DUP4 ADD MSTORE PUSH2 0xBD1 DUP2 DUP8 PUSH2 0xB6D JUMP JUMPDEST SWAP1 POP PUSH2 0xBE0 PUSH1 0x40 DUP4 ADD DUP7 PUSH2 0x757 JUMP JUMPDEST PUSH2 0xBED PUSH1 0x60 DUP4 ADD DUP6 PUSH2 0x757 JUMP JUMPDEST PUSH2 0xBFA PUSH1 0x80 DUP4 ADD DUP5 PUSH2 0x757 JUMP JUMPDEST SWAP7 SWAP6 POP POP POP POP POP POP JUMP JUMPDEST PUSH32 0x4E65772067616D6520686173206265656E20767265617465642E000000000000 PUSH0 DUP3 ADD MSTORE POP JUMP JUMPDEST PUSH0 PUSH2 0xC38 PUSH1 0x1A DUP4 PUSH2 0xB4F JUMP JUMPDEST SWAP2 POP PUSH2 0xC43 DUP3 PUSH2 0xC04 JUMP JUMPDEST PUSH1 0x20 DUP3 ADD SWAP1 POP SWAP2 SWAP1 POP JUMP JUMPDEST PUSH0 PUSH1 0x80 DUP3 ADD SWAP1 POP DUP2 DUP2 SUB PUSH0 DUP4 ADD MSTORE PUSH2 0xC65 DUP2 PUSH2 0xC2C JUMP JUMPDEST SWAP1 POP PUSH2 0xC74 PUSH1 0x20 DUP4 ADD DUP7 PUSH2 0x72F JUMP JUMPDEST PUSH2 0xC81 PUSH1 0x40 DUP4 ADD DUP6 PUSH2 0x72F JUMP JUMPDEST PUSH2 0xC8E PUSH1 0x60 DUP4 ADD DUP5 PUSH2 0x757 JUMP JUMPDEST SWAP5 SWAP4 POP POP POP POP JUMP INVALID PUSH1 0x80 PUSH1 0x40 MSTORE CALLVALUE DUP1 ISZERO PUSH2 0xF JUMPI PUSH0 PUSH0 REVERT JUMPDEST POP PUSH1 0x40 MLOAD PUSH2 0x3F64 CODESIZE SUB DUP1 PUSH2 0x3F64 DUP4 CODECOPY DUP2 DUP2 ADD PUSH1 0x40 MSTORE DUP2 ADD SWAP1 PUSH2 0x31 SWAP2 SWAP1 PUSH2 0x482 JUMP JUMPDEST PUSH0 PUSH20 0xFFFFFFFFFFFFFFFFFFFFFFFFFFFFFFFFFFFFFFFF AND CALLER PUSH20 0xFFFFFFFFFFFFFFFFFFFFFFFFFFFFFFFFFFFFFFFF AND SUB PUSH2 0x9F JUMPI PUSH1 0x40 MLOAD PUSH32 0x8C379A000000000000000000000000000000000000000000000000000000000 DUP2 MSTORE PUSH1 0x4 ADD PUSH2 0x96 SWAP1 PUSH2 0x58B JUMP JUMPDEST PUSH1 0x40 MLOAD DUP1 SWAP2 SUB SWAP1 REVERT JUMPDEST PUSH0 DUP6 MLOAD GT PUSH2 0xE2 JUMPI PUSH1 0x40 MLOAD PUSH32 0x8C379A000000000000000000000000000000000000000000000000000000000 DUP2 MSTORE PUSH1 0x4 ADD PUSH2 0xD9 SWAP1 PUSH2 0x5F3 JUMP JUMPDEST PUSH1 0x40 MLOAD DUP1 SWAP2 SUB SWAP1 REVERT JUMPDEST PUSH0 DUP5 MLOAD GT PUSH2 0x125 JUMPI PUSH1 0x40 MLOAD PUSH32 0x8C379A000000000000000000000000000000000000000000000000000000000 DUP2 MSTORE PUSH1 0x4 ADD PUSH2 0x11C SWAP1 PUSH2 0x65B JUMP JUMPDEST PUSH1 0x40 MLOAD DUP1 SWAP2 SUB SWAP1 REVERT JUMPDEST PUSH0 DUP4 GT PUSH2 0x167 JUMPI PUSH1 0x40 MLOAD PUSH32 0x8C379A000000000000000000000000000000000000000000000000000000000 DUP2 MSTORE PUSH1 0x4 ADD PUSH2 0x15E SWAP1 PUSH2 0x6C3 JUMP JUMPDEST PUSH1 0x40 MLOAD DUP1 SWAP2 SUB SWAP1 REVERT JUMPDEST PUSH1 0x64 DUP4 LT PUSH2 0x1AA JUMPI PUSH1 0x40 MLOAD PUSH32 0x8C379A000000000000000000000000000000000000000000000000000000000 DUP2 MSTORE PUSH1 0x4 ADD PUSH2 0x1A1 SWAP1 PUSH2 0x72B JUMP JUMPDEST PUSH1 0x40 MLOAD DUP1 SWAP2 SUB SWAP1 REVERT JUMPDEST PUSH1 0x64 DUP3 GT ISZERO DUP1 ISZERO PUSH2 0x1BA JUMPI POP PUSH0 DUP3 GT JUMPDEST PUSH2 0x1F9 JUMPI PUSH1 0x40 MLOAD PUSH32 0x8C379A000000000000000000000000000000000000000000000000000000000 DUP2 MSTORE PUSH1 0x4 ADD PUSH2 0x1F0 SWAP1 PUSH2 0x793 JUMP JUMPDEST PUSH1 0x40 MLOAD DUP1 SWAP2 SUB SWAP1 REVERT JUMPDEST PUSH0 DUP2 GT PUSH2 0x23B JUMPI PUSH1 0x40 MLOAD PUSH32 0x8C379A000000000000000000000000000000000000000000000000000000000 DUP2 MSTORE PUSH1 0x4 ADD PUSH2 0x232 SWAP1 PUSH2 0x821 JUMP JUMPDEST PUSH1 0x40 MLOAD DUP1 SWAP2 SUB SWAP1 REVERT JUMPDEST CALLER PUSH1 0x2 PUSH0 PUSH2 0x100 EXP DUP2 SLOAD DUP2 PUSH20 0xFFFFFFFFFFFFFFFFFFFFFFFFFFFFFFFFFFFFFFFF MUL NOT AND SWAP1 DUP4 PUSH20 0xFFFFFFFFFFFFFFFFFFFFFFFFFFFFFFFFFFFFFFFF AND MUL OR SWAP1 SSTORE POP PUSH0 PUSH1 0x9 PUSH0 PUSH2 0x100 EXP DUP2 SLOAD DUP2 PUSH1 0xFF MUL NOT AND SWAP1 DUP4 PUSH1 0x5 DUP2 GT ISZERO PUSH2 0x29F JUMPI PUSH2 0x29E PUSH2 0x83F JUMP JUMPDEST JUMPDEST MUL OR SWAP1 SSTORE POP DUP5 PUSH0 SWAP1 DUP2 PUSH2 0x2B2 SWAP2 SWAP1 PUSH2 0xA73 JUMP JUMPDEST POP DUP4 PUSH1 0x1 SWAP1 DUP2 PUSH2 0x2C2 SWAP2 SWAP1 PUSH2 0xA73 JUMP JUMPDEST POP DUP2 PUSH1 0x4 DUP2 SWAP1 SSTORE POP DUP1 PUSH1 0x8 DUP2 SWAP1 SSTORE POP PUSH3 0x15180 DUP4 PUSH2 0x2E0 SWAP2 SWAP1 PUSH2 0xB6F JUMP JUMPDEST TIMESTAMP PUSH2 0x2EB SWAP2 SWAP1 PUSH2 0xBB0 JUMP JUMPDEST PUSH1 0x3 DUP2 SWAP1 SSTORE POP PUSH0 PUSH1 0x6 DUP2 SWAP1 SSTORE POP POP POP POP POP POP PUSH2 0xBE3 JUMP JUMPDEST PUSH0 PUSH1 0x40 MLOAD SWAP1 POP SWAP1 JUMP JUMPDEST PUSH0 PUSH0 REVERT JUMPDEST PUSH0 PUSH0 REVERT JUMPDEST PUSH0 PUSH0 REVERT JUMPDEST PUSH0 PUSH0 REVERT JUMPDEST PUSH0 PUSH1 0x1F NOT PUSH1 0x1F DUP4 ADD AND SWAP1 POP SWAP2 SWAP1 POP JUMP JUMPDEST PUSH32 0x4E487B7100000000000000000000000000000000000000000000000000000000 PUSH0 MSTORE PUSH1 0x41 PUSH1 0x4 MSTORE PUSH1 0x24 PUSH0 REVERT JUMPDEST PUSH2 0x361 DUP3 PUSH2 0x31B JUMP JUMPDEST DUP2 ADD DUP2 DUP2 LT PUSH8 0xFFFFFFFFFFFFFFFF DUP3 GT OR ISZERO PUSH2 0x380 JUMPI PUSH2 0x37F PUSH2 0x32B JUMP JUMPDEST JUMPDEST DUP1 PUSH1 0x40 MSTORE POP POP POP JUMP JUMPDEST PUSH0 PUSH2 0x392 PUSH2 0x302 JUMP JUMPDEST SWAP1 POP PUSH2 0x39E DUP3 DUP3 PUSH2 0x358 JUMP JUMPDEST SWAP2 SWAP1 POP JUMP JUMPDEST PUSH0 PUSH8 0xFFFFFFFFFFFFFFFF DUP3 GT ISZERO PUSH2 0x3BD JUMPI PUSH2 0x3BC PUSH2 0x32B JUMP JUMPDEST JUMPDEST PUSH2 0x3C6 DUP3 PUSH2 0x31B JUMP JUMPDEST SWAP1 POP PUSH1 0x20 DUP2 ADD SWAP1 POP SWAP2 SWAP1 POP JUMP JUMPDEST DUP3 DUP2 DUP4 MCOPY PUSH0 DUP4 DUP4 ADD MSTORE POP POP POP JUMP JUMPDEST PUSH0 PUSH2 0x3F3 PUSH2 0x3EE DUP5 PUSH2 0x3A3 JUMP JUMPDEST PUSH2 0x389 JUMP JUMPDEST SWAP1 POP DUP3 DUP2 MSTORE PUSH1 0x20 DUP2 ADD DUP5 DUP5 DUP5 ADD GT ISZERO PUSH2 0x40F JUMPI PUSH2 0x40E PUSH2 0x317 JUMP JUMPDEST JUMPDEST PUSH2 0x41A DUP5 DUP3 DUP6 PUSH2 0x3D3 JUMP JUMPDEST POP SWAP4 SWAP3 POP POP POP JUMP JUMPDEST PUSH0 DUP3 PUSH1 0x1F DUP4 ADD SLT PUSH2 0x436 JUMPI PUSH2 0x435 PUSH2 0x313 JUMP JUMPDEST JUMPDEST DUP2 MLOAD PUSH2 0x446 DUP5 DUP3 PUSH1 0x20 DUP7 ADD PUSH2 0x3E1 JUMP JUMPDEST SWAP2 POP POP SWAP3 SWAP2 POP POP JUMP JUMPDEST PUSH0 DUP2 SWAP1 POP SWAP2 SWAP1 POP JUMP JUMPDEST PUSH2 0x461 DUP2 PUSH2 0x44F JUMP JUMPDEST DUP2 EQ PUSH2 0x46B JUMPI PUSH0 PUSH0 REVERT JUMPDEST POP JUMP JUMPDEST PUSH0 DUP2 MLOAD SWAP1 POP PUSH2 0x47C DUP2 PUSH2 0x458 JUMP JUMPDEST SWAP3 SWAP2 POP POP JUMP JUMPDEST PUSH0 PUSH0 PUSH0 PUSH0 PUSH0 PUSH1 0xA0 DUP7 DUP9 SUB SLT ISZERO PUSH2 0x49B JUMPI PUSH2 0x49A PUSH2 0x30B JUMP JUMPDEST JUMPDEST PUSH0 DUP7 ADD MLOAD PUSH8 0xFFFFFFFFFFFFFFFF DUP2 GT ISZERO PUSH2 0x4B8 JUMPI PUSH2 0x4B7 PUSH2 0x30F JUMP JUMPDEST JUMPDEST PUSH2 0x4C4 DUP9 DUP3 DUP10 ADD PUSH2 0x422 JUMP JUMPDEST SWAP6 POP POP PUSH1 0x20 DUP7 ADD MLOAD PUSH8 0xFFFFFFFFFFFFFFFF DUP2 GT ISZERO PUSH2 0x4E5 JUMPI PUSH2 0x4E4 PUSH2 0x30F JUMP JUMPDEST JUMPDEST PUSH2 0x4F1 DUP9 DUP3 DUP10 ADD PUSH2 0x422 JUMP JUMPDEST SWAP5 POP POP PUSH1 0x40 PUSH2 0x502 DUP9 DUP3 DUP10 ADD PUSH2 0x46E JUMP JUMPDEST SWAP4 POP POP PUSH1 0x60 PUSH2 0x513 DUP9 DUP3 DUP10 ADD PUSH2 0x46E JUMP JUMPDEST SWAP3 POP POP PUSH1 0x80 PUSH2 0x524 DUP9 DUP3 DUP10 ADD PUSH2 0x46E JUMP JUMPDEST SWAP2 POP POP SWAP3 SWAP6 POP SWAP3 SWAP6 SWAP1 SWAP4 POP JUMP JUMPDEST PUSH0 DUP3 DUP3 MSTORE PUSH1 0x20 DUP3 ADD SWAP1 POP SWAP3 SWAP2 POP POP JUMP JUMPDEST PUSH32 0x496E76616C696420616464726573732E00000000000000000000000000000000 PUSH0 DUP3 ADD MSTORE POP JUMP JUMPDEST PUSH0 PUSH2 0x575 PUSH1 0x10 DUP4 PUSH2 0x531 JUMP JUMPDEST SWAP2 POP PUSH2 0x580 DUP3 PUSH2 0x541 JUMP JUMPDEST PUSH1 0x20 DUP3 ADD SWAP1 POP SWAP2 SWAP1 POP JUMP JUMPDEST PUSH0 PUSH1 0x20 DUP3 ADD SWAP1 POP DUP2 DUP2 SUB PUSH0 DUP4 ADD MSTORE PUSH2 0x5A2 DUP2 PUSH2 0x569 JUMP JUMPDEST SWAP1 POP SWAP2 SWAP1 POP JUMP JUMPDEST PUSH32 0x4E616D652063616E206E6F7420626520656D7072792E00000000000000000000 PUSH0 DUP3 ADD MSTORE POP JUMP JUMPDEST PUSH0 PUSH2 0x5DD PUSH1 0x16 DUP4 PUSH2 0x531 JUMP JUMPDEST SWAP2 POP PUSH2 0x5E8 DUP3 PUSH2 0x5A9 JUMP JUMPDEST PUSH1 0x20 DUP3 ADD SWAP1 POP SWAP2 SWAP1 POP JUMP JUMPDEST PUSH0 PUSH1 0x20 DUP3 ADD SWAP1 POP DUP2 DUP2 SUB PUSH0 DUP4 ADD MSTORE PUSH2 0x60A DUP2 PUSH2 0x5D1 JUMP JUMPDEST SWAP1 POP SWAP2 SWAP1 POP JUMP JUMPDEST PUSH32 0x4465736372697074696F6E2063616E206E6F7420626520656D7074792E000000 PUSH0 DUP3 ADD MSTORE POP JUMP JUMPDEST PUSH0 PUSH2 0x645 PUSH1 0x1D DUP4 PUSH2 0x531 JUMP JUMPDEST SWAP2 POP PUSH2 0x650 DUP3 PUSH2 0x611 JUMP JUMPDEST PUSH1 0x20 DUP3 ADD SWAP1 POP SWAP2 SWAP1 POP JUMP JUMPDEST PUSH0 PUSH1 0x20 DUP3 ADD SWAP1 POP DUP2 DUP2 SUB PUSH0 DUP4 ADD MSTORE PUSH2 0x672 DUP2 PUSH2 0x639 JUMP JUMPDEST SWAP1 POP SWAP2 SWAP1 POP JUMP JUMPDEST PUSH32 0x4475726174696F6E206D75737420626520706F7369746976652E000000000000 PUSH0 DUP3 ADD MSTORE POP JUMP JUMPDEST PUSH0 PUSH2 0x6AD PUSH1 0x1A DUP4 PUSH2 0x531 JUMP JUMPDEST SWAP2 POP PUSH2 0x6B8 DUP3 PUSH2 0x679 JUMP JUMPDEST PUSH1 0x20 DUP3 ADD SWAP1 POP SWAP2 SWAP1 POP JUMP JUMPDEST PUSH0 PUSH1 0x20 DUP3 ADD SWAP1 POP DUP2 DUP2 SUB PUSH0 DUP4 ADD MSTORE PUSH2 0x6DA DUP2 PUSH2 0x6A1 JUMP JUMPDEST SWAP1 POP SWAP2 SWAP1 POP JUMP JUMPDEST PUSH32 0x4C696D69742069732031303020646179732E0000000000000000000000000000 PUSH0 DUP3 ADD MSTORE POP JUMP JUMPDEST PUSH0 PUSH2 0x715 PUSH1 0x12 DUP4 PUSH2 0x531 JUMP JUMPDEST SWAP2 POP PUSH2 0x720 DUP3 PUSH2 0x6E1 JUMP JUMPDEST PUSH1 0x20 DUP3 ADD SWAP1 POP SWAP2 SWAP1 POP JUMP JUMPDEST PUSH0 PUSH1 0x20 DUP3 ADD SWAP1 POP DUP2 DUP2 SUB PUSH0 DUP4 ADD MSTORE PUSH2 0x742 DUP2 PUSH2 0x709 JUMP JUMPDEST SWAP1 POP SWAP2 SWAP1 POP JUMP JUMPDEST PUSH32 0x50657263656E74206D757374206265206265747765656E2030202D203130302E PUSH0 DUP3 ADD MSTORE POP JUMP JUMPDEST PUSH0 PUSH2 0x77D PUSH1 0x20 DUP4 PUSH2 0x531 JUMP JUMPDEST SWAP2 POP PUSH2 0x788 DUP3 PUSH2 0x749 JUMP JUMPDEST PUSH1 0x20 DUP3 ADD SWAP1 POP SWAP2 SWAP1 POP JUMP JUMPDEST PUSH0 PUSH1 0x20 DUP3 ADD SWAP1 POP DUP2 DUP2 SUB PUSH0 DUP4 ADD MSTORE PUSH2 0x7AA DUP2 PUSH2 0x771 JUMP JUMPDEST SWAP1 POP SWAP2 SWAP1 POP JUMP JUMPDEST PUSH32 0x4465706F736974206C696D69742073686F756C6420626520706F736974697665 PUSH0 DUP3 ADD MSTORE PUSH32 0x2E00000000000000000000000000000000000000000000000000000000000000 PUSH1 0x20 DUP3 ADD MSTORE POP JUMP JUMPDEST PUSH0 PUSH2 0x80B PUSH1 0x21 DUP4 PUSH2 0x531 JUMP JUMPDEST SWAP2 POP PUSH2 0x816 DUP3 PUSH2 0x7B1 JUMP JUMPDEST PUSH1 0x40 DUP3 ADD SWAP1 POP SWAP2 SWAP1 POP JUMP JUMPDEST PUSH0 PUSH1 0x20 DUP3 ADD SWAP1 POP DUP2 DUP2 SUB PUSH0 DUP4 ADD MSTORE PUSH2 0x838 DUP2 PUSH2 0x7FF JUMP JUMPDEST SWAP1 POP SWAP2 SWAP1 POP JUMP JUMPDEST PUSH32 0x4E487B7100000000000000000000000000000000000000000000000000000000 PUSH0 MSTORE PUSH1 0x21 PUSH1 0x4 MSTORE PUSH1 0x24 PUSH0 REVERT JUMPDEST PUSH0 DUP2 MLOAD SWAP1 POP SWAP2 SWAP1 POP JUMP JUMPDEST PUSH32 0x4E487B7100000000000000000000000000000000000000000000000000000000 PUSH0 MSTORE PUSH1 0x22 PUSH1 0x4 MSTORE PUSH1 0x24 PUSH0 REVERT JUMPDEST PUSH0 PUSH1 0x2 DUP3 DIV SWAP1 POP PUSH1 0x1 DUP3 AND DUP1 PUSH2 0x8BA JUMPI PUSH1 0x7F DUP3 AND SWAP2 POP JUMPDEST PUSH1 0x20 DUP3 LT DUP2 SUB PUSH2 0x8CD JUMPI PUSH2 0x8CC PUSH2 0x876 JUMP JUMPDEST JUMPDEST POP SWAP2 SWAP1 POP JUMP JUMPDEST PUSH0 DUP2 SWAP1 POP DUP2 PUSH0 MSTORE PUSH1 0x20 PUSH0 KECCAK256 SWAP1 POP SWAP2 SWAP1 POP JUMP JUMPDEST PUSH0 PUSH1 0x20 PUSH1 0x1F DUP4 ADD DIV SWAP1 POP SWAP2 SWAP1 POP JUMP JUMPDEST PUSH0 DUP3 DUP3 SHL SWAP1 POP SWAP3 SWAP2 POP POP JUMP JUMPDEST PUSH0 PUSH1 0x8 DUP4 MUL PUSH2 0x92F PUSH32 0xFFFFFFFFFFFFFFFFFFFFFFFFFFFFFFFFFFFFFFFFFFFFFFFFFFFFFFFFFFFFFFFF DUP3 PUSH2 0x8F4 JUMP JUMPDEST PUSH2 0x939 DUP7 DUP4 PUSH2 0x8F4 JUMP JUMPDEST SWAP6 POP DUP1 NOT DUP5 AND SWAP4 POP DUP1 DUP7 AND DUP5 OR SWAP3 POP POP POP SWAP4 SWAP3 POP POP POP JUMP JUMPDEST PUSH0 DUP2 SWAP1 POP SWAP2 SWAP1 POP JUMP JUMPDEST PUSH0 PUSH2 0x974 PUSH2 0x96F PUSH2 0x96A DUP5 PUSH2 0x44F JUMP JUMPDEST PUSH2 0x951 JUMP JUMPDEST PUSH2 0x44F JUMP JUMPDEST SWAP1 POP SWAP2 SWAP1 POP JUMP JUMPDEST PUSH0 DUP2 SWAP1 POP SWAP2 SWAP1 POP JUMP JUMPDEST PUSH2 0x98D DUP4 PUSH2 0x95A JUMP JUMPDEST PUSH2 0x9A1 PUSH2 0x999 DUP3 PUSH2 0x97B JUMP JUMPDEST DUP5 DUP5 SLOAD PUSH2 0x900 JUMP JUMPDEST DUP3 SSTORE POP POP POP POP JUMP JUMPDEST PUSH0 PUSH0 SWAP1 POP SWAP1 JUMP JUMPDEST PUSH2 0x9B8 PUSH2 0x9A9 JUMP JUMPDEST PUSH2 0x9C3 DUP2 DUP5 DUP5 PUSH2 0x984 JUMP JUMPDEST POP POP POP JUMP JUMPDEST JUMPDEST DUP2 DUP2 LT ISZERO PUSH2 0x9E6 JUMPI PUSH2 0x9DB PUSH0 DUP3 PUSH2 0x9B0 JUMP JUMPDEST PUSH1 0x1 DUP2 ADD SWAP1 POP PUSH2 0x9C9 JUMP JUMPDEST POP POP JUMP JUMPDEST PUSH1 0x1F DUP3 GT ISZERO PUSH2 0xA2B JUMPI PUSH2 0x9FC DUP2 PUSH2 0x8D3 JUMP JUMPDEST PUSH2 0xA05 DUP5 PUSH2 0x8E5 JUMP JUMPDEST DUP2 ADD PUSH1 0x20 DUP6 LT ISZERO PUSH2 0xA14 JUMPI DUP2 SWAP1 POP JUMPDEST PUSH2 0xA28 PUSH2 0xA20 DUP6 PUSH2 0x8E5 JUMP JUMPDEST DUP4 ADD DUP3 PUSH2 0x9C8 JUMP JUMPDEST POP POP JUMPDEST POP POP POP JUMP JUMPDEST PUSH0 DUP3 DUP3 SHR SWAP1 POP SWAP3 SWAP2 POP POP JUMP JUMPDEST PUSH0 PUSH2 0xA4B PUSH0 NOT DUP5 PUSH1 0x8 MUL PUSH2 0xA30 JUMP JUMPDEST NOT DUP1 DUP4 AND SWAP2 POP POP SWAP3 SWAP2 POP POP JUMP JUMPDEST PUSH0 PUSH2 0xA63 DUP4 DUP4 PUSH2 0xA3C JUMP JUMPDEST SWAP2 POP DUP3 PUSH1 0x2 MUL DUP3 OR SWAP1 POP SWAP3 SWAP2 POP POP JUMP JUMPDEST PUSH2 0xA7C DUP3 PUSH2 0x86C JUMP JUMPDEST PUSH8 0xFFFFFFFFFFFFFFFF DUP2 GT ISZERO PUSH2 0xA95 JUMPI PUSH2 0xA94 PUSH2 0x32B JUMP JUMPDEST JUMPDEST PUSH2 0xA9F DUP3 SLOAD PUSH2 0x8A3 JUMP JUMPDEST PUSH2 0xAAA DUP3 DUP3 DUP6 PUSH2 0x9EA JUMP JUMPDEST PUSH0 PUSH1 0x20 SWAP1 POP PUSH1 0x1F DUP4 GT PUSH1 0x1 DUP2 EQ PUSH2 0xADB JUMPI PUSH0 DUP5 ISZERO PUSH2 0xAC9 JUMPI DUP3 DUP8 ADD MLOAD SWAP1 POP JUMPDEST PUSH2 0xAD3 DUP6 DUP3 PUSH2 0xA58 JUMP JUMPDEST DUP7 SSTORE POP PUSH2 0xB3A JUMP JUMPDEST PUSH1 0x1F NOT DUP5 AND PUSH2 0xAE9 DUP7 PUSH2 0x8D3 JUMP JUMPDEST PUSH0 JUMPDEST DUP3 DUP2 LT ISZERO PUSH2 0xB10 JUMPI DUP5 DUP10 ADD MLOAD DUP3 SSTORE PUSH1 0x1 DUP3 ADD SWAP2 POP PUSH1 0x20 DUP6 ADD SWAP5 POP PUSH1 0x20 DUP2 ADD SWAP1 POP PUSH2 0xAEB JUMP JUMPDEST DUP7 DUP4 LT ISZERO PUSH2 0xB2D JUMPI DUP5 DUP10 ADD MLOAD PUSH2 0xB29 PUSH1 0x1F DUP10 AND DUP3 PUSH2 0xA3C JUMP JUMPDEST DUP4 SSTORE POP JUMPDEST PUSH1 0x1 PUSH1 0x2 DUP9 MUL ADD DUP9 SSTORE POP POP POP JUMPDEST POP POP POP POP POP POP JUMP JUMPDEST PUSH32 0x4E487B7100000000000000000000000000000000000000000000000000000000 PUSH0 MSTORE PUSH1 0x11 PUSH1 0x4 MSTORE PUSH1 0x24 PUSH0 REVERT JUMPDEST PUSH0 PUSH2 0xB79 DUP3 PUSH2 0x44F JUMP JUMPDEST SWAP2 POP PUSH2 0xB84 DUP4 PUSH2 0x44F JUMP JUMPDEST SWAP3 POP DUP3 DUP3 MUL PUSH2 0xB92 DUP2 PUSH2 0x44F JUMP JUMPDEST SWAP2 POP DUP3 DUP3 DIV DUP5 EQ DUP4 ISZERO OR PUSH2 0xBA9 JUMPI PUSH2 0xBA8 PUSH2 0xB42 JUMP JUMPDEST JUMPDEST POP SWAP3 SWAP2 POP POP JUMP JUMPDEST PUSH0 PUSH2 0xBBA DUP3 PUSH2 0x44F JUMP JUMPDEST SWAP2 POP PUSH2 0xBC5 DUP4 PUSH2 0x44F JUMP JUMPDEST SWAP3 POP DUP3 DUP3 ADD SWAP1 POP DUP1 DUP3 GT ISZERO PUSH2 0xBDD JUMPI PUSH2 0xBDC PUSH2 0xB42 JUMP JUMPDEST JUMPDEST SWAP3 SWAP2 POP POP JUMP JUMPDEST PUSH2 0x3374 DUP1 PUSH2 0xBF0 PUSH0 CODECOPY PUSH0 RETURN INVALID PUSH1 0x80 PUSH1 0x40 MSTORE PUSH1 0x4 CALLDATASIZE LT PUSH2 0x117 JUMPI PUSH0 CALLDATALOAD PUSH1 0xE0 SHR DUP1 PUSH4 0x8DA5CB5B GT PUSH2 0x9F JUMPI DUP1 PUSH4 0xBEF3A083 GT PUSH2 0x63 JUMPI DUP1 PUSH4 0xBEF3A083 EQ PUSH2 0x640 JUMPI DUP1 PUSH4 0xD65AB5F2 EQ PUSH2 0x66A JUMPI DUP1 PUSH4 0xF4135992 EQ PUSH2 0x680 JUMPI DUP1 PUSH4 0xF42B1AE0 EQ PUSH2 0x6AA JUMPI DUP1 PUSH4 0xFC7E286D EQ PUSH2 0x6C0 JUMPI PUSH2 0x450 JUMP JUMPDEST DUP1 PUSH4 0x8DA5CB5B EQ PUSH2 0x584 JUMPI DUP1 PUSH4 0x8DECFA77 EQ PUSH2 0x5AE JUMPI DUP1 PUSH4 0x95D12000 EQ PUSH2 0x5D8 JUMPI DUP1 PUSH4 0x97661F31 EQ PUSH2 0x602 JUMPI DUP1 PUSH4 0xA6F9DAE1 EQ PUSH2 0x618 JUMPI PUSH2 0x450 JUMP JUMPDEST DUP1 PUSH4 0x38E771AB GT PUSH2 0xE6 JUMPI DUP1 PUSH4 0x38E771AB EQ PUSH2 0x4EE JUMPI DUP1 PUSH4 0x499831F2 EQ PUSH2 0x504 JUMPI DUP1 PUSH4 0x590E1AE3 EQ PUSH2 0x51A JUMPI DUP1 PUSH4 0x6F9FB98A EQ PUSH2 0x530 JUMPI DUP1 PUSH4 0x7284E416 EQ PUSH2 0x55A JUMPI PUSH2 0x450 JUMP JUMPDEST DUP1 PUSH4 0x6FDDE03 EQ PUSH2 0x454 JUMPI DUP1 PUSH4 0x31BF64AB EQ PUSH2 0x47E JUMPI DUP1 PUSH4 0x35C1D349 EQ PUSH2 0x488 JUMPI DUP1 PUSH4 0x382396EE EQ PUSH2 0x4C4 JUMPI PUSH2 0x450 JUMP JUMPDEST CALLDATASIZE PUSH2 0x450 JUMPI PUSH1 0x1 PUSH1 0x5 DUP2 GT ISZERO PUSH2 0x130 JUMPI PUSH2 0x12F PUSH2 0x2329 JUMP JUMPDEST JUMPDEST PUSH1 0x9 PUSH0 SWAP1 SLOAD SWAP1 PUSH2 0x100 EXP SWAP1 DIV PUSH1 0xFF AND PUSH1 0x5 DUP2 GT ISZERO PUSH2 0x151 JUMPI PUSH2 0x150 PUSH2 0x2329 JUMP JUMPDEST JUMPDEST EQ PUSH2 0x191 JUMPI PUSH1 0x40 MLOAD PUSH32 0x8C379A000000000000000000000000000000000000000000000000000000000 DUP2 MSTORE PUSH1 0x4 ADD PUSH2 0x188 SWAP1 PUSH2 0x23B0 JUMP JUMPDEST PUSH1 0x40 MLOAD DUP1 SWAP2 SUB SWAP1 REVERT JUMPDEST TIMESTAMP PUSH1 0x3 SLOAD GT PUSH2 0x1D5 JUMPI PUSH1 0x40 MLOAD PUSH32 0x8C379A000000000000000000000000000000000000000000000000000000000 DUP2 MSTORE PUSH1 0x4 ADD PUSH2 0x1CC SWAP1 PUSH2 0x2418 JUMP JUMPDEST PUSH1 0x40 MLOAD DUP1 SWAP2 SUB SWAP1 REVERT JUMPDEST PUSH1 0x40 MLOAD DUP1 PUSH1 0x40 ADD PUSH1 0x40 MSTORE DUP1 CALLVALUE PUSH1 0xA PUSH0 CALLER PUSH20 0xFFFFFFFFFFFFFFFFFFFFFFFFFFFFFFFFFFFFFFFF AND PUSH20 0xFFFFFFFFFFFFFFFFFFFFFFFFFFFFFFFFFFFFFFFF AND DUP2 MSTORE PUSH1 0x20 ADD SWAP1 DUP2 MSTORE PUSH1 0x20 ADD PUSH0 KECCAK256 PUSH0 ADD SLOAD PUSH2 0x22B SWAP2 SWAP1 PUSH2 0x246C JUMP JUMPDEST DUP2 MSTORE PUSH1 0x20 ADD TIMESTAMP DUP2 MSTORE POP PUSH1 0xA PUSH0 CALLER PUSH20 0xFFFFFFFFFFFFFFFFFFFFFFFFFFFFFFFFFFFFFFFF AND PUSH20 0xFFFFFFFFFFFFFFFFFFFFFFFFFFFFFFFFFFFFFFFF AND DUP2 MSTORE PUSH1 0x20 ADD SWAP1 DUP2 MSTORE PUSH1 0x20 ADD PUSH0 KECCAK256 PUSH0 DUP3 ADD MLOAD DUP2 PUSH0 ADD SSTORE PUSH1 0x20 DUP3 ADD MLOAD DUP2 PUSH1 0x1 ADD SSTORE SWAP1 POP POP PUSH0 PUSH1 0xA PUSH0 CALLER PUSH20 0xFFFFFFFFFFFFFFFFFFFFFFFFFFFFFFFFFFFFFFFF AND PUSH20 0xFFFFFFFFFFFFFFFFFFFFFFFFFFFFFFFFFFFFFFFF AND DUP2 MSTORE PUSH1 0x20 ADD SWAP1 DUP2 MSTORE PUSH1 0x20 ADD PUSH0 KECCAK256 PUSH0 ADD SLOAD SUB PUSH2 0x344 JUMPI PUSH1 0xB CALLER SWAP1 DUP1 PUSH1 0x1 DUP2 SLOAD ADD DUP1 DUP3 SSTORE DUP1 SWAP2 POP POP PUSH1 0x1 SWAP1 SUB SWAP1 PUSH0 MSTORE PUSH1 0x20 PUSH0 KECCAK256 ADD PUSH0 SWAP1 SWAP2 SWAP1 SWAP2 SWAP1 SWAP2 PUSH2 0x100 EXP DUP2 SLOAD DUP2 PUSH20 0xFFFFFFFFFFFFFFFFFFFFFFFFFFFFFFFFFFFFFFFF MUL NOT AND SWAP1 DUP4 PUSH20 0xFFFFFFFFFFFFFFFFFFFFFFFFFFFFFFFFFFFFFFFF AND MUL OR SWAP1 SSTORE POP PUSH1 0x7 PUSH0 DUP2 SLOAD DUP1 SWAP3 SWAP2 SWAP1 PUSH2 0x33E SWAP1 PUSH2 0x249F JUMP JUMPDEST SWAP2 SWAP1 POP SSTORE POP JUMPDEST PUSH1 0x6 SLOAD PUSH1 0xA PUSH0 CALLER PUSH20 0xFFFFFFFFFFFFFFFFFFFFFFFFFFFFFFFFFFFFFFFF AND PUSH20 0xFFFFFFFFFFFFFFFFFFFFFFFFFFFFFFFFFFFFFFFF AND DUP2 MSTORE PUSH1 0x20 ADD SWAP1 DUP2 MSTORE PUSH1 0x20 ADD PUSH0 KECCAK256 PUSH0 ADD SLOAD GT ISZERO PUSH2 0x415 JUMPI PUSH1 0xA PUSH0 CALLER PUSH20 0xFFFFFFFFFFFFFFFFFFFFFFFFFFFFFFFFFFFFFFFF AND PUSH20 0xFFFFFFFFFFFFFFFFFFFFFFFFFFFFFFFFFFFFFFFF AND DUP2 MSTORE PUSH1 0x20 ADD SWAP1 DUP2 MSTORE PUSH1 0x20 ADD PUSH0 KECCAK256 PUSH0 ADD SLOAD PUSH1 0x6 DUP2 SWAP1 SSTORE POP CALLER PUSH1 0x5 PUSH1 0x1 PUSH2 0x100 EXP DUP2 SLOAD DUP2 PUSH20 0xFFFFFFFFFFFFFFFFFFFFFFFFFFFFFFFFFFFFFFFF MUL NOT AND SWAP1 DUP4 PUSH20 0xFFFFFFFFFFFFFFFFFFFFFFFFFFFFFFFFFFFFFFFF AND MUL OR SWAP1 SSTORE POP JUMPDEST PUSH32 0x86EF21BF36E265F583D1740184679FA503CFBFB695CFFFF03746DBCBB0A541A CALLER TIMESTAMP PUSH1 0x40 MLOAD PUSH2 0x446 SWAP3 SWAP2 SWAP1 PUSH2 0x257E JUMP JUMPDEST PUSH1 0x40 MLOAD DUP1 SWAP2 SUB SWAP1 LOG1 STOP JUMPDEST PUSH0 PUSH0 REVERT JUMPDEST CALLVALUE DUP1 ISZERO PUSH2 0x45F JUMPI PUSH0 PUSH0 REVERT JUMPDEST POP PUSH2 0x468 PUSH2 0x6FD JUMP JUMPDEST PUSH1 0x40 MLOAD PUSH2 0x475 SWAP2 SWAP1 PUSH2 0x2618 JUMP JUMPDEST PUSH1 0x40 MLOAD DUP1 SWAP2 SUB SWAP1 RETURN JUMPDEST PUSH2 0x486 PUSH2 0x788 JUMP JUMPDEST STOP JUMPDEST CALLVALUE DUP1 ISZERO PUSH2 0x493 JUMPI PUSH0 PUSH0 REVERT JUMPDEST POP PUSH2 0x4AE PUSH1 0x4 DUP1 CALLDATASIZE SUB DUP2 ADD SWAP1 PUSH2 0x4A9 SWAP2 SWAP1 PUSH2 0x2666 JUMP JUMPDEST PUSH2 0xBB8 JUMP JUMPDEST PUSH1 0x40 MLOAD PUSH2 0x4BB SWAP2 SWAP1 PUSH2 0x2691 JUMP JUMPDEST PUSH1 0x40 MLOAD DUP1 SWAP2 SUB SWAP1 RETURN JUMPDEST CALLVALUE DUP1 ISZERO PUSH2 0x4CF JUMPI PUSH0 PUSH0 REVERT JUMPDEST POP PUSH2 0x4D8 PUSH2 0xBF3 JUMP JUMPDEST PUSH1 0x40 MLOAD PUSH2 0x4E5 SWAP2 SWAP1 PUSH2 0x26F0 JUMP JUMPDEST PUSH1 0x40 MLOAD DUP1 SWAP2 SUB SWAP1 RETURN JUMPDEST CALLVALUE DUP1 ISZERO PUSH2 0x4F9 JUMPI PUSH0 PUSH0 REVERT JUMPDEST POP PUSH2 0x502 PUSH2 0xC08 JUMP JUMPDEST STOP JUMPDEST CALLVALUE DUP1 ISZERO PUSH2 0x50F JUMPI PUSH0 PUSH0 REVERT JUMPDEST POP PUSH2 0x518 PUSH2 0xFBF JUMP JUMPDEST STOP JUMPDEST CALLVALUE DUP1 ISZERO PUSH2 0x525 JUMPI PUSH0 PUSH0 REVERT JUMPDEST POP PUSH2 0x52E PUSH2 0x1126 JUMP JUMPDEST STOP JUMPDEST CALLVALUE DUP1 ISZERO PUSH2 0x53B JUMPI PUSH0 PUSH0 REVERT JUMPDEST POP PUSH2 0x544 PUSH2 0x1455 JUMP JUMPDEST PUSH1 0x40 MLOAD PUSH2 0x551 SWAP2 SWAP1 PUSH2 0x2709 JUMP JUMPDEST PUSH1 0x40 MLOAD DUP1 SWAP2 SUB SWAP1 RETURN JUMPDEST CALLVALUE DUP1 ISZERO PUSH2 0x565 JUMPI PUSH0 PUSH0 REVERT JUMPDEST POP PUSH2 0x56E PUSH2 0x14EB JUMP JUMPDEST PUSH1 0x40 MLOAD PUSH2 0x57B SWAP2 SWAP1 PUSH2 0x2618 JUMP JUMPDEST PUSH1 0x40 MLOAD DUP1 SWAP2 SUB SWAP1 RETURN JUMPDEST CALLVALUE DUP1 ISZERO PUSH2 0x58F JUMPI PUSH0 PUSH0 REVERT JUMPDEST POP PUSH2 0x598 PUSH2 0x1577 JUMP JUMPDEST PUSH1 0x40 MLOAD PUSH2 0x5A5 SWAP2 SWAP1 PUSH2 0x2691 JUMP JUMPDEST PUSH1 0x40 MLOAD DUP1 SWAP2 SUB SWAP1 RETURN JUMPDEST CALLVALUE DUP1 ISZERO PUSH2 0x5B9 JUMPI PUSH0 PUSH0 REVERT JUMPDEST POP PUSH2 0x5C2 PUSH2 0x159C JUMP JUMPDEST PUSH1 0x40 MLOAD PUSH2 0x5CF SWAP2 SWAP1 PUSH2 0x2709 JUMP JUMPDEST PUSH1 0x40 MLOAD DUP1 SWAP2 SUB SWAP1 RETURN JUMPDEST CALLVALUE DUP1 ISZERO PUSH2 0x5E3 JUMPI PUSH0 PUSH0 REVERT JUMPDEST POP PUSH2 0x5EC PUSH2 0x15A2 JUMP JUMPDEST PUSH1 0x40 MLOAD PUSH2 0x5F9 SWAP2 SWAP1 PUSH2 0x2709 JUMP JUMPDEST PUSH1 0x40 MLOAD DUP1 SWAP2 SUB SWAP1 RETURN JUMPDEST CALLVALUE DUP1 ISZERO PUSH2 0x60D JUMPI PUSH0 PUSH0 REVERT JUMPDEST POP PUSH2 0x616 PUSH2 0x15A8 JUMP JUMPDEST STOP JUMPDEST CALLVALUE DUP1 ISZERO PUSH2 0x623 JUMPI PUSH0 PUSH0 REVERT JUMPDEST POP PUSH2 0x63E PUSH1 0x4 DUP1 CALLDATASIZE SUB DUP2 ADD SWAP1 PUSH2 0x639 SWAP2 SWAP1 PUSH2 0x274C JUMP JUMPDEST PUSH2 0x17A4 JUMP JUMPDEST STOP JUMPDEST CALLVALUE DUP1 ISZERO PUSH2 0x64B JUMPI PUSH0 PUSH0 REVERT JUMPDEST POP PUSH2 0x654 PUSH2 0x1940 JUMP JUMPDEST PUSH1 0x40 MLOAD PUSH2 0x661 SWAP2 SWAP1 PUSH2 0x2709 JUMP JUMPDEST PUSH1 0x40 MLOAD DUP1 SWAP2 SUB SWAP1 RETURN JUMPDEST CALLVALUE DUP1 ISZERO PUSH2 0x675 JUMPI PUSH0 PUSH0 REVERT JUMPDEST POP PUSH2 0x67E PUSH2 0x1946 JUMP JUMPDEST STOP JUMPDEST CALLVALUE DUP1 ISZERO PUSH2 0x68B JUMPI PUSH0 PUSH0 REVERT JUMPDEST POP PUSH2 0x694 PUSH2 0x1B30 JUMP JUMPDEST PUSH1 0x40 MLOAD PUSH2 0x6A1 SWAP2 SWAP1 PUSH2 0x2709 JUMP JUMPDEST PUSH1 0x40 MLOAD DUP1 SWAP2 SUB SWAP1 RETURN JUMPDEST CALLVALUE DUP1 ISZERO PUSH2 0x6B5 JUMPI PUSH0 PUSH0 REVERT JUMPDEST POP PUSH2 0x6BE PUSH2 0x1B76 JUMP JUMPDEST STOP JUMPDEST CALLVALUE DUP1 ISZERO PUSH2 0x6CB JUMPI PUSH0 PUSH0 REVERT JUMPDEST POP PUSH2 0x6E6 PUSH1 0x4 DUP1 CALLDATASIZE SUB DUP2 ADD SWAP1 PUSH2 0x6E1 SWAP2 SWAP1 PUSH2 0x274C JUMP JUMPDEST PUSH2 0x1CE5 JUMP JUMPDEST PUSH1 0x40 MLOAD PUSH2 0x6F4 SWAP3 SWAP2 SWAP1 PUSH2 0x2777 JUMP JUMPDEST PUSH1 0x40 MLOAD DUP1 SWAP2 SUB SWAP1 RETURN JUMPDEST PUSH0 DUP1 SLOAD PUSH2 0x709 SWAP1 PUSH2 0x27CB JUMP JUMPDEST DUP1 PUSH1 0x1F ADD PUSH1 0x20 DUP1 SWAP2 DIV MUL PUSH1 0x20 ADD PUSH1 0x40 MLOAD SWAP1 DUP2 ADD PUSH1 0x40 MSTORE DUP1 SWAP3 SWAP2 SWAP1 DUP2 DUP2 MSTORE PUSH1 0x20 ADD DUP3 DUP1 SLOAD PUSH2 0x735 SWAP1 PUSH2 0x27CB JUMP JUMPDEST DUP1 ISZERO PUSH2 0x780 JUMPI DUP1 PUSH1 0x1F LT PUSH2 0x757 JUMPI PUSH2 0x100 DUP1 DUP4 SLOAD DIV MUL DUP4 MSTORE SWAP2 PUSH1 0x20 ADD SWAP2 PUSH2 0x780 JUMP JUMPDEST DUP3 ADD SWAP2 SWAP1 PUSH0 MSTORE PUSH1 0x20 PUSH0 KECCAK256 SWAP1 JUMPDEST DUP2 SLOAD DUP2 MSTORE SWAP1 PUSH1 0x1 ADD SWAP1 PUSH1 0x20 ADD DUP1 DUP4 GT PUSH2 0x763 JUMPI DUP3 SWAP1 SUB PUSH1 0x1F AND DUP3 ADD SWAP2 JUMPDEST POP POP POP POP POP DUP2 JUMP JUMPDEST PUSH1 0x1 PUSH1 0x5 DUP2 GT ISZERO PUSH2 0x79C JUMPI PUSH2 0x79B PUSH2 0x2329 JUMP JUMPDEST JUMPDEST PUSH1 0x9 PUSH0 SWAP1 SLOAD SWAP1 PUSH2 0x100 EXP SWAP1 DIV PUSH1 0xFF AND PUSH1 0x5 DUP2 GT ISZERO PUSH2 0x7BD JUMPI PUSH2 0x7BC PUSH2 0x2329 JUMP JUMPDEST JUMPDEST EQ PUSH2 0x7FD JUMPI PUSH1 0x40 MLOAD PUSH32 0x8C379A000000000000000000000000000000000000000000000000000000000 DUP2 MSTORE PUSH1 0x4 ADD PUSH2 0x7F4 SWAP1 PUSH2 0x23B0 JUMP JUMPDEST PUSH1 0x40 MLOAD DUP1 SWAP2 SUB SWAP1 REVERT JUMPDEST TIMESTAMP PUSH1 0x3 SLOAD GT PUSH2 0x841 JUMPI PUSH1 0x40 MLOAD PUSH32 0x8C379A000000000000000000000000000000000000000000000000000000000 DUP2 MSTORE PUSH1 0x4 ADD PUSH2 0x838 SWAP1 PUSH2 0x2418 JUMP JUMPDEST PUSH1 0x40 MLOAD DUP1 SWAP2 SUB SWAP1 REVERT JUMPDEST PUSH0 CALLVALUE GT PUSH2 0x883 JUMPI PUSH1 0x40 MLOAD PUSH32 0x8C379A000000000000000000000000000000000000000000000000000000000 DUP2 MSTORE PUSH1 0x4 ADD PUSH2 0x87A SWAP1 PUSH2 0x286B JUMP JUMPDEST PUSH1 0x40 MLOAD DUP1 SWAP2 SUB SWAP1 REVERT JUMPDEST PUSH1 0x8 SLOAD CALLVALUE LT PUSH2 0x8C7 JUMPI PUSH1 0x40 MLOAD PUSH32 0x8C379A000000000000000000000000000000000000000000000000000000000 DUP2 MSTORE PUSH1 0x4 ADD PUSH2 0x8BE SWAP1 PUSH2 0x28D3 JUMP JUMPDEST PUSH1 0x40 MLOAD DUP1 SWAP2 SUB SWAP1 REVERT JUMPDEST PUSH0 PUSH20 0xFFFFFFFFFFFFFFFFFFFFFFFFFFFFFFFFFFFFFFFF AND CALLER PUSH20 0xFFFFFFFFFFFFFFFFFFFFFFFFFFFFFFFFFFFFFFFF AND SUB PUSH2 0x935 JUMPI PUSH1 0x40 MLOAD PUSH32 0x8C379A000000000000000000000000000000000000000000000000000000000 DUP2 MSTORE PUSH1 0x4 ADD PUSH2 0x92C SWAP1 PUSH2 0x293B JUMP JUMPDEST PUSH1 0x40 MLOAD DUP1 SWAP2 SUB SWAP1 REVERT JUMPDEST PUSH1 0x40 MLOAD DUP1 PUSH1 0x40 ADD PUSH1 0x40 MSTORE DUP1 CALLVALUE PUSH1 0xA PUSH0 CALLER PUSH20 0xFFFFFFFFFFFFFFFFFFFFFFFFFFFFFFFFFFFFFFFF AND PUSH20 0xFFFFFFFFFFFFFFFFFFFFFFFFFFFFFFFFFFFFFFFF AND DUP2 MSTORE PUSH1 0x20 ADD SWAP1 DUP2 MSTORE PUSH1 0x20 ADD PUSH0 KECCAK256 PUSH0 ADD SLOAD PUSH2 0x98B SWAP2 SWAP1 PUSH2 0x246C JUMP JUMPDEST DUP2 MSTORE PUSH1 0x20 ADD TIMESTAMP DUP2 MSTORE POP PUSH1 0xA PUSH0 CALLER PUSH20 0xFFFFFFFFFFFFFFFFFFFFFFFFFFFFFFFFFFFFFFFF AND PUSH20 0xFFFFFFFFFFFFFFFFFFFFFFFFFFFFFFFFFFFFFFFF AND DUP2 MSTORE PUSH1 0x20 ADD SWAP1 DUP2 MSTORE PUSH1 0x20 ADD PUSH0 KECCAK256 PUSH0 DUP3 ADD MLOAD DUP2 PUSH0 ADD SSTORE PUSH1 0x20 DUP3 ADD MLOAD DUP2 PUSH1 0x1 ADD SSTORE SWAP1 POP POP PUSH0 PUSH1 0xA PUSH0 CALLER PUSH20 0xFFFFFFFFFFFFFFFFFFFFFFFFFFFFFFFFFFFFFFFF AND PUSH20 0xFFFFFFFFFFFFFFFFFFFFFFFFFFFFFFFFFFFFFFFF AND DUP2 MSTORE PUSH1 0x20 ADD SWAP1 DUP2 MSTORE PUSH1 0x20 ADD PUSH0 KECCAK256 PUSH0 ADD SLOAD SUB PUSH2 0xAA4 JUMPI PUSH1 0xB CALLER SWAP1 DUP1 PUSH1 0x1 DUP2 SLOAD ADD DUP1 DUP3 SSTORE DUP1 SWAP2 POP POP PUSH1 0x1 SWAP1 SUB SWAP1 PUSH0 MSTORE PUSH1 0x20 PUSH0 KECCAK256 ADD PUSH0 SWAP1 SWAP2 SWAP1 SWAP2 SWAP1 SWAP2 PUSH2 0x100 EXP DUP2 SLOAD DUP2 PUSH20 0xFFFFFFFFFFFFFFFFFFFFFFFFFFFFFFFFFFFFFFFF MUL NOT AND SWAP1 DUP4 PUSH20 0xFFFFFFFFFFFFFFFFFFFFFFFFFFFFFFFFFFFFFFFF AND MUL OR SWAP1 SSTORE POP PUSH1 0x7 PUSH0 DUP2 SLOAD DUP1 SWAP3 SWAP2 SWAP1 PUSH2 0xA9E SWAP1 PUSH2 0x249F JUMP JUMPDEST SWAP2 SWAP1 POP SSTORE POP JUMPDEST PUSH2 0xAAC PUSH2 0x1D05 JUMP JUMPDEST PUSH32 0x86EF21BF36E265F583D1740184679FA503CFBFB695CFFFF03746DBCBB0A541A CALLER TIMESTAMP PUSH1 0x40 MLOAD PUSH2 0xADD SWAP3 SWAP2 SWAP1 PUSH2 0x29A3 JUMP JUMPDEST PUSH1 0x40 MLOAD DUP1 SWAP2 SUB SWAP1 LOG1 PUSH1 0x6 SLOAD PUSH1 0xA PUSH0 CALLER PUSH20 0xFFFFFFFFFFFFFFFFFFFFFFFFFFFFFFFFFFFFFFFF AND PUSH20 0xFFFFFFFFFFFFFFFFFFFFFFFFFFFFFFFFFFFFFFFF AND DUP2 MSTORE PUSH1 0x20 ADD SWAP1 DUP2 MSTORE PUSH1 0x20 ADD PUSH0 KECCAK256 PUSH0 ADD SLOAD GT ISZERO PUSH2 0xBB6 JUMPI PUSH1 0xA PUSH0 CALLER PUSH20 0xFFFFFFFFFFFFFFFFFFFFFFFFFFFFFFFFFFFFFFFF AND PUSH20 0xFFFFFFFFFFFFFFFFFFFFFFFFFFFFFFFFFFFFFFFF AND DUP2 MSTORE PUSH1 0x20 ADD SWAP1 DUP2 MSTORE PUSH1 0x20 ADD PUSH0 KECCAK256 PUSH0 ADD SLOAD PUSH1 0x6 DUP2 SWAP1 SSTORE POP CALLER PUSH1 0x5 PUSH1 0x1 PUSH2 0x100 EXP DUP2 SLOAD DUP2 PUSH20 0xFFFFFFFFFFFFFFFFFFFFFFFFFFFFFFFFFFFFFFFF MUL NOT AND SWAP1 DUP4 PUSH20 0xFFFFFFFFFFFFFFFFFFFFFFFFFFFFFFFFFFFFFFFF AND MUL OR SWAP1 SSTORE POP JUMPDEST JUMP JUMPDEST PUSH1 0xB DUP2 DUP2 SLOAD DUP2 LT PUSH2 0xBC7 JUMPI PUSH0 DUP1 REVERT JUMPDEST SWAP1 PUSH0 MSTORE PUSH1 0x20 PUSH0 KECCAK256 ADD PUSH0 SWAP2 POP SLOAD SWAP1 PUSH2 0x100 EXP SWAP1 DIV PUSH20 0xFFFFFFFFFFFFFFFFFFFFFFFFFFFFFFFFFFFFFFFF AND DUP2 JUMP JUMPDEST PUSH0 PUSH1 0x9 PUSH0 SWAP1 SLOAD SWAP1 PUSH2 0x100 EXP SWAP1 DIV PUSH1 0xFF AND SWAP1 POP SWAP1 JUMP JUMPDEST CALLER PUSH20 0xFFFFFFFFFFFFFFFFFFFFFFFFFFFFFFFFFFFFFFFF AND PUSH1 0x2 PUSH0 SWAP1 SLOAD SWAP1 PUSH2 0x100 EXP SWAP1 DIV PUSH20 0xFFFFFFFFFFFFFFFFFFFFFFFFFFFFFFFFFFFFFFFF AND PUSH20 0xFFFFFFFFFFFFFFFFFFFFFFFFFFFFFFFFFFFFFFFF AND EQ PUSH2 0xC97 JUMPI PUSH1 0x40 MLOAD PUSH32 0x8C379A000000000000000000000000000000000000000000000000000000000 DUP2 MSTORE PUSH1 0x4 ADD PUSH2 0xC8E SWAP1 PUSH2 0x2A27 JUMP JUMPDEST PUSH1 0x40 MLOAD DUP1 SWAP2 SUB SWAP1 REVERT JUMPDEST PUSH1 0x5 PUSH0 SWAP1 SLOAD SWAP1 PUSH2 0x100 EXP SWAP1 DIV PUSH1 0xFF AND ISZERO PUSH2 0xCE6 JUMPI PUSH1 0x40 MLOAD PUSH32 0x8C379A000000000000000000000000000000000000000000000000000000000 DUP2 MSTORE PUSH1 0x4 ADD PUSH2 0xCDD SWAP1 PUSH2 0x2A8F JUMP JUMPDEST PUSH1 0x40 MLOAD DUP1 SWAP2 SUB SWAP1 REVERT JUMPDEST PUSH1 0x1 PUSH1 0x5 PUSH0 PUSH2 0x100 EXP DUP2 SLOAD DUP2 PUSH1 0xFF MUL NOT AND SWAP1 DUP4 ISZERO ISZERO MUL OR SWAP1 SSTORE POP PUSH1 0x4 PUSH1 0x5 DUP2 GT ISZERO PUSH2 0xD14 JUMPI PUSH2 0xD13 PUSH2 0x2329 JUMP JUMPDEST JUMPDEST PUSH1 0x9 PUSH0 SWAP1 SLOAD SWAP1 PUSH2 0x100 EXP SWAP1 DIV PUSH1 0xFF AND PUSH1 0x5 DUP2 GT ISZERO PUSH2 0xD35 JUMPI PUSH2 0xD34 PUSH2 0x2329 JUMP JUMPDEST JUMPDEST EQ PUSH2 0xD75 JUMPI PUSH1 0x40 MLOAD PUSH32 0x8C379A000000000000000000000000000000000000000000000000000000000 DUP2 MSTORE PUSH1 0x4 ADD PUSH2 0xD6C SWAP1 PUSH2 0x2AF7 JUMP JUMPDEST PUSH1 0x40 MLOAD DUP1 SWAP2 SUB SWAP1 REVERT JUMPDEST PUSH1 0x32 PUSH1 0x7 SLOAD GT ISZERO PUSH2 0xDBB JUMPI PUSH1 0x40 MLOAD PUSH32 0x8C379A000000000000000000000000000000000000000000000000000000000 DUP2 MSTORE PUSH1 0x4 ADD PUSH2 0xDB2 SWAP1 PUSH2 0x2B85 JUMP JUMPDEST PUSH1 0x40 MLOAD DUP1 SWAP2 SUB SWAP1 REVERT JUMPDEST PUSH0 PUSH0 SWAP1 POP JUMPDEST PUSH1 0x7 SLOAD DUP2 LT ISZERO PUSH2 0xFA3 JUMPI PUSH0 PUSH1 0xA PUSH0 PUSH1 0xB DUP5 DUP2 SLOAD DUP2 LT PUSH2 0xDE2 JUMPI PUSH2 0xDE1 PUSH2 0x2BA3 JUMP JUMPDEST JUMPDEST SWAP1 PUSH0 MSTORE PUSH1 0x20 PUSH0 KECCAK256 ADD PUSH0 SWAP1 SLOAD SWAP1 PUSH2 0x100 EXP SWAP1 DIV PUSH20 0xFFFFFFFFFFFFFFFFFFFFFFFFFFFFFFFFFFFFFFFF AND PUSH20 0xFFFFFFFFFFFFFFFFFFFFFFFFFFFFFFFFFFFFFFFF AND PUSH20 0xFFFFFFFFFFFFFFFFFFFFFFFFFFFFFFFFFFFFFFFF AND DUP2 MSTORE PUSH1 0x20 ADD SWAP1 DUP2 MSTORE PUSH1 0x20 ADD PUSH0 KECCAK256 PUSH0 ADD SLOAD SWAP1 POP PUSH0 PUSH1 0xB DUP4 DUP2 SLOAD DUP2 LT PUSH2 0xE5D JUMPI PUSH2 0xE5C PUSH2 0x2BA3 JUMP JUMPDEST JUMPDEST SWAP1 PUSH0 MSTORE PUSH1 0x20 PUSH0 KECCAK256 ADD PUSH0 SWAP1 SLOAD SWAP1 PUSH2 0x100 EXP SWAP1 DIV PUSH20 0xFFFFFFFFFFFFFFFFFFFFFFFFFFFFFFFFFFFFFFFF AND SWAP1 POP PUSH0 DUP3 GT ISZERO PUSH2 0xF93 JUMPI PUSH0 PUSH1 0xA PUSH0 DUP4 PUSH20 0xFFFFFFFFFFFFFFFFFFFFFFFFFFFFFFFFFFFFFFFF AND PUSH20 0xFFFFFFFFFFFFFFFFFFFFFFFFFFFFFFFFFFFFFFFF AND DUP2 MSTORE PUSH1 0x20 ADD SWAP1 DUP2 MSTORE PUSH1 0x20 ADD PUSH0 KECCAK256 PUSH0 ADD DUP2 SWAP1 SSTORE POP PUSH0 DUP2 PUSH20 0xFFFFFFFFFFFFFFFFFFFFFFFFFFFFFFFFFFFFFFFF AND DUP4 PUSH2 0x4E20 SWAP1 PUSH1 0x40 MLOAD PUSH2 0xEFC SWAP1 PUSH2 0x2BFD JUMP JUMPDEST PUSH0 PUSH1 0x40 MLOAD DUP1 DUP4 SUB DUP2 DUP6 DUP9 DUP9 CALL SWAP4 POP POP POP POP RETURNDATASIZE DUP1 PUSH0 DUP2 EQ PUSH2 0xF37 JUMPI PUSH1 0x40 MLOAD SWAP2 POP PUSH1 0x1F NOT PUSH1 0x3F RETURNDATASIZE ADD AND DUP3 ADD PUSH1 0x40 MSTORE RETURNDATASIZE DUP3 MSTORE RETURNDATASIZE PUSH0 PUSH1 0x20 DUP5 ADD RETURNDATACOPY PUSH2 0xF3C JUMP JUMPDEST PUSH1 0x60 SWAP2 POP JUMPDEST POP POP SWAP1 POP DUP1 PUSH2 0xF91 JUMPI DUP3 PUSH1 0xA PUSH0 DUP5 PUSH20 0xFFFFFFFFFFFFFFFFFFFFFFFFFFFFFFFFFFFFFFFF AND PUSH20 0xFFFFFFFFFFFFFFFFFFFFFFFFFFFFFFFFFFFFFFFF AND DUP2 MSTORE PUSH1 0x20 ADD SWAP1 DUP2 MSTORE PUSH1 0x20 ADD PUSH0 KECCAK256 PUSH0 ADD DUP2 SWAP1 SSTORE POP POP POP POP PUSH2 0xF96 JUMP JUMPDEST POP JUMPDEST POP POP JUMPDEST DUP1 DUP1 PUSH1 0x1 ADD SWAP2 POP POP PUSH2 0xDC0 JUMP JUMPDEST POP PUSH0 PUSH1 0x5 PUSH0 PUSH2 0x100 EXP DUP2 SLOAD DUP2 PUSH1 0xFF MUL NOT AND SWAP1 DUP4 ISZERO ISZERO MUL OR SWAP1 SSTORE POP JUMP JUMPDEST CALLER PUSH20 0xFFFFFFFFFFFFFFFFFFFFFFFFFFFFFFFFFFFFFFFF AND PUSH1 0x2 PUSH0 SWAP1 SLOAD SWAP1 PUSH2 0x100 EXP SWAP1 DIV PUSH20 0xFFFFFFFFFFFFFFFFFFFFFFFFFFFFFFFFFFFFFFFF AND PUSH20 0xFFFFFFFFFFFFFFFFFFFFFFFFFFFFFFFFFFFFFFFF AND EQ PUSH2 0x104E JUMPI PUSH1 0x40 MLOAD PUSH32 0x8C379A000000000000000000000000000000000000000000000000000000000 DUP2 MSTORE PUSH1 0x4 ADD PUSH2 0x1045 SWAP1 PUSH2 0x2A27 JUMP JUMPDEST PUSH1 0x40 MLOAD DUP1 SWAP2 SUB SWAP1 REVERT JUMPDEST PUSH1 0x1 PUSH1 0x5 DUP2 GT ISZERO PUSH2 0x1062 JUMPI PUSH2 0x1061 PUSH2 0x2329 JUMP JUMPDEST JUMPDEST PUSH1 0x9 PUSH0 SWAP1 SLOAD SWAP1 PUSH2 0x100 EXP SWAP1 DIV PUSH1 0xFF AND PUSH1 0x5 DUP2 GT ISZERO PUSH2 0x1083 JUMPI PUSH2 0x1082 PUSH2 0x2329 JUMP JUMPDEST JUMPDEST EQ PUSH2 0x10C3 JUMPI PUSH1 0x40 MLOAD PUSH32 0x8C379A000000000000000000000000000000000000000000000000000000000 DUP2 MSTORE PUSH1 0x4 ADD PUSH2 0x10BA SWAP1 PUSH2 0x23B0 JUMP JUMPDEST PUSH1 0x40 MLOAD DUP1 SWAP2 SUB SWAP1 REVERT JUMPDEST PUSH1 0x2 PUSH1 0x9 PUSH0 PUSH2 0x100 EXP DUP2 SLOAD DUP2 PUSH1 0xFF MUL NOT AND SWAP1 DUP4 PUSH1 0x5 DUP2 GT ISZERO PUSH2 0x10E8 JUMPI PUSH2 0x10E7 PUSH2 0x2329 JUMP JUMPDEST JUMPDEST MUL OR SWAP1 SSTORE POP PUSH32 0xD8A7DA7323410642828723771D853997704601CF6852AD3353C02D8A0C8C5B83 TIMESTAMP PUSH1 0x40 MLOAD PUSH2 0x111C SWAP2 SWAP1 PUSH2 0x2C5B JUMP JUMPDEST PUSH1 0x40 MLOAD DUP1 SWAP2 SUB SWAP1 LOG1 JUMP JUMPDEST PUSH1 0x5 PUSH0 SWAP1 SLOAD SWAP1 PUSH2 0x100 EXP SWAP1 DIV PUSH1 0xFF AND ISZERO PUSH2 0x1175 JUMPI PUSH1 0x40 MLOAD PUSH32 0x8C379A000000000000000000000000000000000000000000000000000000000 DUP2 MSTORE PUSH1 0x4 ADD PUSH2 0x116C SWAP1 PUSH2 0x2A8F JUMP JUMPDEST PUSH1 0x40 MLOAD DUP1 SWAP2 SUB SWAP1 REVERT JUMPDEST PUSH1 0x1 PUSH1 0x5 PUSH0 PUSH2 0x100 EXP DUP2 SLOAD DUP2 PUSH1 0xFF MUL NOT AND SWAP1 DUP4 ISZERO ISZERO MUL OR SWAP1 SSTORE POP PUSH1 0x4 PUSH1 0x5 DUP2 GT ISZERO PUSH2 0x11A3 JUMPI PUSH2 0x11A2 PUSH2 0x2329 JUMP JUMPDEST JUMPDEST PUSH1 0x9 PUSH0 SWAP1 SLOAD SWAP1 PUSH2 0x100 EXP SWAP1 DIV PUSH1 0xFF AND PUSH1 0x5 DUP2 GT ISZERO PUSH2 0x11C4 JUMPI PUSH2 0x11C3 PUSH2 0x2329 JUMP JUMPDEST JUMPDEST EQ PUSH2 0x1204 JUMPI PUSH1 0x40 MLOAD PUSH32 0x8C379A000000000000000000000000000000000000000000000000000000000 DUP2 MSTORE PUSH1 0x4 ADD PUSH2 0x11FB SWAP1 PUSH2 0x2AF7 JUMP JUMPDEST PUSH1 0x40 MLOAD DUP1 SWAP2 SUB SWAP1 REVERT JUMPDEST PUSH0 PUSH1 0xA PUSH0 CALLER PUSH20 0xFFFFFFFFFFFFFFFFFFFFFFFFFFFFFFFFFFFFFFFF AND PUSH20 0xFFFFFFFFFFFFFFFFFFFFFFFFFFFFFFFFFFFFFFFF AND DUP2 MSTORE PUSH1 0x20 ADD SWAP1 DUP2 MSTORE PUSH1 0x20 ADD PUSH0 KECCAK256 PUSH0 ADD SLOAD GT PUSH2 0x1285 JUMPI PUSH1 0x40 MLOAD PUSH32 0x8C379A000000000000000000000000000000000000000000000000000000000 DUP2 MSTORE PUSH1 0x4 ADD PUSH2 0x127C SWAP1 PUSH2 0x2CF7 JUMP JUMPDEST PUSH1 0x40 MLOAD DUP1 SWAP2 SUB SWAP1 REVERT JUMPDEST PUSH0 PUSH1 0xA PUSH0 CALLER PUSH20 0xFFFFFFFFFFFFFFFFFFFFFFFFFFFFFFFFFFFFFFFF AND PUSH20 0xFFFFFFFFFFFFFFFFFFFFFFFFFFFFFFFFFFFFFFFF AND DUP2 MSTORE PUSH1 0x20 ADD SWAP1 DUP2 MSTORE PUSH1 0x20 ADD PUSH0 KECCAK256 PUSH0 ADD SLOAD SWAP1 POP PUSH0 PUSH1 0xA PUSH0 CALLER PUSH20 0xFFFFFFFFFFFFFFFFFFFFFFFFFFFFFFFFFFFFFFFF AND PUSH20 0xFFFFFFFFFFFFFFFFFFFFFFFFFFFFFFFFFFFFFFFF AND DUP2 MSTORE PUSH1 0x20 ADD SWAP1 DUP2 MSTORE PUSH1 0x20 ADD PUSH0 KECCAK256 PUSH0 ADD DUP2 SWAP1 SSTORE POP PUSH0 CALLER PUSH20 0xFFFFFFFFFFFFFFFFFFFFFFFFFFFFFFFFFFFFFFFF AND DUP3 PUSH2 0x2710 SWAP1 PUSH1 0x40 MLOAD PUSH2 0x1335 SWAP1 PUSH2 0x2BFD JUMP JUMPDEST PUSH0 PUSH1 0x40 MLOAD DUP1 DUP4 SUB DUP2 DUP6 DUP9 DUP9 CALL SWAP4 POP POP POP POP RETURNDATASIZE DUP1 PUSH0 DUP2 EQ PUSH2 0x1370 JUMPI PUSH1 0x40 MLOAD SWAP2 POP PUSH1 0x1F NOT PUSH1 0x3F RETURNDATASIZE ADD AND DUP3 ADD PUSH1 0x40 MSTORE RETURNDATASIZE DUP3 MSTORE RETURNDATASIZE PUSH0 PUSH1 0x20 DUP5 ADD RETURNDATACOPY PUSH2 0x1375 JUMP JUMPDEST PUSH1 0x60 SWAP2 POP JUMPDEST POP POP SWAP1 POP DUP1 PUSH2 0x13FD JUMPI DUP2 PUSH1 0xA PUSH0 CALLER PUSH20 0xFFFFFFFFFFFFFFFFFFFFFFFFFFFFFFFFFFFFFFFF AND PUSH20 0xFFFFFFFFFFFFFFFFFFFFFFFFFFFFFFFFFFFFFFFF AND DUP2 MSTORE PUSH1 0x20 ADD SWAP1 DUP2 MSTORE PUSH1 0x20 ADD PUSH0 KECCAK256 PUSH0 ADD DUP2 SWAP1 SSTORE POP PUSH1 0x40 MLOAD PUSH32 0x8C379A000000000000000000000000000000000000000000000000000000000 DUP2 MSTORE PUSH1 0x4 ADD PUSH2 0x13F4 SWAP1 PUSH2 0x2D5F JUMP JUMPDEST PUSH1 0x40 MLOAD DUP1 SWAP2 SUB SWAP1 REVERT JUMPDEST PUSH32 0x1A7EFAB681EA302614D1EE06D09053B2EB69CE20A9851858FF847D4D42D3EE0 CALLER DUP4 TIMESTAMP PUSH1 0x40 MLOAD PUSH2 0x1430 SWAP4 SWAP3 SWAP2 SWAP1 PUSH2 0x2DC7 JUMP JUMPDEST PUSH1 0x40 MLOAD DUP1 SWAP2 SUB SWAP1 LOG1 POP POP PUSH0 PUSH1 0x5 PUSH0 PUSH2 0x100 EXP DUP2 SLOAD DUP2 PUSH1 0xFF MUL NOT AND SWAP1 DUP4 ISZERO ISZERO MUL OR SWAP1 SSTORE POP JUMP JUMPDEST PUSH0 CALLER PUSH20 0xFFFFFFFFFFFFFFFFFFFFFFFFFFFFFFFFFFFFFFFF AND PUSH1 0x2 PUSH0 SWAP1 SLOAD SWAP1 PUSH2 0x100 EXP SWAP1 DIV PUSH20 0xFFFFFFFFFFFFFFFFFFFFFFFFFFFFFFFFFFFFFFFF AND PUSH20 0xFFFFFFFFFFFFFFFFFFFFFFFFFFFFFFFFFFFFFFFF AND EQ PUSH2 0x14E5 JUMPI PUSH1 0x40 MLOAD PUSH32 0x8C379A000000000000000000000000000000000000000000000000000000000 DUP2 MSTORE PUSH1 0x4 ADD PUSH2 0x14DC SWAP1 PUSH2 0x2A27 JUMP JUMPDEST PUSH1 0x40 MLOAD DUP1 SWAP2 SUB SWAP1 REVERT JUMPDEST SELFBALANCE SWAP1 POP SWAP1 JUMP JUMPDEST PUSH1 0x1 DUP1 SLOAD PUSH2 0x14F8 SWAP1 PUSH2 0x27CB JUMP JUMPDEST DUP1 PUSH1 0x1F ADD PUSH1 0x20 DUP1 SWAP2 DIV MUL PUSH1 0x20 ADD PUSH1 0x40 MLOAD SWAP1 DUP2 ADD PUSH1 0x40 MSTORE DUP1 SWAP3 SWAP2 SWAP1 DUP2 DUP2 MSTORE PUSH1 0x20 ADD DUP3 DUP1 SLOAD PUSH2 0x1524 SWAP1 PUSH2 0x27CB JUMP JUMPDEST DUP1 ISZERO PUSH2 0x156F JUMPI DUP1 PUSH1 0x1F LT PUSH2 0x1546 JUMPI PUSH2 0x100 DUP1 DUP4 SLOAD DIV MUL DUP4 MSTORE SWAP2 PUSH1 0x20 ADD SWAP2 PUSH2 0x156F JUMP JUMPDEST DUP3 ADD SWAP2 SWAP1 PUSH0 MSTORE PUSH1 0x20 PUSH0 KECCAK256 SWAP1 JUMPDEST DUP2 SLOAD DUP2 MSTORE SWAP1 PUSH1 0x1 ADD SWAP1 PUSH1 0x20 ADD DUP1 DUP4 GT PUSH2 0x1552 JUMPI DUP3 SWAP1 SUB PUSH1 0x1F AND DUP3 ADD SWAP2 JUMPDEST POP POP POP POP POP DUP2 JUMP JUMPDEST PUSH1 0x2 PUSH0 SWAP1 SLOAD SWAP1 PUSH2 0x100 EXP SWAP1 DIV PUSH20 0xFFFFFFFFFFFFFFFFFFFFFFFFFFFFFFFFFFFFFFFF AND DUP2 JUMP JUMPDEST PUSH1 0x8 SLOAD DUP2 JUMP JUMPDEST PUSH1 0x4 SLOAD DUP2 JUMP JUMPDEST CALLER PUSH20 0xFFFFFFFFFFFFFFFFFFFFFFFFFFFFFFFFFFFFFFFF AND PUSH1 0x2 PUSH0 SWAP1 SLOAD SWAP1 PUSH2 0x100 EXP SWAP1 DIV PUSH20 0xFFFFFFFFFFFFFFFFFFFFFFFFFFFFFFFFFFFFFFFF AND PUSH20 0xFFFFFFFFFFFFFFFFFFFFFFFFFFFFFFFFFFFFFFFF AND EQ PUSH2 0x1637 JUMPI PUSH1 0x40 MLOAD PUSH32 0x8C379A000000000000000000000000000000000000000000000000000000000 DUP2 MSTORE PUSH1 0x4 ADD PUSH2 0x162E SWAP1 PUSH2 0x2A27 JUMP JUMPDEST PUSH1 0x40 MLOAD DUP1 SWAP2 SUB SWAP1 REVERT JUMPDEST PUSH1 0x1 PUSH1 0x5 DUP2 GT ISZERO PUSH2 0x164B JUMPI PUSH2 0x164A PUSH2 0x2329 JUMP JUMPDEST JUMPDEST PUSH1 0x9 PUSH0 SWAP1 SLOAD SWAP1 PUSH2 0x100 EXP SWAP1 DIV PUSH1 0xFF AND PUSH1 0x5 DUP2 GT ISZERO PUSH2 0x166C JUMPI PUSH2 0x166B PUSH2 0x2329 JUMP JUMPDEST JUMPDEST EQ PUSH2 0x16AC JUMPI PUSH1 0x40 MLOAD PUSH32 0x8C379A000000000000000000000000000000000000000000000000000000000 DUP2 MSTORE PUSH1 0x4 ADD PUSH2 0x16A3 SWAP1 PUSH2 0x23B0 JUMP JUMPDEST PUSH1 0x40 MLOAD DUP1 SWAP2 SUB SWAP1 REVERT JUMPDEST PUSH2 0x16B4 PUSH2 0x1D05 JUMP JUMPDEST PUSH1 0x3 PUSH1 0x5 DUP2 GT ISZERO PUSH2 0x16C8 JUMPI PUSH2 0x16C7 PUSH2 0x2329 JUMP JUMPDEST JUMPDEST PUSH1 0x9 PUSH0 SWAP1 SLOAD SWAP1 PUSH2 0x100 EXP SWAP1 DIV PUSH1 0xFF AND PUSH1 0x5 DUP2 GT ISZERO PUSH2 0x16E9 JUMPI PUSH2 0x16E8 PUSH2 0x2329 JUMP JUMPDEST JUMPDEST EQ ISZERO DUP1 PUSH2 0x1728 JUMPI POP PUSH1 0x5 DUP1 DUP2 GT ISZERO PUSH2 0x1704 JUMPI PUSH2 0x1703 PUSH2 0x2329 JUMP JUMPDEST JUMPDEST PUSH1 0x9 PUSH0 SWAP1 SLOAD SWAP1 PUSH2 0x100 EXP SWAP1 DIV PUSH1 0xFF AND PUSH1 0x5 DUP2 GT ISZERO PUSH2 0x1725 JUMPI PUSH2 0x1724 PUSH2 0x2329 JUMP JUMPDEST JUMPDEST EQ ISZERO JUMPDEST ISZERO PUSH2 0x17A2 JUMPI PUSH1 0x4 PUSH1 0x9 PUSH0 PUSH2 0x100 EXP DUP2 SLOAD DUP2 PUSH1 0xFF MUL NOT AND SWAP1 DUP4 PUSH1 0x5 DUP2 GT ISZERO PUSH2 0x1752 JUMPI PUSH2 0x1751 PUSH2 0x2329 JUMP JUMPDEST JUMPDEST MUL OR SWAP1 SSTORE POP PUSH32 0x531D9ED07FC41C774A20A0C80BFC1E3D4A1D5D5F028915424BFB538E9761AB50 TIMESTAMP PUSH1 0x40 MLOAD PUSH2 0x1786 SWAP2 SWAP1 PUSH2 0x2E59 JUMP JUMPDEST PUSH1 0x40 MLOAD DUP1 SWAP2 SUB SWAP1 LOG1 PUSH1 0x64 PUSH1 0x7 SLOAD GT PUSH2 0x17A1 JUMPI PUSH2 0x17A0 PUSH2 0xC08 JUMP JUMPDEST JUMPDEST JUMPDEST JUMP JUMPDEST CALLER PUSH20 0xFFFFFFFFFFFFFFFFFFFFFFFFFFFFFFFFFFFFFFFF AND PUSH1 0x2 PUSH0 SWAP1 SLOAD SWAP1 PUSH2 0x100 EXP SWAP1 DIV PUSH20 0xFFFFFFFFFFFFFFFFFFFFFFFFFFFFFFFFFFFFFFFF AND PUSH20 0xFFFFFFFFFFFFFFFFFFFFFFFFFFFFFFFFFFFFFFFF AND EQ PUSH2 0x1833 JUMPI PUSH1 0x40 MLOAD PUSH32 0x8C379A000000000000000000000000000000000000000000000000000000000 DUP2 MSTORE PUSH1 0x4 ADD PUSH2 0x182A SWAP1 PUSH2 0x2A27 JUMP JUMPDEST PUSH1 0x40 MLOAD DUP1 SWAP2 SUB SWAP1 REVERT JUMPDEST PUSH0 PUSH20 0xFFFFFFFFFFFFFFFFFFFFFFFFFFFFFFFFFFFFFFFF AND DUP2 PUSH20 0xFFFFFFFFFFFFFFFFFFFFFFFFFFFFFFFFFFFFFFFF AND SUB PUSH2 0x18A1 JUMPI PUSH1 0x40 MLOAD PUSH32 0x8C379A000000000000000000000000000000000000000000000000000000000 DUP2 MSTORE PUSH1 0x4 ADD PUSH2 0x1898 SWAP1 PUSH2 0x293B JUMP JUMPDEST PUSH1 0x40 MLOAD DUP1 SWAP2 SUB SWAP1 REVERT JUMPDEST DUP1 PUSH1 0x2 PUSH0 PUSH2 0x100 EXP DUP2 SLOAD DUP2 PUSH20 0xFFFFFFFFFFFFFFFFFFFFFFFFFFFFFFFFFFFFFFFF MUL NOT AND SWAP1 DUP4 PUSH20 0xFFFFFFFFFFFFFFFFFFFFFFFFFFFFFFFFFFFFFFFF AND MUL OR SWAP1 SSTORE POP PUSH32 0xAE9D288F06C8E7B741F4A9AD5F43155EA325688E0CD2A76D1D8474CEB0C726AA PUSH1 0x2 PUSH0 SWAP1 SLOAD SWAP1 PUSH2 0x100 EXP SWAP1 DIV PUSH20 0xFFFFFFFFFFFFFFFFFFFFFFFFFFFFFFFFFFFFFFFF AND DUP3 TIMESTAMP PUSH1 0x40 MLOAD PUSH2 0x1935 SWAP4 SWAP3 SWAP2 SWAP1 PUSH2 0x2ECF JUMP JUMPDEST PUSH1 0x40 MLOAD DUP1 SWAP2 SUB SWAP1 LOG1 POP JUMP JUMPDEST PUSH1 0x3 SLOAD DUP2 JUMP JUMPDEST CALLER PUSH20 0xFFFFFFFFFFFFFFFFFFFFFFFFFFFFFFFFFFFFFFFF AND PUSH1 0x2 PUSH0 SWAP1 SLOAD SWAP1 PUSH2 0x100 EXP SWAP1 DIV PUSH20 0xFFFFFFFFFFFFFFFFFFFFFFFFFFFFFFFFFFFFFFFF AND PUSH20 0xFFFFFFFFFFFFFFFFFFFFFFFFFFFFFFFFFFFFFFFF AND EQ PUSH2 0x19D5 JUMPI PUSH1 0x40 MLOAD PUSH32 0x8C379A000000000000000000000000000000000000000000000000000000000 DUP2 MSTORE PUSH1 0x4 ADD PUSH2 0x19CC SWAP1 PUSH2 0x2A27 JUMP JUMPDEST PUSH1 0x40 MLOAD DUP1 SWAP2 SUB SWAP1 REVERT JUMPDEST PUSH0 PUSH1 0x5 DUP2 GT ISZERO PUSH2 0x19E8 JUMPI PUSH2 0x19E7 PUSH2 0x2329 JUMP JUMPDEST JUMPDEST PUSH1 0x9 PUSH0 SWAP1 SLOAD SWAP1 PUSH2 0x100 EXP SWAP1 DIV PUSH1 0xFF AND PUSH1 0x5 DUP2 GT ISZERO PUSH2 0x1A09 JUMPI PUSH2 0x1A08 PUSH2 0x2329 JUMP JUMPDEST JUMPDEST EQ DUP1 ISZERO PUSH2 0x1A48 JUMPI POP PUSH1 0x3 PUSH1 0x5 DUP2 GT ISZERO PUSH2 0x1A25 JUMPI PUSH2 0x1A24 PUSH2 0x2329 JUMP JUMPDEST JUMPDEST PUSH1 0x9 PUSH0 SWAP1 SLOAD SWAP1 PUSH2 0x100 EXP SWAP1 DIV PUSH1 0xFF AND PUSH1 0x5 DUP2 GT ISZERO PUSH2 0x1A46 JUMPI PUSH2 0x1A45 PUSH2 0x2329 JUMP JUMPDEST JUMPDEST EQ JUMPDEST PUSH2 0x1A87 JUMPI PUSH1 0x40 MLOAD PUSH32 0x8C379A000000000000000000000000000000000000000000000000000000000 DUP2 MSTORE PUSH1 0x4 ADD PUSH2 0x1A7E SWAP1 PUSH2 0x2F61 JUMP JUMPDEST PUSH1 0x40 MLOAD DUP1 SWAP2 SUB SWAP1 REVERT JUMPDEST PUSH0 SELFBALANCE EQ PUSH2 0x1AC9 JUMPI PUSH1 0x40 MLOAD PUSH32 0x8C379A000000000000000000000000000000000000000000000000000000000 DUP2 MSTORE PUSH1 0x4 ADD PUSH2 0x1AC0 SWAP1 PUSH2 0x2FC9 JUMP JUMPDEST PUSH1 0x40 MLOAD DUP1 SWAP2 SUB SWAP1 REVERT JUMPDEST PUSH1 0x1 PUSH1 0x9 PUSH0 PUSH2 0x100 EXP DUP2 SLOAD DUP2 PUSH1 0xFF MUL NOT AND SWAP1 DUP4 PUSH1 0x5 DUP2 GT ISZERO PUSH2 0x1AEE JUMPI PUSH2 0x1AED PUSH2 0x2329 JUMP JUMPDEST JUMPDEST MUL OR SWAP1 SSTORE POP PUSH32 0x420C0B3991B6DE993DA00ACEFC7FB12BEF31604D94CAB8BF2A6E104E273CBF1F PUSH1 0x3 SLOAD TIMESTAMP PUSH1 0x40 MLOAD PUSH2 0x1B26 SWAP3 SWAP2 SWAP1 PUSH2 0x3031 JUMP JUMPDEST PUSH1 0x40 MLOAD DUP1 SWAP2 SUB SWAP1 LOG1 JUMP JUMPDEST PUSH0 PUSH1 0xA PUSH0 CALLER PUSH20 0xFFFFFFFFFFFFFFFFFFFFFFFFFFFFFFFFFFFFFFFF AND PUSH20 0xFFFFFFFFFFFFFFFFFFFFFFFFFFFFFFFFFFFFFFFF AND DUP2 MSTORE PUSH1 0x20 ADD SWAP1 DUP2 MSTORE PUSH1 0x20 ADD PUSH0 KECCAK256 PUSH0 ADD SLOAD SWAP1 POP SWAP1 JUMP JUMPDEST CALLER PUSH20 0xFFFFFFFFFFFFFFFFFFFFFFFFFFFFFFFFFFFFFFFF AND PUSH1 0x2 PUSH0 SWAP1 SLOAD SWAP1 PUSH2 0x100 EXP SWAP1 DIV PUSH20 0xFFFFFFFFFFFFFFFFFFFFFFFFFFFFFFFFFFFFFFFF AND PUSH20 0xFFFFFFFFFFFFFFFFFFFFFFFFFFFFFFFFFFFFFFFF AND EQ PUSH2 0x1C05 JUMPI PUSH1 0x40 MLOAD PUSH32 0x8C379A000000000000000000000000000000000000000000000000000000000 DUP2 MSTORE PUSH1 0x4 ADD PUSH2 0x1BFC SWAP1 PUSH2 0x2A27 JUMP JUMPDEST PUSH1 0x40 MLOAD DUP1 SWAP2 SUB SWAP1 REVERT JUMPDEST PUSH1 0x2 PUSH1 0x5 DUP2 GT ISZERO PUSH2 0x1C19 JUMPI PUSH2 0x1C18 PUSH2 0x2329 JUMP JUMPDEST JUMPDEST PUSH1 0x9 PUSH0 SWAP1 SLOAD SWAP1 PUSH2 0x100 EXP SWAP1 DIV PUSH1 0xFF AND PUSH1 0x5 DUP2 GT ISZERO PUSH2 0x1C3A JUMPI PUSH2 0x1C39 PUSH2 0x2329 JUMP JUMPDEST JUMPDEST EQ PUSH2 0x1C7A JUMPI PUSH1 0x40 MLOAD PUSH32 0x8C379A000000000000000000000000000000000000000000000000000000000 DUP2 MSTORE PUSH1 0x4 ADD PUSH2 0x1C71 SWAP1 PUSH2 0x30B5 JUMP JUMPDEST PUSH1 0x40 MLOAD DUP1 SWAP2 SUB SWAP1 REVERT JUMPDEST PUSH1 0x1 PUSH1 0x9 PUSH0 PUSH2 0x100 EXP DUP2 SLOAD DUP2 PUSH1 0xFF MUL NOT AND SWAP1 DUP4 PUSH1 0x5 DUP2 GT ISZERO PUSH2 0x1C9F JUMPI PUSH2 0x1C9E PUSH2 0x2329 JUMP JUMPDEST JUMPDEST MUL OR SWAP1 SSTORE POP PUSH32 0x6B8BE408DC299319E92648F903A6EB02A11EED17A1F419CCD4EDF8F46E8DAAA2 TIMESTAMP PUSH1 0x40 MLOAD PUSH2 0x1CD3 SWAP2 SWAP1 PUSH2 0x311D JUMP JUMPDEST PUSH1 0x40 MLOAD DUP1 SWAP2 SUB SWAP1 LOG1 PUSH2 0x1CE3 PUSH2 0x1D05 JUMP JUMPDEST JUMP JUMPDEST PUSH1 0xA PUSH1 0x20 MSTORE DUP1 PUSH0 MSTORE PUSH1 0x40 PUSH0 KECCAK256 PUSH0 SWAP2 POP SWAP1 POP DUP1 PUSH0 ADD SLOAD SWAP1 DUP1 PUSH1 0x1 ADD SLOAD SWAP1 POP DUP3 JUMP JUMPDEST CALLER PUSH20 0xFFFFFFFFFFFFFFFFFFFFFFFFFFFFFFFFFFFFFFFF AND PUSH1 0x2 PUSH0 SWAP1 SLOAD SWAP1 PUSH2 0x100 EXP SWAP1 DIV PUSH20 0xFFFFFFFFFFFFFFFFFFFFFFFFFFFFFFFFFFFFFFFF AND PUSH20 0xFFFFFFFFFFFFFFFFFFFFFFFFFFFFFFFFFFFFFFFF AND EQ PUSH2 0x1D94 JUMPI PUSH1 0x40 MLOAD PUSH32 0x8C379A000000000000000000000000000000000000000000000000000000000 DUP2 MSTORE PUSH1 0x4 ADD PUSH2 0x1D8B SWAP1 PUSH2 0x2A27 JUMP JUMPDEST PUSH1 0x40 MLOAD DUP1 SWAP2 SUB SWAP1 REVERT JUMPDEST PUSH1 0x5 PUSH0 SWAP1 SLOAD SWAP1 PUSH2 0x100 EXP SWAP1 DIV PUSH1 0xFF AND ISZERO PUSH2 0x1DE3 JUMPI PUSH1 0x40 MLOAD PUSH32 0x8C379A000000000000000000000000000000000000000000000000000000000 DUP2 MSTORE PUSH1 0x4 ADD PUSH2 0x1DDA SWAP1 PUSH2 0x2A8F JUMP JUMPDEST PUSH1 0x40 MLOAD DUP1 SWAP2 SUB SWAP1 REVERT JUMPDEST PUSH1 0x1 PUSH1 0x5 PUSH0 PUSH2 0x100 EXP DUP2 SLOAD DUP2 PUSH1 0xFF MUL NOT AND SWAP1 DUP4 ISZERO ISZERO MUL OR SWAP1 SSTORE POP PUSH1 0x1 PUSH1 0x5 DUP2 GT ISZERO PUSH2 0x1E11 JUMPI PUSH2 0x1E10 PUSH2 0x2329 JUMP JUMPDEST JUMPDEST PUSH1 0x9 PUSH0 SWAP1 SLOAD SWAP1 PUSH2 0x100 EXP SWAP1 DIV PUSH1 0xFF AND PUSH1 0x5 DUP2 GT ISZERO PUSH2 0x1E32 JUMPI PUSH2 0x1E31 PUSH2 0x2329 JUMP JUMPDEST JUMPDEST SUB PUSH2 0x1EEA JUMPI PUSH1 0x3 SLOAD TIMESTAMP LT PUSH2 0x1EE9 JUMPI PUSH1 0x3 PUSH1 0x9 PUSH0 PUSH2 0x100 EXP DUP2 SLOAD DUP2 PUSH1 0xFF MUL NOT AND SWAP1 DUP4 PUSH1 0x5 DUP2 GT ISZERO PUSH2 0x1E65 JUMPI PUSH2 0x1E64 PUSH2 0x2329 JUMP JUMPDEST JUMPDEST MUL OR SWAP1 SSTORE POP PUSH1 0x5 PUSH1 0x1 SWAP1 SLOAD SWAP1 PUSH2 0x100 EXP SWAP1 DIV PUSH20 0xFFFFFFFFFFFFFFFFFFFFFFFFFFFFFFFFFFFFFFFF AND PUSH20 0xFFFFFFFFFFFFFFFFFFFFFFFFFFFFFFFFFFFFFFFF AND PUSH32 0x7EDCC4EB74BC40A75C2D16F7DFA8F8C1191BEED4DB1D54D5552C4021CCA4EAF8 SELFBALANCE PUSH1 0x7 SLOAD TIMESTAMP PUSH1 0x40 MLOAD PUSH2 0x1ED8 SWAP4 SWAP3 SWAP2 SWAP1 PUSH2 0x3193 JUMP JUMPDEST PUSH1 0x40 MLOAD DUP1 SWAP2 SUB SWAP1 LOG2 PUSH2 0x1EE8 PUSH2 0x1F05 JUMP JUMPDEST JUMPDEST JUMPDEST PUSH0 PUSH1 0x5 PUSH0 PUSH2 0x100 EXP DUP2 SLOAD DUP2 PUSH1 0xFF MUL NOT AND SWAP1 DUP4 ISZERO ISZERO MUL OR SWAP1 SSTORE POP JUMP JUMPDEST CALLER PUSH20 0xFFFFFFFFFFFFFFFFFFFFFFFFFFFFFFFFFFFFFFFF AND PUSH1 0x2 PUSH0 SWAP1 SLOAD SWAP1 PUSH2 0x100 EXP SWAP1 DIV PUSH20 0xFFFFFFFFFFFFFFFFFFFFFFFFFFFFFFFFFFFFFFFF AND PUSH20 0xFFFFFFFFFFFFFFFFFFFFFFFFFFFFFFFFFFFFFFFF AND EQ PUSH2 0x1F94 JUMPI PUSH1 0x40 MLOAD PUSH32 0x8C379A000000000000000000000000000000000000000000000000000000000 DUP2 MSTORE PUSH1 0x4 ADD PUSH2 0x1F8B SWAP1 PUSH2 0x2A27 JUMP JUMPDEST PUSH1 0x40 MLOAD DUP1 SWAP2 SUB SWAP1 REVERT JUMPDEST PUSH1 0x1 PUSH1 0x5 DUP2 GT ISZERO PUSH2 0x1FA8 JUMPI PUSH2 0x1FA7 PUSH2 0x2329 JUMP JUMPDEST JUMPDEST PUSH1 0x9 PUSH0 SWAP1 SLOAD SWAP1 PUSH2 0x100 EXP SWAP1 DIV PUSH1 0xFF AND PUSH1 0x5 DUP2 GT ISZERO PUSH2 0x1FC9 JUMPI PUSH2 0x1FC8 PUSH2 0x2329 JUMP JUMPDEST JUMPDEST EQ PUSH2 0x2009 JUMPI PUSH1 0x40 MLOAD PUSH32 0x8C379A000000000000000000000000000000000000000000000000000000000 DUP2 MSTORE PUSH1 0x4 ADD PUSH2 0x2000 SWAP1 PUSH2 0x23B0 JUMP JUMPDEST PUSH1 0x40 MLOAD DUP1 SWAP2 SUB SWAP1 REVERT JUMPDEST PUSH1 0x5 PUSH0 SWAP1 SLOAD SWAP1 PUSH2 0x100 EXP SWAP1 DIV PUSH1 0xFF AND ISZERO PUSH2 0x2058 JUMPI PUSH1 0x40 MLOAD PUSH32 0x8C379A000000000000000000000000000000000000000000000000000000000 DUP2 MSTORE PUSH1 0x4 ADD PUSH2 0x204F SWAP1 PUSH2 0x2A8F JUMP JUMPDEST PUSH1 0x40 MLOAD DUP1 SWAP2 SUB SWAP1 REVERT JUMPDEST PUSH1 0x1 PUSH1 0x5 PUSH0 PUSH2 0x100 EXP DUP2 SLOAD DUP2 PUSH1 0xFF MUL NOT AND SWAP1 DUP4 ISZERO ISZERO MUL OR SWAP1 SSTORE POP PUSH1 0x3 PUSH1 0x9 PUSH0 PUSH2 0x100 EXP DUP2 SLOAD DUP2 PUSH1 0xFF MUL NOT AND SWAP1 DUP4 PUSH1 0x5 DUP2 GT ISZERO PUSH2 0x2097 JUMPI PUSH2 0x2096 PUSH2 0x2329 JUMP JUMPDEST JUMPDEST MUL OR SWAP1 SSTORE POP PUSH0 SELFBALANCE SWAP1 POP PUSH0 PUSH1 0x64 PUSH1 0x4 SLOAD DUP4 PUSH2 0x20B1 SWAP2 SWAP1 PUSH2 0x31DB JUMP JUMPDEST PUSH2 0x20BB SWAP2 SWAP1 PUSH2 0x3249 JUMP JUMPDEST SWAP1 POP PUSH0 DUP2 DUP4 PUSH2 0x20CA SWAP2 SWAP1 PUSH2 0x3279 JUMP JUMPDEST SWAP1 POP PUSH0 PUSH1 0x2 PUSH0 SWAP1 SLOAD SWAP1 PUSH2 0x100 EXP SWAP1 DIV PUSH20 0xFFFFFFFFFFFFFFFFFFFFFFFFFFFFFFFFFFFFFFFF AND PUSH20 0xFFFFFFFFFFFFFFFFFFFFFFFFFFFFFFFFFFFFFFFF AND DUP4 PUSH2 0x2710 SWAP1 PUSH1 0x40 MLOAD PUSH2 0x2116 SWAP1 PUSH2 0x2BFD JUMP JUMPDEST PUSH0 PUSH1 0x40 MLOAD DUP1 DUP4 SUB DUP2 DUP6 DUP9 DUP9 CALL SWAP4 POP POP POP POP RETURNDATASIZE DUP1 PUSH0 DUP2 EQ PUSH2 0x2151 JUMPI PUSH1 0x40 MLOAD SWAP2 POP PUSH1 0x1F NOT PUSH1 0x3F RETURNDATASIZE ADD AND DUP3 ADD PUSH1 0x40 MSTORE RETURNDATASIZE DUP3 MSTORE RETURNDATASIZE PUSH0 PUSH1 0x20 DUP5 ADD RETURNDATACOPY PUSH2 0x2156 JUMP JUMPDEST PUSH1 0x60 SWAP2 POP JUMPDEST POP POP SWAP1 POP DUP1 PUSH2 0x219A JUMPI PUSH1 0x40 MLOAD PUSH32 0x8C379A000000000000000000000000000000000000000000000000000000000 DUP2 MSTORE PUSH1 0x4 ADD PUSH2 0x2191 SWAP1 PUSH2 0x2D5F JUMP JUMPDEST PUSH1 0x40 MLOAD DUP1 SWAP2 SUB SWAP1 REVERT JUMPDEST PUSH0 PUSH1 0x5 PUSH1 0x1 SWAP1 SLOAD SWAP1 PUSH2 0x100 EXP SWAP1 DIV PUSH20 0xFFFFFFFFFFFFFFFFFFFFFFFFFFFFFFFFFFFFFFFF AND PUSH20 0xFFFFFFFFFFFFFFFFFFFFFFFFFFFFFFFFFFFFFFFF AND DUP4 PUSH2 0x2710 SWAP1 PUSH1 0x40 MLOAD PUSH2 0x21E5 SWAP1 PUSH2 0x2BFD JUMP JUMPDEST PUSH0 PUSH1 0x40 MLOAD DUP1 DUP4 SUB DUP2 DUP6 DUP9 DUP9 CALL SWAP4 POP POP POP POP RETURNDATASIZE DUP1 PUSH0 DUP2 EQ PUSH2 0x2220 JUMPI PUSH1 0x40 MLOAD SWAP2 POP PUSH1 0x1F NOT PUSH1 0x3F RETURNDATASIZE ADD AND DUP3 ADD PUSH1 0x40 MSTORE RETURNDATASIZE DUP3 MSTORE RETURNDATASIZE PUSH0 PUSH1 0x20 DUP5 ADD RETURNDATACOPY PUSH2 0x2225 JUMP JUMPDEST PUSH1 0x60 SWAP2 POP JUMPDEST POP POP SWAP1 POP DUP1 PUSH2 0x2269 JUMPI PUSH1 0x40 MLOAD PUSH32 0x8C379A000000000000000000000000000000000000000000000000000000000 DUP2 MSTORE PUSH1 0x4 ADD PUSH2 0x2260 SWAP1 PUSH2 0x2D5F JUMP JUMPDEST PUSH1 0x40 MLOAD DUP1 SWAP2 SUB SWAP1 REVERT JUMPDEST PUSH1 0x5 PUSH1 0x1 SWAP1 SLOAD SWAP1 PUSH2 0x100 EXP SWAP1 DIV PUSH20 0xFFFFFFFFFFFFFFFFFFFFFFFFFFFFFFFFFFFFFFFF AND PUSH20 0xFFFFFFFFFFFFFFFFFFFFFFFFFFFFFFFFFFFFFFFF AND PUSH32 0x7EDCC4EB74BC40A75C2D16F7DFA8F8C1191BEED4DB1D54D5552C4021CCA4EAF8 SELFBALANCE PUSH1 0x7 SLOAD TIMESTAMP PUSH1 0x40 MLOAD PUSH2 0x22D7 SWAP4 SWAP3 SWAP2 SWAP1 PUSH2 0x32F6 JUMP JUMPDEST PUSH1 0x40 MLOAD DUP1 SWAP2 SUB SWAP1 LOG2 PUSH1 0x5 PUSH1 0x9 PUSH0 PUSH2 0x100 EXP DUP2 SLOAD DUP2 PUSH1 0xFF MUL NOT AND SWAP1 DUP4 PUSH1 0x5 DUP2 GT ISZERO PUSH2 0x2304 JUMPI PUSH2 0x2303 PUSH2 0x2329 JUMP JUMPDEST JUMPDEST MUL OR SWAP1 SSTORE POP POP POP POP POP POP PUSH0 PUSH1 0x5 PUSH0 PUSH2 0x100 EXP DUP2 SLOAD DUP2 PUSH1 0xFF MUL NOT AND SWAP1 DUP4 ISZERO ISZERO MUL OR SWAP1 SSTORE POP JUMP JUMPDEST PUSH32 0x4E487B7100000000000000000000000000000000000000000000000000000000 PUSH0 MSTORE PUSH1 0x21 PUSH1 0x4 MSTORE PUSH1 0x24 PUSH0 REVERT JUMPDEST PUSH0 DUP3 DUP3 MSTORE PUSH1 0x20 DUP3 ADD SWAP1 POP SWAP3 SWAP2 POP POP JUMP JUMPDEST PUSH32 0x47616D65206973206E6F74206163746976652E00000000000000000000000000 PUSH0 DUP3 ADD MSTORE POP JUMP JUMPDEST PUSH0 PUSH2 0x239A PUSH1 0x13 DUP4 PUSH2 0x2356 JUMP JUMPDEST SWAP2 POP PUSH2 0x23A5 DUP3 PUSH2 0x2366 JUMP JUMPDEST PUSH1 0x20 DUP3 ADD SWAP1 POP SWAP2 SWAP1 POP JUMP JUMPDEST PUSH0 PUSH1 0x20 DUP3 ADD SWAP1 POP DUP2 DUP2 SUB PUSH0 DUP4 ADD MSTORE PUSH2 0x23C7 DUP2 PUSH2 0x238E JUMP JUMPDEST SWAP1 POP SWAP2 SWAP1 POP JUMP JUMPDEST PUSH32 0x446561646C696E65206973206F7665722E000000000000000000000000000000 PUSH0 DUP3 ADD MSTORE POP JUMP JUMPDEST PUSH0 PUSH2 0x2402 PUSH1 0x11 DUP4 PUSH2 0x2356 JUMP JUMPDEST SWAP2 POP PUSH2 0x240D DUP3 PUSH2 0x23CE JUMP JUMPDEST PUSH1 0x20 DUP3 ADD SWAP1 POP SWAP2 SWAP1 POP JUMP JUMPDEST PUSH0 PUSH1 0x20 DUP3 ADD SWAP1 POP DUP2 DUP2 SUB PUSH0 DUP4 ADD MSTORE PUSH2 0x242F DUP2 PUSH2 0x23F6 JUMP JUMPDEST SWAP1 POP SWAP2 SWAP1 POP JUMP JUMPDEST PUSH0 DUP2 SWAP1 POP SWAP2 SWAP1 POP JUMP JUMPDEST PUSH32 0x4E487B7100000000000000000000000000000000000000000000000000000000 PUSH0 MSTORE PUSH1 0x11 PUSH1 0x4 MSTORE PUSH1 0x24 PUSH0 REVERT JUMPDEST PUSH0 PUSH2 0x2476 DUP3 PUSH2 0x2436 JUMP JUMPDEST SWAP2 POP PUSH2 0x2481 DUP4 PUSH2 0x2436 JUMP JUMPDEST SWAP3 POP DUP3 DUP3 ADD SWAP1 POP DUP1 DUP3 GT ISZERO PUSH2 0x2499 JUMPI PUSH2 0x2498 PUSH2 0x243F JUMP JUMPDEST JUMPDEST SWAP3 SWAP2 POP POP JUMP JUMPDEST PUSH0 PUSH2 0x24A9 DUP3 PUSH2 0x2436 JUMP JUMPDEST SWAP2 POP PUSH32 0xFFFFFFFFFFFFFFFFFFFFFFFFFFFFFFFFFFFFFFFFFFFFFFFFFFFFFFFFFFFFFFFF DUP3 SUB PUSH2 0x24DB JUMPI PUSH2 0x24DA PUSH2 0x243F JUMP JUMPDEST JUMPDEST PUSH1 0x1 DUP3 ADD SWAP1 POP SWAP2 SWAP1 POP JUMP JUMPDEST PUSH32 0x455448207265636569766564207669612066616C6C6261636B00000000000000 PUSH0 DUP3 ADD MSTORE POP JUMP JUMPDEST PUSH0 PUSH2 0x251A PUSH1 0x19 DUP4 PUSH2 0x2356 JUMP JUMPDEST SWAP2 POP PUSH2 0x2525 DUP3 PUSH2 0x24E6 JUMP JUMPDEST PUSH1 0x20 DUP3 ADD SWAP1 POP SWAP2 SWAP1 POP JUMP JUMPDEST PUSH0 PUSH20 0xFFFFFFFFFFFFFFFFFFFFFFFFFFFFFFFFFFFFFFFF DUP3 AND SWAP1 POP SWAP2 SWAP1 POP JUMP JUMPDEST PUSH0 PUSH2 0x2559 DUP3 PUSH2 0x2530 JUMP JUMPDEST SWAP1 POP SWAP2 SWAP1 POP JUMP JUMPDEST PUSH2 0x2569 DUP2 PUSH2 0x254F JUMP JUMPDEST DUP3 MSTORE POP POP JUMP JUMPDEST PUSH2 0x2578 DUP2 PUSH2 0x2436 JUMP JUMPDEST DUP3 MSTORE POP POP JUMP JUMPDEST PUSH0 PUSH1 0x60 DUP3 ADD SWAP1 POP DUP2 DUP2 SUB PUSH0 DUP4 ADD MSTORE PUSH2 0x2595 DUP2 PUSH2 0x250E JUMP JUMPDEST SWAP1 POP PUSH2 0x25A4 PUSH1 0x20 DUP4 ADD DUP6 PUSH2 0x2560 JUMP JUMPDEST PUSH2 0x25B1 PUSH1 0x40 DUP4 ADD DUP5 PUSH2 0x256F JUMP JUMPDEST SWAP4 SWAP3 POP POP POP JUMP JUMPDEST PUSH0 DUP2 MLOAD SWAP1 POP SWAP2 SWAP1 POP JUMP JUMPDEST DUP3 DUP2 DUP4 MCOPY PUSH0 DUP4 DUP4 ADD MSTORE POP POP POP JUMP JUMPDEST PUSH0 PUSH1 0x1F NOT PUSH1 0x1F DUP4 ADD AND SWAP1 POP SWAP2 SWAP1 POP JUMP JUMPDEST PUSH0 PUSH2 0x25EA DUP3 PUSH2 0x25B8 JUMP JUMPDEST PUSH2 0x25F4 DUP2 DUP6 PUSH2 0x2356 JUMP JUMPDEST SWAP4 POP PUSH2 0x2604 DUP2 DUP6 PUSH1 0x20 DUP7 ADD PUSH2 0x25C2 JUMP JUMPDEST PUSH2 0x260D DUP2 PUSH2 0x25D0 JUMP JUMPDEST DUP5 ADD SWAP2 POP POP SWAP3 SWAP2 POP POP JUMP JUMPDEST PUSH0 PUSH1 0x20 DUP3 ADD SWAP1 POP DUP2 DUP2 SUB PUSH0 DUP4 ADD MSTORE PUSH2 0x2630 DUP2 DUP5 PUSH2 0x25E0 JUMP JUMPDEST SWAP1 POP SWAP3 SWAP2 POP POP JUMP JUMPDEST PUSH0 PUSH0 REVERT JUMPDEST PUSH2 0x2645 DUP2 PUSH2 0x2436 JUMP JUMPDEST DUP2 EQ PUSH2 0x264F JUMPI PUSH0 PUSH0 REVERT JUMPDEST POP JUMP JUMPDEST PUSH0 DUP2 CALLDATALOAD SWAP1 POP PUSH2 0x2660 DUP2 PUSH2 0x263C JUMP JUMPDEST SWAP3 SWAP2 POP POP JUMP JUMPDEST PUSH0 PUSH1 0x20 DUP3 DUP5 SUB SLT ISZERO PUSH2 0x267B JUMPI PUSH2 0x267A PUSH2 0x2638 JUMP JUMPDEST JUMPDEST PUSH0 PUSH2 0x2688 DUP5 DUP3 DUP6 ADD PUSH2 0x2652 JUMP JUMPDEST SWAP2 POP POP SWAP3 SWAP2 POP POP JUMP JUMPDEST PUSH0 PUSH1 0x20 DUP3 ADD SWAP1 POP PUSH2 0x26A4 PUSH0 DUP4 ADD DUP5 PUSH2 0x2560 JUMP JUMPDEST SWAP3 SWAP2 POP POP JUMP JUMPDEST PUSH1 0x6 DUP2 LT PUSH2 0x26BB JUMPI PUSH2 0x26BA PUSH2 0x2329 JUMP JUMPDEST JUMPDEST POP JUMP JUMPDEST PUSH0 DUP2 SWAP1 POP PUSH2 0x26CB DUP3 PUSH2 0x26AA JUMP JUMPDEST SWAP2 SWAP1 POP JUMP JUMPDEST PUSH0 PUSH2 0x26DA DUP3 PUSH2 0x26BE JUMP JUMPDEST SWAP1 POP SWAP2 SWAP1 POP JUMP JUMPDEST PUSH2 0x26EA DUP2 PUSH2 0x26D0 JUMP JUMPDEST DUP3 MSTORE POP POP JUMP JUMPDEST PUSH0 PUSH1 0x20 DUP3 ADD SWAP1 POP PUSH2 0x2703 PUSH0 DUP4 ADD DUP5 PUSH2 0x26E1 JUMP JUMPDEST SWAP3 SWAP2 POP POP JUMP JUMPDEST PUSH0 PUSH1 0x20 DUP3 ADD SWAP1 POP PUSH2 0x271C PUSH0 DUP4 ADD DUP5 PUSH2 0x256F JUMP JUMPDEST SWAP3 SWAP2 POP POP JUMP JUMPDEST PUSH2 0x272B DUP2 PUSH2 0x254F JUMP JUMPDEST DUP2 EQ PUSH2 0x2735 JUMPI PUSH0 PUSH0 REVERT JUMPDEST POP JUMP JUMPDEST PUSH0 DUP2 CALLDATALOAD SWAP1 POP PUSH2 0x2746 DUP2 PUSH2 0x2722 JUMP JUMPDEST SWAP3 SWAP2 POP POP JUMP JUMPDEST PUSH0 PUSH1 0x20 DUP3 DUP5 SUB SLT ISZERO PUSH2 0x2761 JUMPI PUSH2 0x2760 PUSH2 0x2638 JUMP JUMPDEST JUMPDEST PUSH0 PUSH2 0x276E DUP5 DUP3 DUP6 ADD PUSH2 0x2738 JUMP JUMPDEST SWAP2 POP POP SWAP3 SWAP2 POP POP JUMP JUMPDEST PUSH0 PUSH1 0x40 DUP3 ADD SWAP1 POP PUSH2 0x278A PUSH0 DUP4 ADD DUP6 PUSH2 0x256F JUMP JUMPDEST PUSH2 0x2797 PUSH1 0x20 DUP4 ADD DUP5 PUSH2 0x256F JUMP JUMPDEST SWAP4 SWAP3 POP POP POP JUMP JUMPDEST PUSH32 0x4E487B7100000000000000000000000000000000000000000000000000000000 PUSH0 MSTORE PUSH1 0x22 PUSH1 0x4 MSTORE PUSH1 0x24 PUSH0 REVERT JUMPDEST PUSH0 PUSH1 0x2 DUP3 DIV SWAP1 POP PUSH1 0x1 DUP3 AND DUP1 PUSH2 0x27E2 JUMPI PUSH1 0x7F DUP3 AND SWAP2 POP JUMPDEST PUSH1 0x20 DUP3 LT DUP2 SUB PUSH2 0x27F5 JUMPI PUSH2 0x27F4 PUSH2 0x279E JUMP JUMPDEST JUMPDEST POP SWAP2 SWAP1 POP JUMP JUMPDEST PUSH32 0x496E76616C696420616D6F756E742E204D75737420626520706F736974697665 PUSH0 DUP3 ADD MSTORE PUSH32 0x2E00000000000000000000000000000000000000000000000000000000000000 PUSH1 0x20 DUP3 ADD MSTORE POP JUMP JUMPDEST PUSH0 PUSH2 0x2855 PUSH1 0x21 DUP4 PUSH2 0x2356 JUMP JUMPDEST SWAP2 POP PUSH2 0x2860 DUP3 PUSH2 0x27FB JUMP JUMPDEST PUSH1 0x40 DUP3 ADD SWAP1 POP SWAP2 SWAP1 POP JUMP JUMPDEST PUSH0 PUSH1 0x20 DUP3 ADD SWAP1 POP DUP2 DUP2 SUB PUSH0 DUP4 ADD MSTORE PUSH2 0x2882 DUP2 PUSH2 0x2849 JUMP JUMPDEST SWAP1 POP SWAP2 SWAP1 POP JUMP JUMPDEST PUSH32 0x4D6178696D756D206465706F736974206973206C6F7765722E00000000000000 PUSH0 DUP3 ADD MSTORE POP JUMP JUMPDEST PUSH0 PUSH2 0x28BD PUSH1 0x19 DUP4 PUSH2 0x2356 JUMP JUMPDEST SWAP2 POP PUSH2 0x28C8 DUP3 PUSH2 0x2889 JUMP JUMPDEST PUSH1 0x20 DUP3 ADD SWAP1 POP SWAP2 SWAP1 POP JUMP JUMPDEST PUSH0 PUSH1 0x20 DUP3 ADD SWAP1 POP DUP2 DUP2 SUB PUSH0 DUP4 ADD MSTORE PUSH2 0x28EA DUP2 PUSH2 0x28B1 JUMP JUMPDEST SWAP1 POP SWAP2 SWAP1 POP JUMP JUMPDEST PUSH32 0x496E76616C696420616464726573730000000000000000000000000000000000 PUSH0 DUP3 ADD MSTORE POP JUMP JUMPDEST PUSH0 PUSH2 0x2925 PUSH1 0xF DUP4 PUSH2 0x2356 JUMP JUMPDEST SWAP2 POP PUSH2 0x2930 DUP3 PUSH2 0x28F1 JUMP JUMPDEST PUSH1 0x20 DUP3 ADD SWAP1 POP SWAP2 SWAP1 POP JUMP JUMPDEST PUSH0 PUSH1 0x20 DUP3 ADD SWAP1 POP DUP2 DUP2 SUB PUSH0 DUP4 ADD MSTORE PUSH2 0x2952 DUP2 PUSH2 0x2919 JUMP JUMPDEST SWAP1 POP SWAP2 SWAP1 POP JUMP JUMPDEST PUSH32 0x4465706F73697420697320646F6E650000000000000000000000000000000000 PUSH0 DUP3 ADD MSTORE POP JUMP JUMPDEST PUSH0 PUSH2 0x298D PUSH1 0xF DUP4 PUSH2 0x2356 JUMP JUMPDEST SWAP2 POP PUSH2 0x2998 DUP3 PUSH2 0x2959 JUMP JUMPDEST PUSH1 0x20 DUP3 ADD SWAP1 POP SWAP2 SWAP1 POP JUMP JUMPDEST PUSH0 PUSH1 0x60 DUP3 ADD SWAP1 POP DUP2 DUP2 SUB PUSH0 DUP4 ADD MSTORE PUSH2 0x29BA DUP2 PUSH2 0x2981 JUMP JUMPDEST SWAP1 POP PUSH2 0x29C9 PUSH1 0x20 DUP4 ADD DUP6 PUSH2 0x2560 JUMP JUMPDEST PUSH2 0x29D6 PUSH1 0x40 DUP4 ADD DUP5 PUSH2 0x256F JUMP JUMPDEST SWAP4 SWAP3 POP POP POP JUMP JUMPDEST PUSH32 0x4D757374206265206F776E65722E000000000000000000000000000000000000 PUSH0 DUP3 ADD MSTORE POP JUMP JUMPDEST PUSH0 PUSH2 0x2A11 PUSH1 0xE DUP4 PUSH2 0x2356 JUMP JUMPDEST SWAP2 POP PUSH2 0x2A1C DUP3 PUSH2 0x29DD JUMP JUMPDEST PUSH1 0x20 DUP3 ADD SWAP1 POP SWAP2 SWAP1 POP JUMP JUMPDEST PUSH0 PUSH1 0x20 DUP3 ADD SWAP1 POP DUP2 DUP2 SUB PUSH0 DUP4 ADD MSTORE PUSH2 0x2A3E DUP2 PUSH2 0x2A05 JUMP JUMPDEST SWAP1 POP SWAP2 SWAP1 POP JUMP JUMPDEST PUSH32 0x5265656E7472616E637920646574656374656400000000000000000000000000 PUSH0 DUP3 ADD MSTORE POP JUMP JUMPDEST PUSH0 PUSH2 0x2A79 PUSH1 0x13 DUP4 PUSH2 0x2356 JUMP JUMPDEST SWAP2 POP PUSH2 0x2A84 DUP3 PUSH2 0x2A45 JUMP JUMPDEST PUSH1 0x20 DUP3 ADD SWAP1 POP SWAP2 SWAP1 POP JUMP JUMPDEST PUSH0 PUSH1 0x20 DUP3 ADD SWAP1 POP DUP2 DUP2 SUB PUSH0 DUP4 ADD MSTORE PUSH2 0x2AA6 DUP2 PUSH2 0x2A6D JUMP JUMPDEST SWAP1 POP SWAP2 SWAP1 POP JUMP JUMPDEST PUSH32 0x47616D65206973206E6F74207465726D696E6174656400000000000000000000 PUSH0 DUP3 ADD MSTORE POP JUMP JUMPDEST PUSH0 PUSH2 0x2AE1 PUSH1 0x16 DUP4 PUSH2 0x2356 JUMP JUMPDEST SWAP2 POP PUSH2 0x2AEC DUP3 PUSH2 0x2AAD JUMP JUMPDEST PUSH1 0x20 DUP3 ADD SWAP1 POP SWAP2 SWAP1 POP JUMP JUMPDEST PUSH0 PUSH1 0x20 DUP3 ADD SWAP1 POP DUP2 DUP2 SUB PUSH0 DUP4 ADD MSTORE PUSH2 0x2B0E DUP2 PUSH2 0x2AD5 JUMP JUMPDEST SWAP1 POP SWAP2 SWAP1 POP JUMP JUMPDEST PUSH32 0x546F206D616E79207061727469636970616E74732E20506C6561736520757365 PUSH0 DUP3 ADD MSTORE PUSH32 0x20726566756E6400000000000000000000000000000000000000000000000000 PUSH1 0x20 DUP3 ADD MSTORE POP JUMP JUMPDEST PUSH0 PUSH2 0x2B6F PUSH1 0x27 DUP4 PUSH2 0x2356 JUMP JUMPDEST SWAP2 POP PUSH2 0x2B7A DUP3 PUSH2 0x2B15 JUMP JUMPDEST PUSH1 0x40 DUP3 ADD SWAP1 POP SWAP2 SWAP1 POP JUMP JUMPDEST PUSH0 PUSH1 0x20 DUP3 ADD SWAP1 POP DUP2 DUP2 SUB PUSH0 DUP4 ADD MSTORE PUSH2 0x2B9C DUP2 PUSH2 0x2B63 JUMP JUMPDEST SWAP1 POP SWAP2 SWAP1 POP JUMP JUMPDEST PUSH32 0x4E487B7100000000000000000000000000000000000000000000000000000000 PUSH0 MSTORE PUSH1 0x32 PUSH1 0x4 MSTORE PUSH1 0x24 PUSH0 REVERT JUMPDEST PUSH0 DUP2 SWAP1 POP SWAP3 SWAP2 POP POP JUMP JUMPDEST POP JUMP JUMPDEST PUSH0 PUSH2 0x2BE8 PUSH0 DUP4 PUSH2 0x2BD0 JUMP JUMPDEST SWAP2 POP PUSH2 0x2BF3 DUP3 PUSH2 0x2BDA JUMP JUMPDEST PUSH0 DUP3 ADD SWAP1 POP SWAP2 SWAP1 POP JUMP JUMPDEST PUSH0 PUSH2 0x2C07 DUP3 PUSH2 0x2BDD JUMP JUMPDEST SWAP2 POP DUP2 SWAP1 POP SWAP2 SWAP1 POP JUMP JUMPDEST PUSH32 0x47616D65206973207061757365642E0000000000000000000000000000000000 PUSH0 DUP3 ADD MSTORE POP JUMP JUMPDEST PUSH0 PUSH2 0x2C45 PUSH1 0xF DUP4 PUSH2 0x2356 JUMP JUMPDEST SWAP2 POP PUSH2 0x2C50 DUP3 PUSH2 0x2C11 JUMP JUMPDEST PUSH1 0x20 DUP3 ADD SWAP1 POP SWAP2 SWAP1 POP JUMP JUMPDEST PUSH0 PUSH1 0x40 DUP3 ADD SWAP1 POP DUP2 DUP2 SUB PUSH0 DUP4 ADD MSTORE PUSH2 0x2C72 DUP2 PUSH2 0x2C39 JUMP JUMPDEST SWAP1 POP PUSH2 0x2C81 PUSH1 0x20 DUP4 ADD DUP5 PUSH2 0x256F JUMP JUMPDEST SWAP3 SWAP2 POP POP JUMP JUMPDEST PUSH32 0x596F7572206465706F73697420697320302E2053686F756C6420626520706F73 PUSH0 DUP3 ADD MSTORE PUSH32 0x697469766520746F2077697468647261772E0000000000000000000000000000 PUSH1 0x20 DUP3 ADD MSTORE POP JUMP JUMPDEST PUSH0 PUSH2 0x2CE1 PUSH1 0x32 DUP4 PUSH2 0x2356 JUMP JUMPDEST SWAP2 POP PUSH2 0x2CEC DUP3 PUSH2 0x2C87 JUMP JUMPDEST PUSH1 0x40 DUP3 ADD SWAP1 POP SWAP2 SWAP1 POP JUMP JUMPDEST PUSH0 PUSH1 0x20 DUP3 ADD SWAP1 POP DUP2 DUP2 SUB PUSH0 DUP4 ADD MSTORE PUSH2 0x2D0E DUP2 PUSH2 0x2CD5 JUMP JUMPDEST SWAP1 POP SWAP2 SWAP1 POP JUMP JUMPDEST PUSH32 0x5472616E73666572206661696C65640000000000000000000000000000000000 PUSH0 DUP3 ADD MSTORE POP JUMP JUMPDEST PUSH0 PUSH2 0x2D49 PUSH1 0xF DUP4 PUSH2 0x2356 JUMP JUMPDEST SWAP2 POP PUSH2 0x2D54 DUP3 PUSH2 0x2D15 JUMP JUMPDEST PUSH1 0x20 DUP3 ADD SWAP1 POP SWAP2 SWAP1 POP JUMP JUMPDEST PUSH0 PUSH1 0x20 DUP3 ADD SWAP1 POP DUP2 DUP2 SUB PUSH0 DUP4 ADD MSTORE PUSH2 0x2D76 DUP2 PUSH2 0x2D3D JUMP JUMPDEST SWAP1 POP SWAP2 SWAP1 POP JUMP JUMPDEST PUSH32 0x4D79206465706F73697420697320776974686472617765640000000000000000 PUSH0 DUP3 ADD MSTORE POP JUMP JUMPDEST PUSH0 PUSH2 0x2DB1 PUSH1 0x18 DUP4 PUSH2 0x2356 JUMP JUMPDEST SWAP2 POP PUSH2 0x2DBC DUP3 PUSH2 0x2D7D JUMP JUMPDEST PUSH1 0x20 DUP3 ADD SWAP1 POP SWAP2 SWAP1 POP JUMP JUMPDEST PUSH0 PUSH1 0x80 DUP3 ADD SWAP1 POP DUP2 DUP2 SUB PUSH0 DUP4 ADD MSTORE PUSH2 0x2DDE DUP2 PUSH2 0x2DA5 JUMP JUMPDEST SWAP1 POP PUSH2 0x2DED PUSH1 0x20 DUP4 ADD DUP7 PUSH2 0x2560 JUMP JUMPDEST PUSH2 0x2DFA PUSH1 0x40 DUP4 ADD DUP6 PUSH2 0x256F JUMP JUMPDEST PUSH2 0x2E07 PUSH1 0x60 DUP4 ADD DUP5 PUSH2 0x256F JUMP JUMPDEST SWAP5 SWAP4 POP POP POP POP JUMP JUMPDEST PUSH32 0x47616D65206973207465726D696E617465640000000000000000000000000000 PUSH0 DUP3 ADD MSTORE POP JUMP JUMPDEST PUSH0 PUSH2 0x2E43 PUSH1 0x12 DUP4 PUSH2 0x2356 JUMP JUMPDEST SWAP2 POP PUSH2 0x2E4E DUP3 PUSH2 0x2E0F JUMP JUMPDEST PUSH1 0x20 DUP3 ADD SWAP1 POP SWAP2 SWAP1 POP JUMP JUMPDEST PUSH0 PUSH1 0x40 DUP3 ADD SWAP1 POP DUP2 DUP2 SUB PUSH0 DUP4 ADD MSTORE PUSH2 0x2E70 DUP2 PUSH2 0x2E37 JUMP JUMPDEST SWAP1 POP PUSH2 0x2E7F PUSH1 0x20 DUP4 ADD DUP5 PUSH2 0x256F JUMP JUMPDEST SWAP3 SWAP2 POP POP JUMP JUMPDEST PUSH32 0x4F776E657220686173206368616E6765642E0000000000000000000000000000 PUSH0 DUP3 ADD MSTORE POP JUMP JUMPDEST PUSH0 PUSH2 0x2EB9 PUSH1 0x12 DUP4 PUSH2 0x2356 JUMP JUMPDEST SWAP2 POP PUSH2 0x2EC4 DUP3 PUSH2 0x2E85 JUMP JUMPDEST PUSH1 0x20 DUP3 ADD SWAP1 POP SWAP2 SWAP1 POP JUMP JUMPDEST PUSH0 PUSH1 0x80 DUP3 ADD SWAP1 POP DUP2 DUP2 SUB PUSH0 DUP4 ADD MSTORE PUSH2 0x2EE6 DUP2 PUSH2 0x2EAD JUMP JUMPDEST SWAP1 POP PUSH2 0x2EF5 PUSH1 0x20 DUP4 ADD DUP7 PUSH2 0x2560 JUMP JUMPDEST PUSH2 0x2F02 PUSH1 0x40 DUP4 ADD DUP6 PUSH2 0x2560 JUMP JUMPDEST PUSH2 0x2F0F PUSH1 0x60 DUP4 ADD DUP5 PUSH2 0x256F JUMP JUMPDEST SWAP5 SWAP4 POP POP POP POP JUMP JUMPDEST PUSH32 0x47616D6520697320616374697665206F72207061757365642E00000000000000 PUSH0 DUP3 ADD MSTORE POP JUMP JUMPDEST PUSH0 PUSH2 0x2F4B PUSH1 0x19 DUP4 PUSH2 0x2356 JUMP JUMPDEST SWAP2 POP PUSH2 0x2F56 DUP3 PUSH2 0x2F17 JUMP JUMPDEST PUSH1 0x20 DUP3 ADD SWAP1 POP SWAP2 SWAP1 POP JUMP JUMPDEST PUSH0 PUSH1 0x20 DUP3 ADD SWAP1 POP DUP2 DUP2 SUB PUSH0 DUP4 ADD MSTORE PUSH2 0x2F78 DUP2 PUSH2 0x2F3F JUMP JUMPDEST SWAP1 POP SWAP2 SWAP1 POP JUMP JUMPDEST PUSH32 0x436F6E74726163742062616C616E63652073686F756C6420626520656D707479 PUSH0 DUP3 ADD MSTORE POP JUMP JUMPDEST PUSH0 PUSH2 0x2FB3 PUSH1 0x20 DUP4 PUSH2 0x2356 JUMP JUMPDEST SWAP2 POP PUSH2 0x2FBE DUP3 PUSH2 0x2F7F JUMP JUMPDEST PUSH1 0x20 DUP3 ADD SWAP1 POP SWAP2 SWAP1 POP JUMP JUMPDEST PUSH0 PUSH1 0x20 DUP3 ADD SWAP1 POP DUP2 DUP2 SUB PUSH0 DUP4 ADD MSTORE PUSH2 0x2FE0 DUP2 PUSH2 0x2FA7 JUMP JUMPDEST SWAP1 POP SWAP2 SWAP1 POP JUMP JUMPDEST PUSH32 0x47616D6520686173207374617274656421000000000000000000000000000000 PUSH0 DUP3 ADD MSTORE POP JUMP JUMPDEST PUSH0 PUSH2 0x301B PUSH1 0x11 DUP4 PUSH2 0x2356 JUMP JUMPDEST SWAP2 POP PUSH2 0x3026 DUP3 PUSH2 0x2FE7 JUMP JUMPDEST PUSH1 0x20 DUP3 ADD SWAP1 POP SWAP2 SWAP1 POP JUMP JUMPDEST PUSH0 PUSH1 0x60 DUP3 ADD SWAP1 POP DUP2 DUP2 SUB PUSH0 DUP4 ADD MSTORE PUSH2 0x3048 DUP2 PUSH2 0x300F JUMP JUMPDEST SWAP1 POP PUSH2 0x3057 PUSH1 0x20 DUP4 ADD DUP6 PUSH2 0x256F JUMP JUMPDEST PUSH2 0x3064 PUSH1 0x40 DUP4 ADD DUP5 PUSH2 0x256F JUMP JUMPDEST SWAP4 SWAP3 POP POP POP JUMP JUMPDEST PUSH32 0x47616D65206973206E6F74207061757365642E00000000000000000000000000 PUSH0 DUP3 ADD MSTORE POP JUMP JUMPDEST PUSH0 PUSH2 0x309F PUSH1 0x13 DUP4 PUSH2 0x2356 JUMP JUMPDEST SWAP2 POP PUSH2 0x30AA DUP3 PUSH2 0x306B JUMP JUMPDEST PUSH1 0x20 DUP3 ADD SWAP1 POP SWAP2 SWAP1 POP JUMP JUMPDEST PUSH0 PUSH1 0x20 DUP3 ADD SWAP1 POP DUP2 DUP2 SUB PUSH0 DUP4 ADD MSTORE PUSH2 0x30CC DUP2 PUSH2 0x3093 JUMP JUMPDEST SWAP1 POP SWAP2 SWAP1 POP JUMP JUMPDEST PUSH32 0x47616D6520697320756E70617573656400000000000000000000000000000000 PUSH0 DUP3 ADD MSTORE POP JUMP JUMPDEST PUSH0 PUSH2 0x3107 PUSH1 0x10 DUP4 PUSH2 0x2356 JUMP JUMPDEST SWAP2 POP PUSH2 0x3112 DUP3 PUSH2 0x30D3 JUMP JUMPDEST PUSH1 0x20 DUP3 ADD SWAP1 POP SWAP2 SWAP1 POP JUMP JUMPDEST PUSH0 PUSH1 0x40 DUP3 ADD SWAP1 POP DUP2 DUP2 SUB PUSH0 DUP4 ADD MSTORE PUSH2 0x3134 DUP2 PUSH2 0x30FB JUMP JUMPDEST SWAP1 POP PUSH2 0x3143 PUSH1 0x20 DUP4 ADD DUP5 PUSH2 0x256F JUMP JUMPDEST SWAP3 SWAP2 POP POP JUMP JUMPDEST PUSH32 0x47616D652068617320656E646564000000000000000000000000000000000000 PUSH0 DUP3 ADD MSTORE POP JUMP JUMPDEST PUSH0 PUSH2 0x317D PUSH1 0xE DUP4 PUSH2 0x2356 JUMP JUMPDEST SWAP2 POP PUSH2 0x3188 DUP3 PUSH2 0x3149 JUMP JUMPDEST PUSH1 0x20 DUP3 ADD SWAP1 POP SWAP2 SWAP1 POP JUMP JUMPDEST PUSH0 PUSH1 0x80 DUP3 ADD SWAP1 POP DUP2 DUP2 SUB PUSH0 DUP4 ADD MSTORE PUSH2 0x31AA DUP2 PUSH2 0x3171 JUMP JUMPDEST SWAP1 POP PUSH2 0x31B9 PUSH1 0x20 DUP4 ADD DUP7 PUSH2 0x256F JUMP JUMPDEST PUSH2 0x31C6 PUSH1 0x40 DUP4 ADD DUP6 PUSH2 0x256F JUMP JUMPDEST PUSH2 0x31D3 PUSH1 0x60 DUP4 ADD DUP5 PUSH2 0x256F JUMP JUMPDEST SWAP5 SWAP4 POP POP POP POP JUMP JUMPDEST PUSH0 PUSH2 0x31E5 DUP3 PUSH2 0x2436 JUMP JUMPDEST SWAP2 POP PUSH2 0x31F0 DUP4 PUSH2 0x2436 JUMP JUMPDEST SWAP3 POP DUP3 DUP3 MUL PUSH2 0x31FE DUP2 PUSH2 0x2436 JUMP JUMPDEST SWAP2 POP DUP3 DUP3 DIV DUP5 EQ DUP4 ISZERO OR PUSH2 0x3215 JUMPI PUSH2 0x3214 PUSH2 0x243F JUMP JUMPDEST JUMPDEST POP SWAP3 SWAP2 POP POP JUMP JUMPDEST PUSH32 0x4E487B7100000000000000000000000000000000000000000000000000000000 PUSH0 MSTORE PUSH1 0x12 PUSH1 0x4 MSTORE PUSH1 0x24 PUSH0 REVERT JUMPDEST PUSH0 PUSH2 0x3253 DUP3 PUSH2 0x2436 JUMP JUMPDEST SWAP2 POP PUSH2 0x325E DUP4 PUSH2 0x2436 JUMP JUMPDEST SWAP3 POP DUP3 PUSH2 0x326E JUMPI PUSH2 0x326D PUSH2 0x321C JUMP JUMPDEST JUMPDEST DUP3 DUP3 DIV SWAP1 POP SWAP3 SWAP2 POP POP JUMP JUMPDEST PUSH0 PUSH2 0x3283 DUP3 PUSH2 0x2436 JUMP JUMPDEST SWAP2 POP PUSH2 0x328E DUP4 PUSH2 0x2436 JUMP JUMPDEST SWAP3 POP DUP3 DUP3 SUB SWAP1 POP DUP2 DUP2 GT ISZERO PUSH2 0x32A6 JUMPI PUSH2 0x32A5 PUSH2 0x243F JUMP JUMPDEST JUMPDEST SWAP3 SWAP2 POP POP JUMP JUMPDEST PUSH32 0x47616D65206861732066696E6973686564210000000000000000000000000000 PUSH0 DUP3 ADD MSTORE POP JUMP JUMPDEST PUSH0 PUSH2 0x32E0 PUSH1 0x12 DUP4 PUSH2 0x2356 JUMP JUMPDEST SWAP2 POP PUSH2 0x32EB DUP3 PUSH2 0x32AC JUMP JUMPDEST PUSH1 0x20 DUP3 ADD SWAP1 POP SWAP2 SWAP1 POP JUMP JUMPDEST PUSH0 PUSH1 0x80 DUP3 ADD SWAP1 POP DUP2 DUP2 SUB PUSH0 DUP4 ADD MSTORE PUSH2 0x330D DUP2 PUSH2 0x32D4 JUMP JUMPDEST SWAP1 POP PUSH2 0x331C PUSH1 0x20 DUP4 ADD DUP7 PUSH2 0x256F JUMP JUMPDEST PUSH2 0x3329 PUSH1 0x40 DUP4 ADD DUP6 PUSH2 0x256F JUMP JUMPDEST PUSH2 0x3336 PUSH1 0x60 DUP4 ADD DUP5 PUSH2 0x256F JUMP JUMPDEST SWAP5 SWAP4 POP POP POP POP JUMP INVALID LOG2 PUSH5 0x6970667358 0x22 SLT KECCAK256 PUSH22 0xB01E7D97F0A854F1A22C6119991E7A7F10CDC9A4CFDA RJUMPI 0x5231 0xDA SDIV SWAP12 PUSH21 0xE4B664736F6C634300081E0033A264697066735822 SLT KECCAK256 0xEB 0xC0 SWAP16 0xF6 0x2F 0xA5 PUSH9 0xBF8DC18CF7DD85EB6A 0x2C BASEFEE 0xF MOD PUSH28 0x97DDEE44AB1EBA858EBF4064736F6C634300081E0033000000000000 "
		},
		"gasEstimates": {
			"creation": {
				"codeDepositCost": "3900800",
				"executionCost": "4435",
				"totalCost": "3905235"
			},
			"external": {
				"checkIfOwner(address,address)": "infinite",
				"createGame(string,string,uint256,uint256,uint256)": "infinite",
				"gameToOwner(address)": "infinite",
				"games(uint256)": "4944",
				"getAllGames()": "infinite",
				"getAllGamesOfOwner(address)": "infinite",
				"getGamesCount()": "2462",
				"ownerToGame(address,uint256)": "infinite"
			}
		},
		"methodIdentifiers": {
			"checkIfOwner(address,address)": "ee9ada29",
			"createGame(string,string,uint256,uint256,uint256)": "3801729f",
			"gameToOwner(address)": "800476ae",
			"games(uint256)": "117a5b90",
			"getAllGames()": "db1c45f9",
			"getAllGamesOfOwner(address)": "b847bd8e",
			"getGamesCount()": "17b7a476",
			"ownerToGame(address,uint256)": "64afadb6"
		}
	},
	"abi": [
		{
			"anonymous": false,
			"inputs": [
				{
					"indexed": false,
					"internalType": "string",
					"name": "_message",
					"type": "string"
				},
				{
					"indexed": false,
					"internalType": "address",
					"name": "_gameAddress",
					"type": "address"
				},
				{
					"indexed": false,
					"internalType": "address",
					"name": "_owner",
					"type": "address"
				},
				{
					"indexed": false,
					"internalType": "uint256",
					"name": "_creationTime",
					"type": "uint256"
				}
			],
			"name": "NewGameCreated",
			"type": "event"
		},
		{
			"inputs": [
				{
					"internalType": "address",
					"name": "_gameAddress",
					"type": "address"
				},
				{
					"internalType": "address",
					"name": "_owner",
					"type": "address"
				}
			],
			"name": "checkIfOwner",
			"outputs": [
				{
					"internalType": "bool",
					"name": "",
					"type": "bool"
				}
			],
			"stateMutability": "view",
			"type": "function"
		},
		{
			"inputs": [
				{
					"internalType": "string",
					"name": "_name",
					"type": "string"
				},
				{
					"internalType": "string",
					"name": "_description",
					"type": "string"
				},
				{
					"internalType": "uint256",
					"name": "_durationInDays",
					"type": "uint256"
				},
				{
					"internalType": "uint256",
					"name": "_ownerPercent",
					"type": "uint256"
				},
				{
					"internalType": "uint256",
					"name": "_depositLimit",
					"type": "uint256"
				}
			],
			"name": "createGame",
			"outputs": [
				{
					"internalType": "address",
					"name": "",
					"type": "address"
				}
			],
			"stateMutability": "nonpayable",
			"type": "function"
		},
		{
			"inputs": [
				{
					"internalType": "address",
					"name": "",
					"type": "address"
				}
			],
			"name": "gameToOwner",
			"outputs": [
				{
					"internalType": "address",
					"name": "",
					"type": "address"
				}
			],
			"stateMutability": "view",
			"type": "function"
		},
		{
			"inputs": [
				{
					"internalType": "uint256",
					"name": "",
					"type": "uint256"
				}
			],
			"name": "games",
			"outputs": [
				{
					"internalType": "address",
					"name": "",
					"type": "address"
				}
			],
			"stateMutability": "view",
			"type": "function"
		},
		{
			"inputs": [],
			"name": "getAllGames",
			"outputs": [
				{
					"internalType": "address[]",
					"name": "",
					"type": "address[]"
				}
			],
			"stateMutability": "view",
			"type": "function"
		},
		{
			"inputs": [
				{
					"internalType": "address",
					"name": "_owner",
					"type": "address"
				}
			],
			"name": "getAllGamesOfOwner",
			"outputs": [
				{
					"internalType": "address[]",
					"name": "",
					"type": "address[]"
				}
			],
			"stateMutability": "view",
			"type": "function"
		},
		{
			"inputs": [],
			"name": "getGamesCount",
			"outputs": [
				{
					"internalType": "uint256",
					"name": "",
					"type": "uint256"
				}
			],
			"stateMutability": "view",
			"type": "function"
		},
		{
			"inputs": [
				{
					"internalType": "address",
					"name": "",
					"type": "address"
				},
				{
					"internalType": "uint256",
					"name": "",
					"type": "uint256"
				}
			],
			"name": "ownerToGame",
			"outputs": [
				{
					"internalType": "address",
					"name": "",
					"type": "address"
				}
			],
			"stateMutability": "view",
			"type": "function"
		}
	]
}